:020000040800F2
:1000000088050020ED010008D52C0008B52A00085D
:10001000D12C000859090008B53200080000000082
:10002000000000000000000000000000DD2C0008BF
:100030006909000800000000D92C0008E12C000824
:10004000070200080702000807020008070200086C
:10005000070200080702000807020008070200085C
:100060000702000807020008070200085D090008EF
:10007000070200080702000807020008070200083C
:10008000070200080702000807020008070200082C
:10009000070200080702000807020008070200081C
:1000A000070200080702000807020008070200080C
:1000B00007020008070200080702000807020008FC
:1000C00007020008070200080702000807020008EC
:1000D00007020008070200080702000807020008DC
:1000E00007020008070200080702000807020008CC
:1000F00007020008070200080702000807020008BC
:1001000007020008070200080702000807020008AB
:10011000070200080702000807020008070200089B
:10012000070200080702000807020008070200088B
:10013000070200080702000807020008070200087B
:10014000070200080702000807020008070200086B
:10015000070200080702000807020008070200085B
:10016000070200080702000807020008070200084B
:10017000070200080702000807020008070200083B
:10018000070200080702000807020008070200082B
:10019000070200080000000007020008070200082C
:1001A000070200080702000807020008070200080B
:1001B00007020008070200080702000807020008FB
:1001C00007020008070200080702000807020008EB
:1001D0000702000807020008DFF80CD000F018FB47
:1001E00000480047D93200088805002006488047AB
:1001F00006480047FEE7FEE7FEE7FEE7FEE7FEE70C
:10020000FEE7FEE7FEE7FEE7E52C0008D90100085F
:100210002DE9F05F0546002092469B46884606463B
:10022000814640241BE0284641464746224600F0CE
:1002300005F953465A46C01A914110D31146184643
:10024000224600F0ECF82D1A67EB01084F462246D3
:100250000120002100F0E3F817EB00094E41201EB9
:10026000A4F10104DFDC484631462A464346BDE896
:10027000F09FD2B201E000F8012B491EFBD270477B
:100280000022F6E710B513460A4604461946FFF762
:10029000F0FF204610BD2DE9FE4F81EA030404F073
:1002A000004421F0004100944FF0000B23F0004384
:1002B00050EA01045ED052EA03045BD0C3F30A544F
:1002C000C1F30A552C44A4F2F3340194A0FB025468
:1002D000C1F3130141F48011C3F3130343F48013FA
:1002E00001FB024400FB034E840A970A44EA81544E
:1002F00047EA8357A4FB076802958D0A05FB07852B
:100300004FEA932C04FB0C542705029D4FEA065834
:1003100047EA1637B5EB08056EEB070C870E920E11
:1003200047EA811742EA8312A7FB0201B6EB0B01F1
:1003300064EB00042B0D43EA0C335E1844EB1C50B5
:10034000DA465146E7FB0201C5F313044FEA0B33CB
:1003500043EA14534FEA0432019C43EA0603A4F132
:100360000C040294009CCDE900B400F0BDF803B089
:10037000BDE8F08F00200146F9E70EB540F23341A9
:1003800002910021CDE900110A460B4600F0ACF8BD
:1003900003B000BD00F0004230F000400AD0C10DB3
:1003A00001F56071C0F3160042EA0151C20840072E
:1003B0001143704700200146704701F0004330B4FC
:1003C00021F0004150EA010206D00A0DA2F5607248
:1003D000C1F31301002A02DC30BC00207047440F37
:1003E00044EAC104C100E01830BC00EBC25000F088
:1003F00035B830B50B46014600202022012409E023
:1004000021FA02F59D4205D303FA02F5491B04FACD
:1004100002F52844151EA2F10102F1DC30BD202AAC
:1004200004DB203A00FA02F1002070479140C2F14B
:10043000200320FA03F3194390407047202A04DB7D
:10044000203A21FA02F00021704721FA02F3D0404D
:10045000C2F1200291400843194670470029A8BF05
:100460007047401C490008BF20F00100704710B4DD
:10047000B0FA80FC00FA0CF050EA010404BF10BC92
:10048000704749B1CCF1200421FA04F411FA0CF1BF
:1004900018BF012121430843A3EB0C01CB1D4FEAF8
:1004A00000614FEA102042BF002010BC704700EBF3
:1004B000C35010440029A4BF10BC7047401C490021
:1004C00008BF20F0010010BC704710B5141E73F176
:1004D000000408DA401C41F1000192185B411A4304
:1004E00001D120F0010010BD2DE9F04D92469B4650
:1004F00011B1B1FA81F202E0B0FA80F220329046F6
:10050000FFF78DFF04460F4640EA0A0041EA0B015F
:1005100053465A46084313D0114653EA010019D0F6
:10052000C8F140025046FFF789FF05460E46504687
:1005300059464246FFF773FF084305D0012004E007
:1005400020463946BDE8F08D0020054346EAE076B6
:100550002C4337430A986305E40AA0EB0800002205
:10056000FD0A44EA47540A3002D500200146E9E773
:10057000010510196941DDE9084500196941BDE827
:10058000F04DA2E72DE9FE4F804681EA0300C00F3F
:100590000C46009021F0004123F00045B8EB02002A
:1005A000A94105D24046214690461C460B460246CC
:1005B00023F00040104347D0270DC7F30A00C3F3D0
:1005C0000A510290401A019040286BDAC3F31300DD
:1005D00040F4801B0098924620B10023D2EB030A1E
:1005E00063EB0B0B01985946C0F140025046FFF7F0
:1005F00016FF06460D4650465946019A00F01AF974
:1006000010EB08006141002487EA115284EAE77385
:100610001A4340D0009A62B3019A012A4FEA075266
:1006200015DC001B61EB02014FF0004202EA0752A9
:10063000CDE90042001C41F5801132462B46FFF700
:1006400053FF03B0BDE8F08F40462146F9E7001B99
:1006500061EB0201001C41F5801300185B4120187A
:10066000A2F5001747EB030140EAD570B6196D41BA
:1006700011E06D084FEA360645EAC0754FEA0752A9
:10068000001B61EB0201001C41F5801149084FEA93
:1006900030000019514132462B4603B0BDE8F04FFF
:1006A000FFF713BF0098012240000023D0EB0202A5
:1006B00063EBE073009821464FEAE074B8EB00006A
:1006C00061EB0401E9E783F000435BE781F000415F
:1006D00058E72DE9F04D81EA030404F0004B21F0C6
:1006E000004514464FF0000A23F0004150EA05028D
:1006F00020D054EA01021DD0C5F30A570246C5F3C3
:100700001303C1F31300C1F30A5640F4801543F4F8
:100710008013A7EB0608101BD64608F2FD3873EBD2
:10072000050002D308F1010801E092185B41B8F11D
:10073000000F03DA00200146BDE8F08D00204FF4E1
:100740008011064684460EE0171B73EB050705D3A0
:10075000121B63EB050306434CEA010C49084FEA00
:10076000300092185B4150EA0107EDD152EA0300D4
:1007700012D082EA040083EA0501084305D0101B69
:10078000AB4106D20122002306E000224FF00043D5
:1007900002E06FF0010253101AEB06004CEB085117
:1007A00010EB0A0041EB0B01BDE8F04DFFF78DBEE9
:1007B000C1F30A52C1F3130140F2FF3341F4801137
:1007C0009A4202DA00200146704740F233439A42CF
:1007D000A2F2334202DC5242FFF730BEFFF71FBEE7
:1007E00030B5041E71F1000404DB4FF000444042B8
:1007F00064EB0101141E73F1000405DB1C464FF08D
:100800000043524263EB0403994208BF904230BD5B
:10081000064C074D06E0E06840F0010394E807004D
:1008200098471034AC42F6D3FFF7DAFCD43D000809
:10083000F43D0008202A06DBCB17203A41FA02F0EB
:1008400043EAE07306E041FA02F3D040C2F120022D
:1008500091400843194670470146806AC36DC26DD6
:1008600013F0500F08D0D20648BF00F07DBB406D9A
:10087000426B0846104700BF42F40071C165016831
:100880000B68CA681B0703D4910707D500F068BB43
:1008900012F4406FFAD1C9688904F7D4C16D21F40C
:1008A0008071C165C16DC90448BF00F059BBC16DFD
:1008B00041F00101C16500F053BB0000806AC16DC9
:1008C00041F04001C165016E41F00401016600F094
:1008D0004BBB0000806A00F045BB0000B0B501686A
:1008E00004468A688868C0074FF0000031D012F0D3
:1008F000020218BFB0BD886800F00D0001281FD1AA
:1009000088684FF6C072C7F6FF72104002308860E8
:100910000320086000F0F2FF21688968C90704BF5E
:100920000020B0BD054602E08068C00712D000F08C
:10093000E5FF411B20680329F6D38168C907F3D07E
:10094000E06D40F01000E065206E40F00100206690
:100950000120B0BD0020B0BDFEE7000040F29400D1
:10096000C2F2000000F06ABD70470000EFF3108093
:1009700072B600BFFEE70000B0B582B004460020AA
:10098000019094F85800012802D1022002B0B0BDB5
:10099000012084F8580020460D46FFF79FFFE16DC7
:1009A00010B141F010014BE041F2021291430231CB
:1009B000E16521684FF6C073D1F808C0C3F6FF7334
:1009C00003EA0C0305F080454DF601622B44C0F2AA
:1009D000040203F100438B608B68B3F1FF3F2BDC13
:1009E000019B01330193019B93421DD88B68B3F1A6
:1009F000FF3F21DC019B01330193019B934213D8FC
:100A00008B68B3F1FF3F17DC019B01330193019B1E
:100A1000934209D88B68B3F1FF3F0DDC019B013392
:100A20000193019B9342D7D9E06D40F0100020F074
:100A30000201012004E000BFE16D012262F3010127
:100A4000E165002184F8581002B0B0BD70B582B0E5
:100A500090F85820012A03D10221084602B070BD47
:100A6000002201920092026840F2080CC5F2000CCC
:100A7000B2F1A04F0CF1F80508D040F20043C5F2E6
:100A800000039A423ED10CF59F6300E02B469B6821
:100A9000946823435B0735D44FF4E063D1F800E05A
:100AA000AA4208BF4FF44073B2F1A04F08BF4FF401
:100AB00040735CF80340BEF1000F24F460442DD075
:100AC0004D6890F838602C4340F2001542F4807273
:100AD000C5F2000544EA4634AA424CF8034037D137
:100AE000DCF80020DCF800412243D2073AD15CF860
:100AF0000320896840F61F74A24341EA0E011143A6
:100B000022E000BFC16D41F02001C165012100223A
:100B100080F85820084602B070BD00BF42F48071D2
:100B200040F20012C5F2000291424CF803401BD182
:100B3000DCF80010DCF800211143C9071ED15CF875
:100B4000031040F61F7291434CF803100021DEE7BA
:100B5000DCF80044DCF80055DCF800262C43224386
:100B6000D207C4D00021D2E7DCF80024DCF800650D
:100B7000DCF8001632431143C907E0D00021C6E774
:100B8000F0B581B00022009290F85820012A03D1DC
:100B90000221084601B0F0BD0123076880F85830F3
:100BA000BB685B0736D4D1E900531F26C3F3012489
:100BB00007EB8404226B03F01F039E40B243C5F38E
:100BC000846606FA03F31A432263BA68BB6802F02C
:100BD000040203F00803D21840F0BD800A6807F150
:100BE00014030426C2F34064D1F808E006EAD25C9C
:100BF00053F82440C2F304550722AA40BEF1004F27
:100C000024EA02040CD143F80C401A6842F0004375
:100C10000EE000BFC16D41F02001C165012199E1E5
:100C20000EFA05F2224343F80C201A6822F0004322
:100C30007B61D1E90435FC68042B5FD13A6E3A6ED2
:100C40000B68C2F3846293FAA3F6C3F3846C6FF368
:100C5000DF43B6FA86F5002B2C464FF6FF7E08BF21
:100C60006446A242C0F2070E0CD13A6E22F0004256
:100C70003A660A6802EA0E03C2F3846C92FAA2F2A0
:100C8000B2FA82F57A6E7A6E002BC2F384622C4639
:100C900008BF6446A2420CD17A6E22F000427A6606
:100CA0000A6802EA0E03C2F3846C92FAA2F2B2FA64
:100CB00082F5BA6EBA6E002BC2F384622C4608BF6E
:100CC0006446A2420CD1BA6E22F00042BA660A68AB
:100CD00002EA0E03C2F3846C92FAA2F2B2FA82F52F
:100CE000FA6EFA6E002BC2F3846208BF6546AA4210
:100CF00031D1FA6E22F00042FA662CE0062202EAB6
:100D0000940205FA02FC0E6807F1600555F82340CD
:100D10004FF20002C0F2FF3206F0F846224046EAE7
:100D20000C06324342F0004245F823200A698B69E1
:100D300055F8226026F08076334345F822300A6960
:100D40000B7F55F82260012B26F0007608BF06F1D4
:100D5000007645F82260BA68D2074CD10D68CA689F
:100D600000262B46C4F27F06B2426FF3DF4319D14F
:100D7000D7F8B02042EA0302C7F8B020C3B195FA11
:100D8000A5F2B2FA82F2013202F01E03092B02F040
:100D90001F0316D801229A4003EB430342EA035390
:100DA0001BE000BFD7F8B0209A43C7F8B02022E07C
:100DB000012202EB956202F01E030A2B02F01F03D0
:100DC000E8D3012200269A4003EB4303CFF62066C6
:100DD00006EB03531A4342F00073C3F3406607EB7C
:100DE00086068A687569C3F3045307249C40A543AB
:100DF0009A402A4372610B680021C8F208010B4235
:100E000066D040F2003EC5F2000EAEF500710EF560
:100E100080648F4204BF40F20034C5F200042146D2
:100E2000B7F1A04F04BF40F20031C5F200018D6858
:100E30000022CCF22132934205F0E07C04D0102253
:100E4000C9F2C002934245D12A0261D440F2006245
:100E5000C5F20002974202D0B7F1A04F5AD18A687A
:100E600022F0E07242EA0C0242F400028A6040F290
:100E70000C01C2F20001096842F663528909C0F20E
:100E80003E52A1FB0212910901EB41010C2202EB3F
:100E9000810100910099002948D000990139009101
:100EA0000099002944D00099013900910099002946
:100EB00040D0009901390091009900293CD0009957
:100EC00001390091009900294FF00001E5D141E07E
:100ED00000213FE00022CCF25272934208BF15F08D
:100EE000807219D00021CCF684318B424FF0000182
:100EF00008BF15F480022DD1B7F1A04F1FD040F2EA
:100F00000011C5F200018F4218D1002122E000BF7C
:100F100000211FE000211DE08A6822F0E07242EA11
:100F20000C0242F080728A60002113E0002111E07F
:100F300000210FE000210DE000210BE0A646DEF8C5
:100F4000081021F0E07141EA0C0141F48001CEF873
:100F500008100021002280F85820084601B0F0BD9A
:100F6000704700007047000070470000B0B582B0C5
:100F70000446002001904CB1E06D58B121688868AA
:100F8000800012D48868C00019D54CE0012002B05E
:100F9000B0BD00BF204600F02BF90020206684F889
:100FA0005800216888688000ECD588684FF6C072C8
:100FB000C5F6FF72104088608868C00033D44FF6D1
:100FC000C0728868C5F6FF7202F18052104000F1CD
:100FD0008050886040F20C00C2F20000006842F6C7
:100FE00063528009C0F23E52A0FB02029009022225
:100FF00002EB400001900198A8B100BF01980138B0
:101000000190019878B1019801380190019850B190
:10101000019801380190019828B101980138019098
:1010200001980028EAD18868C00009D4E06D40F03A
:101030001000E065206E40F001002066012000E015
:1010400000208A68E36D02F0040203F01003D21856
:10105000E26D40F0858022F481720232E2658A6896
:10106000D20729D140F2001341F48072C5F2000387
:1010700040F2080C9A42C5F2000C77D1DCF800303F
:10108000DCF800211A43D20716D10CF1F8024FF414
:10109000E063D4F804E0914208BF4FF44073B1F12B
:1010A000A04F08BF4FF440735CF8032022F47C1279
:1010B00042EA0E024CF80320627FE36B43EA4232BD
:1010C000D4E902C31A4394F8243042EA0C02012BFB
:1010D00042EA034207D1D4F828C00023CFF6FE73BA
:1010E00003EB4C431A43E36A33B103F47873D4F847
:1010F00030C01A4342EA0C02D1F80CC044F2070394
:10110000CFF6F07303EA0C031A43CA600A69636BF3
:1011100022F040621A430A618A688B6802F0040276
:1011200003F00803D21852D194F83820237F5200DC
:1011300042EA833CCB6844F2020223EA020242EA1A
:101140000C02CA6022690B69F2B143F480330B616F
:10115000D1F8C0C043F6FF732CEA03031A431BE027
:1011600042F010010120E16502B0B0BDDCF800E4FE
:10117000DCF80025DCF8003642EA0E021A43D207FA
:101180003FF483AF98E700BF23F480320A61D1F8BF
:10119000C02043F6FF739A43C1F8C02094F8403052
:1011A0000A69012B10D140F2FD7322EA030CD4E945
:1011B0001132D4E913E543EA0C031A4342EA0E0262
:1011C0002A4342F0010201E022F001020A61626951
:1011D0000B6B012A23F00F0202D1236A013B1A4351
:1011E0000A63E16D012262F30101E16502B0B0BD65
:1011F00070B59CB004460020CDE91A0002A8043066
:101200005021FFF73DF82068B0F1A04F02D01CB08C
:1012100070BD00BF4FF4004002904FF0005013909B
:1012200002A800F0B9FC002818BFFFF79FFB41F2AD
:101230004C00C4F202000168002641F40051016034
:10124000016801F4005101910199016841F0010127
:101250000160006817A900F00100019001980F20BB
:101260001790032018904FF09040199600F058FA0C
:1012700040F294050820C2F20005C4F202000521E4
:101280004FF4807385E8430005F1140080224FF489
:10129000806C4FF0200E80E808502846C5E90362B4
:1012A0002E6200F021F9002818BFFFF75FFB65658B
:1012B000AC621CB070BD00002DE9F04740F2001791
:1012C00003680446C5F200074FF4C160BB4208BF83
:1012D0004FF40270B3F1A04F08BF4FF40270C05931
:1012E0009E689246720704D40E4694F8581001295D
:1012F00002D10220BDE8F08707F5A06100F01F05CC
:1013000001208B4284F8580018BF002D14D1986832
:101310004FF6C078C007C7F6FF783DD1986808F14E
:101320007F01084212D0E06D40F01000E065206EB1
:1013300040F00100206603E0052DE8D0092DE6D03D
:10134000002084F858000120BDE8F087986800EA82
:10135000080040F00100986000F0D0FA2368196896
:10136000C90719D1814602E01868C00714D19868EE
:10137000C00705D1986800EA080040F001009860B5
:1013800000F0BCFAA0EB090023680328ECD318682E
:10139000C007E9D1C7E700BFE06D40F6017188439F
:1013A00000F58070BB42E06508D040F20050C5F205
:1013B0000000834208D107F5407001E04FF0A040E3
:1013C000984218BF002D03D1E06D20F48010E06535
:1013D000E06D40F65902C0044FF0000044BF206E9B
:1013E00020F006002066606D40F6D507C0F60002CA
:1013F000C0F6000740F6BD050021C0F60005C0E9B3
:101400000B271C2245631A6084F85810596832462D
:1014100041F010015960D96841F00101D96003F130
:101420004001534600F0F6F821688A6802EA080293
:1014300042F004028A60BDE8F0870000B0B5D0E950
:1014400010C30268DCF8001003F01F030424D2F874
:1014500000E09C400C4218BF1EF0040522D102247B
:101460009C400C4218BF1EF0020529D1D940090743
:1014700024D51EF0080108BFB0BD116821F00E018F
:101480001160012101FA03F2CCF80420C16380F855
:101490002510416B002280F8242079B1BDE8B040CE
:1014A000084700BF1168890603D4116821F00401C0
:1014B0001160CCF80440016B0029EFD1B0BD00BF32
:1014C0001168890606D4116821F00A011160012112
:1014D00080F82510CCF80440C16A0022002980F869
:1014E0002420DBD1EAE7000000284FF0010100F0E2
:1014F0008E802DE9F04740F2000CC4F2020C036824
:101500004FF6F8320CF5816ECBF6FD72734538BF9D
:1015100002F580624CF6CD441A44CCF6CC44A2FBD2
:1015200004286FF0070252FA83F2A2FB04290CF59B
:1015300080656FF00304D0E90262D0F810A03CBFD0
:101540000025C4F2020504EA9804C0E910540225FB
:1015500080F825501D6847F6F07725EA07073743DE
:101560003A43476942EA0A0285693A43C7692A430E
:10157000056A3A432A431A600CF50262734538BF84
:101580000CF50062A3180CF50862C264C9F30412DA
:1015900040F6840C01FA02F2B6F5804FC4F2020C58
:1015A0008364026506D1002141601960CCF80020F7
:1015B0001EE000BF41685FFA81FE013903294FF048
:1015C0000001C3F800E0CCF8002011D8AEF1010210
:1015D0000CEB820747F87C1F02F01F01012202FA80
:1015E00001F30CF1BC023946CCF8C03002E000BF78
:1015F0000022002300F1540C8CE80E00002101228F
:10160000C16380F8252080F82410BDE8F047084623
:10161000704700002DE9F04190F824C0BCF1010FA3
:1016200043D04FF0010C80F824C090F825C0BCF1E5
:10163000010F37D14FF0020C80F825C04FF0000C9D
:10164000C0F83CC0D0F800C000F14C0E9EE830401D
:10165000DCF80060BEF1000F26F00106CCF8006057
:1016600065601CBFD0E916456560D0E9107601259C
:1016700006F01F068468B540D0F830807D60CCF855
:1016800004300B46102C04BF13460A46CCF8083031
:10169000CCF80C20DCF80010B8F1000F08D041F0B5
:1016A0000E010DE0002180F824100220BDE8F08139
:1016B00021F00401CCF80010DCF8001041F00A0120
:1016C000CCF80010806C0168C90303D5016841F4AF
:1016D00080710160BEF1000F05D0DEF8000040F41B
:1016E0008070CEF80000DCF8000040F00100CCF87B
:1016F00000000020BDE8F081B0B5044600F0FEF81F
:10170000054640F20400C2F200004068611C18BFA8
:10171000044400BF00F0F2F8401BA042FAD3B0BD71
:101720002DE9F04F84B08E4641F20042C4F600022B
:10173000DEF8004006219042019008BF0521002CF0
:10174000009100F0D7800198002500F138424FEA5F
:10175000B2230098012700264FF00008052B38BF60
:1017600018460090CDF808E00EE000BFDEF800401B
:1017700008F1010834FA07F106F1020607F1010742
:1017800005F1040500F0B680A7F1010A012000FA76
:101790000AF314EA0309E9D0DEF804C00CF0030BE5
:1017A000ABF10104012C17D801987446816803221B
:1017B000E468B2409143B4402143816041684FEAFC
:1017C000480E9943CCF3001303FA0AF30446D043BE
:1017D000194361600CE000BF0321B140019CC84384
:1017E000BBF1030FB64603D1B6464FF0030B23E01F
:1017F000E168029A01409368BBF1020F03FA0EF30D
:1018000041EA0301E16017D16FF0030101EA5A01D7
:10181000214405F01C040F23D1F820C003FA04FB77
:1018200013692CEA0B0CA34043EA0C03019C0B62E6
:10183000D2F804C00CF0030B21680BFA0EF2014041
:1018400011432160DDF808E01CF4403F8ED041F2E6
:101850006000C4F20200016840F2004C41F0010156
:1018600001600168C4F2010C01F0010103910399C8
:101870002AF003014FF6084A6144CFF6FF7A05F0DB
:101880000C030F2051F80A2000FA03F40098A24339
:1018900000FA03F31A4341F80A20DCF80810DEF8D6
:1018A000042041EA090340F20C40D40258BF21EA67
:1018B0000903CCF80830C4F201000168940241EA3F
:1018C000090358BF21EA09030360DCF804109403FC
:1018D00041EA090358BF21EA0903CCF80430DCF8D7
:1018E0000010D20341EA090358BF21EA0903CCF8EA
:1018F00000303BE704B0BDE8F08F000040F28410F8
:10190000C2F200000068704740F2040040F2841107
:10191000C2F20000C2F2000140680A681044086088
:101920007047000080B5032000F088F80F2000F019
:1019300009F800281CBF012080BD00F029F8002014
:1019400080BD000070B540F20406C2F20006716866
:10195000E1B1044640F20C00C2F200004FF47A728A
:101960000068B2FBF1F1B0FBF1F000F0CDFE0F2CFE
:101970004FF0010508D838B94FF0FF30214600225A
:10198000002500F02FF83460284670BD012070BD9E
:1019900082B041F25800C4F20200816841F00101B6
:1019A0008160816801F0010101910199016841F0B4
:1019B00080510160006800F080500090009802B0F3
:1019C00000F0E0B8002848BF704700F01F01012276
:1019D00002FA01F14EF200124009CEF2000242F882
:1019E0002010704710B54EF60C5CCEF2000CDCF8FF
:1019F0000030C3F3022E8EF00704042C28BF042409
:101A0000BEF103034FF0FF3E0EFA04F438BF00238B
:101A1000A14399400EFA03F39A43114300F00F02D9
:101A2000043A624409010C3200F16043B0F1FF3F17
:101A3000C8BF03F56442117010BD00004EF60C5192
:101A4000CEF200010A684FF6FF031A4060F30A2243
:101A500042F0806040F0FD7008607047B0F5007F94
:101A600042D0002840F0808047F21400C4F2000009
:101A700050F8141CC26E01F4C06122F48072B1F5FA
:101A8000806FC2662ED150F8141C012262F34A21E5
:101A900040F8141C40F20C01C2F200010968322225
:101AA00051434DF68362C4F21B32A1FB0212910C2A
:101AB0000268520511D54A1C0FD0026852050CD598
:101AC00059B10268520508D5012906D002685205AD
:101AD00003D50229A1F10401EAD10068400544BF01
:101AE000032070470020704747F21400C4F2000042
:101AF00050F8141CC26E01F4C06142F48072B1F55A
:101B0000806FC266EED150F8141C012262F34A21A4
:101B100040F8141C40F20C01C2F2000109683222A4
:101B200051434DF68362C4F21B32A1FB0212910CA9
:101B30000268520511D54A1C0FD0026852050CD517
:101B400059B10268520508D5012906D0026852052C
:101B500003D50229A1F10401EAD10068400544BF80
:101B600003207047BEE700BF47F21400C4F2000034
:101B700050F8141C022262F34A2140F8141C002081
:101B80007047000047F20800C4F20000016841F409
:101B900080410160704700002DE9F04182B00446A9
:101BA000807841F288060007C4F2020602D40020C1
:101BB0002FE000BF56F8300C10F080580BD156F8CB
:101BC000300C40F0805046F8300C56F8300C00F0E5
:101BD00080500190019847F20007C4F2000738686E
:101BE00040F480703860FFF789FE05463868C0050C
:101BF00000F10C81FFF782FE401B0228F6D903207A
:101C0000B8F1000F05D156F8301C21F0805146F88C
:101C1000301C2168CA0717D18A071DD44A0723D46C
:101C20000A0729D4CA062FD48A0635D44A063BD4DB
:101C30000A0641D4CA0547D48A034DD48A0553D431
:101C40004A0559D467E000BF3268636822F0030296
:101C50001A4332608A07E1D53268A36822F00C0289
:101C60001A4332604A07DBD53268E36822F030025B
:101C70001A4332600A07D5D53268236922F0C002C0
:101C80001A433260CA06CFD53268636922F44072C3
:101C90001A4332608A06C9D53268A36922F44062C9
:101CA0001A4332604A06C3D53268E36922F44052CF
:101CB0001A4332600A06BDD53268236A22F44042D4
:101CC0001A433260CA05B7D53268636A22F44032DB
:101CD0001A4332608A03B1D57269A36A22F0030203
:101CE0001A4372618A05ABD53268E36A22F4402256
:101CF0001A4332604A050ED53268236B22F4401233
:101D00001A43B3F5801F326005D156F87C2C42F49B
:101D1000801246F87C2C0A050ED53268636B22F4DB
:101D200040021A43B3F5800F326005D156F87C2C7F
:101D300042F4801246F87C2CCA040ED53268A36B9C
:101D400022F040721A43B3F1807F326005D156F819
:101D50007C2C42F4801246F87C2C8A040ED5326822
:101D6000E36B22F040621A43B3F1006F326005D199
:101D700056F87C2C42F4801246F87C2C4A040ED58E
:101D80003268236C22F040621A43B3F1006F326074
:101D900005D156F87C2C42F4801246F87C2C0A04BB
:101DA0000ED53268636C22F040521A43B3F1805F63
:101DB000326005D156F87C2C42F4803246F87C2CF7
:101DC000CA030ED53268A36C22F040421A43B3F125
:101DD000804F326005D156F87C2C42F4803246F8B0
:101DE0007C2C49030ED57169E26C21F4401111433A
:101DF000B2F5001F716105D156F87C1C41F48011C9
:101E000046F87C1C02B0BDE8F08100BFB06810F459
:101E1000407010D0216D88420BD0B068B16820F4BA
:101E2000407041F48031B160B16821F48031B1601B
:101E3000B060C0070CD1B068216D20F44070084339
:101E4000B0600020B8F1000F7FF4E3AEDBE600BF26
:101E5000FFF754FD054641F2883700BFB0688007A0
:101E6000E9D4FFF74BFD401BB842F7D9C7E60000A5
:101E70002DE9F04700286DD042F2000AC4F2020AB0
:101E80000446DAF800000D4600F00F0088420CD23C
:101E9000DAF8000020F00F002843CAF80000DAF852
:101EA000000000F00F00A84254D1216841F2080858
:101EB000C807C4F2020803D1880740F1D880BDE00A
:101EC000606802283AD0032840D158F8082C9201C3
:101ED00040D5D8F80420D8F8043042F2004702F088
:101EE0000302C3F30313C0F2F4070133032A04BF50
:101EF00041F20027C0F27A07D8F80420B7FBF3F3C9
:101F0000D8F80470C2F306225A43C7F3416302278C
:101F100007EB4303B2FBF3F24BF20043C0F2C443BE
:101F20009A4261D9D8F8002012F0F00F51D08907F9
:101F30005AD5A168002957D14BE000BF58F8081CBA
:101F400089035CBF0120BDE8F08707E058F8081C52
:101F5000490503D40120BDE8F08700BFD8F8001080
:101F600001F00C0104293FD0D8F8001001F00C0159
:101F7000082939D0D8F8001001F00C010C2933D110
:101F8000D8F80410D8F8042042F2004301F003010D
:101F9000C2F30312C0F2F4030132032904BF41F279
:101FA0000023C0F27A03D8F80410B3FBF2F2D8F899
:101FB0000430C1F306215143C3F34162022303EB12
:101FC0004202B1FBF2F14BF20042C0F2C442914234
:101FD0000AD9D8F80010082262F307114FF001095E
:101FE000C8F8001002E000BF4FF00009D8F8001058
:101FF00021F003010843C8F80000FFF77FFC064604
:1020000041F28837D8F80000616800F00C00B0EBAE
:10201000810F07D0FFF772FC801BB842F2D9032072
:10202000BDE8F0872168880708D4B9F1000F1ED0F9
:10203000D8F8000020F0F00017E000BF480705D5F1
:10204000D8F8000040F4E060C8F80000080706D5A2
:10205000D8F80000072262F30D20C8F80000D8F875
:102060000000A26820F0F0001043C8F80000DAF881
:10207000000000F00F00A8421BD9DAF8000020F0A1
:102080000F002843CAF80000FFF738FC064641F26B
:10209000883700BFDAF8000000F00F00A84207D030
:1020A000FFF72CFC801BB842F4D90320BDE8F08771
:1020B0002168480707D5D8F80000E26820F4E060FE
:1020C0001043C8F80000080708D5D8F800002169B7
:1020D00020F4605040EAC100C8F80000D8F80000C1
:1020E00042F20041C0F2F40100F00C00042808465E
:1020F0002DD0D8F8000000F00C00082841F2002094
:10210000C0F27A0023D0D8F8002002F00C020C2A8A
:102110001CD1D8F80420D8F8043002F00302C3F32D
:1021200003130133032A08BF0146D8F80400B1FBAA
:10213000F3F1D8F80420C0F306204843C2F341610C
:10214000022202EB4101B0FBF1F000E00020D8F8E0
:10215000001043F66C52C1F30311C0F60002515C4B
:1021600040F20C0201F01F0120FA01F140F20400DC
:10217000C2F200000068C2F200021160BDE8F04740
:10218000FFF7E0BB40F20C0041F20801C2F2000090
:10219000C4F202010068096843F67C52C1F30221CF
:1021A000C0F60002515C01F01F01C84070470000FA
:1021B00040F20C0041F20801C2F20000C4F2020138
:1021C0000068096843F67C52C1F3C221C0F60002E0
:1021D000515C01F01F01C8407047000041F20C0142
:1021E000C4F2020151F8040C42F20042C0F2F402BF
:1021F00000F00C000428104608BF704751F8040C8A
:1022000000F00C00082841F20020C0F27A0021D032
:1022100051F8043C03F00C030C2B1CBF002070474A
:10222000D1F800C00B680CF0030CC3F303130133A7
:10223000BCF1030F08BF02460868B2FBF3F209685D
:10224000C0F306205043C1F34161022202EB410179
:10225000B0FBF1F0704700002DE9F04182B000289A
:1022600000F006810446007841F20006C007C4F27F
:10227000020655D12078800774D42078000700F139
:1022800097802078400700F1B7802078800600F121
:102290000781E069002840D0B16801F00C010C29E9
:1022A00040F05681012800F0E380F068216A00F0D8
:1022B00003028A4240F0DC80626A6FF00F0300F094
:1022C000F00103EB0212914240F0D280A16A00F4C7
:1022D000FE42B2EB012F40F0CB80E16A00F0784281
:1022E000B2EBC16F40F0C480226B0023CFF6E073E5
:1022F00003EB025200F4C0016FF31402914240F06C
:10230000B780616B4FF07E4202EB016100F0C0606C
:1023100001F07E41884240F0AB800020F1E100BF37
:10232000B06800F00C01F06808295BD0032281F04E
:102330000C0122EA00000844B0FA80F0400951D1B3
:102340006068B0F5803F07D0B0F5A02F40F0D68090
:10235000306840F480203060306840F48030306075
:10236000D7E000BFB068F16800F00C00042869D025
:1023700001F0030180F00C0081F002010844B0FA82
:1023800080F040095ED1E1683068002900F0CE801D
:1023900040F480703060FFF7B1FA054630684005C0
:1023A00000F1EC80FFF7AAFA401B0228F6D920E1E1
:1023B0006169D6F89400002900F08C8040F001009B
:1023C000C6F89400FFF79AFA054600BFD6F89400C5
:1023D00080073FF556AFFFF791FA401B0228F5D969
:1023E00007E100BF306880037FF544AF60680028D4
:1023F0007FF440AF3CE000BFB06D10F0805808D1D2
:10240000B06D40F08050B065B06D00F0805001902C
:10241000019847F20007C4F200073868C0052BD4C2
:10242000386840F480703860FFF768FA054600BFEE
:102430003868C00520D4FFF761FA401B0228F7D99D
:10244000D7E000BF3068400501D5E06880B1706812
:10245000216920F0FE4040EA0160706040F2040013
:10246000C2F200000068FFF76DFA00283FF405AFE4
:10247000012002B0BDE8F081A068012808D005283D
:1024800040F09A80D6F8900040F00400C6F8900022
:10249000D6F8900040F00100C6F890009AE000BF26
:1024A000A169D6F89800002970D040F00100C6F864
:1024B0009800FFF723FA0546D6F8980080073FF505
:1024C000E8AEFFF71BFA401B02284FF00300F3D9D8
:1024D00017E100BF20F00100C6F89400FFF70EFAE4
:1024E000054600BFD6F8940080077FF5CAAEFFF717
:1024F00005FA401B0228F5D97BE000BF31680028AF
:1025000021F480313160316821F48021316000F0A4
:102510008F80FFF7F3F90546306880033FF5AAAED8
:10252000FFF7ECF9401B6428F6D962E020F48070D4
:102530003060FFF7E3F90546306840057FF59DAE52
:10254000FFF7DCF9401B02284FF00300F4D9D8E074
:102550003168022821F0807131604FD1FFF7CEF948
:10256000054600BF3068800140F18E80FFF7C6F954
:10257000401B02284FF00300F4D9C2E070682169C3
:1025800020F0FE4040EA0160706076E620F0010035
:10259000C6F89800FFF7B2F9054600BFD6F89800D4
:1025A00080077FF576AEFFF7A9F9401B02284FF0B0
:1025B0000300F3D9A5E000BFD6F89010002821F061
:1025C0000101C6F89010D6F8901021F00401C6F869
:1025D00090103DD0FFF792F9054641F2883700BFD1
:1025E000D6F89000800745D4FFF788F9401BB84221
:1025F000F6D9032002B0BDE8F08100BFF0684FF6C5
:10260000FF7120F00300F060F068CFF6EE61084043
:10261000F060FFF773F90446306880017FF57DAE06
:10262000FFF76CF9001B02284FF00300F4D968E0B3
:10263000FFF764F9054600BF306880037FF51AAEE6
:10264000FFF75CF9401B64284FF00300F4D958E011
:10265000FFF754F9054641F2883700BFD6F89000DD
:10266000800707D5FFF74AF9401BB8424FF0030037
:10267000F4D946E0B8F1000F7FF407AEB06D20F05A
:102680008050B06501E600BFF06848F20C01C0F26E
:102690009F1104F1200700EA010C8ECF6FF00F00AC
:1026A000D4E90C5400EB02100022CFF6E07241EAAC
:1026B0000C0102EB055208436FF314024FF07E4504
:1026C00040EA032005EB0465104305F07E4540EA2F
:1026D000C7602843F060306840F080703060F06878
:1026E00040F08070F060FFF709F90446306880011F
:1026F0003FF513AEFFF702F9001B02284FF003006D
:10270000F4D902B0BDE8F081411E0020B0EB116F9A
:102710001CBF012070474EF21002CEF20002516041
:102720004EF62351CEF20001F0230B70072190608A
:102730001160704790F88010012904BF0220704793
:102740002421C0F8841002681168136823F0010383
:10275000136021F000530021416613602022C0F86D
:10276000842080F88010084670470000B0B590F8CB
:102770008020012A04BF0220B0BD2422C0F884209A
:102780000268D0F864E0D2F800C01368BEF1000F10
:1027900023F001031360936823F0606341EA0301AF
:1027A000916019D09368916843F6AC5E490FC0F60A
:1027B000000E43F6B4551EF80140C0F60005695CF2
:1027C000C3F34263E400B4FBF1F11EF80340EB5C99
:1027D000E500B5FBF3F301E001210123A0F86A1045
:1027E0002021A0F86830C2F800C0C0F88410002191
:1027F00080F880100846B0BDB0B590F88020012A5E
:1028000004BF0220B0BD2422C0F884200268D0F8A2
:1028100064E0D2F800C01368BEF1000F23F001039A
:102820001360936823F0604341EA0301916019D07B
:102830009368916843F6AC5E490FC0F6000E43F60C
:10284000B4551EF80140C0F60005695CC3F342634D
:10285000E400B4FBF1F11EF80340EB5CE500B5FBCE
:10286000F3F301E001210123A0F86A102021A0F870
:102870006830C2F800C0C0F88410002180F88010D1
:102880000846B0BDB0B582B0B0B10446D0F88400FF
:1028900028B9002084F88000204600F059F8242050
:1028A000C4F884002068016821F00101016020461D
:1028B00000F096FA012803D1012002B0B0BD00BF9C
:1028C000A06A10B1204600F017FA2068416821F490
:1028D00090414160816821F02A018160016841F0E6
:1028E000010101600020C4F88C00FFF707F821689F
:1028F00005460A6812070CD56FF07E4C20464FF44F
:10290000001100222B46CDF800C000F0C9FB78B9B9
:102910002168086840070FD56FF07E4C20464FF4C1
:10292000800100222B46CDF800C000F0B9FB18B1A1
:10293000032002B0B0BD00BF2020C4F88400C4F85A
:1029400088000020E06684F8800002B0B0BD00007E
:1029500010B59AB00446684608304C21FDF790FC4B
:10296000206843F60001C4F20101884202D01AB087
:1029700010BD00BF01200090002468460194FFF7BD
:102980000BF9002818BFFDF7F1FF41F24C00C4F22B
:102990000200416941F480414161416901F4804193
:1029A00015911599016841F001010160006815A9B0
:1029B00000F00100159015984FF4C06015900220AA
:1029C000CDE91604072019904FF090401894FEF7B7
:1029D000A7FE1AB010BD00002DE9F04381B00446F7
:1029E000D0F8840020280BD10E4600294FF00100BA
:1029F0005CD01746002A59D094F88000012803D1F2
:102A0000022001B0BDE8F083012084F880004FF07F
:102A1000000921201D46C4F88C90C4F88400FEF7FC
:102A20006DFFA4F85470A4F85670A1680746B1F57C
:102A3000805F07D1206900281CBF30464E46B04653
:102A4000064601E04FF0000884F8809009E000BFDE
:102A500016F8010B21688862B4F856000138A4F812
:102A60005600B4F8560088B12046802100223B462B
:102A7000009500F015FB88B9002EE9D138F8020B5B
:102A800021686FF35F2088620026E5E72046402139
:102A900000223B46009500F003FB18B1032001B073
:102AA000BDE8F0832020C4F88400002001B0BDE818
:102AB000F0830000FEE7000010B58CB040F2280063
:102AC000C2F20000042100244FF0A04C4FF4403229
:102AD0000123816101624FF480510B94CDE90944D7
:102AE000CDE90744CDE90544CDE90344CDE90144EE
:102AF000C0E900C2C0E90244C0E90443848380F80D
:102B00002440C0E90B4480F83830C16380F840406D
:102B1000FEF72CFA002818BFFDF728FF40F2280026
:102B2000C2F2000009A90994FDF790FF002818BF20
:102B3000FDF71CFF0220C0F23040019006207F21EB
:102B400002900020049104210390CDE9051040F289
:102B50002800C2F2000001A9FEF712F8002818BFF1
:102B6000FDF704FF0420C0F6600001900C200290E5
:102B700040F22800C2F2000001A9FEF701F8002887
:102B800018BFFDF7F3FE0820C0F690400190122018
:102B9000029040F22800C2F2000001A9FDF7F0FF08
:102BA000002818BFFDF7E2FE1020C1F2C00001901E
:102BB0001820029040F22800C2F2000001A9FDF79F
:102BC000DFFF002818BFFDF7D1FE0CB010BD0000DC
:102BD00080B582B041F24800C4F2020001680022D0
:102BE00041F004010160016801F0040101910199C3
:102BF000016841F0010101600068002100F001005E
:102C0000009000980B20FEF7EDFE0B2002B0BDE80F
:102C10008040FEF7D7BE000082B041F24C00C4F203
:102C20000200016841F020010160016801F020010B
:102C300001910199016841F001010160006800F013
:102C400001000090009802B07047000080B540F28B
:102C5000F40043F60001C2F20000C4F201010023B7
:102C60004FF00C0C4FF4E13280E80E00C0E9033362
:102C7000C0E905C3C0E90733C0E90933FFF702FE25
:102C8000002818BFFDF772FE40F2F400C2F2000007
:102C90000021FFF7B1FD002818BFFDF767FE40F2E5
:102CA000F400C2F200000021FFF760FD002818BF09
:102CB000FDF75CFE40F2F400C2F20000FFF73AFDBF
:102CC000002808BF80BDBDE88040FDF74FBE000072
:102CD000FEE70000FEE700007047000070470000BC
:102CE000FEF712BE4EF68850CEF20000016841F4A5
:102CF000700101607047000080B5816ACA070DD17C
:102D00008A0716D44A071FD40A0728D4CA0631D422
:102D10008A063AD44A0658D542E000BF0268D0F885
:102D20002CC0536823F4003343EA0C0353608A0732
:102D3000E8D50268D0F830C0536823F4803343EA02
:102D40000C0353604A07DFD50268D0F834C05368DB
:102D500023F4802343EA0C0353600A07D6D50268A4
:102D6000D0F838C0536823F4004343EA0C0353609F
:102D7000CA06CDD50268D0F83CC0936823F48053CE
:102D800043EA0C0393608A06C4D50268D0F840C0B9
:102D9000936823F4005343EA0C0393604A0614D566
:102DA0000268D0F844C05368BCF5801F23F4801338
:102DB00043EA0C03536008D1D2F804C0D0F848E0CD
:102DC0002CF4C00343EA0E035360090658BF80BDCC
:102DD0000168C06C4A6822F400221043486080BD3C
:102DE00070B504462269D4E9021300680A43616998
:102DF000E6691143026846F6F315CCF6FF753143D8
:102E00002A4011430160416848F2000C21F440510E
:102E100019434160A269C4F2000C60451CBF216ADD
:102E20000A4381684FF2FF43C1F2FF131940114377
:102E30008160C16AD4F824E021F00F0141EA0E015B
:102E4000C16244F6FF71C4F2000188424FF01003E2
:102E500018DC44F20041C4F20001884228D044F654
:102E60000001C4F2000188422AD044F60041C4F2B5
:102E70000001884242D141F28801C4F2020109688E
:102E80008B0933E045F20001C4F2000188421FD0F3
:102E9000604525D043F60001C4F2010188422DD1DE
:102EA00041F28801C4F202010B6879A222E000BF5E
:102EB00041F28801C4F2020109688B0816E000BFE4
:102EC00041F28801C4F2020109680B090EE000BF5B
:102ED00041F28801C4F2020109680B0A06E000BF52
:102EE00041F28801C4F2020109688B0A43F69C5240
:102EF000C0F6000203F0030152F82130604542F2AF
:102F00000040C0F2F40015D0B6F5004F24D1082BD4
:102F10004FF0010100F2B380DFE803F0065E6CB110
:102F200064B1B1B16A0000BFFFF72CF9002856D197
:102F30005CE000BF082B4FF0010100F2A080DFE849
:102F400003F0059E259E1D9E9E9E2300FFF71AF905
:102F5000C0B1D4F824E019E0082B4FF0010100F2D1
:102F60008E80DFE803F00565738C6B8C8C8C7100B0
:102F7000FFF708F900285ED164E000BFFFF72EF9E3
:102F80000028E6D100217AE04FF4004043F6845156
:102F9000C0F6000131F81E106268B0FBF1F002EBE0
:102FA000420188424FF0010169D31303984266D869
:102FB000010E000210EB520041F100010023FDF769
:102FC00027F94FF60052A0F54071C0F20F0291426E
:102FD0004FD3012153E000BFFFF7EAF830B1D4F836
:102FE00024E007E0FFF7FAF80028F8D1002146E0D6
:102FF0004FF4004043F68451C0F6000131F81E1032
:103000006268B0FBF1F0510801EB4000B0FBF2F058
:103010004FF6EF72A0F11001914207D84FF6F07110
:103020000140C0F34200084423E000BF012126E034
:10303000FFF7BEF830B1D4F824E007E0FFF7CEF890
:103040000028F8D100211AE04FF4004043F68451E3
:10305000C0F6000131F81E104FF6EF72B0FBF1F030
:10306000616800EB5100B0FBF1F0A0F1100191425A
:1030700004D82168C860002101E000BF01214FF0A1
:103080000110A066002208462267626770BD00BF7B
:103090000100000004000000020000000800000021
:1030A0002DE9F041044600681546C2690E461140FC
:1030B000891BB1FA81F14909A94240F0A080DDF8ED
:1030C0001880B8F1000F29D018F1010140F080807C
:1030D000C1693140891BB1FA81F14909A94240F027
:1030E0008E80C1693140891BB1FA81F14909A94239
:1030F00040F08580C1693140891BB1FA81F14909ED
:10310000A9427CD1C1693140891BB1FA81F14909D9
:10311000A942DDD00020BDE8F08100BFFEF7EEFB44
:10312000206850E8000F216820F4D07041E80002C8
:10313000BAB3206850E8000F216820F4D07041E84D
:10314000000272B3206850E8000F216820F4D070AC
:1031500041E800022AB3206850E8000F216820F4FB
:10316000D07041E80002002ADAD11AE0206850E865
:10317000020F216820F0010041E80202DAB1206864
:1031800050E8020F216820F0010041E8020292B1EC
:10319000206850E8020F216820F0010041E8020297
:1031A0004AB1206850E8020F216820F0010041E890
:1031B0000202002ADAD12020C4F8840004F1880039
:1031C00020210160002084F880000320BDE8F08108
:1031D0001F4600BFFEF792FBC01B4045A0D82068E9
:1031E0000168490744BFC1695FEA01510AD4C06957
:1031F0003040801BB0FA80F04009A842EAD000209D
:10320000BDE8F0814FF40061016200BF50E8000F9B
:10321000216820F4D07041E80002C2B3206850E871
:10322000000F216820F4D07041E800027AB32068D2
:1032300050E8000F216820F4D07041E8000232B35A
:10324000206850E8000F216820F4D07041E80002A7
:10325000EAB12068DAE700BF206850E8020F216871
:1032600020F0010041E80202DAB1206850E8020FC4
:10327000216820F0010041E8020292B1206850E884
:10328000020F216820F0010041E802024AB12068E3
:1032900050E8020F216820F0010041E80202002AF4
:1032A000DAD12020C4F88400C4F8880004F18C002E
:1032B00086E70000FEE7000080B582B0019040F292
:1032C000F400C2F2000001A901224FF47A73FFF763
:1032D00083FB019802B080BD94B0FEF723FB00246D
:1032E0000020CDE90B44CDE90944CDE90744FEF7C0
:1032F000B5FB4FF48071099140210A91042102200D
:103300000F9155210690CDE90D00CDE91010CDE9C2
:10331000120006A8FEF7A0FF20B1EFF3108072B6EE
:10332000FEE700BF0F2001900320CDE9020401A8B1
:103330000421CDE90444FEF79BFD28B1EFF3108092
:1033400072B600BFFEE700BFFFF766FCFFF740FC68
:10335000FFF7B2FBFFF77AFC40F22808C2F2000840
:1033600040467F21FDF708FB40F21005C2F2000540
:10337000404629460422FDF79FFF9FED330B43F69D
:10338000BC5457EC106BC0F600040FF2C40900BF28
:103390002888FCF7F2FF32463B46FCF77CFFFDF73E
:1033A0000CF8A860A868FCF7F5FF02460B4620461B
:1033B000002100F04FF86888FCF7DFFF32463B46FB
:1033C000FCF769FFFCF7F9FFE860E868FCF7E2FF4B
:1033D00002460B462046012100F03CF8A888FCF785
:1033E000CCFF32463B46FCF756FFFCF7E6FF286170
:1033F0002869FCF7CFFF02460B462046022100F069
:1034000029F8E888FCF7B9FF32463B46FCF743FF52
:10341000FCF7D3FF68616869FCF7BCFF02460B4606
:103420002046032100F016F8484600F08DFC404687
:1034300029460422FDF740FF4FF49670FEF75CF931
:10344000A6E700BF00BF00BF6666666666664A3FC5
:103450000D0000000FB4054B10B503A9044A0298F3
:1034600000F0DAF810BC5DF814FB0000B932000877
:103470000000002002E008C8121F08C1002AFAD18B
:1034800070477047002001E001C1121F002AFBD1E4
:10349000704700002DE9FF5F82B00021DDE90430B4
:1034A000020DDDF840B0034318D044F61050A2F2EC
:1034B000FF3242431514119801281FD0A5EB0B00D1
:1034C000401C5FEA000A4FF000064E4FDFF83891CB
:1034D000B046504615D5CAF1000413E011980124F6
:1034E0004AA3012801D16FEA0B010298119AC0E9A1
:1034F0000031C0E9024206B0BDE8F09FCBF1000008
:10350000DFE704460021404A491842EB0450CDE968
:10351000001012E0E00707D032463B4640464946DD
:10352000FCF7B9FE8046894632463B4610461946AE
:10353000FCF7B1FE06460F466410002CEAD1DDE927
:103540000401DDE90023BAF1000F06DAFCF7A3FE5F
:1035500042464B46FCF79FFE05E0FDF7BAF84246AF
:103560004B46FDF7B6F804460E460022284BFDF701
:1035700037F903D84FF0FF30014607E00022254B12
:1035800020463146FCF7FEFFFDF712F9102409E052
:10359000002C0ADB0A220023FCF73AFE039B3032A0
:1035A0001A55641E50EA0102F2D1641C039AC4F158
:1035B00011031444119A012A03D0012208430DD1AA
:1035C0000AE0084304D000204FF0110B119072E77D
:1035D000A3EB0B056D1E0DE05B4504DD4FF0000213
:1035E00005F1010504E003DA4FF00002A5F1010541
:1035F000002AECD002981199C0E90231C0E90045D7
:1036000079E70000000014400000F03F30000000A7
:103610000000F0430000E03F2DE9FF4F95B09B46CE
:103620008946064600250FE2252877D10024274643
:10363000F84A0121059400E0044316F8013F203BBD
:1036400001FA03F01042F7D130782A2811D06FF038
:103650002F033078A0F13002092A16D8059A44F0D9
:10366000020402EB820203EB42021044761C059036
:10367000EFE759F8042B0592002A03DA504244F48C
:103680000054059044F00204761C30782E2816D1A0
:1036900016F8010F44F004042A280DD06FF02F0211
:1036A0003078A0F13003092B09D807EB870302EB30
:1036B0004303C718761CF3E759F8047B761C30786F
:1036C0006C280FD006DC4C2817D068280DD06A284B
:1036D00014D104E0742810D07A280FD10DE044F4FE
:1036E00000140AE044F4801401E044F440147278B9
:1036F000824202D104F58014761C761C307866284C
:103700000BD013DC582877D009DC002875D0452869
:10371000F6D04628F4D047281AD19DE118E0632856
:1037200035D0642879D0652812D195E1702873D0FE
:1037300008DC6728F1D069286FD06E280DD06F287B
:1037400006D1B5E073282CD0752875D0782874D0B0
:103750005A46179990476D1C75E1C4F30250022830
:1037600009D003280DD0D9F8001004280DD00D6021
:1037700009F1040967E1D9F80010EA17C1E900521C
:10378000F6E7D9F800100D80F2E70D70F0E719F8B0
:10379000041B8DF8001000208DF80100EA4601207E
:1037A00003E059F804AB4FF0FF3061074FF0000120
:1037B00002D40DE008F101018846B9420FDA8045D4
:1037C000F8DB1AF808100029F4D108E008F101012B
:1037D00088468142FADB1AF808100029F6D10598CC
:1037E0005B46A0EB080721463846179A00F094FA8A
:1037F000284400EB080507E04DE029E10DE01AF848
:10380000010B5A4617999047B8F10108F7D25B4669
:1038100021463846179A13E142E00A220092C4F387
:1038200002524FF0000A022A08D059F804CB032AAA
:103830004FEAEC710AD00DE029E02AE009F1070116
:1038400021F00702F2E802C1914609E00FFA8CFC70
:103850004FEAEC71042A03D14FFA8CFC4FEAEC7169
:10386000002907DA0A460021DCF1000C61EB0201B5
:103870002D2202E0220504D52B228DF804200122FE
:1038800003E0E20701D02022F7E7904659E00A2141
:1038900002E010220DE010214FF0000A00910BE031
:1038A00010224FF0000A44F004040827009203E0BD
:1038B00008224FF0000A0092C4F30252022A05D0F7
:1038C00059F804CB0021032A08D009E009F10701C7
:1038D00021F00702F2E802C1914605E01FFA8CFCD4
:1038E000042A01D10CF0FF0C4FF00008220728D564
:1038F000702806D0009B83F0100353EA0A0305D01A
:103900000EE040228DF80420012208E05CEA01026A
:1039100006D030228DF804208DF805000222904652
:10392000009B83F0080353EA0A030AD15CEA010210
:1039300001D1620705D530228DF804204FF001082F
:103940007F1E582804D034A003900EA802900DE0EA
:1039500036A0F9E753466046009AFCF759FC8446C6
:103960000398825C0298401E029002705CEA01009B
:10397000F0D1029806A9081A00F1200A600702D5C2
:1039800024F4803400E00127574502DDA7EB0A004C
:1039900000E0002000EB0A01009005984144401A25
:1039A0000590E00306D45B462146179A059800F07F
:1039B000B3F90544002706E001A85A46C05D1799EF
:1039C00090476D1C7F1C4745F6DBE0030CD55B463A
:1039D0002146179A059800F09FF9054404E030202D
:1039E0005A46179990476D1C0099481E009000296F
:1039F000F5DC08E0029802995A460078491C0291C9
:103A0000179990476D1CBAF10001AAF1010AF1DC87
:103A100065E1000009280100303132333435363792
:103A2000383961626364656600000000303132330A
:103A300034353637383941424344454600000000AA
:103A400000F058F90544761C307800287FF4ECAD7E
:103A500019B02846BDE8F08F620700D4062709F1A7
:103A6000070222F0070CFCE80223E14603F00048BD
:103A70005FEA080C02D00FF2702C0DE05FEA045CE4
:103A800002D50FF2682C07E05FEAC47C02D00FF287
:103A9000602C01E0AFF2700C4FF0FF3823F00043D0
:103AA000CDF850C065280CD006DC452809D0462842
:103AB0001DD047283DD13DE0662818D067287ED12B
:103AC00038E00021112F01DB112000E0781CCDE946
:103AD000000106A90EA8FFF7DDFCDDE90F010E9A33
:103AE00003910021009207F1010A04914DE04FF08B
:103AF00000400097CDE9011006A90EA8FFF7CAFC07
:103B0000DDE90F0203920E9B11990022DDF80CA053
:103B10000093049211B9791C00EB010AB7EB0A007B
:103B200004D4C0F1FF3007F1010A0490AAEB0700AA
:103B3000019044E0012F00DA01270021112F01DD5F
:103B4000112000E03846CDE9000106A90EA8FFF7D4
:103B5000A1FCDDE90F010E9A03910021049100926E
:103B6000BA4621070CD40399514500DA8A46BAF1C6
:103B7000010F05DD009AAAF10101515C302908D03E
:103B8000B84202DA10F1040F06DA0121CDE9011082
:103B900015E0AAF10101E9E7002805DC04990144D8
:103BA0000491AAEB000102E0411C514500DD8A4668
:103BB0000499401A401C01904FF0004002902007E9
:103BC00004D40198504501DBCDF8048000208DF825
:103BD0004F0002980DF14F07B0F1004F25D02B2078
:103BE0000E9002984FF0020800280CDA4042029032
:103BF0002D200E9007E00A210298FCF7FAFB3031E5
:103C0000029007F8011DB8F10001A8F10108F2DCEB
:103C100002980028EFD1791E0E980870307800F0D5
:103C2000200040F0450007F8020D12A8C01B00F16B
:103C300007081498007800B1012000EB0A010198F0
:103C400001EBE07105984144401A401E0590E003E5
:103C500006D45B462146179A059800F05DF80544A6
:103C60001498007818B15A46179990476D1CE003D4
:103C700024D55B462146179A059800F04DF8054477
:103C80001CE00498002807DBDDE90301884203DD1E
:103C90000098405C179901E0179930205A469047E8
:103CA000049805F10105401C04900198401E019004
:103CB00004D12E205A46179990476D1CBAF1000185
:103CC000AAF1010ADDDC05E017F8010B5A46179945
:103CD00090476D1CB8F10001A8F10108F4DC5B46C7
:103CE0002146179A0598ABE62D0000002B00000036
:103CF000200000002DE9F041044600251E4617462D
:103D0000880404D405E039462020B0476D1C641EA9
:103D1000F9D52846BDE8F0812DE9F041044600259B
:103D20001E469046C80301D5302700E020278804AE
:103D300004D505E041463846B0476D1C641EF9D5F0
:103D40002846BDE8F081000010B5044601E0FFF709
:103D5000B3FA14F8010B04490028F8D1BDE810406B
:103D60000A20FFF7A9BA00000000002000000000B0
:103D7000000000000102030406070809000000001B
:103D800001020304010002000400060008000A000A
:103D90000C00100020004000800000010000000026
:103DA00004000000020000000800000001010103FF
:103DB000070100000804020408010101766F6C7419
:103DC000616765205041253164203A20252E3266F6
:103DD000760D0A00F83D00080000002010000000E9
:103DE00074340008083E0008100000207805000028
:103DF00084340008000000000000000010000000F3
:083E0000010000000024F400A1
:04000005080001D915
:00000001FF
