:020000040800F2
:10000000C006002079020008711C0008B51A00081B
:100010006D1C0008A1030008D11D000800000000AD
:10002000000000000000000000000000791C000833
:10003000A503000800000000751C00087D1C0008D6
:10004000930200089302000893020008930200083C
:10005000930200089302000893020008930200082C
:10006000930200089302000893020008930200081C
:10007000930200089302000893020008930200080C
:1000800093020008930200089302000893020008FC
:1000900093020008930200089302000893020008EC
:1000A00093020008930200089302000893020008DC
:1000B00093020008930200089302000893020008CC
:1000C00093020008930200089302000893020008BC
:1000D00093020008930200089302000893020008AC
:1000E000930200089302000893020008930200089C
:1000F000930200089302000893020008930200088C
:10010000930200089302000893020008930200087B
:10011000930200089302000893020008930200086B
:10012000930200089302000893020008930200085B
:10013000930200089302000893020008930200084B
:10014000930200089302000893020008930200083B
:10015000930200089302000893020008930200082B
:10016000930200089302000893020008930200081B
:10017000930200089302000893020008930200080B
:1001800093020008930200089302000893020008FB
:100190009302000800000000930200089302000888
:1001A00093020008930200089302000893020008DB
:1001B00093020008930200089302000893020008CB
:1001C00093020008930200089302000893020008BB
:1001D000930200089302000800F002F800F03CF8D7
:1001E0000AA090E8000C82448344AAF10107DA4592
:1001F00001D100F031F8AFF2090EBAE80F0013F0A8
:10020000010F18BFFB1A43F0010318474C310000DF
:100210006C310000103A24BF78C878C1FAD8520770
:1002200024BF30C830C144BF04680C607047000070
:100230000023002400250026103A28BF78C1FBD8EF
:10024000520728BF30C148BF0B6070471FB502F08E
:10025000D9FF1FBD10B510BD00F06CF81146FFF7B7
:10026000F5FF01F0B9FD00F08AF803B4FFF7F2FFE3
:1002700003BC00F08DF8000009488047094800479A
:10028000FEE7FEE7FEE7FEE7FEE7FEE7FEE7FEE746
:10029000FEE7FEE704480549054A064B70470000A3
:1002A000811C0008D9010008C0000020C006002001
:1002B000C0020020C00200204FF0000200B513462B
:1002C00094469646203922BFA0E80C50A0E80C5076
:1002D000B1F12001BFF4F7AF090728BFA0E80C5027
:1002E00048BF0CC05DF804EB890028BF40F8042B20
:1002F00008BF704748BF20F8022B11F0804F18BF8D
:1003000000F8012B704770477047704710B500F038
:1003100009F8006810BD10B5044600F003F8046049
:1003200010BD0000004870471000002000487047D2
:10033000100000207546FFF7F9FFAE46050069463C
:10034000534620F00700854618B020B5FFF7A2FFFE
:10035000BDE820404FF000064FF000074FF00008C6
:100360004FF0000BAC46ACE8C009ACE8C009ACE803
:10037000C009ACE8C00921F007018D46704710B5EF
:100380000446AFF300802046BDE81040FFF76DBF84
:1003900001491820ABBEFEE72600020070470000AE
:1003A000FEE7000070470000EFF3108072B600BF58
:1003B000FEE70000B0B5044600F0FEF8054640F246
:1003C0000000C2F200004068611C18BF044400BF76
:1003D00000F0F2F8401BA042FAD3B0BD2DE9F04F77
:1003E00084B08E4641F20042C4F60002DEF80040BE
:1003F00006219042019008BF0521002C009100F0D9
:10040000D7800198002500F138424FEAB2230098C6
:10041000012700264FF00008052B38BF1846009032
:10042000CDF808E00EE000BFDEF8004008F101085A
:1004300034FA07F106F1020607F1010705F1040598
:1004400000F0B680A7F1010A012000FA0AF314EACD
:100450000309E9D0DEF804C00CF0030BABF1010492
:10046000012C17D80198744681680322E468B240D1
:100470009143B4402143816041684FEA480E99435B
:10048000CCF3001303FA0AF30446D0431943616026
:100490000CE000BF0321B140019CC843BBF1030F36
:1004A000B64603D1B6464FF0030B23E0E168029A4B
:1004B00001409368BBF1020F03FA0EF341EA030116
:1004C000E16017D16FF0030101EA5A01214405F000
:1004D0001C040F23D1F820C003FA04FB13692CEA93
:1004E0000B0CA34043EA0C03019C0B62D2F804C03E
:1004F0000CF0030B21680BFA0EF20140114321604E
:10050000DDF808E01CF4403F8ED041F26000C4F2F8
:100510000200016840F2004C41F0010101600168F5
:10052000C4F2010C01F00101039103992AF00301C7
:100530004FF6084A6144CFF6FF7A05F00C030F200E
:1005400051F80A2000FA03F40098A24300FA03F3DA
:100550001A4341F80A20DCF80810DEF8042041EACA
:10056000090340F20C40D40258BF21EA0903CCF839
:100570000830C4F201000168940241EA090358BF3F
:1005800021EA09030360DCF80410940341EA09033B
:1005900058BF21EA0903CCF80430DCF80010D2037C
:1005A00041EA090358BF21EA0903CCF800303BE7D0
:1005B00004B0BDE8F08F000040F2BC00C2F20000C1
:1005C0000068704740F2000040F2BC01C2F2000037
:1005D000C2F2000140680A681044086070470000D9
:1005E00080B5032000F078F80F2000F009F800280B
:1005F0001CBF012080BD00F029F8002080BD000054
:1006000070B540F20006C2F200067168E1B104461E
:1006100040F20800C2F200004FF47A720068B2FBA8
:10062000F1F1B0FBF1F000F0E7FC0F2C4FF0010509
:1006300008D838B94FF0FF3021460022002500F0DD
:100640001FF83460284670BD012070BD82B041F2B1
:100650005800C4F20200816841F0010181608168A4
:1006600001F0010101910199016841F0805101609F
:10067000006800F080500090009802B000F0D0B800
:1006800010B54EF60C5CCEF2000CDCF80030C3F373
:10069000022E8EF00704042C28BF0424BEF10303AD
:1006A0004FF0FF3E0EFA04F438BF0023A1439940F7
:1006B0000EFA03F39A43114300F00F02043A624426
:1006C00009010C3200F16043B0F1FF3FC8BF03F5F0
:1006D0006442117010BD00004EF60C51CEF20001C4
:1006E0000A684FF6FF031A4060F30A2242F0806066
:1006F00040F0FD7008607047B0F5007F42D00028E0
:1007000040F0808047F21400C4F2000050F8141C3E
:10071000C26E01F4C06122F48072B1F5806FC266CE
:100720002ED150F8141C012262F34A2140F8141C07
:1007300040F20801C2F200010968322251434DF62D
:100740008362C4F21B32A1FB0212910C02685205B3
:1007500011D54A1C0FD0026852050CD559B1026858
:10076000520508D5012906D00268520503D5022991
:10077000A1F10401EAD10068400544BF032070479D
:100780000020704747F21400C4F2000050F8141C17
:10079000C26E01F4C06142F48072B1F5806FC2662E
:1007A000EED150F8141C012262F34A2140F8141CC7
:1007B00040F20801C2F200010968322251434DF6AD
:1007C0008362C4F21B32A1FB0212910C0268520533
:1007D00011D54A1C0FD0026852050CD559B10268D8
:1007E000520508D5012906D00268520503D5022911
:1007F000A1F10401EAD10068400544BF032070471D
:10080000BEE700BF47F21400C4F2000050F8141C09
:10081000022262F34A2140F8141C002070470000B5
:1008200047F20800C4F20000016841F48041016011
:10083000704700002DE9F04700286DD042F2000A11
:10084000C4F2020A0446DAF800000D4600F00F0078
:1008500088420CD2DAF8000020F00F002843CAF8D2
:100860000000DAF8000000F00F00A84254D121681F
:1008700041F20808C807C4F2020803D1880740F112
:10088000D880BDE0606802283AD0032840D158F8EB
:10089000082C920140D5D8F80420D8F8043042F250
:1008A000004702F00302C3F30313C0F2F40701335D
:1008B000032A04BF41F20027C0F27A07D8F80420C7
:1008C000B7FBF3F3D8F80470C2F306225A43C7F318
:1008D0004163022707EB4303B2FBF3F24BF2004301
:1008E000C0F2C4439A4261D9D8F8002012F0F00F48
:1008F00051D089075AD5A168002957D14BE000BFD4
:1009000058F8081C89035CBF0120BDE8F08707E0A8
:1009100058F8081C490503D40120BDE8F08700BF42
:10092000D8F8001001F00C0104293FD0D8F80010CD
:1009300001F00C01082939D0D8F8001001F00C01A1
:100940000C2933D1D8F80410D8F8042042F200431F
:1009500001F00301C2F30312C0F2F40301320329D0
:1009600004BF41F20023C0F27A03D8F80410B3FBAD
:10097000F2F2D8F80430C1F306215143C3F34162C7
:10098000022303EB4202B1FBF2F14BF20042C0F250
:10099000C44291420AD9D8F80010082262F3071124
:1009A0004FF00109C8F8001002E000BF4FF0000945
:1009B000D8F8001021F003010843C8F80000FFF741
:1009C000FBFD064641F28837D8F80000616800F068
:1009D0000C00B0EB810F07D0FFF7EEFD801BB84293
:1009E000F2D90320BDE8F0872168880708D4B9F15F
:1009F000000F1ED0D8F8000020F0F00017E000BF74
:100A0000480705D5D8F8000040F4E060C8F80000B9
:100A1000080706D5D8F80000072262F30D20C8F8B1
:100A20000000D8F80000A26820F0F0001043C8F8D9
:100A30000000DAF8000000F00F00A8421BD9DAF835
:100A4000000020F00F002843CAF80000FFF7B4FDB3
:100A5000064641F2883700BFDAF8000000F00F00C8
:100A6000A84207D0FFF7A8FD801BB842F4D90320A5
:100A7000BDE8F0872168480707D5D8F80000E2688C
:100A800020F4E0601043C8F80000080708D5D8F843
:100A90000000216920F4605040EAC100C8F800005D
:100AA000D8F8000042F20041C0F2F40100F00C005E
:100AB000042808462DD0D8F8000000F00C000828C3
:100AC00041F20020C0F27A0023D0D8F8002002F0D2
:100AD0000C020C2A1CD1D8F80420D8F8043002F0FB
:100AE0000302C3F303130133032A08BF0146D8F8F6
:100AF0000400B1FBF3F1D8F80420C0F3062048430A
:100B0000C2F34161022202EB4101B0FBF1F000E0CF
:100B10000020D8F8001043F24832C1F30311C0F6A8
:100B20000002515C40F2080201F01F0120FA01F1BD
:100B300040F20000C2F200000068C2F20002116040
:100B4000BDE8F047FFF75CBD2DE9F04182B0002819
:100B500000F006810446007841F20006C007C4F2A6
:100B6000020655D12078800774D42078000700F160
:100B700097802078400700F1B7802078800600F148
:100B80000781E069002840D0B16801F00C010C2910
:100B900040F05681012800F0E380F068216A00F0FF
:100BA00003028A4240F0DC80626A6FF00F0300F0BB
:100BB000F00103EB0212914240F0D280A16A00F4EE
:100BC000FE42B2EB012F40F0CB80E16A00F07842A8
:100BD000B2EBC16F40F0C480226B0023CFF6E0730C
:100BE00003EB025200F4C0016FF31402914240F093
:100BF000B780616B4FF07E4202EB016100F0C06094
:100C000001F07E41884240F0AB800020F1E100BF5E
:100C1000B06800F00C01F06808295BD0032281F075
:100C20000C0122EA00000844B0FA80F0400951D1DA
:100C30006068B0F5803F07D0B0F5A02F40F0D680B7
:100C4000306840F480203060306840F4803030609C
:100C5000D7E000BFB068F16800F00C00042869D04C
:100C600001F0030180F00C0081F002010844B0FAA9
:100C700080F040095ED1E1683068002900F0CE8044
:100C800040F480703060FFF797FC054630684005FF
:100C900000F1EC80FFF790FC401B0228F6D920E120
:100CA0006169D6F89400002900F08C8040F00100C2
:100CB000C6F89400FFF780FC054600BFD6F8940004
:100CC00080073FF556AFFFF777FC401B0228F5D9A8
:100CD00007E100BF306880037FF544AF60680028FB
:100CE0007FF440AF3CE000BFB06D10F0805808D1F9
:100CF000B06D40F08050B065B06D00F08050019054
:100D0000019847F20007C4F200073868C0052BD4E9
:100D1000386840F480703860FFF74EFC054600BF2D
:100D20003868C00520D4FFF747FC401B0228F7D9DC
:100D3000D7E000BF3068400501D5E06880B1706839
:100D4000216920F0FE4040EA0160706040F200003E
:100D5000C2F200000068FFF753FC00283FF405AF23
:100D6000012002B0BDE8F081A068012808D0052864
:100D700040F09A80D6F8900040F00400C6F8900049
:100D8000D6F8900040F00100C6F890009AE000BF4D
:100D9000A169D6F89800002970D040F00100C6F88B
:100DA0009800FFF709FC0546D6F8980080073FF544
:100DB000E8AEFFF701FC401B02284FF00300F3D917
:100DC00017E100BF20F00100C6F89400FFF7F4FB24
:100DD000054600BFD6F8940080077FF5CAAEFFF73E
:100DE000EBFB401B0228F5D97BE000BF31680028EF
:100DF00021F480313160316821F48021316000F0CC
:100E00008F80FFF7D9FB0546306880033FF5AAAE17
:100E1000FFF7D2FB401B6428F6D962E020F4807013
:100E20003060FFF7C9FB0546306840057FF59DAE91
:100E3000FFF7C2FB401B02284FF00300F4D9D8E0B3
:100E40003168022821F0807131604FD1FFF7B4FB87
:100E5000054600BF3068800140F18E80FFF7ACFB93
:100E6000401B02284FF00300F4D9C2E070682169EA
:100E700020F0FE4040EA0160706076E620F001005C
:100E8000C6F89800FFF798FB054600BFD6F8980013
:100E900080077FF576AEFFF78FFB401B02284FF0EF
:100EA0000300F3D9A5E000BFD6F89010002821F088
:100EB0000101C6F89010D6F8901021F00401C6F890
:100EC00090103DD0FFF778FB054641F2883700BF10
:100ED000D6F89000800745D4FFF76EFB401BB84260
:100EE000F6D9032002B0BDE8F08100BFF0684FF6EC
:100EF000FF7120F00300F060F068CFF6EE6108406B
:100F0000F060FFF759FB0446306880017FF57DAE45
:100F1000FFF752FB001B02284FF00300F4D968E0F2
:100F2000FFF74AFB054600BF306880037FF51AAE25
:100F3000FFF742FB401B64284FF00300F4D958E050
:100F4000FFF73AFB054641F2883700BFD6F890001C
:100F5000800707D5FFF730FB401BB8424FF0030076
:100F6000F4D946E0B8F1000F7FF407AEB06D20F081
:100F70008050B06501E600BFF06848F20C01C0F295
:100F80009F1104F1200700EA010C8ECF6FF00F00D3
:100F9000D4E90C5400EB02100022CFF6E07241EAD3
:100FA0000C0102EB055208436FF314024FF07E452B
:100FB00040EA032005EB0465104305F07E4540EA56
:100FC000C7602843F060306840F080703060F0689F
:100FD00040F08070F060FFF7EFFA0446306880015F
:100FE0003FF513AEFFF7E8FA001B02284FF00300AD
:100FF000F4D902B0BDE8F081411E0020B0EB116FC2
:101000001CBF012070474EF21002CEF20002516068
:101010004EF62351CEF20001F0230B7007219060B1
:1010200011607047F0B590F83C20012A04BF0220FF
:10103000F0BDD1E90232D1E900CE22F47C5223F492
:1010400070531A4348F2FF73CFF6F07303EA0E03AE
:1010500042EA030E0A692CF477234EEA030C22F4C9
:1010600076224B6942EA0C021A430B6B22F4742C71
:1010700023F470238A6943EA0C0343EA02430268BB
:1010800042F6004EC4F2010E45F2000C7245C4F265
:10109000010C18BF624521D1CC6923F08053234352
:1010A000724518BF624521D101F12006002770CE9C
:1010B000CFF6F04723F07C7307EA0656334324F05B
:1010C00000742343724543EA050318BF624515D1F6
:1010D000C96A23F000530B4316E000BF43F20044FB
:1010E000C4F20104A242D7D0DAE700BF43F20044C1
:1010F000C4F20104A24207D1D6E700BF43F2004781
:10110000C4F20107BA42E3D00021536480F83C10D6
:101110000846F0BD70B590F83C20012A4FF002025D
:1011200065D080F83D20026842F600435468D2F84A
:1011300008C0C4F2010345F2000E9A42C4F2010E47
:1011400018BF72452CD14D6824F470042C434FF61F
:101150008F75CFF6FF550E682C4042F6FF35C4F26E
:1011600001053443AA4254600EDC40F2FF73C4F21E
:1011700000039A421CDCB2F1804F2DD040F20043B4
:10118000C4F2000326E000BF43F6FF74C4F201047A
:10119000A24219DC9A421FD043F2004318E000BF7C
:1011A00043F20045C4F20105AA42CCD0CFE700BF0C
:1011B00040F60003C4F200039A420DD040F600430B
:1011C000C4F2000306E000BF724505D044F20003FC
:1011D000C4F201039A4204D189682CF080031943B8
:1011E00091600121002280F83D1080F83C201046DB
:1011F00070BD0000002804BF0120704710B50446F0
:1012000090F83D0028B9002084F83C00204600F00A
:1012100023F8022084F83D002068211D00F03AFDEB
:10122000012084F8480084F83E0084F83F0084F8E8
:10123000400084F8410084F8420084F8430084F8B8
:10124000440084F8450084F8460084F8470084F898
:101250003D00002010BD000081B0006842F6004152
:10126000C4F20101884201D001B0704741F2600030
:10127000C4F20200016841F400610160006800F4FA
:1012800000600090009801B07047000080B590F8B1
:101290003C20012A4FF0020200F0988080F83D20A7
:1012A000D0F800C08822DCF80830CFF6CE721A40A1
:1012B000CCF808200B68B3F5005F0DDA3F2B21DD79
:1012C0005F2B33DD602B00F08380702B00F0A28059
:1012D000B3F5805F73D0E7E02F22C0F21002934293
:1012E00018DD4F21C0F210018B4247DD5021C0F2C2
:1012F00010018B4257D06021C0F210018B4252D0B6
:1013000070214BE01F2B41DC002B4CD0102B4AD01E
:10131000CAE000BFB3F1101F3EDAB3F5005F00F082
:101320008D80B3F5801F3ED0BEE000BF402B00F0A3
:101330009980502B40F0B880D1F804E0C968DCF8FF
:101340002030DCF8202022F00102CCF82020DCF84C
:10135000182022F0F00242EA011123F00A0242EAC8
:101360000E02CCF81810CCF82020DCF808104FF64C
:101370008872CFF6CF72114057311EE03021C0F293
:1013800010018B420FD0402108E000BF202B0AD073
:10139000302B08D088E000BF05D02021C0F210011A
:1013A0008B4240F08180DCF808104FF68872CFF64F
:1013B000CF721140194341F00701CCF80810002208
:1013C000012180F83D10002180F83C10104680BDBE
:1013D000D1F804E0C968DCF8203023F01003CCF821
:1013E0002030DCF81830DCF8202023F4704322F0A1
:1013F000A00243EA013142EA0E12CCF81810CCF8F0
:101400002020DCF808104FF68872CFF6CF7211401A
:101410006731D2E7D1E901E3C968DCF8082043EA83
:101420000E0322F47F4243EA01211143CCF8081055
:10143000DCF8081041F07701BFE700BFD1E901E314
:10144000C968DCF8082043EA0E0322F47F4243EA2D
:1014500001211143CCF80810DCF8081041F4804158
:10146000ABE700BFD1F804E0C968DCF82030DCF855
:10147000202022F00102CCF82020DCF8182022F0F5
:10148000F00242EA011123F00A0242EA0E02CCF80D
:101490001810CCF82020DCF808104FF68872CFF630
:1014A000CF721140473188E7012289E72DE9F041E9
:1014B00090F83C30012B04BF0220BDE8F0814FEAD8
:1014C000B202052A00F2A281DFE812F00600540001
:1014D000AE0008016201A80103681A6AA3F1804600
:1014E00022F001021A621D6A1A46D3F8048052F8EB
:1014F00018EF8F68A6F59636D1F800C025F00205E2
:101500004FEAB626092E45EA07050BD80127B74052
:1015100040F2E52427421FBFCC6825F00C0524F0DB
:1015200004042543092E0CD80124B44040F2E526DA
:1015300034421FBF28F44074D1E90567344344EABC
:1015400007084FF68C74CFF6FE740EEA040747EADC
:101550000C07C3F804809F614F6809695F631D62CF
:101560009F6947F008079F619F6927F004079F6103
:1015700092E100BF036842F600461A6AC4F201060F
:1015800022F010021A621D6A1A465C6852F818EFBF
:10159000B3428E68D1F800C025F0200545EA061553
:1015A0000BD045F20006C4F20106B34205D043F267
:1015B0000046C4F20106B34207D1CE686FF040077F
:1015C00025F0C00507EA06163543A3F18046A6F5C7
:1015D00096364FEAB626092E0ED8012707FA06F6E8
:1015E00040F2E5273E421FBF24F44064D1E905677D
:1015F00044EA860444EA870448F6FF46CFF6FF66CD
:101600000EEA060747EA0C275C609F614F6809698C
:101610009F631D629F6947F400679F619F6927F47C
:1016200080679F6137E100BF036842F600461A6A8F
:10163000C4F2010622F480721A621D6A1A465C68BE
:1016400052F81CCFB3428E68D1F800E025F4007543
:1016500045EA06250BD045F20006C4F20106B34266
:1016600005D043F20046C4F20106B34207D1CE686A
:1016700040F2FF47360225F44065BE433543A3F1EF
:101680008046A6F596364FEAB626092E0ED80127D3
:1016900007FA06F640F2E5273E421FBF24F4405405
:1016A000D1E9056744EA061444EA07144FF68C763C
:1016B000CFF6FE760CEA060747EA0E075C60DF61AC
:1016C0004F680969DF631D62DF6947F00807DF6162
:1016D000DF6927F00407DF61DEE000BF036842F640
:1016E00000461A6AC4F2010622F480521A621D6A88
:1016F0001A465C6852F81CCFB3428E68D1F800E0FD
:1017000025F4005545EA06350BD045F20006C4F233
:101710000106B34205D043F20046C4F20106B342CB
:1017200007D1CE6844F6FF77360325F44045BE4323
:101730003543A3F18046A6F596364FEAB626092E24
:101740000ED8012707FA06F640F2E5273E421FBFF2
:1017500024F44044D1E9056744EA861444EA871436
:1017600048F6FF46CFF6FF660CEA060747EA0E2763
:101770005C60DF614F6809691F641D62DF6947F4BF
:101780000067DF61DF6927F48067DF6183E000BF06
:1017900003681A6AA3F1804722F480321A621A465B
:1017A000A7F59637D3F820805D6852F850EFD1F84E
:1017B00000C08E684FEAB727092F0AD80124BC4021
:1017C00040F2E5273C421EBF4C6925F4803545EACE
:1017D000042528F4003444EA06444FF68C76CFF60C
:1017E000FE7603360EEA060747EA0C075D601F65C2
:1017F0004F6809699F641C621F6D47F008071F65E9
:101800001F6D27F004071F6546E000BF012100227D
:1018100080F83C200846BDE8F08100BF03681A6AE2
:10182000A3F1804722F480121A621A46A7F5963770
:10183000D3F820805D6852F850EFD1F800C08E6870
:101840004FEAB727092F0AD80124BC4040F2E52708
:101850003C421EBF4C6925F4802545EA842528F4C6
:10186000001444EA065448F6FF46CFF6FF6606F534
:1018700040760EEA060747EA0C275D601F654F6851
:101880000969DF641C621F6D47F400671F651F6DE7
:1018900027F480671F65090213681943116000214E
:1018A000002280F83C200846BDE8F081002804BFF3
:1018B0000120704710B5044690F83D0028B900207B
:1018C00084F83C00204600F023F8022084F83D0014
:1018D0002068211D00F0DEF9012084F8480084F81A
:1018E0003E0084F83F0084F8400084F8410084F80A
:1018F000420084F8430084F8440084F8450084F8EA
:10190000460084F8470084F83D00002010BD000028
:101910007047000061B10A1F4FEAB202032A15D8CE
:10192000DFE802F00218101C00F13F0318E000BFCE
:1019300090F83E20012A1CBF01207047022280F847
:101940003E202CE000F141030AE000BF00F1430318
:1019500006E000BF00F1400302E000BF00F14203D7
:101960001B78012B1CBF01207047032A0CD8DFE82D
:1019700002F0030F071300BF022280F83F200EE0A1
:10198000022280F841200AE0022280F8432006E08B
:10199000022280F8402002E0022280F84220026801
:1019A00001F01F010120136A00FA01F18B43136259
:1019B000136A0B43A2F18041A1F596314FEAB121A0
:1019C0000729136258D8884010F0E50F54D0506CA6
:1019D00042F6FF31C4F2010140F400408A425064F3
:1019E0000EDC40F2FF70C4F20000824218DCB2F15B
:1019F000804F2DD040F20040C4F2000026E000BF2E
:101A000043F6FF70C4F20100824215DC42F600404A
:101A1000C4F2010082421BD043F2004014E000BF38
:101A200040F60000C4F20000824211D040F60040AF
:101A3000C4F200000AE000BF45F20000C4F2010059
:101A4000824205D044F20000C4F2010082420CD16F
:101A500090680721C0F20101014006294FF0000003
:101A600008D0B1F5803F08BF7047106840F0010012
:101A700010600020704700BF42F6FF30C4F2010042
:101A80008242AEDD43F6FF70C4F201008242BDDD4A
:101A900044F20000C4F201008242D9D045F20000B5
:101AA000C4F201008242E0D1506C40F40040506426
:101AB000CEE70000FEE7000082B041F24C00C4F225
:101AC0000200016841F020010160016801F020017D
:101AD00001910199016841F004010160006800F082
:101AE00004000090009802B070470000B0B5A0B0AC
:101AF00042F60045002468463421C4F201051A94D8
:101B0000CDE91844CDE91544CDE91344CDE911449C
:101B1000CDE90F44CDE90D44FEF7CEFB40F2700055
:101B2000C2F20000A9214FF47A72C0E90051C0E965
:101B30000242C0E904448461FFF75CFB002818BF3F
:101B4000FEF732FC4FF48050179040F27000C2F262
:101B5000000017A9FFF79AFB002818BFFEF724FC26
:101B600040F27000C2F20000FFF7A0FE002818BF8C
:101B7000FEF71AFC40F270000024C2F2000014A923
:101B8000CDE914441694FFF7C5FA002818BFFEF7F4
:101B90000BFC6020CDE90D0440F27000C2F20000A1
:101BA0000DA90022CDE90F44CDE911441394FFF7AC
:101BB0007DFC002818BFFEF7F7FB40F27000C2F270
:101BC00000000DA90422FFF771FC002818BFFEF7E2
:101BD000EBFB40F27000C2F200000DA90822FFF7F3
:101BE00065FC002818BFFEF7DFFB00204FF4005112
:101BF00040F27004CDE905104FF00071C2F200040C
:101C00000490CDE90200CDE90000CDE90700CDE95F
:101C10000910CDE90B0069462046FFF703FA0028BA
:101C200018BFFEF7C1FB2068A84201D020B0B0BDAC
:101C300041F24C00C4F20200016841F0040101606D
:101C40000068002100F004001B901B9807201B90E7
:101C500002201C901F9040F60000CDE91D11C4F633
:101C600000001BA9FEF7BAFB20B0B0BDFEE70000E4
:101C7000FEE700007047000070470000FEF7A2BCBE
:101C80004EF68850CEF20000016841F47001016008
:101C90007047000080B540F6FF330268C4F20003CD
:101CA00043F2FF3C9842C4F2010C0BDD60452FDC8F
:101CB00040F60043C4F20003984235D042F6004398
:101CC0002EE000BFB0F1804F2ED040F20043C4F2AE
:101CD0000003984228D040F60003C4F20003984263
:101CE00022D0604526DC40F2FF73C4F20003984224
:101CF00036DD40F60003C4F20003984244D040F6BB
:101D00000043C4F2000398423ED042F6004337E05D
:101D100045F20003C4F20103984205D043F20043A8
:101D2000C4F201039842DCD14B6822F070021A43DE
:101D30006045D8DD44F2FF33C4F20103984217DD59
:101D400044F20043C4F2010398421DD045F200035F
:101D5000C4F20103984217D044F6000310E000BF1C
:101D6000B0F1804F10D040F20043C4F2000309E00C
:101D700043F20043C4F20103984205D044F2000349
:101D8000C4F20103984203D1CB6822F440721A4393
:101D90004B6922F0800E8A6843EA0E03D1F800C036
:101DA0000360C262A0F18042A2F596324FEAB222ED
:101DB000092AC0F828C008D8012303FA02F240F229
:101DC000E5231A421CBF096901630121416180BDFD
:101DD000FEE70000000000009CB0FEF701FC0024BC
:101DE0000020CDE91344CDE91144CDE90F44FEF7BD
:101DF00083FC4FF480711191402112910421022043
:101E0000179155210E90CDE91500CDE91810CDE9B7
:101E10001A000EA8FEF798FE20B1EFF3108072B6FC
:101E2000FEE700BF0F2009900320CDE90A0409A8AE
:101E30000421CDE90C44FEF7FDFC28B1EFF310803E
:101E400072B600BFFEE700BFFFF736FEFFF74EFE9B
:101E500040F27005C2F2000528460021FFF75AFD46
:101E60002846042104220592FFF754FD2846082144
:101E7000FFF750FD9FED460B022551EC100B9FED37
:101E8000460B0391089051EC100B9FED450BCDE9EB
:101E9000011051EC100BC80F9FED430B0090039EF7
:101EA0009DE880054FF0030951EC100BCDE90610B9
:101EB00064200495FEF77EFA284600F080FF089C17
:101EC0003346224600F0A6FF5246434600F0C0FDCE
:101ED00041EC100B00F084F8079D51EC100B069BB1
:101EE00067F3DF712A4600F095FF00F03BFF40F2F8
:101EF000700BC2F2000BDBF800104863484600F09C
:101F00005EFF2246334600F085FF5246434600F00E
:101F10009FFD41EC100B00F063F8DDF818B051ECB8
:101F2000100B67F3DF712A465B4600F073FF00F089
:101F300019FF40F27001C2F2000109688863059C34
:101F4000204600F03CFF089A049D334600F062FFF3
:101F50005246434600F07CFD41EC100B00F040F887
:101F600051EC100B079A67F3DF715B4600F052FFEC
:101F700000F0F8FE40F27001C2F20001096804347A
:101F8000C863023509F10309059491E700BF00BF5A
:101F9000F1D4C853FB2109400000000000806640D6
:101FA00000000000000000000000000000408F4022
:101FB00003B401984100009850EAC12018BF0420E2
:101FC0004A0D18BF40F0010040F2FF72B2EB515FC2
:101FD00008BF40F00200012808BF052002B070478A
:101FE00010B52F499FED2C1B2DED020B84B00598E9
:101FF00020F000408842DCBF00209DED040B32DD64
:102000002849884209D1049840B94FF00100FEF7F1
:1020100082F900F03DFC06B010BD05DB9DED040B20
:1020200000F02AFC06B010BD68469DED040B00F0E0
:102030003BF810F0030011D0012818D09DED021BD1
:102040009DED000B02281AD000F04AFA51EC100B5B
:1020500000F04AFC06B041EC100B10BD9DED021BD8
:102060009DED000B012000F06FFB06B010BD9DED53
:10207000021B9DED000B00F033FA06B010BD0120ED
:1020800000F062FB51EC100B00F02EFC06B041ECAE
:10209000100B10BD00000000000000000000000058
:1020A000FB21E93F0000F07F2DE9F14F04462DEDC3
:1020B000020B2DED088B8AB09FEDE70B80ED020B34
:1020C000139EE74826F0004585420ADC9DED120B81
:1020D000002084ED000B0AB0BDEC088B03B0BDE816
:1020E000F08FE0489FEDE0AB9FEDE1BBA84247DDFC
:1020F000E14F9FEDE39B9FEDE48B9DED120B53ECC5
:102100001A2B51EC100B002E1CDD00F08DFF41EC62
:10211000100BBD4208D053EC1B2B51EC100B00F000
:1021200083FFC4E900010BE053EC192B51EC100BB9
:1021300000F07AFF53EC182B00F076FFC4E90001A1
:102140000120C8E700F0DCFB41EC100BBD4208D0D9
:1021500053EC1B2B51EC100B00F0D2FBC4E9000137
:102160000BE053EC192B51EC100B00F0C9FB53ECB6
:10217000182B00F0C5FBC4E900014FF0FF30AAE7BF
:10218000C348A84279DB9DED120B51EC100B00F017
:102190009FFB41EC180B9FEDC00B53EC102B00F094
:1021A00039FE9FEDBF1B53EC112B00F0A9FB00F093
:1021B000A9FD074600F003FE41EC190B53EC1A2B66
:1021C00000F028FE53EC182B00F022FF41EC180B16
:1021D00053EC1B2B51EC190B00F01CFEDFF8C8A2CE
:1021E00041EC100B4FEA15580125FA4453EC102B23
:1021F00051EC180B00F018FF032DC4E900013DD08D
:10220000C1F30A5005EB4511A8EB000011398142DA
:1022100034DA0AEB051BB0EE48AA9BED000BF0EE9A
:1022200068AA53EC102B51EC190B00F0F3FD41ECB4
:102230001B0B51EC1A0B53EC1B2B00F0F5FE41EC81
:10224000180B51EC1A0B53EC182B00F0EDFE53EC6D
:102250001B2B00F0E9FE9BED020B41EC1A0B53EC3B
:10226000102B51EC190B00F0D5FD53EC1A2B00F09C
:10227000DBFE41EC100B6D1CB8E70EE0002EA8BF92
:102280003846BFF628AF94ED000B51EC100B00F070
:102290002BFBC4E9000178421DE7C6F3130040F4AC
:1022A000801EC6F30A50A0F2F530471100F01F055A
:1022B000C5F12000DDF848B0089000200690079096
:1022C0000520EC467949002D07EB0002794408BF50
:1022D00051F8221009D051F8223001EB8201AB40B5
:1022E0004A68089922FA01F11943A1FB0E26A1FBC5
:1022F0000B131A449A4234BF0123002303EB060850
:102300000CEB8003D3E901A60E448E4234BF0121B9
:10231000002192448A4411B1924502D903E09245CA
:1023200001D2012100E00021C3E901A641444CF89B
:102330002010011EA0F10100C4DC029800F1005041
:10234000850F0298DDE903678000DDF8148000F056
:1023500036FD41EC1A0B304600F048FD9FED541B52
:1023600053EC112B00F056FD41EC1B0B384600F0EE
:102370003DFD9FED511B53EC112B00F04BFD41EC4B
:10238000180B404600F032FD9FED4D1B53EC112B16
:1023900000F040FD41EC190B51EC180B53EC192BDC
:1023A00000F0AEFA53EC1B2B00F0AAFA53EC1A2BF8
:1023B00000F0A6FACDE90801002008909DED080B79
:1023C00053EC1A2B51EC100B00F02EFE53EC1B2B90
:1023D00000F02AFE53EC182B00F026FE53EC192BCC
:1023E00000F016FE9FED381B53EC112B00F012FD90
:1023F0009FED370B41EC180B53EC102B9DED080BA8
:1024000051EC100B00F006FD53EC182B00F078FA9D
:102410009FED310B41EC180B53EC102B9DED080B8D
:1024200051EC100B00F0F6FC53EC182B00F068FA9E
:1024300041EC100B139810F0004F06D06D4251EC98
:10244000100B00F051FA41EC100B284684ED000B04
:1024500041E6000000000000000000000000000055
:10246000FB21E93F7CD9024000004054FB21F93FA9
:102470003163621A61B4D03DFB21F93F00000000D6
:102480000000601A61B4D03D7370032E8A19A33B1B
:10249000FB2139410000000083C8C96D305FE43F73
:1024A000000000000000E03F62100000B00F0000DC
:1024B000000000000000103E000000000000103C82
:1024C000000000000000103A182D4454FB21F93D93
:1024D0003326A611460B113C00000054FB21F93DA8
:1024E00010B52DED040B2DED088B82B0B0EE419AA6
:1024F000F0EE619A0B9820F000449FED4BABB4F1E5
:10250000795F11DA9DED0A0B51EC100B00F0FAFB2C
:10251000002801BFB0EE4A0AF0EE6A0A02B0BDEC34
:10252000088B04BF04B010BD9DED0A0B53EC102BBB
:1025300051EC100B00F06EFC41EC180B3C480621EE
:10254000B0EE480AF0EE680A784400F081F853ECE7
:10255000182B51EC100B00F05DFC9DED0A0B41ECCB
:102560001B0B53EC192B51EC100B00F053FC41ECFE
:10257000190B53EC1B2B51EC180B00F04BFC53ECDC
:10258000192B00F051FD9FED2C0B41EC190B53EC76
:10259000102B51EC180B00F03DFC41EC100B2848BF
:1025A000844210DA53EC192B51EC100B00F03CFD77
:1025B00053EC1A2B00F02CFD41EC100B02B0BDECDB
:1025C000088B04B010BD1F48A042BCBF9FED1E1B6E
:1025D0008DED001B06DBA4F500100190002000909B
:1025E0009DED001B51EC100B53EC112B00F01CFD6A
:1025F0009DED000B41EC180B53EC102B51EC1A0B1A
:1026000000F012FD41EC1A0B53EC192B51EC180B96
:1026100000F00AFD53EC1A2B00F0FAFC41EC100B11
:10262000CCE7000000000000000000000000F03FC8
:10263000D40C000000000000000000000000E03F9B
:102640003333D33F0000E93F000000000000D23FD9
:1026500070B504462DED028B4D1E00EBC500B0EEAB
:10266000408AF0EE608A90ED000B35F0060017D03E
:1026700053EC182B51EC100B00F0CCFB41EC100B81
:102680006D1E04EBC50090ED001B51EC100B53ECDC
:10269000112B00F035F941EC100B35F00600E7D1B5
:1026A000022D36D0042D1CD0062D1CBFBDEC028B94
:1026B00070BD53EC182B51EC100B00F0ABFB94EDFC
:1026C0000A1B53EC112B00F01BF953EC182B00F0F4
:1026D000A1FB94ED081B53EC112B00F011F941EC18
:1026E000100B53EC182B51EC100B00F093FB94EDF6
:1026F000061B53EC112B00F003F953EC182B00F0E0
:1027000089FB94ED040B53EC102B00F0F9F841EC2D
:10271000100B53EC182B51EC100B00F07BFB94EDDD
:10272000021B53EC112B00F0EBF853EC182B00F0CC
:1027300071FB94ED001B53EC112B00F0E1F8BDECA4
:10274000028B41EC100B70BD31B504462DED040B2E
:102750002DED0A8BB0EE41BAF0EE61BA0B989DED0B
:102760000A0B20F00040B0F1795F0DDA51EC100B4C
:10277000FFF71EFC042808BF00F09AF89DED0A0B35
:10278000BDEC0A8B05B030BD53EC102B51EC100B97
:1027900000F040FB41EC180B9DED0A0B53EC182B9D
:1027A00051EC100B00F036FB41EC190B2C48B0EE4D
:1027B000480AF0EE680A05217844FFF749FF9FEDCB
:1027C0002ACBB0EE40AAF0EE60AA9CB353EC1C2BCF
:1027D00051EC190B00F01EFB41EC1C0B53EC1A2BB7
:1027E00051EC190B00F016FB9FED210B41EC190B7E
:1027F00053EC102B51EC1B0B00F00CFB53EC192B82
:1028000000F012FC53EC182B00F004FB53EC1B2BD4
:1028100000F00AFC53EC1C2B00F006FC9DED0A1B9B
:1028200053EC112B00F0F4FBBDEC0A8B05B041EC2E
:10283000100B30BDFFE753EC1A2B51EC180B00F0D6
:10284000E9FA53EC1C2B00F05BF853EC192B00F069
:10285000E1FA9DED0A1B53EC112B00F051F8E3E770
:10286000640B000000000000495555555555C5BF83
:10287000000000000000E03F10B553EC102B51ECBD
:10288000100B00F03DF841EC100B10BD00000000F3
:102890009FED050B10B553EC102B51EC100B00F015
:1028A000D7F841EC100B10BD000000000000000044
:1028B0009FED050B10B553EC102B51EC100B00F0F5
:1028C000A9FA41EC100B10BD000000000000001040
:1028D00082B0CDE9000121F0004001909DED000B98
:1028E00002B051EC100B704781F00041704780F04E
:1028F0000040704721F00041704720F000407047D1
:1029000010B591EA030F48BF83F0004300F19483B0
:10291000841A71EB030C05D2121943EB0C03001B54
:1029200061EB0C014FEA1154A4EB135CDFF81CE1DE
:102930001EEA430F18BF9EEA445F00F0748021EA4C
:10294000045123EA0E0343F48013DCF1200E32D34A
:1029500022FA0CFE10EB0E0023FA0CFE41EB0E01E6
:10296000CCF1200E03FA0EFE10EB0E00CCF1200E7F
:1029700051F10001B1F5801F32D201EB045112FA7E
:102980000EF2BDE8104058BF7047401C38BF5FEAE8
:10299000420218BF7047002814BF20F0010041F127
:1029A00000014FEA410313F5001F38BF7047A1F142
:1029B000C04100F027BB012A43EB0302ACF1200C1D
:1029C000DCF11F0E32BF4FF0000E23FA0CF310EBB8
:1029D000030041EB0451B4EB115FD0D0A1EB0451E3
:1029E00001F58011490801EB04515FEA30000ED374
:1029F00050F1000038BF12FA0EFE08D1BDE81040B9
:102A0000C9E7401C38BF5FEA4202CAD1C3E7BDE84C
:102A100010404FEA410313F5001F38BF7047A1F182
:102A2000C04100F0EFBA9EEA445F08D011EA5E0FA1
:102A3000BDE8104004BF01F0004100207047BDE830
:102A4000104070B500F090FA64FBBE3E0000E0FF5D
:102A50002DE9C04130B4DFF8A4C23CEA111418BF1C
:102A60003CEA131400F0ED801CEA111481EA03051E
:102A700044EAD57418BF1CEA131500F0C880A4EB13
:102A8000050404F17F7404F500344FF0004545EA75
:102A9000C12145EAC32341EA505143EA52534FEA68
:102AA000C0204FEAC222994208BF904200F09D80A8
:102AB0004FEA13650FF24416765D4FEA134506FBA5
:102AC00005F7C7F1807706FB07F74FEAD737A7FB73
:102AD00003687642A7FB06CEC8F5803838BFA8F158
:102AE000010807FB08E6A6FB028C4FF0000EE6FB90
:102AF00003CEDCF1000CCEF1004E38BFAEF1010E7A
:102B0000A6FB0C584FF00007E6FB0E87A1FB08C69A
:102B1000A0FB07CE16EB0E064FF0000545F10005B1
:102B2000E1FB076515F1E04E7EBFA4F580345FEA56
:102B300046066D4116F1800745F100054FEA17275B
:102B400047EA05674FEA15254FEA0666A6F1DE4615
:102B5000B6F1805F20D9384605EBC47124F0010C32
:102B600001EB0C11BCF1FE6F02D8F0BCBDE8008196
:102B700024425CBF01F5801E9EEAC47F02D4F0BCF3
:102B8000BDE80081244200F13980A1F1C041F0BCD0
:102B9000BDE8004100F036BA4FEAD02040EA41508B
:102BA0004FEAD1214FEAD22242EA43524FEAD323DD
:102BB000A7FB028607FB036605FB02661EEA0E0FF3
:102BC00058BFA6EB0056B6EB00564FEA520E4EEA3F
:102BD000C37E18EB0E0E56EB530EBCD518EB020855
:102BE0005E417F1C55F10005B5E74FF480154FF0AD
:102BF00000074FF000064FF00008ACE701F1C041BC
:102C000001F000414FF00000F0BCBDE800810CEA8B
:102C1000131511EA0C1F00D00CE013EA0C1F00F092
:102C200026804FF0000081EA030101F00041F0BC72
:102C3000BDE80081F0BCBDE8004181EA030100F07D
:102C4000E1B9F0BCBDE8004170B500F08DF900BFFE
:102C5000097EFC3E00F007B84FF0000081EA030156
:102C600001F00041704781EA030100F0CBB9F0BCEC
:102C7000BDE8004122494FF000007047FFFDFBF91D
:102C8000F7F5F4F2F0EEEDEBE9E8E6E4E3E1E0DE9F
:102C9000DDDBDAD8D7D5D4D3D1D0CFCDCCCBCAC811
:102CA000C7C6C5C4C2C1C0BFBEBDBCBBBAB9B8B738
:102CB000B6B5B4B3B2B1B0AFAEADACABAAA9A8A82B
:102CC000A7A6A5A4A3A3A2A1A09F9F9E9D9C9C9BF9
:102CD0009A999998979796959594939392919190A4
:102CE0008F8F8E8E8D8C8C8B8B8A89898888878735
:102CF0008685858484838382828181800000FF07AA
:102D00000000F87F4FEA41034FEA5353A3F5806375
:102D1000D3F11E03C8BFD3F1210C0CDD4FF00042EC
:102D200042EAC12242EA505232FA03FC8CEAE17CC8
:102D3000ACEBE1707047102BC4BF0020704703F567
:102D4000787CBCF1FF3F04D06FF0004282EA2100A2
:102D5000704770B500F008F9499224800020704750
:102D6000F2E700004FEA1153A3F58063D3F11E038D
:102D7000A8BFD3F1200C08DB4FF0004242EAC12289
:102D800052EA505232FA03F0704709420BD4102B2A
:102D9000C4BF0020704703F5787CBCF1FF3F05D02D
:102DA0004FF0FF3070474FF00000704770B500F0F3
:102DB000DBF800BF4992248000207047F0E710F054
:102DC000004248BF4042B0FA80F310FA03F10AD043
:102DD000C3F11D0303F5806302EB03524FEA415038
:102DE00002EBD12170474FF000007047B0FA80F33A
:102DF00010FA03F10AD0C3F11D0303F580634FEA13
:102E000003524FEA415002EBD12170474FF00000CE
:102E10007047000070B5DFF848C11CEA111E1EBFE4
:102E20001CEA13159EEA0C0F95EA0C0F00F06F8058
:102E300081EA03044EEAD47EAE4421EA4C1123EA2F
:102E40004C1341F4801143F48013AEF17F7EA1FB5B
:102E5000024CA0FB0365361955EB0C05A1FB034C96
:102E60004CF10003A0FB021C16EB0C06654153F16C
:102E70000003094218BF46F0010613F4007F0BD18E
:102E80004FEA03314FEA053041EA155140EA165046
:102E900034036FF003020AE04FEAC3214FEAC52072
:102EA00041EA555140EA5650F4026FF0020202EB3B
:102EB0002E4201EB025585EACE710AD05FEA440C3E
:102EC00018BF24F0004450F1000041F1000120EA55
:102ED000D47040F2FE7C624500D270BDA84214BF9F
:102EE0004FF080444FF04044002E08BF0024BEF154
:102EF000806FA8BFA1F1C041BDE8704080F2828020
:102F000001F1C04101F000414FF0000070470CEAB0
:102F100013159EEA0C0F18BF95EA0C0F06D081EA34
:102F2000030E4FF000000EF0004170BD00F01CF8E1
:102F30008900013E00F007B800F009B84FEA430CE1
:102F40005FEA5C5C08D081EA030100F05BB84FEAFD
:102F5000410C5FEA5C5CF6D102494FF0000070471B
:102F60000000FF070000F87F0EF1020E2EF0030EA6
:102F70005EF8046B364205D4012A43EB030515F5D0
:102F8000001F12D8012841EB010C1CF5001F0CD8C2
:102F90000ED14FEAD17C0CEB4C0C0CF1020C15F568
:102FA000001F08BF4CEBD37C04E04FF0080C01E09D
:102FB0004FEAD37C0CEB4C0526FA05F606F0070623
:102FC000B6F1040C06D20EEB860CBDE870404CF056
:102FD000010C6047DFE80CF0090B02024FF00041E2
:102FE000A1F500214FF0000070BD194610460128E0
:102FF00051EB010418BFD4F5001484BF002001F088
:10300000004170BD0808A0F500114FEA310170477A
:1030100010B591EA030F81F000413FF579AC83F0E0
:10302000004300F009B8000010B591EA030F48BF53
:1030300083F000433FF56CAC841A71EB030C07D2AC
:103040008CF0004C121943EB0C03001B61EB0C01DC
:103050004FEA1154A4EB135CDFF8A4E11EEA430F1E
:1030600018BF9EEA445F00F0B48021EA045123EACD
:103070006E035242C3EB6E0338BF5B1EDCF1200EC1
:1030800025D322FA0CFE10EB0E0043FA0CFE41EBA6
:103090000E01CCF1200E03FA0EFE10EB0E00CCF167
:1030A000200E51F1000129D401EB045112FA0EF265
:1030B000BDE8104058BF7047401C1CBFB2F1004F24
:1030C000704700280CBF491C20F00100704712EB2C
:1030D000020E43EB030218BF4FF0010E4EEA42020C
:1030E000ACF1200CDCF11E0E56D943FA0CFE10EBAD
:1030F0000E00CCF11E0E51F1FF31D5D50EF1010EAF
:1031000012FA0EFE404141EB010101EB445C5FEA23
:103110005C5C10D901EB045110EBDE7038BFBEF1DE
:10312000004FBDE8104018BF704700280CBF491C75
:1031300020F00100704734D24FEAD42C24F400640C
:1031400011F500111BD0B1FA81F20B3AA41AA41E9A
:10315000D2F12003914030FA03F31943904001EB80
:10316000CC7101EB0451002CBDE81040A8BF7047A2
:1031700001F1C04101F000414FF000007047B0FA8A
:1031800080F310FA03F102D1BDE810407047E41A51
:10319000173C4805C90AE2E701EB0451BDE81040BD
:1031A000704749104FEA300001EB0451BDE8104070
:1031B00002E04FF0000170474A0008BF0042F8D01B
:1031C000B2F5001F28BF704701F000414FF000002A
:1031D00070479EEA445F07D011EA5E0FBDE81040D9
:1031E00004BF002100207047BDE8104070B5FFF714
:1031F000BBFE00BF40DFF63E104683F00041704743
:103200000000E0FFF1EE100A4FF6FF71C0F2C0318E
:1032100020EA010040F04070E1EE100A7047000023
:103220004C5555555555A53F7751C1166CC156BFE4
:103230009015CB19A001FA3EAD529C804F7E92BEF4
:10324000C4B1B4BD9EEE213ED43888BEE9FAA8BD13
:1032500000004054FB21F93F3163621A61B4D03D54
:103260000000601A61B4D03D7370032E8A19A33B2D
:103270000000002E8A19A33BC14920259A837B397F
:1032800000000000000000006E83F9A22915444EE2
:10329000D15727FCC0DD34F5999562DB4190433C62
:1032A000AB6351FE61C5BBDE3A6E24B7E0D24D423E
:1032B000EA2E49061C92D1091CEB1DFE3EA729B13E
:1032C000F53582E88444BB2E26709CE9417E5FB4CC
:1032D00039D69139F43953838B5F849C3B28F9BDEF
:1032E000FF97F81F0F9805DE8B112FEF1F6D0A5AFD
:1032F000CF7E366DB709CB27663F464F2DEA5F9EDE
:10330000C7BA27757BF1E5EBF739073DEA92528A98
:10331000B15FFB6B085D8D1F463003560000000057
:10332000A6F810111111813FD561C119A0012ABF62
:103330007DFEB157E31DC73EEB9C2B8AE6E55ABEE6
:103340007CD5CF5A3AD9E53D0000000000000000CE
:103350000102030406070809783300080000002072
:10336000100000001402000888330008100000203C
:10337000B00600003002000810000000010000004C
:083380000024F400000000002D
:04000005080001D915
:00000001FF
