:020000040800F2
:10000000A8040020ED01000819200008151F0008B1
:1000100015200008150300088130000800000000CA
:100020000000000000000000000000002120000887
:1000300019030008000000001D200008252000080A
:10004000070200080702000807020008070200086C
:10005000070200080702000807020008070200085C
:10006000070200080702000807020008070200084C
:10007000070200080702000807020008070200083C
:10008000070200080702000807020008070200082C
:10009000070200080702000807020008070200081C
:1000A000070200080702000807020008070200080C
:1000B00007020008070200080702000807020008FC
:1000C00007020008070200080702000807020008EC
:1000D0000702000875300008070200080702000840
:1000E00007020008070200080702000807020008CC
:1000F00007020008070200080702000807020008BC
:1001000007020008070200080702000807020008AB
:10011000070200080702000807020008070200089B
:10012000070200080702000807020008070200088B
:10013000070200080702000807020008070200087B
:10014000070200080702000807020008070200086B
:10015000070200080702000807020008070200085B
:10016000070200080702000807020008070200084B
:10017000070200080702000807020008070200083B
:10018000070200080702000807020008070200082B
:10019000070200080000000007020008070200082C
:1001A000070200080702000807020008070200080B
:1001B00007020008070200080702000807020008FB
:1001C00007020008070200080702000807020008EB
:1001D0000702000807020008DFF80CD000F082F8E0
:1001E00000480047A5300008A804002006488047C2
:1001F00006480047FEE7FEE7FEE7FEE7FEE7FEE70C
:10020000FEE7FEE7FEE7FEE729200008D901000827
:100210002DE9F05F0546002092469B46884606463B
:10022000814640241BE0284641464746224600F0CE
:1002300048F853465A46C01A914110D31146184601
:10024000224600F02FF82D1A67EB01084F46224690
:100250000120002100F026F817EB00094E41201E76
:10026000A4F10104DFDC484631462A464346BDE896
:10027000F09FD2B201E000F8012B491EFBD270477B
:100280000022F6E710B513460A4604461946FFF762
:10029000F0FF204610BD421C10F8011B0029FBD1C5
:1002A000801A7047202A04DB203A00FA02F100206D
:1002B00070479140C2F1200320FA03F319439040A4
:1002C0007047202A04DB203A21FA02F0002170470F
:1002D00021FA02F3D040C2F12002914008431946AE
:1002E000704700001CB50948009009480190054678
:1002F000009C06E0E06840F0010394E8070098479E
:100300001034AC42F6D3FFF76BFF000060320008F8
:1003100080320008FEE7000070470000EFF3108015
:1003200072B600BFFEE70000014690F825000228E3
:1003300028D180B50868D1E910CE8A6C036823F013
:100340000E030360136823F480731360026822F0C5
:10035000010202600EF01F00012202FA00F0CCF848
:100360000400D1E913205060486D30B1026822F4D6
:1003700080720260D1E9160242600020BDE8804030
:1003800003E000BF0420C8630120012281F825207A
:10039000002281F82420704790F82510022931D1DD
:1003A00080B50168D0E910CE826C0B6823F00E0393
:1003B0000B600B6823F001030B60116821F480715E
:1003C00011600EF01F02012101FA02F2CCF80420A4
:1003D000D0E913325A60426D32B1136823F480734E
:1003E0001360D0E91623536080F82510826B00213A
:1003F00080F824100AB190470021BDE880400846EB
:10040000704700BF0421C1630121002280F825103C
:1004100080F8242008467047B0B5044600F0F8F88C
:10042000054640F20400C2F200004068611C18BF9B
:10043000044400BF00F0ECF8401BA042FAD3B0BD6A
:100440002DE9F04F83B00E68002E00F0CF8000F150
:10045000200241F2004C009200F13847C4F6000C33
:1004600006224FEAB725604508BF0522052D38BF93
:100470004FEAB722002500274FF0000801920AE05A
:100480000E6808F1010836FA08F207F1020705F1D3
:10049000040500F0AB80012202FA08FE16EA0E09FC
:1004A000EED0D1F804C003220CF0030BABF101062F
:1004B00002FA07F4012E6FEA040A11D88468CE68A4
:1004C00004EA0A04BE4034438460446824EA0E0609
:1004D000CCF3001404FA08F42643466006E000BF9B
:1004E000BBF1030F02D14FF0030B21E0C6688C680B
:1004F00006EA0A06BC402643BBF1020FC66017D1CC
:100500006FF00302009B02EA580605F01C020F245C
:1005100053F806C004FA02FE0C692CEA0E0C04FA29
:1005200002F242EA0C029A51D1F804C00CF0030B1B
:1005300002680BFA07F302EA0A021A431CF4403F6E
:1005400002609DD041F26003C4F202031A6840F2D7
:10055000004E42F001021A601A68C4F2010E02F065
:1005600001020292029A28F003024FF6084C7244EC
:10057000CFF6FF7C52F80C3005F00C060F24B44087
:10058000A343019C04FA06F6334342F80C30DEF82C
:1005900008204B6842EA090640F20C4CDC0258BFC6
:1005A00022EA0906CEF80860C4F2010CDCF800204B
:1005B0009C0242EA090658BF22EA0906CCF800600C
:1005C000DEF804209C0342EA090658BF22EA090625
:1005D000CEF80460DEF80020DB0342EA090658BFCB
:1005E00022EA0906CEF800604AE700BF03B0BDE882
:1005F000F08F0000426902EA0103914341EA03419E
:10060000816170471823002A08BF2823C150704712
:1006100040F2A400C2F200000068704740F20400FB
:1006200040F2A401C2F20000C2F2000140680A6870
:10063000104408607047000080B5032000F08CF87B
:100640000F2000F009F800281CBF012080BD00F039
:100650002BF8002080BD0000B0B540F20405C2F2C6
:1006600000056968F1B1044640F20C00C2F20000D6
:100670004FF47A720068B2FBF1F1B0FBF1F000F0D8
:10068000C9FE01460F2C4FF001000AD8002918BFFF
:10069000B0BD4FF0FF302146002200F031F80020BD
:1006A0002C60B0BD0120B0BD82B041F25800C4F250
:1006B0000200816841F001018160816801F001015F
:1006C00001910199016841F080510160006800F0DA
:1006D00080500090009802B070470000002848BF8A
:1006E000704700F01F01012202FA01F11C2202EA08
:1006F000D0004EF20012CEF200028150704700008E
:1007000010B54EF60C5CCEF2000CDCF80030C3F3F2
:10071000022E8EF00704042C28BF0424BEF103032C
:100720004FF0FF3E0EFA04F438BF0023A143994076
:100730000EFA03F39A43114300F00F0200F16043F5
:100740000901043A03F564436244002848BF02F1FA
:100750000C03197010BD00004EF60C51CEF20001D2
:100760000A684FF6FF031A4060F30A2242F08060E5
:1007700040F0FD700860704747F21401C4F20001B8
:1007800051F8142CB0F5007F3CD0002874D1C86E0D
:1007900002F4C06220F48070B2F5806FC8662FD179
:1007A00051F8140C012262F34A2041F8140C40F273
:1007B0000C00C2F200000068322250434DF6836202
:1007C000C4F21B32A0FB0202900C00BF0A68520563
:1007D00011D5421C0FD00A6852050CD558B10A68D1
:1007E000520508D5012806D00A68520503D502280B
:1007F000A0F10400EAD10868400544BF0320704717
:1008000000207047C86E02F4C06240F48070B2F5F8
:10081000806FC866F4D151F8140C012262F34A20AB
:1008200041F8140C40F20C00C2F2000000683222C1
:1008300050434DF68362C4F21B32A0FB0202900CBF
:100840000A68520511D5421C0FD00A6852050CD512
:1008500058B10A68520508D5012806D00A68520521
:1008600003D50228A0F10400EAD10868400544BF7E
:1008700003207047C4E700BF022060F34A2241F81A
:10088000142C0020704700002DE9F04182B004468E
:10089000807841F288060007C4F2020602D40020E4
:1008A0002FE000BF56F8300C5FEAC0080BD456F8B2
:1008B000300C40F0805046F8300C56F8300C00F008
:1008C00080500190019847F20007C4F20007386891
:1008D00040F480703860FFF79BFE05463868C0051D
:1008E00000F10C81FFF794FE401B0228F6D903208B
:1008F000B8F1000F05D456F8301C21F0805146F8AD
:10090000301C2168CA0717D18A071DD44A0723D48F
:100910000A0729D4CA062FD48A0635D44A063BD4FE
:100920000A0641D4CA0547D48A034DD48A0553D454
:100930004A0559D467E000BF3268636822F00302B9
:100940001A4332608A07E1D53268A36822F00C02AC
:100950001A4332604A07DBD53268E36822F030027E
:100960001A4332600A07D5D53268236922F0C002E3
:100970001A433260CA06CFD53268636922F44072E6
:100980001A4332608A06C9D53268A36922F44062EC
:100990001A4332604A06C3D53268E36922F44052F2
:1009A0001A4332600A06BDD53268236A22F44042F7
:1009B0001A433260CA05B7D53268636A22F44032FE
:1009C0001A4332608A03B1D57269A36A22F0030226
:1009D0001A4372618A05ABD53268E36A22F4402279
:1009E0001A4332604A050ED53268236B22F4401256
:1009F0001A43B3F5801F326005D156F87C2C42F4BF
:100A0000801246F87C2C0A050ED53268636B22F4FE
:100A100040021A43B3F5800F326005D156F87C2CA2
:100A200042F4801246F87C2CCA040ED53268A36BBF
:100A300022F040721A43B3F1807F326005D156F83C
:100A40007C2C42F4801246F87C2C8A040ED5326845
:100A5000E36B22F040621A43B3F1006F326005D1BC
:100A600056F87C2C42F4801246F87C2C4A040ED5B1
:100A70003268236C22F040621A43B3F1006F326097
:100A800005D156F87C2C42F4801246F87C2C0A04DE
:100A90000ED53268636C22F040521A43B3F1805F86
:100AA000326005D156F87C2C42F4803246F87C2C1A
:100AB000CA030ED53268A36C22F040421A43B3F148
:100AC000804F326005D156F87C2C42F4803246F8D3
:100AD0007C2C49030ED57169E26C21F4401111435D
:100AE000B2F5001F716105D156F87C1C41F48011EC
:100AF00046F87C1C02B0BDE8F08100BFB06810F47D
:100B0000407010D0216D88420BD0B068B16820F4DD
:100B1000407041F48031B160B16821F48031B1603E
:100B2000B060C0070CD1B068216D20F4407008435C
:100B3000B0600020B8F1000F3FF5E3AEDBE600BF88
:100B4000FFF766FD054641F2883700BFB0688007B1
:100B5000E9D4FFF75DFD401BB842F7D9C7E60000B6
:100B60002DE9F047002863D042F2000AC4F2020ADD
:100B70000446DAF800000D4600F00F0081420CD95F
:100B8000DAF8000020F00F002843CAF80000DAF875
:100B9000000000F00F00A8424AD1216841F2080885
:100BA000C807C4F2020803D1880740F1D080B5E03D
:100BB000606858F8082C022838D003283CD19201EC
:100BC00036D5D8F80420D8F8043042F20046C3F3F2
:100BD000031302F00302D8F804700133C0F2F406E4
:100BE000032A04BF41F20026C0F27A06B6FBF3F2F4
:100BF000D8F80430C7F306277A43C3F341630227CA
:100C000007EB4303B2FBF3F24BF20043C0F2C443E1
:100C10009A4259D9D8F8002012F0F00F49D089072C
:100C200052D5A16800294FD143E000BF910305D4FC
:100C30000120BDE8F08700BF5105F9D5D8F80010B4
:100C400001F00C0104293FD0D8F8001001F00C018C
:100C5000082939D0D8F8001001F00C010C2933D143
:100C6000D8F80410D8F8042042F20047C2F3031267
:100C700001F00301D8F804300132C0F2F40703296F
:100C800004BF41F20027C0F27A07B7FBF2F1D8F8AF
:100C90000420C3F306235943C2F34162022303EB4A
:100CA0004202B1FBF2F14BF20042C0F2C442914267
:100CB0000AD9D8F80010082262F307114FF0010991
:100CC000C8F8001002E000BF4FF00009D8F800108B
:100CD00021F003010843C8F80000FFF799FC06461D
:100CE00041F28837D8F80000616800F00C00B0EBE2
:100CF000810F07D0FFF78CFC801BB842F2D903208C
:100D0000BDE8F0872168880708D4B9F1000F1ED02C
:100D1000D8F8000020F0F00017E000BF480705D524
:100D2000D8F8000040F4E060C8F80000080706D5D5
:100D3000D8F80000072262F30D20C8F80000D8F8A8
:100D40000000A26820F0F0001043C8F80000DAF8B4
:100D5000000000F00F0085421BD2DAF8000020F0FE
:100D60000F002843CAF80000FFF752FC064641F284
:100D7000883700BFDAF8000000F00F00A84207D063
:100D8000FFF746FC801BB842F4D90320BDE8F0878A
:100D90002168480707D5D8F80000E26820F4E06031
:100DA0001043C8F80000080708D5D8F800002169EA
:100DB00020F4605040EAC100C8F80000D8F80000F4
:100DC00042F20041C0F2F40100F00C000428084691
:100DD0002DD0D8F8000000F00C00082841F20020C7
:100DE000C0F27A0023D0D8F8002002F00C020C2ABE
:100DF0001CD1D8F80420D8F8043002F00302C3F361
:100E00000313D8F804700133032A08BF0146B1FB6D
:100E1000F3F0D8F80410C7F30627C1F341610222AA
:100E2000784302EB4101B0FBF1F000E00020D8F87C
:100E3000001043F21022C1F30311C0F60002515C0E
:100E400040F20C0201F01F0120FA01F140F204000F
:100E5000C2F200000068C2F200021160BDE8F04773
:100E6000FFF7FABB40F20C0041F20801C2F20000A9
:100E7000C4F202010068096843F22022C1F3022192
:100E8000C0F60002515C01F01F01C840704700002D
:100E900040F20C0041F20801C2F20000C4F202016B
:100EA0000068096843F22022C1F3C221C0F60002A3
:100EB000515C01F01F01C8407047000041F20C0175
:100EC000C4F2020151F8040C42F20042C0F2F402F2
:100ED00000F00C000428104608BF704751F8040CBD
:100EE00000F00C00082841F20020C0F27A0025D062
:100EF00051F8043C03F00C030C2B1CBF002070477E
:100F000080B5D1F800C00B680CF0030CC3F3031ECE
:100F10000B680EF1010EBCF1030F08BF0246096811
:100F2000B2FBFEF0C3F30623C1F341610222584332
:100F300002EB4101B0FBF1F0BDE8804070470000DA
:100F4000002804BF012070472DE9F04182B004461B
:100F5000007841F20006C007C4F202061ED12078D4
:100F600080073DD42078000764D42078400700F142
:100F700087802078800600F1D980E069002800F0A1
:100F8000C181B16801F00C010C2940F02F810128CA
:100F900040F08081012002B0BDE8F081B06800F02F
:100FA0000C01F068082961D0032281F00C0122EACB
:100FB00000000844B0FA80F0400957D161683068F9
:100FC000B1F5803F07D0B1F5A02F40F0E18040F4AB
:100FD00080203060306840F480303060E2E000BF54
:100FE000B068F16800F00C00042871D001F0030132
:100FF00080F00C0081F002010844B0FA80F0400952
:1010000066D1E1683068002900F0DE8040F480702D
:101010003060FFF7FDFA05463068400500F1FC80BE
:10102000FFF7F6FA401B0228F6D9032002B0BDE80C
:10103000F08100BF6169D6F89400002900F0928029
:1010400040F00100C6F89400FFF7E2FA054600BF41
:10105000D6F8940080073FF588AFFFF7D9FA401B18
:101060000228F5D9032002B0BDE8F0813068800382
:101070007FF575AF606800287FF471AF3EE000BF78
:10108000B06D5FEAC00808D4B06D40F08050B06524
:10109000B06D00F080500190019847F20007C4F253
:1010A00000073868C0052DD4386840F48070386077
:1010B000FFF7AEFA054600BF3868C00522D4FFF737
:1010C000A7FA401B0228F7D9032002B0BDE8F0813F
:1010D0003068400501D5E06880B17068216920F072
:1010E000FE4040EA0160706040F20400C2F200007D
:1010F0000068FFF7B1FA00283FF434AF012002B0D6
:10110000BDE8F081A168D6F89000012908D0052932
:1011100040F0A08040F00400C6F89000D6F890009F
:1011200040F00100C6F89000A0E000BFA169D6F829
:101130009800002978D040F00100C6F89800FFF729
:1011400067FA0546D6F8980080073FF516AFFFF717
:101150005FFA401B02284FF00300F3D902B0BDE84C
:10116000F08100BF20F00100C6F89400FFF750FAAC
:10117000054600BFD6F8940080077FF5F6AEFFF76E
:1011800047FA401B0228F5D9032002B0BDE8F081E0
:1011900020F4803030603068002920F480203060F6
:1011A00000F0CE80FFF734FA054600BF30688003B8
:1011B0003FF5D5AEFFF72CFA401B6428F6D9032083
:1011C00002B0BDE8F08100BF20F480703060FFF70E
:1011D0001FFA0546306840057FF5C4AEFFF718FAE0
:1011E000401B02284FF00300F4D9B7E7316802280A
:1011F00021F08071316040F08980FFF709FA0546DF
:101200003068800140F1C880FFF702FA401B0228D5
:101210004FF00300F4D9A1E77068216920F0FE4087
:1012200040EA016070609DE620F00100C6F8980079
:10123000FFF7EEF9054600BFD6F8980080077FF566
:101240009CAEFFF7E5F9401B02284FF00300F3D9ED
:1012500084E700BF20F00100C6F89000D6F89000A7
:10126000002920F00400C6F8900079D0FFF7D0F9EB
:10127000054641F2883700BFD6F89000800700F19C
:101280008180FFF7C5F9401BB842F5D9032002B0B1
:10129000BDE8F081F068216A00F003028A427FF421
:1012A0002DAF626A6FF00F0300F0F00103EB021242
:1012B00091427FF423AFA16A00F4FE42B2EB012F0A
:1012C0007FF41CAFE16A00F07842B2EBC16F7FF4AB
:1012D00015AF226B0023CFF6E07303EA025200F44D
:1012E000C001A2F5001291427FF408AF616B4FF08C
:1012F0007E4202EA016100F0C06001F17E41884255
:101300007FF4FCAE002002B0BDE8F081F0684FF63B
:10131000FF7120F00300F060F068CFF6EE61084046
:10132000F060FFF775F9044630688001EAD5FFF7F1
:101330006FF9001B02284FF00300F5D90EE700BF3C
:10134000FFF766F9054600BF306880037FF507AEFA
:10135000FFF75EF9401B64284FF00300F4D9FDE667
:10136000FFF756F9054641F2883700BFD6F89000DE
:10137000800707D5FFF74CF9401BB8424FF0030038
:10138000F4D9EBE6B8F1000F3FF5F3ADB06D20F006
:101390008050B065EDE500BFF06848F20C01C0F286
:1013A0009F1104F1200700EA010C8ECF6FF00F00AF
:1013B000D4E90C5400EB02100022CFF6E07241EAAF
:1013C0000C0102EA05520843A2F500124FF07E45D7
:1013D00040EA032005EA0465104305F17E4540EA32
:1013E000C7602843F060306840F080703060F0687B
:1013F00040F08070F060FFF70BF904463068800120
:101400003FF580AFFFF704F9001B02284FF00300FF
:10141000F4D9A3E6411E0020B0EB116F1CBF0120E0
:1014200070474EF21002CEF2000251604EF6235188
:10143000CEF20001F0230B7007219060116070471D
:1014400090F88010012904BF022070472421C0F8C1
:10145000841001680A680B6822F0005223F001032F
:101460000B60002343660A602021C0F8841080F8D6
:101470008030002070470000704700007047000077
:1014800090F88020012A04BF02207047B0B52422C2
:10149000C0F884200268D0F864E0D2F800C0136875
:1014A000BEF1000F23F001031360936823F0606323
:1014B00041EA0301916019D09368916843F2502E7C
:1014C000490FC0F6000E43F258251EF80140C0F641
:1014D0000005695CC3F34263E400B4FBF1F11EF85C
:1014E0000340EB5CE500B5FBF3F301E001210123D0
:1014F000A0F86A102021A0F86830C2F800C0C0F837
:101500008410002180F880100020B0BD90F8802069
:10151000012A04BF02207047B0B52422C0F88420FD
:101520000268D0F864E0D2F800C01368BEF1000F82
:1015300023F001031360936823F0604341EA030141
:10154000916019D09368916843F2502E490FC0F60C
:10155000000E43F258251EF80140C0F60005695CF4
:10156000C3F34263E400B4FBF1F11EF80340EB5C0B
:10157000E500B5FBF3F301E001210123A0F86A10B7
:101580002021A0F86830C2F800C0C0F88410002103
:1015900080F880100020B0BD704700007047000048
:1015A0007047000070B5026840F62F04D3691168D7
:1015B00096681C40202C0BD101F0200406F08055C9
:1015C0002D1916D0016F61B3BDE87040084700BF08
:1015D00040F60F052B420CD00125C1F2000506EAAA
:1015E000050C40F22015C0F200450D4015EB0C052E
:1015F00024D1C46EDD0615D5012C13D111F01005D0
:1016000010D0102111629168490661D4B0F85C10C5
:10161000B0F85E20B0F85E30002B18BF914240F069
:101620003B8270BDDD0215D516F4800512D04FF453
:1016300080111162BDE87040FFF7B0BFDD0718BF31
:1016400011F4807540F00C819D0706F0010E00F149
:1016500013811CE11A0606D501F0800206F400068B
:10166000921940F097825A0640F1EE8011F0400244
:1016700000F0EA80016851E8001F026821F0400193
:1016800042E80013DBB1016851E8001F026821F055
:10169000400142E8001393B1016851E8001F02685D
:1016A00021F0400142E800134BB1016851E8001FEE
:1016B000026821F0400142E80013002BDAD120211A
:1016C000C0F8841000214167BDE8704000F020BCE4
:1016D000C16F0A6853689CB2002CA2D0B0F85C10AD
:1016E0008C429ED2A0F85E301268920600F1A38070
:1016F000016851E8001F026821F4807142E800137C
:10170000DBB1016851E8001F026821F4807142E8F2
:10171000001393B1016851E8001F026821F4807141
:1017200042E800134BB1016851E8001F026821F440
:10173000807142E80013002BDAD1016851E8021FE2
:10174000026821F0010142E80213C3B3016851E8C5
:10175000021F026821F0010142E802137BB3016815
:1017600051E8021F026821F0010142E8021333B37D
:10177000016851E8021F026821F0010142E80213EA
:10178000002BDAD11BE000BF016851E8021F02689C
:1017900021F0400142E80213DBB1016851E8021F69
:1017A000026821F0400142E8021393B1016851E858
:1017B000021F026821F0400142E802134BB10168A8
:1017C00051E8021F026821F0400142E80213002B99
:1017D000DAD12021C0F888100021C166016851E8E3
:1017E000001F026821F0100142E80013DBB101681C
:1017F00051E8001F026821F0100142E8001393B184
:10180000016851E8001F026821F0100142E800134E
:101810004BB1016851E8001F026821F0100142E855
:101820000013002BDAD1C16F04460846FEF77CFD99
:10183000B4F85C102046B0F85E20891A89B2BDE881
:101840007040FFF719BE00BF1A0240F1AF8111F0DE
:10185000804200F0AB81BDE87040FFF79DBE00BF45
:1018600001251562D0F88C5045F00105C0F88C5068
:101870009D0706F0010E0AD5BEF1000F07D0022425
:101880001462D0F88C4044F00404C0F88C405C072B
:101890000AD5BEF1000F07D004251562D0F88C5090
:1018A00045F00205C0F88C501D070CD501F020054D
:1018B00055EA0C0507D008251562D0F88C5045F084
:1018C0000805C0F88C501D050BD511F0806508D0B7
:1018D0004FF400651562D0F88C5045F02005C0F833
:1018E0008C50D0F88C50002D3FF49BAE9B060BD54E
:1018F00001F0200106F08053C91805D0016F19B11D
:101900000446884722682046D0F88C10926801F07F
:10191000280102F04002891806D10446FFF740FE74
:101920000020C4F88C0070BD016851E8001F0268F7
:1019300021F4907142E80013DBB1016851E8001F07
:10194000026821F4907142E8001393B1016851E8F4
:10195000001F026821F4907142E800134BB1016846
:1019600051E8001F026821F4907142E80013002B37
:10197000DAD14FF6FE71CEF6FF7100BF026852E871
:10198000022F03680A4043E80226C6B1026852E803
:10199000022F03680A4043E8022686B1026852E833
:1019A000022F03680A4043E8022646B1026852E863
:1019B000022F03680A4043E80226002EDED1C16EE2
:1019C000012924D1016851E8001F026821F01001AB
:1019D00042E80013DBB1016851E8001F026821F002
:1019E000100142E8001393B1016851E8001F02683A
:1019F00021F0100142E800134BB1016851E8001FCB
:101A0000026821F0100142E80013002BDAD12021F6
:101A1000C0F888100021C166026801679168490614
:101A200040F1C080016851E8021F026821F04001C6
:101A300042E80213DBB1016851E8021F026821F09D
:101A4000400142E8021393B1016851E8021F0268A5
:101A500021F0400142E802134BB1016851E8021F36
:101A6000026821F0400142E80213002BDAD1C16F75
:101A7000002900F0978042F22512C0F600020446C9
:101A800008468A63FEF788FC00283FF4CAADE06F81
:101A9000816BBDE870400847891A00BF026852E8B0
:101AA000002F036822F4907243E80026DEB102683A
:101AB00052E8002F036822F4907243E8002696B1A2
:101AC000026852E8002F036822F4907243E800266F
:101AD0004EB1026852E8002F036822F4907243E886
:101AE0000026002EDAD14FF6FE72CEF6FF7200BF4E
:101AF000036853E8023F0668134046E80235C5B163
:101B0000036853E8023F0668134046E8023585B192
:101B1000036853E8023F0668134046E8023545B1C2
:101B2000036853E8023F0668134046E80235002D7B
:101B3000DED12022C0F888200022C266026700BFE2
:101B4000026852E8002F036822F0100243E80026E2
:101B5000DEB1026852E8002F036822F0100243E869
:101B6000002696B1026852E8002F036822F01002A6
:101B700043E800264EB1026852E8002F036822F0C5
:101B8000100243E80026002EDAD189B2BDE8704089
:101B9000FFF772BC416F00293FF443ADBDE87040D0
:101BA000084700BFBDE87040FFF7FABCDA017FF5D7
:101BB00038ADB1F1FF3FC8BF70BDBDE87040FFF761
:101BC0005DBC0000002804BF01207047B0B582B0A2
:101BD0000446D0F8840028B9002084F8800020460C
:101BE00000F05CF82420C4F884002068016821F02B
:101BF00001010160204600F09DFE18B1012002B0F5
:101C0000B0BD00BFA06A10B1204600F017FA2068EE
:101C1000416821F490414160816821F02A0181608E
:101C2000016841F0010101600020C4F88C00FEF75A
:101C3000EFFC216805460A68120710D56FF07E4C4C
:101C400020464FF4001100222B46CDF800C001F0D1
:101C50000DF918B1032002B0B0BD00BF21680868BB
:101C600040070FD56FF07E4C20464FF480010022D4
:101C70002B46CDF800C001F0F9F818B1032002B0EE
:101C8000B0BD00BF2020C4F88400C4F88800002044
:101C9000E06684F8800002B0B0BD0000B0B59CB032
:101CA000044602A8002508304C211B95CDE91955A2
:101CB000CDE91755FEF7E4FA206843F60001C4F2B7
:101CC0000101884202D01CB0B0BD00BF0120CDE9A7
:101CD000020502A8FEF7D8FD002818BFFEF71EFB7C
:101CE00041F24C00C4F20200416941F4804141617B
:101CF000416901F4804101910199016841F00101BC
:101D00000160006817A900F00100019001984FF4EC
:101D1000C0601790022018900020CDE9190007201C
:101D20001B904FF09040FEF78BFB252000210022F6
:101D3000FEF7E6FC2520FEF7D1FC1CB0B0BD00008C
:101D4000D0F88830202B0BD100294FF0010318BFA9
:101D5000002A01D11846704790F88030012B03D13A
:101D600002231846704700BF80B5012380F88030F9
:101D70000023C366D0F800C048F20003C4F2000399
:101D80009C4503D0DCF804301B0203D400F02CFF88
:101D9000002080BD036853E800CFD0F800E04CF08D
:101DA00080634EE8003CBCF1000FEFD0036853E8BD
:101DB00000CFD0F800E04CF080634EE8003CBCF16E
:101DC000000FE3D0036853E800CFD0F800E04CF0F8
:101DD00080634EE8003CBCF1000FD7D0036853E8A5
:101DE00000CFD0F800E04CF080634EE8003CBCF13E
:101DF000000FCFD1CAE70000006843F60001C4F22B
:101E00000101884218BF7047B0B540F2140440F297
:101E10001005C2F20004C2F2000520462946012244
:101E20004FF47A7300F008F8204629460122BDE8F5
:101E3000B040FFF785BF00002DE9F04182B00446B5
:101E4000D0F8840020280DD10F4600294FF0010062
:101E500018BF002A02D102B0BDE8F08194F88000DA
:101E6000012803D1022002B0BDE8F081012084F8EE
:101E700080000020C4F88C0021201D46C4F8840096
:101E80001646FEF7C5FBA4F85460A4F85660A16896
:101E90008046B1F5805F01D12069B8B33E46002786
:101EA000002084F8800008E016F8010B21688862A1
:101EB000B4F856000138A4F85600B4F8560088B1BA
:101EC0002046802100224346009500F0CFFF88B9CC
:101ED000002EE9D137F8020B21686FF35F2088628A
:101EE0000026E5E72046402100224346009500F009
:101EF000BDFF18B1032002B0BDE8F0812020C4F876
:101F00008400002002B0BDE8F08100BF0026C7E7D2
:101F100070470000FEE7000070B586B0002541F272
:101F20004C000595CDE90355CDE90155C4F20200F9
:101F3000016840F6000441F0200101600168C4F628
:101F4000000401F02001009100990168012241F094
:101F5000040101600168012601F00401009100996B
:101F6000016841F0010101600068012100F00100F9
:101F7000009000982046FEF745FB01A92046CDE9D8
:101F80000166CDE90355FEF75BFA06B070BD0000AF
:101F900080B540F2140043F60001C2F20000C4F222
:101FA000010100234FF00C0C4FF4165280E80E0094
:101FB000C0E90333C0E905C3C0E90733C0E9093309
:101FC000FFF700FE002818BFFEF7A8F940F2140042
:101FD000C2F200000021FFF799FA002818BFFEF7AF
:101FE0009DF940F21400C2F200000021FFF748FA08
:101FF000002818BFFEF792F940F21400C2F2000068
:10200000FFF71EFA002808BF80BDBDE88040FEF73C
:1020100085B90000FEE70000FEE700007047000001
:1020200070470000FEF7FABA4EF68850CEF2000074
:10203000016841F47001016070470000816ACA07BD
:102040000CD18A0715D44A071ED40A0727D4CA061A
:1020500030D48A0639D44A0642D457E00268D0F810
:102060002CC0536823F4003343EA0C0353608A07FF
:10207000E9D50268D0F830C0536823F4803343EACE
:102080000C0353604A07E0D50268D0F834C05368A7
:1020900023F4802343EA0C0353600A07D7D5026870
:1020A000D0F838C0536823F4004343EA0C0353606C
:1020B000CA06CED50268D0F83CC0936823F480539A
:1020C00043EA0C0393608A06C5D50268D0F840C085
:1020D000936823F4005343EA0C0393604A0615D532
:1020E000D0F800C0436CDCF80420B3F5801F22F464
:1020F000801242EA0302CCF8042007D1DCF8042065
:10210000836C22F4C0021A43CCF80420090658BF9D
:1021100070470168C06C4A6822F40022104348608E
:1021200070470000806A0021A0F85E10A0F85610E9
:10213000FFF736BAB0F860200168D0F88830222B5B
:1021400040F09680496A836D114023F8021B836535
:10215000B0F85E100139A0F85E10B0F85E100029EA
:1021600018BF7047016851E8001F026821F49071A0
:1021700042E80013E3B1016851E8001F026821F44E
:10218000907142E800139BB1016851E8001F02689A
:1021900021F4907142E8001353B1016851E8001F27
:1021A000026821F4907142E80013002BDAD100BFDD
:1021B000016851E8021F026821F0010142E80213A0
:1021C000DBB1016851E8021F026821F0010142E819
:1021D000021393B1016851E8021F026821F0010166
:1021E00042E802134BB1016851E8021F026821F076
:1021F000010142E80213002BDAD12021C0F8881037
:1022000000210167C26E012A18BFFFF7F5BDC16644
:10221000016851E8001F026821F0100142E8001334
:10222000DBB1016851E8001F026821F0100142E8AB
:10223000001393B1016851E8001F026821F01001FA
:1022400042E800134BB1016851E8001F026821F019
:10225000100142E80013002BDAD10168CA69D206E6
:1022600044BF10220A62B0F85C10FFF705B900BF46
:10227000886940F008008861704700002DE9F04F40
:1022800081B003680446B0F86050DA69186899684C
:10229000D4F88870222F61D1B4F86830002B18BFB1
:1022A00012F0200262D1B4F85E00002853D0B4F8D6
:1022B000681088424FD200BF206850E8020F2168A2
:1022C00020F0805041E80202DAB1206850E8020FA5
:1022D000216820F0805041E8020292B1206850E865
:1022E000020F216820F0805041E802024AB12068C4
:1022F00050E8020F216820F0805041E80202002AD5
:10230000DAD142F23510C0F600002067206850E8AC
:10231000000F216840F0200041E80002DAB1206897
:1023200050E8000F216840F0200041E8000292B11F
:10233000206850E8000F216840F0200041E80002CA
:102340004AB1206850E8000F216840F0200041E8C1
:102350000002002ADAD101B0BDE8F08F986940F0A0
:102360000800986101B0BDE8F08F00BF4FF6FE761F
:10237000CEF6FF764FF020084FF0000A00F4807B85
:1023800001F0010708E000BF2046FFF735FD00BF60
:102390005FEA89607FF587AF2068A16D426A2A40B5
:1023A00021F8022BA165B4F85E100139A4F85E1083
:1023B000D0F81C905FEA497131D05FEAC97218BF4A
:1023C000BBF1000F04D15FEA89720CD414E000BFA6
:1023D00001220262D4F88C2042F00102C4F88C2061
:1023E0005FEA897208D53FB102220262D4F88C20DC
:1023F00042F00402C4F88C20002908D53FB1042122
:102400000162D4F88C0040F00200C4F88C00D4F8CB
:102410008C0020B12046FFF7C3F8C4F88CA0B4F8B4
:102420005E000028B4D100BF206850E8000F21688A
:1024300020F4807041E80002E2B1206850E8000F0B
:10244000216820F4807041E800029AB1206850E8C9
:10245000000F216820F4807041E8000252B120682A
:1024600050E8000F216820F4807041E80002002A43
:10247000DAD100BF206850E8020F2168304041E8FF
:102480000202C2B1206850E8020F2168304041E8E2
:10249000020282B1206850E8020F2168304041E812
:1024A000020242B1206850E8020F2168304041E842
:1024B0000202002ADED1C4F88880C4F870A0E06E61
:1024C00001287FF461AFC4F86CA000BF206850E819
:1024D000000F216820F0100041E80002DAB1206806
:1024E00050E8000F216820F0100041E8000292B18E
:1024F000206850E8000F216820F0100041E8000239
:102500004AB1206850E8000F216820F0100041E82F
:102510000002002ADAD12068C169C90644BF10212F
:102520000162B4F85C102046FEF7A6FF30E7000019
:10253000B0F860100268D0F88830222B40F0988004
:10254000526A836D11401970816D01318165B0F857
:102550005E100139A0F85E10B0F85E10002918BFB7
:10256000704700BF016851E8001F026821F49071B4
:1025700042E80013E3B1016851E8001F026821F44A
:10258000907142E800139BB1016851E8001F026896
:1025900021F4907142E8001353B1016851E8001F23
:1025A000026821F4907142E80013002BDAD100BFD9
:1025B000016851E8021F026821F0010142E802139C
:1025C000DBB1016851E8021F026821F0010142E815
:1025D000021393B1016851E8021F026821F0010162
:1025E00042E802134BB1016851E8021F026821F072
:1025F000010142E80213002BDAD12021C0F8881033
:1026000000210167C26E012A18BFFFF7F5BBC16642
:10261000016851E8001F026821F0100142E8001330
:10262000DBB1016851E8001F026821F0100142E8A7
:10263000001393B1016851E8001F026821F01001F6
:1026400042E800134BB1016851E8001F026821F015
:10265000100142E80013002BDAD10168CA69D206E2
:1026600044BF10220A62B0F85C10FEF705BF00BF3D
:10267000906940F008009061704700002DE9F04F2C
:1026800081B003680446B0F86050DA691868996848
:10269000D4F88870222F61D1B4F86830002B18BFAD
:1026A00012F0200262D1B4F85E00002853D0B4F8D2
:1026B000681088424FD200BF206850E8020F21689E
:1026C00020F0805041E80202DAB1206850E8020FA1
:1026D000216820F0805041E8020292B1206850E861
:1026E000020F216820F0805041E802024AB12068C0
:1026F00050E8020F216820F0805041E80202002AD1
:10270000DAD142F23150C0F600002067206850E86C
:10271000000F216840F0200041E80002DAB1206893
:1027200050E8000F216840F0200041E8000292B11B
:10273000206850E8000F216840F0200041E80002C6
:102740004AB1206850E8000F216840F0200041E8BD
:102750000002002ADAD101B0BDE8F08F986940F09C
:102760000800986101B0BDE8F08F00BF4FF6FE761B
:10277000CEF6FF764FF020084FF0000A00F4807B81
:1027800001F0010708E000BF2046FFF735FB00BF5E
:102790005FEA89607FF587AF2068A16D406A2840B5
:1027A0000870A16D20680131A165B4F85E1001398F
:1027B000A4F85E10D0F81C905FEA497131D05FEA4E
:1027C000C97218BFBBF1000F04D15FEA89720CD443
:1027D00014E000BF01220262D4F88C2042F0010212
:1027E000C4F88C205FEA897208D53FB102220262E8
:1027F000D4F88C2042F00402C4F88C20002908D5BB
:102800003FB104210162D4F88C0040F00200C4F80A
:102810008C00D4F88C0020B12046FEF7C1FEC4F82D
:102820008CA0B4F85E000028B2D100BF206850E848
:10283000000F216820F4807041E80002E2B12068B6
:1028400050E8000F216820F4807041E800029AB13E
:10285000206850E8000F216820F4807041E80002F1
:1028600052B1206850E8000F216820F4807041E8E0
:102870000002002ADAD100BF206850E8020F216868
:10288000304041E80202C2B1206850E8020F2168DE
:10289000304041E8020282B1206850E8020F21680E
:1028A000304041E8020242B1206850E8020F21683E
:1028B000304041E80202002ADED1C4F88880C4F822
:1028C00070A0E06E01287FF45FAFC4F86CA000BF79
:1028D000206850E8000F216820F0100041E8000255
:1028E000DAB1206850E8000F216820F0100041E8BC
:1028F000000292B1206850E8000F216820F010001B
:1029000041E800024AB1206850E8000F216820F039
:10291000100041E80002002ADAD12068C169C90626
:1029200044BF10210162B4F85C102046FEF7A4FDFC
:102930002EE7000070B5054605F108041ECC0068BE
:10294000194341EA0403EE69046846F6F311CCF634
:10295000FF712140194331430160416848F2000C86
:1029600021F4405111434160AA69C4F2000C604552
:102970001CBF296A0A4381684FF2FF43C1F2FF136B
:10298000194011438160C16AD5F824E021F00F019C
:1029900041EA0E01C16244F6FF71C4F200018842AF
:1029A0004FF0100318DC44F20041C4F200018842E9
:1029B00028D044F60001C4F20001884232D044F627
:1029C0000041C4F20001884242D141F28801C4F2C0
:1029D000020109688B0933E045F20001C4F20001ED
:1029E000884217D0604525D043F60001C4F20101AA
:1029F00088422DD141F28801C4F202010B6876A20F
:102A000022E000BF41F28801C4F2020109688B088C
:102A100016E000BF41F28801C4F2020109680B0A06
:102A20000EE000BF41F28801C4F2020109680B09FF
:102A300006E000BF41F28801C4F2020109688B0A76
:102A400043F24022C0F6000203F0030152F82130A5
:102A5000604542F20040C0F2F40015D0B6F5004FD8
:102A600022D1082B4FF0010100F2AD80DFE803F026
:102A7000065C74AB64ABABAB720000BFFEF7F2F95F
:102A8000002840F05D809AE0082B4FF0010100F231
:102A90009A80DFE803F0059825981B989898230002
:102AA000FEF7E0F9B0B98AE0082B4FF0010100F21F
:102AB0008A80DFE803F0053D6F88498888886D00CB
:102AC000FEF7D0F9002842D179E000BFFEF7F6F911
:102AD000002874D0D5F824E002E000BF4FF4004095
:102AE00043F22821C0F6000131F81E106A68B0FBDD
:102AF000F1F002EB420188424FF0010163D313036E
:102B0000984260D8010E000210EB520041F1000122
:102B10000023FDF77DFB4FF60052A0F54071C0F297
:102B20000F02914249D34DE0FEF7B2F940B946E0B9
:102B3000FEF7AEF958B942E0FEF7C0F900283ED0E2
:102B4000D5F824E008E000BFFEF7B8F9B8B3D5F82F
:102B500024E01FE04FF4004043F22821C0F60001BA
:102B600031F81E106A68B0FBF1F0510801EB40002B
:102B7000B0FBF2F04FF6EF72A0F11001914221D8B4
:102B80004FF6F0710140C0F34200084415E000BF69
:102B90004FF4004043F22821C0F6000131F81E1026
:102BA0004FF6EF72B0FBF1F0696800EB5100B0FB3B
:102BB000F1F0A0F11001914204D82968C860002109
:102BC00001E000BF01214FF00110A8660022084675
:102BD0002A676A6770BD00BF0100000004000000A2
:102BE00002000000080000008165A0F85C20A0F849
:102BF0005E2081680023036771B1B1F1805F07D067
:102C0000B1F5805F0ED1016951B940F2FF110AE0C0
:102C1000016919B13F2106E0016909B17F2102E094
:102C2000FF2100E00021A0F860100021C0F88C1006
:102C30002221C0F8881000BF016851E8021FD0F8B7
:102C400000C041F001014CE80213F3B1016851E802
:102C5000021FD0F800C041F001014CE80213A3B1FB
:102C6000016851E8021FD0F800C041F001014CE8B2
:102C7000021353B1016851E8021FD0F800C041F0BF
:102C800001014CE80213002BD6D1416EB1F1005F77
:102C900003D1B0F868108A4246D282680169B2F561
:102CA000805F0BD100294FD042F23151C0F60001B4
:102CB0000167002180F880100AE000BF42F2315223
:102CC000C0F6000202670022002980F8802043D06D
:102CD000016851E8001F026841F4907142E8001356
:102CE000002B00F0C080016851E8001F026841F429
:102CF000907142E80013002B00F0B580016851E8A4
:102D0000001F026841F4907142E80013002B00F0AC
:102D1000AA80016851E8001F026841F4907142E8FE
:102D20000013002BD4D19EE082680169B2F5805F68
:102D30003CD100296AD042F27D61C0F600010167F2
:102D4000002180F880103BE042F23511C0F600010E
:102D50000167002180F88010016851E8001F0268B7
:102D600041F0200142E80013002B7CD0016851E8BB
:102D7000001F026841F0200142E80013002B72D0CE
:102D8000016851E8001F026841F0200142E8001389
:102D9000002B68D0016851E8001F026841F0200153
:102DA00042E80013002BD7D15DE000BF42F27D6204
:102DB000C0F600020267002280F8802071B300BFD5
:102DC000016851E8001F026841F4807142E8001375
:102DD00023B3016851E8001F026841F4807142E8A2
:102DE0000013DBB1016851E8001F026841F48071F3
:102DF00042E8001393B1016851E8001F026841F4F2
:102E0000807142E80013002BDAD107E042F27D2105
:102E1000C0F600010167002180F88010016851E8C8
:102E2000021F026841F0805142E80213DBB10168E1
:102E300051E8021F026841F0805142E8021393B149
:102E4000016851E8021F026841F0805142E8021314
:102E50004BB1016851E8021F026841F0805142E81D
:102E60000213002BDAD10020704700002DE9F04159
:102E7000044600681546C2690E461140891BB1FA26
:102E800081F149098D4240F09C80DDF81880B8F14D
:102E9000000F27D018F101017CD100BFC16931407A
:102EA000891BB1FA81F149098D4240F08A80C169DC
:102EB0003140891BB1FA81F149098D4240F081808E
:102EC000C1693140891BB1FA81F149098D4278D13C
:102ED000C1693140891BB1FA81F149098D42DDD0C8
:102EE0006FE000BFFDF794FB206850E8000F2168F9
:102EF00020F4D07041E80002BAB3206850E8000F17
:102F0000216820F4D07041E8000272B3206850E8D4
:102F1000000F216820F4D07041E800022AB3206835
:102F200050E8000F216820F4D07041E80002002A28
:102F3000DAD11AE0206850E8020F216820F0010081
:102F400041E80202DAB1206850E8020F216820F05F
:102F5000010041E8020292B1206850E8020F2168A6
:102F600020F0010041E802024AB1206850E8020F57
:102F7000216820F0010041E80202002ADAD188200D
:102F80008421202262502250002084F880000320F7
:102F9000BDE8F0811F4600BFFDF73AFBC01B40456E
:102FA000A2D820680168490744BFC1695FEA01519E
:102FB0000AD4C0693040801BB0FA80F040098542D5
:102FC000EAD00020BDE8F0814FF40061016200BF4B
:102FD000206850E8000F216820F4D07041E800021A
:102FE000BAB3206850E8000F216820F4D07041E89F
:102FF000000272B3206850E8000F216820F4D070FE
:1030000041E800022AB3206850E8000F216820F44C
:10301000D07041E80002002ADAD11AE0206850E8B6
:10302000020F216820F0010041E80202DAB12068B5
:1030300050E8020F216820F0010041E8020292B13D
:10304000206850E8020F216820F0010041E80202E8
:103050004AB1206850E8020F216820F0010041E8E1
:103060000202002ADAD12020C4F884008C208821B2
:1030700087E7000040F21400C2F20000FEF792BAA7
:10308000FEE7000080B582B0019040F21400C2F269
:10309000000001A901224FF47A73FEF7CDFE0198DA
:1030A00002B080BD94B0FDF7C7FA002400200C9454
:1030B000CDE90A44CDE90844FDF75EFB0120069006
:1030C0004FF4803007900220032555210D90CDE963
:1030D0000E50CDE91010CDE9120006A8FDF730FF23
:1030E00020B1EFF3108072B6FEE700BF0F20CDE9EC
:1030F000010501A80421CDE903440594FDF730FD45
:1031000020B1EFF3108072B6FEE700BF40F6000476
:10311000C4F60004FEF700FFFEF73AFF40F2140584
:1031200040F21006C2F20005C2F2000628463146FF
:103130000122FEF705FE0FF26008771C1BA600BFF8
:1031400040F2DC50FDF768F9404600F039F83846A7
:10315000FDF7A1F882B2284639464FF47A73FEF79C
:103160006BFE20460121FDF745FA40F2DC50FDF7E9
:1031700053F9304600F024F83846FDF78CF882B257
:10318000284639464FF47A73FEF756FE2046012151
:10319000FDF730FAD4E700BF6D61696E2E6E302EF8
:1031A00076616C3D313030FFFFFF00006D61696E6C
:1031B0002E6E302E76616C3D30FFFFFF0000000068
:1031C000014A024900F013B88530000800000020D1
:1031D00002E008C8121F08C1002AFAD170477047E0
:1031E000002001E001C1121F002AFBD170472DE928
:1031F000F04116460F460446002503E03946B04725
:10320000641C6D1C20780028F8D12846BDE8F081A8
:103210000000000000000000010203040607080986
:103220000000000001020304010002000400060087
:1032300008000A000C00100020004000800000017F
:103240000000000004000000020000000800000070
:103250000101010307010000080402040801010143
:10326000803200080000002010000000D03100086B
:10327000903200081000002098040000E03100089F
:103280000000000010000000010000000024F40015
:04000005080001D915
:00000001FF
