:020000040800F2
:10000000300800207902000881210008251F00081F
:100010007D21000881030008E122000800000000A3
:10002000000000000000000000000000892100081E
:10003000F103000800000000852100088D21000860
:10004000930200089302000893020008930200083C
:10005000930200089302000893020008930200082C
:10006000930200089302000893020008E5030008C9
:10007000930200089302000893020008930200080C
:1000800093020008930200089302000893020008FC
:10009000930200089302000893020008F503000889
:1000A00093020008930200089302000893020008DC
:1000B00093020008930200089302000893020008CC
:1000C00093020008930200089302000893020008BC
:1000D00093020008930200089302000893020008AC
:1000E000930200089302000893020008930200089C
:1000F000930200089302000893020008930200088C
:10010000930200089302000893020008930200087B
:10011000930200089302000893020008930200086B
:10012000930200089302000893020008930200085B
:10013000930200089302000893020008930200084B
:10014000930200089302000893020008930200083B
:10015000930200089302000893020008930200082B
:10016000930200089302000893020008930200081B
:10017000930200089302000893020008930200080B
:1001800093020008930200089302000893020008FB
:100190009302000800000000930200089302000888
:1001A00093020008930200089302000893020008DB
:1001B00093020008930200089302000893020008CB
:1001C00093020008930200089302000893020008BB
:1001D000930200089302000800F002F800F03CF8D7
:1001E0000AA090E8000C82448344AAF10107DA4592
:1001F00001D100F031F8AFF2090EBAE80F0013F0A8
:10020000010F18BFFB1A43F0010318471423000025
:1002100034230000103A24BF78C878C1FAD85207B6
:1002200024BF30C830C144BF04680C607047000070
:100230000023002400250026103A28BF78C1FBD8EF
:10024000520728BF30C148BF0B6070471FB502F08E
:1002500052F91FBD10B510BD00F058F81146FFF758
:10026000F5FF02F03FF800F076F803B4FFF7F2FF75
:1002700003BC00F07DF800000948804709480047AA
:10028000FEE7FEE7FEE7FEE7FEE7FEE7FEE7FEE746
:10029000FEE7FEE704480549054A064B70470000A3
:1002A00091210008D9010008300200203008002008
:1002B00030040020300400204FF0000200B5134647
:1002C00094469646203922BFA0E80C50A0E80C5076
:1002D000B1F12001BFF4F7AF090728BFA0E80C5027
:1002E00048BF0CC05DF804EB890028BF40F8042B20
:1002F00008BF704748BF20F8022B11F0804F18BF8D
:1003000000F8012B7047704770477047754600F042
:100310002BF8AE4605006946534620F00700854697
:1003200018B020B5FFF7B6FFBDE820404FF000063B
:100330004FF000074FF000084FF0000BAC46ACE860
:10034000C009ACE8C009ACE8C009ACE8C00921F0BC
:1003500007018D46704710B50446AFF30080204674
:10036000BDE81040FFF781BF0048704788000020BB
:1003700001491820ABBEFEE72600020070470000CE
:10038000FEE7000010B5846A204600F01FFA012045
:10039000207110BD10B5846A204600F035F80120A8
:1003A000207110BD10B5846A206940F004002061FE
:1003B000204600F00FFA0120207110BD10B5846AAC
:1003C000206940F004002061204600F021F801205F
:1003D000207110BD806A00F0FBB90000806A00F057
:1003E00015B8000040F23010C2F2000000F08ABBE5
:1003F000704700004FF4807000F0FEBCEFF31080F7
:1004000072B600BFFEE700007047000070470000B2
:1004100070470000B0B590F805C0BCF1010F4FF077
:10042000020C24D080F804C0D0F800C04FF05C0E5D
:10043000002908BF4FF0580E5CF80E40049D1A4387
:1004400004F4604442EA054222434CF80E20DCF8F2
:10045000002001F01001C02303FA01F11143CCF890
:10046000001001214FF0000C017180F805C06046BA
:10047000B0BD00002DE9F04F83B018B104460079FB
:10048000022803D1012003B0BDE8F08F6079012874
:1004900004D1022003B0BDE8F08F00BF8B460120DD
:1004A00021681646607102F010070722D1F83C80DF
:1004B00002FA07F50A68B84022EA00000860012045
:1004C00000F07EFC2068002EC16B4FF4006221EA30
:1004D0000501C1630290029914BF143108310291E1
:1004E00008EA0501019102996FEA05090A604FF4D3
:1004F0008041026801FA07F642EA060101601F2105
:10050000826B01FA07F822EA08011022BA4011436F
:100510008163012000F054FC20681825416B3140B4
:10052000B142816B08BF082521EA080105FA07F2EC
:1005300011438163012000F043FC20680422416BD9
:100540003140B14208BF6FF00302816B154421EACC
:10055000080105FA07F211438163012000F030FC25
:1005600020680222416B3140B14208BF6FF00102A6
:10057000816B154421EA080105FA07F211438163F2
:10058000012000F01DFC2068416B3140B1424FF06A
:10059000010108BF4FF0FF31826B01EB050A22EA2F
:1005A00008010AFA07F211438163012000F008FCF8
:1005B0002068416B314209D1826B6FEA08010AF170
:1005C000010A11400AFA07F2114381630168B1433D
:1005D00001600121CBE9071AC16B019A01EA090107
:1005E0001143C1630020607103B0BDE8F08F0000CB
:1005F0002DE9F0410446407901284FF0020008BF80
:10060000BDE8F0818846012161712071D8F80800A9
:100610001646042843D100F0E9FC0746BEB100BFEE
:100620002068406BB0F1FF3F1EDC00F0DFFCC01B18
:100630000228F5D3206940F00800206103202071D2
:10064000BDE8F08100F0D2FCC01B0228F2D2206885
:10065000406B0004F6D4012000F0B2FBD8F824105F
:100660002068016407E000BF012000F0A9FBD8F872
:10067000241020684164816C06F0100240F2FF33C0
:1006800093409943D8E90A37934019438164C16C78
:10069000FF239340994307FA02F21143C164D8F84B
:1006A0001C102068012917D1816B06F010061F224B
:1006B000D8F82030B240914303FA06F21143816327
:1006C000D0F83CC0D8F8181001290DD002290FD15C
:1006D0004FF0010E12E000BF06F01006D0F83CC04B
:1006E000D8F818100129F1D14FF0000E06E000BF34
:1006F000D8F81410B1FA81F14FEA511ED8F8082049
:10070000D8F8143098F8045040F2073742EA0E0245
:1007100007FA06F098F8051042EA0307012D08BF12
:1007200047F48077012908BF47F400776FF440420F
:10073000D8F800105040022900EA0C050AD100F058
:100740002DFF46F60101C0F68911884204D345F415
:10075000004509E00D4307E04BF20041C0F2C441FF
:10076000884288BF45F4804507FA06F1206829438E
:10077000C1634FF480410268B14022EA0101016087
:10078000016840F6FE72B2409143D8E9032302FAB1
:1007900006F739430160C0210768B14027EA01012B
:1007A0000160C2F3830103F03C0241EA8211026E50
:1007B00040F60F73B3409A43B140114301660120E4
:1007C000207100206071BDE8F081000070470000DA
:1007D0007047000070470000002804BF01207047E8
:1007E00010B50446007920B900206071204600F061
:1007F00007F802202071002001212061217110BD25
:10080000F0B587B00446006840F60001C5F200016B
:10081000002688420696059602D007B0F0BD00BFBC
:1008200041F24C00C4F202000168102741F480310B
:100830000160016801F4803101910199016841F082
:1008400001010160006802A900F001000190019817
:100850000320CDE903064FF09040029700F0D8FA4C
:1008600040F230150820C2F20005C4F20200062151
:100870004FF4007385E8830005F1140080224FF4E3
:10088000806C4FF0200E80E808502846C5E90362CE
:100890002E6200F08DF9002818BFFFF7AFFDA560AC
:1008A000AC6207B0F0BD000070B504464079012885
:1008B0004FF0020008BF70BD0D460121617120712B
:1008C000206805F010060268B14011430160012064
:1008D00000F076FA2068016845B101F4781202212F
:1008E00001FA06F39A4209D105E000BF01F03E018A
:1008F000022903D101214268114341600120207186
:100900000020607170BD00002DE9F041044640797F
:1009100001284FF0020008BFBDE8F0818846069923
:100920000126B8F1000F667120711FD0E06840F217
:1009300095352668C0F6000540F2DD3740F2BD3C33
:1009400000F12C0EC0F60007C0F6000C8EE8A010D7
:100950003768082947F08057376029D004292BD001
:1009600000290CBF06F11405002527E0A06840F21D
:1009700085362568C0F6000640F2D53C40F2A53E1B
:1009800000F12C07C0F6000CC0F6000E87E84050BE
:100990002E68082946F480562E6017D0042919D0F5
:1009A00000290CBF05F1080C4FF0000C14E000BF4B
:1009B00006F11C0502E000BF06F11805316841F0A0
:1009C0000051316011462A460CE000BF05F1100CC1
:1009D00002E000BF05F10C0C296841F400512960C8
:1009E0001146624600F07AF90021617130B1216947
:1009F00041F004012161BDE8F08100BF216808F0E9
:100A0000100001220B6802FA00F018430860012070
:100A100000F0D6F90020BDE8F0810000B0B5044632
:100A200001F01000216801250A6805FA00F022EAA9
:100A300000000860012000F0C3F900202571B0BD5E
:100A400070B504460D4601F0100021684FF4805245
:100A50000B68824023EA02020A6001260A6806FA4D
:100A600000F022EA00000860012000F0A9F90C2043
:100A7000002D08BF082020586FF0005508BF6FF404
:100A8000005500F007F82068016829400160002047
:100A9000267170BD80B5014690F82500022825D149
:100AA0000868D1E910CE8A6C036823F00E03036056
:100AB000136823F480731360026822F0010202605D
:100AC0000EF01F00012202FA00F0CCF80400D1E978
:100AD00013205060486D68B1026822F48072026091
:100AE000D1E916024260002005E000BF0420C8637F
:100AF000012000E00020012281F82520002281F859
:100B0000242080BDB0B5D0E910C30268DCF8001025
:100B100003F01F030424D2F800E09C400C4218BFED
:100B20001EF0040522D102249C400C4218BF1EF086
:100B3000020529D1D940090724D51EF0080108BFB4
:100B4000B0BD116821F00E011160012101FA03F21C
:100B5000CCF80420C16380F82510416B002280F896
:100B6000242079B1BDE8B040084700BF116889066C
:100B700003D4116821F004011160CCF80440016B2A
:100B80000029EFD1B0BD00BF1168890606D41168F5
:100B900021F00A011160012180F82510CCF80440F1
:100BA000C16A0022002980F82420DBD1EAE7000096
:100BB00000284FF0010100F08E802DE9F04740F24F
:100BC000000CC4F2020C03684FF6F8320CF5816E8B
:100BD000CBF6FD72734538BF02F580624CF6CD440A
:100BE0001A44CCF6CC44A2FB04286FF0070252FA58
:100BF00083F2A2FB04290CF580656FF00304D0E9B1
:100C00000262D0F810A03CBF0025C4F2020504EA3D
:100C10009804C0E91054022580F825501D6847F655
:100C2000F07725EA070737433A43476942EA0A0261
:100C300085693A43C7692A43056A3A432A431A60D9
:100C40000CF50262734538BF0CF50062A3180CF571
:100C50000862C264C9F3041240F6840C01FA02F27D
:100C6000B6F5804FC4F2020C8364026506D1002100
:100C700041601960CCF800201EE000BF41685FFAB7
:100C800081FE013903294FF00001C3F800E0CCF8E0
:100C9000002011D8AEF101020CEB820747F87C1F4F
:100CA00002F01F01012202FA01F30CF1BC023946E5
:100CB000CCF8C03002E000BF0022002300F1540C49
:100CC0008CE80E0000210122C16380F8252080F805
:100CD0002410BDE8F0470846704700002DE9F041B8
:100CE00090F824C0BCF1010F43D04FF0010C80F804
:100CF00024C090F825C0BCF1010F37D14FF0020C91
:100D000080F825C04FF0000CC0F83CC0D0F800C0FF
:100D100000F14C0E9EE83040DCF80060BEF1000FA0
:100D200026F00106CCF8006065601CBFD0E91645CE
:100D30006560D0E91076012506F01F068468B5408D
:100D4000D0F830807D60CCF804300B46102C04BF06
:100D500013460A46CCF80830CCF80C20DCF800101A
:100D6000B8F1000F08D041F00E010DE0002180F82D
:100D700024100220BDE8F08121F00401CCF800101D
:100D8000DCF8001041F00A01CCF80010806C01681A
:100D9000C90303D5016841F480710160BEF1000F01
:100DA00005D0DEF8000040F48070CEF80000DCF8DA
:100DB000000040F00100CCF800000020BDE8F08108
:100DC000B0B5044600F012F9054640F20000C2F248
:100DD00000004068611C18BF044400BF00F006F921
:100DE000401BA042FAD3B0BD40F2E800C2F20000BE
:100DF000012101707047000040F21441C4F201016A
:100E00000A68024214BF08607047FFF7EDBF000098
:100E10002DE9F04F84B08E4641F20042C4F6000244
:100E2000DEF8004006219042019008BF0521002C09
:100E3000009100F0D7800198002500F138424FEA78
:100E4000B2230098012700264FF00008052B38BF79
:100E500018460090CDF808E00EE000BFDEF8004034
:100E600008F1010834FA07F106F1020607F101075B
:100E700005F1040500F0B680A7F1010A012000FA8F
:100E80000AF314EA0309E9D0DEF804C00CF0030BFE
:100E9000ABF10104012C17D8019874468168032234
:100EA000E468B2409143B4402143816041684FEA15
:100EB000480E9943CCF3001303FA0AF30446D043D7
:100EC000194361600CE000BF0321B140019CC8439D
:100ED000BBF1030FB64603D1B6464FF0030B23E038
:100EE000E168029A01409368BBF1020F03FA0EF326
:100EF00041EA0301E16017D16FF0030101EA5A01F1
:100F0000214405F01C040F23D1F820C003FA04FB90
:100F100013692CEA0B0CA34043EA0C03019C0B62FF
:100F2000D2F804C00CF0030B21680BFA0EF201405A
:100F300011432160DDF808E01CF4403F8ED041F2FF
:100F40006000C4F20200016840F2004C41F001016F
:100F500001600168C4F2010C01F0010103910399E1
:100F60002AF003014FF6084A6144CFF6FF7A05F0F4
:100F70000C030F2051F80A2000FA03F40098A24352
:100F800000FA03F31A4341F80A20DCF80810DEF8EF
:100F9000042041EA090340F20C40D40258BF21EA80
:100FA0000903CCF80830C4F201000168940241EA58
:100FB000090358BF21EA09030360DCF80410940315
:100FC00041EA090358BF21EA0903CCF80430DCF8F0
:100FD0000010D20341EA090358BF21EA0903CCF803
:100FE00000303BE704B0BDE8F08F000040F228205D
:100FF000C2F200000068704740F2000040F2282171
:10100000C2F20000C2F2000140680A6810440860A1
:101010007047000080B5032000F088F8002000F041
:1010200009F800281CBF012080BD00F029F800202D
:1010300080BD000070B540F20006C2F20006716883
:10104000E1B1044640F20800C2F200004FF47A72A7
:101050000068B2FBF1F1B0FBF1F000F0FDFC0F2CE9
:101060004FF0010508D838B94FF0FF302146002273
:10107000002500F02FF83460284670BD012070BDB7
:1010800082B041F25800C4F20200816841F00101CF
:101090008160816801F0010101910199016841F0CD
:1010A00080510160006800F080500090009802B00C
:1010B00000F0E0B8002848BF704700F01F0101228F
:1010C00002FA01F14EF200124009CEF2000242F89B
:1010D0002010704710B54EF60C5CCEF2000CDCF818
:1010E0000030C3F3022E8EF00704042C28BF042422
:1010F000BEF103034FF0FF3E0EFA04F438BF0023A5
:10110000A14399400EFA03F39A43114300F00F02F2
:10111000043A624409010C3200F16043B0F1FF3F30
:10112000C8BF03F56442117010BD00004EF60C51AB
:10113000CEF200010A684FF6FF031A4060F30A225C
:1011400042F0806040F0FD7008607047B0F5007FAD
:1011500042D0002840F0808047F21400C4F2000022
:1011600050F8141CC26E01F4C06122F48072B1F513
:10117000806FC2662ED150F8141C012262F34A21FE
:1011800040F8141C40F20801C2F200010968322242
:1011900051434DF68362C4F21B32A1FB0212910C43
:1011A0000268520511D54A1C0FD0026852050CD5B1
:1011B00059B10268520508D5012906D002685205C6
:1011C00003D50229A1F10401EAD10068400544BF1A
:1011D000032070470020704747F21400C4F200005B
:1011E00050F8141CC26E01F4C06142F48072B1F573
:1011F000806FC266EED150F8141C012262F34A21BE
:1012000040F8141C40F20801C2F2000109683222C1
:1012100051434DF68362C4F21B32A1FB0212910CC2
:101220000268520511D54A1C0FD0026852050CD530
:1012300059B10268520508D5012906D00268520545
:1012400003D50229A1F10401EAD10068400544BF99
:1012500003207047BEE700BF47F21400C4F200004D
:1012600050F8141C022262F34A2140F8141C00209A
:101270007047000047F20800C4F20000016841F422
:1012800080410160704700002DE9F04700286DD0D3
:1012900042F2000AC4F2020A0446DAF800000D46DF
:1012A00000F00F0088420CD2DAF8000020F00F00A6
:1012B0002843CAF80000DAF8000000F00F00A84246
:1012C00054D1216841F20808C807C4F2020803D1CA
:1012D000880740F1D880BDE0606802283AD0032832
:1012E00040D158F8082C920140D5D8F80420D8F8FD
:1012F000043042F2004702F00302C3F30313C0F2CA
:10130000F4070133032A04BF41F20027C0F27A0731
:10131000D8F80420B7FBF3F3D8F80470C2F3062220
:101320005A43C7F34163022707EB4303B2FBF3F2CF
:101330004BF20043C0F2C4439A4261D9D8F800206E
:1013400012F0F00F51D089075AD5A168002957D162
:101350004BE000BF58F8081C89035CBF0120BDE8C2
:10136000F08707E058F8081C490503D40120BDE8C0
:10137000F08700BFD8F8001001F00C0104293FD01D
:10138000D8F8001001F00C01082939D0D8F8001065
:1013900001F00C010C2933D1D8F80410D8F804203E
:1013A00042F2004301F00301C2F30312C0F2F4035E
:1013B0000132032904BF41F20023C0F27A03D8F8B6
:1013C0000410B3FBF2F2D8F80430C1F30621514304
:1013D000C3F34162022303EB4202B1FBF2F14BF291
:1013E0000042C0F2C44291420AD9D8F80010082243
:1013F00062F307114FF00109C8F8001002E000BFC6
:101400004FF00009D8F8001021F003010843C8F894
:101410000000FFF7EBFD064641F28837D8F80000E0
:10142000616800F00C00B0EB810F07D0FFF7DEFD24
:10143000801BB842F2D90320BDE8F08721688807F5
:1014400008D4B9F1000F1ED0D8F8000020F0F00049
:1014500017E000BF480705D5D8F8000040F4E06069
:10146000C8F80000080706D5D8F80000072262F384
:101470000D20C8F80000D8F80000A26820F0F000A5
:101480001043C8F80000DAF8000000F00F00A8428E
:101490001BD9DAF8000020F00F002843CAF800003A
:1014A000FFF7A4FD064641F2883700BFDAF80000D6
:1014B00000F00F00A84207D0FFF798FD801BB8424C
:1014C000F4D90320BDE8F0872168480707D5D8F88C
:1014D0000000E26820F4E0601043C8F8000008074C
:1014E00008D5D8F80000216920F4605040EAC10016
:1014F000C8F80000D8F8000042F20041C0F2F40140
:1015000000F00C00042808462DD0D8F8000000F0A8
:101510000C00082841F20020C0F27A0023D0D8F84D
:10152000002002F00C020C2A1CD1D8F80420D8F8B4
:10153000043002F00302C3F303130133032A08BF8C
:101540000146D8F80400B1FBF3F1D8F80420C0F349
:1015500006204843C2F34161022202EB4101B0FB85
:10156000F1F000E00020D8F8001042F21052C1F370
:101570000311C0F60002515C40F2080201F01F01A5
:1015800020FA01F140F20000C2F200000068C2F24D
:1015900000021160BDE8F047FFF74CBD40F20800C3
:1015A000C2F20000006870472DE9F04182B00028C7
:1015B00000F006810446007841F20006C007C4F23C
:1015C000020655D12078800774D42078000700F1F6
:1015D00097802078400700F1B7802078800600F1DE
:1015E0000781E069002840D0B16801F00C010C29A6
:1015F00040F05681012800F0E380F068216A00F095
:1016000003028A4240F0DC80626A6FF00F0300F050
:10161000F00103EB0212914240F0D280A16A00F483
:10162000FE42B2EB012F40F0CB80E16A00F078423D
:10163000B2EBC16F40F0C480226B0023CFF6E073A1
:1016400003EB025200F4C0016FF31402914240F028
:10165000B780616B4FF07E4202EB016100F0C06029
:1016600001F07E41884240F0AB800020F1E100BFF4
:10167000B06800F00C01F06808295BD0032281F00B
:101680000C0122EA00000844B0FA80F0400951D170
:101690006068B0F5803F07D0B0F5A02F40F0D6804D
:1016A000306840F480203060306840F48030306032
:1016B000D7E000BFB068F16800F00C00042869D0E2
:1016C00001F0030180F00C0081F002010844B0FA3F
:1016D00080F040095ED1E1683068002900F0CE80DA
:1016E00040F480703060FFF781FC054630684005AB
:1016F00000F1EC80FFF77AFC401B0228F6D920E1CC
:101700006169D6F89400002900F08C8040F0010057
:10171000C6F89400FFF76AFC054600BFD6F89400AF
:1017200080073FF556AFFFF761FC401B0228F5D953
:1017300007E100BF306880037FF544AF6068002890
:101740007FF440AF3CE000BFB06D10F0805808D18E
:10175000B06D40F08050B065B06D00F080500190E9
:10176000019847F20007C4F200073868C0052BD47F
:10177000386840F480703860FFF738FC054600BFD9
:101780003868C00520D4FFF731FC401B0228F7D988
:10179000D7E000BF3068400501D5E06880B17068CF
:1017A000216920F0FE4040EA0160706040F20000D4
:1017B000C2F200000068FFF73DFC00283FF405AFCF
:1017C000012002B0BDE8F081A068012808D00528FA
:1017D00040F09A80D6F8900040F00400C6F89000DF
:1017E000D6F8900040F00100C6F890009AE000BFE3
:1017F000A169D6F89800002970D040F00100C6F821
:101800009800FFF7F3FB0546D6F8980080073FF5F0
:10181000E8AEFFF7EBFB401B02284FF00300F3D9C3
:1018200017E100BF20F00100C6F89400FFF7DEFBCF
:10183000054600BFD6F8940080077FF5CAAEFFF7D3
:10184000D5FB401B0228F5D97BE000BF316800289A
:1018500021F480313160316821F48021316000F061
:101860008F80FFF7C3FB0546306880033FF5AAAEC3
:10187000FFF7BCFB401B6428F6D962E020F48070BF
:101880003060FFF7B3FB0546306840057FF59DAE3D
:10189000FFF7ACFB401B02284FF00300F4D9D8E05F
:1018A0003168022821F0807131604FD1FFF79EFB33
:1018B000054600BF3068800140F18E80FFF796FB3F
:1018C000401B02284FF00300F4D9C2E07068216980
:1018D00020F0FE4040EA0160706076E620F00100F2
:1018E000C6F89800FFF782FB054600BFD6F89800BF
:1018F00080077FF576AEFFF779FB401B02284FF09B
:101900000300F3D9A5E000BFD6F89010002821F01D
:101910000101C6F89010D6F8901021F00401C6F825
:1019200090103DD0FFF762FB054641F2883700BFBB
:10193000D6F89000800745D4FFF758FB401BB8420B
:10194000F6D9032002B0BDE8F08100BFF0684FF681
:10195000FF7120F00300F060F068CFF6EE61084000
:10196000F060FFF743FB0446306880017FF57DAEF1
:10197000FFF73CFB001B02284FF00300F4D968E09E
:10198000FFF734FB054600BF306880037FF51AAED1
:10199000FFF72CFB401B64284FF00300F4D958E0FC
:1019A000FFF724FB054641F2883700BFD6F89000C8
:1019B000800707D5FFF71AFB401BB8424FF0030022
:1019C000F4D946E0B8F1000F7FF407AEB06D20F017
:1019D0008050B06501E600BFF06848F20C01C0F22B
:1019E0009F1104F1200700EA010C8ECF6FF00F0069
:1019F000D4E90C5400EB02100022CFF6E07241EA69
:101A00000C0102EB055208436FF314024FF07E45C0
:101A100040EA032005EB0465104305F07E4540EAEB
:101A2000C7602843F060306840F080703060F06834
:101A300040F08070F060FFF7D9FA0446306880010A
:101A40003FF513AEFFF7D2FA001B02284FF0030058
:101A5000F4D902B0BDE8F081411E0020B0EB116F57
:101A60001CBF012070474EF21002CEF200025160FE
:101A70004EF62351CEF20001F0230B700721906047
:101A80001160704770B590F83C20012A4FF00202B7
:101A900065D080F83D20026842F600435468D2F8D1
:101AA00008C0C4F2010345F2000E9A42C4F2010ECE
:101AB00018BF72452CD14D6824F470042C434FF6A6
:101AC0008F75CFF6FF550E682C4042F6FF35C4F2F5
:101AD00001053443AA4254600EDC40F2FF73C4F2A5
:101AE00000039A421CDCB2F1804F2DD040F200433B
:101AF000C4F2000326E000BF43F6FF74C4F2010401
:101B0000A24219DC9A421FD043F2004318E000BF02
:101B100043F20045C4F20105AA42CCD0CFE700BF92
:101B200040F60003C4F200039A420DD040F6004391
:101B3000C4F2000306E000BF724505D044F2000382
:101B4000C4F201039A4204D189682CF0800319433E
:101B500091600121002280F83D1080F83C20104661
:101B600070BD0000002804BF0120704710B5044676
:101B700090F83D0028B9002084F83C00204600F091
:101B800023F8022084F83D002068211D00F00AFBA4
:101B9000012084F8480084F83E0084F83F0084F86F
:101BA000400084F8410084F8420084F8430084F83F
:101BB000440084F8450084F8460084F8470084F81F
:101BC0003D00002010BD000082B0006841F200011D
:101BD000C4F20001884211D0B0F1804F1BD141F214
:101BE0005800C4F20200016841F001010160006880
:101BF00000F001000190019802B0704741F25800D6
:101C0000C4F20200016841F010010160006800F0B8
:101C100010000090009802B07047000090F83D104E
:101C200001291CBF01207047022180F83D10016886
:101C300042F6FF30C4F2010081420DDC40F2FF7039
:101C4000C4F20000814217DCB1F1804F2CD040F289
:101C50000040C4F2000025E043F6FF70C4F201002A
:101C6000814215DC42F60040C4F2010081421BD0E3
:101C700043F2004014E000BF40F60000C4F2000050
:101C8000814211D040F60040C4F200000AE000BFDB
:101C900045F20000C4F20100814205D044F2000088
:101CA000C4F2010081420CD188680722C0F201020F
:101CB0000240062A4FF0000008D0B2F5803F08BF6E
:101CC0007047086840F0010008600020704700007D
:101CD0000146006841F21113026A1A4204D001223F
:101CE000002081F83D207047026A44F244431A42C2
:101CF000F5D1026822F0010202600122002081F881
:101D00003D20704780B590F83C20012A4FF0020238
:101D100000F0988080F83D20D0F800C08822DCF8E0
:101D20000830CFF6CE721A40CCF808200B68B3F515
:101D3000005F0DDA3F2B21DD5F2B33DD602B00F0E0
:101D40008380702B00F0A280B3F5805F73D0E7E052
:101D50002F22C0F21002934218DD4F21C0F2100171
:101D60008B4247DD5021C0F210018B4257D06021D9
:101D7000C0F210018B4252D070214BE01F2B41DC8E
:101D8000002B4CD0102B4AD0CAE000BFB3F1101F7B
:101D90003EDAB3F5005F00F08D80B3F5801F3ED0D2
:101DA000BEE000BF402B00F09980502B40F0B8807F
:101DB000D1F804E0C968DCF82030DCF8202022F0FB
:101DC0000102CCF82020DCF8182022F0F00242EAD0
:101DD000011123F00A0242EA0E02CCF81810CCF8E6
:101DE0002020DCF808104FF68872CFF6CF72114031
:101DF00057311EE03021C0F210018B420FD040213C
:101E000008E000BF202B0AD0302B08D088E000BFAC
:101E100005D02021C0F210018B4240F08180DCF817
:101E200008104FF68872CFF6CF721140194341F077
:101E30000701CCF808100022012180F83D10002194
:101E400080F83C10104680BDD1F804E0C968DCF889
:101E5000203023F01003CCF82030DCF81830DCF808
:101E6000202023F4704322F0A00243EA013142EA29
:101E70000E12CCF81810CCF82020DCF808104FF621
:101E80008872CFF6CF7211406731D2E7D1E901E312
:101E9000C968DCF8082043EA0E0322F47F4243EAD3
:101EA00001211143CCF80810DCF8081041F077014B
:101EB000BFE700BFD1E901E3C968DCF8082043EAC5
:101EC0000E0322F47F4243EA01211143CCF80810AB
:101ED000DCF8081041F48041ABE700BFD1F804E022
:101EE000C968DCF82030DCF8202022F00102CCF8B0
:101EF0002020DCF8182022F0F00242EA011123F041
:101F00000A0242EA0E02CCF81810CCF82020DCF8C5
:101F100008104FF68872CFF6CF721140473188E72C
:101F2000012289E7FEE700002DE9F0478EB002A804
:101F300004302C21FEF7C0F940F21C1040F60001DD
:101F4000C2F20000C5F200010160FEF745FC002866
:101F500018BFFEF753FA02201221029000200591CB
:101F60001E21CDE906100121ADF80C000490CDE949
:101F7000081040F21C10C2F2000002A90022FEF775
:101F800037FB002818BFFEF739FA40F21C1040F268
:101F9000444CC2F2000000214FF480520023CDF8DF
:101FA00000C0FEF737FA002818BFFEF727FA40F204
:101FB0001C10C2F2000002A90022FEF75BFA002802
:101FC00018BFFEF71BFA0DF1080E0BAB40F2EC0048
:101FD0009EE8005707AF0ECBC2F20000F0CF41627F
:101FE0008262C362A0E80057F0C00EB0BDE8F0877F
:101FF00080B582B041F24800C4F2020001680022BC
:1020000041F004010160016801F0040101910199AE
:10201000016841F0010101600068002100F0010049
:10202000009000980B20FFF755F80B2002B0BDE898
:102030008040FFF73FB8000080B586B0002041F235
:102040004C01CDE90400C4F202010A6842F020020A
:102050000A600A6802F020020092009A0A6842F0C0
:1020600001020A600A6802F001020092009A0A68FE
:1020700042F002020A60096801F002010091009931
:102080004FF4807101914FF48811CDE9021040F2B4
:102090000040C4F6000001A9FEF7BAFE1720002197
:1020A0000022FFF717F81720FFF704F806B080BDED
:1020B00080B588B040F290100021C2F200004FF0CD
:1020C0008042952340F2E73C0791CDE9051102914A
:1020D000C0E90023C0E9021C01618161FFF742FDF4
:1020E000002818BFFEF78AF94FF48050049040F2A0
:1020F0009010C2F2000004A9FFF704FE002818BFE8
:10210000FEF77CF9202001900020039040F290100F
:10211000C2F2000001A9FFF7B5FC002818BFFEF7C6
:102120006DF908B080BD000010B584B040F2DC103D
:1021300041F200010024C2F20000C4F2000140F6A6
:10214000C3120294C0E90014C0E902428461FFF79F
:1021500009FD002818BFFEF751F92020019040F238
:10216000DC10C2F2000001A90394FFF78BFC0028E9
:1021700018BFFEF743F904B010BD0000FEE70000F1
:10218000FEE700007047000070470000FEF734BF14
:102190004EF68850CEF20000016841F470010160F3
:1021A0007047000080B540F6FF330268C4F20003B8
:1021B00043F2FF3C9842C4F2010C0BDD60452FDC7A
:1021C00040F60043C4F20003984235D042F6004383
:1021D0002EE000BFB0F1804F2ED040F20043C4F299
:1021E0000003984228D040F60003C4F2000398424E
:1021F00022D0604526DC40F2FF73C4F2000398420F
:1022000036DD40F60003C4F20003984244D040F6A5
:102210000043C4F2000398423ED042F6004337E048
:1022200045F20003C4F20103984205D043F2004393
:10223000C4F201039842DCD14B6822F070021A43C9
:102240006045D8DD44F2FF33C4F20103984217DD44
:1022500044F20043C4F2010398421DD045F200034A
:10226000C4F20103984217D044F6000310E000BF07
:10227000B0F1804F10D040F20043C4F2000309E0F7
:1022800043F20043C4F20103984205D044F2000334
:10229000C4F20103984203D1CB6822F440721A437E
:1022A0004B6922F0800E8A6843EA0E03D1F800C021
:1022B0000360C262A0F18042A2F596324FEAB222D8
:1022C000092AC0F828C008D8012303FA02F240F214
:1022D000E5231A421CBF096901630121416180BDE8
:1022E000FEE7000094B0FEF795FE00240020CDE943
:1022F0000B44CDE90944CDE90744FEF727FF4FF42D
:102300008071099140210A91042102200F915521E9
:102310000690CDE90D00CDE91010CDE9120006A818
:10232000FFF742F920B1EFF3108072B6FEE700BF6D
:102330000F2001900320CDE9020401A80421CDE97A
:102340000444FEF7A1FF28B1EFF3108072B600BF7E
:10235000FEE700BFFFF770FEFFF74AFEFFF7E4FD60
:10236000FFF7A6FEFFF7E0FE40F2901AC2F2000A65
:102370005046FFF753FC40F2DC15C2F20005284638
:10238000FFF74CFC40F21C16C2F20006304600215A
:102390004FF00009FEF788FA40F2E804C2F20004A8
:1023A000271D40F2444B00BF20780028FCD0607805
:1023B000B0FA80F04009607094F801805046FFF751
:1023C00087FC002850D12846FFF782FC002851D115
:1023D000B8F1010F08D0B8F1000F63D130460021E9
:1023E000FEF72EFB30B163E030460021FEF716FB0E
:1023F000002863D1D4E904100022C4E90401304666
:102400003946FEF7F5F800283AD1B8F1010F13D09C
:10241000B8F1000F58D1304600214FF4805200230C
:10242000CDF800B0FDF7F6FF002853D1304600216B
:10243000FEF73AFA68B153E040F20C023046002150
:10244000C2F200023C23CDF80090FEF75DFA0028AE
:102450004CD15046FFF7E2FBC0B92846FFF7DEFB40
:10246000D0B984F800909FE7EFF3108072B600BFF8
:10247000FEE700BFEFF3108072B600BFFEE700BFBB
:10248000EFF3108072B600BFFEE700BFEFF31080DD
:1024900072B600BFFEE700BFEFF3108072B600BF58
:1024A000FEE700BFEFF3108072B600BFFEE700BF8B
:1024B000EFF3108072B600BFFEE700BFEFF31080AD
:1024C00072B600BFFEE700BFEFF3108072B600BF28
:1024D000FEE700BFEFF3108072B600BFFEE700BF5B
:1024E000EFF3108072B600BFFEE700BFEFF310807D
:1024F00072B600BFFEE7F1EE100A4FF6FF71C0F2B0
:10250000C03120EA010040F04070E1EE100A70474F
:102510000000000000000000010203040607080993
:102520004025000800000020880000001402000878
:10253000C825000888000020A80700003002000815
:1025400010000000010000000024F400FF07CB0889
:1025500094095A0A180BCE0B790C180DA80D290EE8
:10256000980EF40E3E0F720F920F9D0F920F720F86
:102570003E0FF40E980E290EA80D180D790CCE0BF7
:10258000180B5A0A9409CB08FF0733076A06A405FB
:10259000E60430048503E6025602D50166010A010D
:1025A000C0008C006C0061006C008C00C0000A014F
:1025B0006601D5015602E60285033004E604A4054F
:0825C0006A0633070000000069
:04000005080001D915
:00000001FF
