:020000040800F2
:10000000D0040020ED010008291D0008A11B0008F4
:10001000251D0008250300089923000800000000A2
:10002000000000000000000000000000C11D0008EA
:1000300029030008000000002D1D0008C51D000850
:10004000070200080702000807020008070200086C
:10005000070200080702000807020008070200085C
:10006000070200080702000807020008070200084C
:10007000070200080702000807020008070200083C
:10008000070200080702000807020008070200082C
:10009000070200080702000807020008070200081C
:1000A000070200080702000807020008070200080C
:1000B00007020008070200080702000807020008FC
:1000C00007020008070200080702000807020008EC
:1000D00007020008070200080702000807020008DC
:1000E00007020008070200080702000807020008CC
:1000F00007020008070200080702000807020008BC
:1001000007020008070200080702000807020008AB
:10011000070200080702000807020008070200089B
:10012000070200080702000807020008070200088B
:10013000070200080702000807020008070200087B
:10014000070200080702000807020008070200086B
:10015000070200080702000807020008070200085B
:10016000070200080702000807020008070200084B
:10017000070200080702000807020008070200083B
:10018000070200080702000807020008070200082B
:10019000070200080000000007020008070200082C
:1001A000070200080702000807020008070200080B
:1001B00007020008070200080702000807020008FB
:1001C00007020008070200080702000807020008EB
:1001D0000702000807020008DFF80CD000F090F8D2
:1001E00000480047BD230008D0040020064880478F
:1001F00006480047FEE7FEE7FEE7FEE7FEE7FEE70C
:10020000FEE7FEE7FEE7FEE7C91D0008D90100088A
:100210002DE9F05F0546002092469B46884606463B
:10022000814640241BE0284641464746224600F0CE
:1002300057F853465A46C01A914110D311461846F2
:10024000224600F03EF82D1A67EB01084F46224681
:100250000120002100F035F817EB00094E41201E67
:10026000A4F10104DFDC484631462A464346BDE896
:10027000F09FD2B201E000F8012B491EFBD270477B
:100280000022F6E710B513460A4604461946FFF762
:10029000F0FF204610BD30B50B460146002020225D
:1002A000012409E021FA02F59D4205D303FA02F583
:1002B000491B04FA02F52844151EA2F10102F1DCE3
:1002C00030BD202A04DB203A00FA02F100207047FA
:1002D0009140C2F1200320FA03F319439040704784
:1002E000202A04DB203A21FA02F00021704721FA8B
:1002F00002F3D040C2F120029140084319467047F2
:10030000064C074D06E0E06840F0010394E8070062
:1003100098471034AC42F6D3FFF762FF98280008E4
:10032000B8280008FEE7000070470000EFF31080D7
:1003300072B600BFFEE70000B0B5044600F0FEF85C
:10034000054640F20400C2F200004068611C18BF7C
:10035000044400BF00F0F2F8401BA042FAD3B0BD45
:100360002DE9F04F84B08E4641F20042C4F60002FF
:10037000DEF8004006219042019008BF0521002CC4
:10038000009100F0D7800198002500F138424FEA33
:10039000B2230098012700264FF00008052B38BF34
:1003A00018460090CDF808E00EE000BFDEF80040EF
:1003B00008F1010834FA07F106F1020607F1010716
:1003C00005F1040500F0B680A7F1010A012000FA4A
:1003D0000AF314EA0309E9D0DEF804C00CF0030BB9
:1003E000ABF10104012C17D80198744681680322EF
:1003F000E468B2409143B4402143816041684FEAD0
:10040000480E9943CCF3001303FA0AF30446D04391
:10041000194361600CE000BF0321B140019CC84357
:10042000BBF1030FB64603D1B6464FF0030B23E0F2
:10043000E168029A01409368BBF1020F03FA0EF3E0
:1004400041EA0301E16017D16FF0030101EA5A01AB
:10045000214405F01C040F23D1F820C003FA04FB4B
:1004600013692CEA0B0CA34043EA0C03019C0B62BA
:10047000D2F804C00CF0030B21680BFA0EF2014015
:1004800011432160DDF808E01CF4403F8ED041F2BA
:100490006000C4F20200016840F2004C41F001012A
:1004A00001600168C4F2010C01F00101039103999C
:1004B0002AF003014FF6084A6144CFF6FF7A05F0AF
:1004C0000C030F2051F80A2000FA03F40098A2430D
:1004D00000FA03F31A4341F80A20DCF80810DEF8AA
:1004E000042041EA090340F20C40D40258BF21EA3B
:1004F0000903CCF80830C4F201000168940241EA13
:10050000090358BF21EA09030360DCF804109403CF
:1005100041EA090358BF21EA0903CCF80430DCF8AA
:100520000010D20341EA090358BF21EA0903CCF8BD
:1005300000303BE704B0BDE8F08F000040F2C80097
:10054000C2F200000068704740F2040040F2C801A7
:10055000C2F20000C2F2000140680A68104408605C
:100560007047000080B5032000F078F80F2000F0FD
:1005700009F800281CBF012080BD00F029F80020E8
:1005800080BD000070B540F20406C2F2000671683A
:10059000E1B1044640F20C00C2F200004FF47A725E
:1005A0000068B2FBF1F1B0FBF1F001F023F90F2C80
:1005B0004FF0010508D838B94FF0FF30214600222E
:1005C000002500F01FF83460284670BD012070BD82
:1005D00082B041F25800C4F20200816841F001018A
:1005E0008160816801F0010101910199016841F088
:1005F00080510160006800F080500090009802B0C7
:100600007047000010B54EF60C5CCEF2000CDCF822
:100610000030C3F3022E8EF00704042C28BF0424FC
:10062000BEF103034FF0FF3E0EFA04F438BF00237F
:10063000A14399400EFA03F39A43114300F00F02CD
:10064000043A624409010C3200F16043B0F1FF3F0B
:10065000C8BF03F56442117010BD00004EF60C5186
:10066000CEF200010A684FF6FF031A4060F30A2237
:1006700042F0806040F0FD7008607047B0F5007F88
:1006800042D0002840F0808047F21400C4F20000FD
:1006900050F8141CC26E01F4C06122F48072B1F5EE
:1006A000806FC2662ED150F8141C012262F34A21D9
:1006B00040F8141C40F20C01C2F200010968322219
:1006C00051434DF68362C4F21B32A1FB0212910C1E
:1006D0000268520511D54A1C0FD0026852050CD58C
:1006E00059B10268520508D5012906D002685205A1
:1006F00003D50229A1F10401EAD10068400544BFF5
:10070000032070470020704747F21400C4F2000035
:1007100050F8141CC26E01F4C06142F48072B1F54D
:10072000806FC266EED150F8141C012262F34A2198
:1007300040F8141C40F20C01C2F200010968322298
:1007400051434DF68362C4F21B32A1FB0212910C9D
:100750000268520511D54A1C0FD0026852050CD50B
:1007600059B10268520508D5012906D00268520520
:1007700003D50229A1F10401EAD10068400544BF74
:1007800003207047BEE700BF47F21400C4F2000028
:1007900050F8141C022262F34A2140F8141C002075
:1007A000704700002DE9F04182B00446807841F2A4
:1007B00088060007C4F2020602D400202FE000BF22
:1007C00056F8300C10F080580BD156F8300C40F031
:1007D000805046F8300C56F8300C00F080500190F4
:1007E000019847F20007C4F20007386840F48070AF
:1007F0003860FFF7A3FE05463868C00500F10C819C
:10080000FFF79CFE401B0228F6D90320B8F1000F29
:1008100005D156F8301C21F0805146F8301C216873
:10082000CA0717D18A071DD44A0723D40A0729D437
:10083000CA062FD48A0635D44A063BD40A0641D4C8
:10084000CA0547D48A034DD48A0553D44A0559D4DE
:1008500067E000BF3268636822F003021A43326027
:100860008A07E1D53268A36822F00C021A4332608D
:100870004A07DBD53268E36822F030021A4332605F
:100880000A07D5D53268236922F0C0021A433260C4
:10089000CA06CFD53268636922F440721A433260C7
:1008A0008A06C9D53268A36922F440621A433260CD
:1008B0004A06C3D53268E36922F440521A433260D3
:1008C0000A06BDD53268236A22F440421A433260D8
:1008D000CA05B7D53268636A22F440321A433260DF
:1008E0008A03B1D57269A36A22F003021A437261C6
:1008F0008A05ABD53268E36A22F440221A4332609B
:100900004A050ED53268236B22F440121A43B3F520
:10091000801F326005D156F87C2C42F4801246F8D4
:100920007C2C0A050ED53268636B22F440021A4310
:10093000B3F5800F326005D156F87C2C42F480125A
:1009400046F87C2CCA040ED53268A36B22F04072A4
:100950001A43B3F1807F326005D156F87C2C42F403
:10096000801246F87C2C8A040ED53268E36B22F0A4
:1009700040621A43B3F1006F326005D156F87C2C07
:1009800042F4801246F87C2C4A040ED53268236C5F
:1009900022F040621A43B3F1006F326005D156F87D
:1009A0007C2C42F4801246F87C2C0A040ED5326866
:1009B000636C22F040521A43B3F1805F326005D17C
:1009C00056F87C2C42F4803246F87C2CCA030ED5B3
:1009D0003268A36C22F040421A43B3F1804F326078
:1009E00005D156F87C2C42F4803246F87C2C490321
:1009F0000ED57169E26C21F440111143B2F5001F6C
:100A0000716105D156F87C1C41F4801146F87C1CBC
:100A100002B0BDE8F08100BFB06810F4407010D0A3
:100A2000216D88420BD0B068B16820F4407041F469
:100A30008031B160B16821F48031B160B060C0072D
:100A40000CD1B068216D20F440700843B0600020E4
:100A5000B8F1000F7FF4E3AEDBE600BFFFF76EFDF9
:100A6000054641F2883700BFB0688007E9D4FFF738
:100A700065FD401BB842F7D9C7E600002DE9F047F5
:100A800000286DD042F2000AC4F2020A0446DAF8E5
:100A900000000D4600F00F0088420CD2DAF800008A
:100AA00020F00F002843CAF80000DAF8000000F038
:100AB0000F00A84254D1216841F20808C807C4F2C7
:100AC000020803D1880740F1D880BDE060680228A1
:100AD0003AD0032840D158F8082C920140D5D8F8D4
:100AE0000420D8F8043042F2004702F00302C3F3B6
:100AF0000313C0F2F4070133032A04BF41F20027B5
:100B0000C0F27A07D8F80420B7FBF3F3D8F80470E2
:100B1000C2F306225A43C7F34163022707EB43039C
:100B2000B2FBF3F24BF20043C0F2C4439A4261D9E4
:100B3000D8F8002012F0F00F51D089075AD5A168DB
:100B4000002957D14BE000BF58F8081C89035CBF4F
:100B50000120BDE8F08707E058F8081C490503D4D8
:100B60000120BDE8F08700BFD8F8001001F00C01AB
:100B700004293FD0D8F8001001F00C01082939D021
:100B8000D8F8001001F00C010C2933D1D8F804106A
:100B9000D8F8042042F2004301F00301C2F303122B
:100BA000C0F2F4030132032904BF41F20023C0F272
:100BB0007A03D8F80410B3FBF2F2D8F80430C1F38A
:100BC00006215143C3F34162022303EB4202B1FB0E
:100BD000F2F14BF20042C0F2C44291420AD9D8F875
:100BE0000010082262F307114FF00109C8F8001045
:100BF00002E000BF4FF00009D8F8001021F0030117
:100C00000843C8F80000FFF799FC064641F2883710
:100C1000D8F80000616800F00C00B0EB810F07D03D
:100C2000FFF78CFC801BB842F2D90320BDE8F087A7
:100C30002168880708D4B9F1000F1ED0D8F8000049
:100C400020F0F00017E000BF480705D5D8F80000F5
:100C500040F4E060C8F80000080706D5D8F80000A6
:100C6000072262F30D20C8F80000D8F80000A2683F
:100C700020F0F0001043C8F80000DAF8000000F09F
:100C80000F00A8421BD9DAF8000020F00F0028431B
:100C9000CAF80000FFF752FC064641F2883700BF51
:100CA000DAF8000000F00F00A84207D0FFF746FC7A
:100CB000801BB842F4D90320BDE8F08721684807BB
:100CC00007D5D8F80000E26820F4E0601043C8F8C7
:100CD0000000080708D5D8F80000216920F460500A
:100CE00040EAC100C8F80000D8F8000042F2004114
:100CF000C0F2F40100F00C00042808462DD0D8F80A
:100D0000000000F00C00082841F20020C0F27A0038
:100D100023D0D8F8002002F00C020C2A1CD1D8F8FD
:100D20000420D8F8043002F00302C3F303130133A4
:100D3000032A08BF0146D8F80400B1FBF3F1D8F844
:100D40000420C0F306204843C2F34161022202EBB3
:100D50004101B0FBF1F000E00020D8F8001042F6AD
:100D60004602C1F30311C0F60002515C40F20C02CE
:100D700001F01F0120FA01F140F20400C2F200006C
:100D80000068C2F200021160BDE8F047FFF7FABB4D
:100D900040F20C0041F20801C2F20000C4F202016C
:100DA0000068096842F65602C1F30221C0F600024B
:100DB000515C01F01F01C8407047000040F20C0078
:100DC00041F20801C2F20000C4F2020100680968A1
:100DD00042F65602C1F3C221C0F60002515C01F096
:100DE0001F01C8407047000041F20C01C4F202012B
:100DF00051F8040C42F20042C0F2F40200F00C0080
:100E00000428104608BF704751F8040C00F00C008D
:100E1000082841F20020C0F27A0021D051F8043CA9
:100E200003F00C030C2B1CBF00207047D1F800C04E
:100E30000B680CF0030CC3F303130133BCF1030F75
:100E400008BF02460868B2FBF3F20968C0F3062047
:100E50005043C1F34161022202EB4101B0FBF1F0CA
:100E6000704700002DE9F04182B0002800F00681B3
:100E70000446007841F20006C007C4F2020655D1CC
:100E80002078800774D42078000700F197802078BC
:100E9000400700F1B7802078800600F10781E06903
:100EA000002840D0B16801F00C010C2940F05681B7
:100EB000012800F0E380F068216A00F003028A4212
:100EC00040F0DC80626A6FF00F0300F0F00103EB8A
:100ED0000212914240F0D280A16A00F4FE42B2EBCD
:100EE000012F40F0CB80E16A00F07842B2EBC16F95
:100EF00040F0C480226B0023CFF6E07303EB025274
:100F000000F4C0016FF31402914240F0B780616BAE
:100F10004FF07E4202EB016100F0C06001F07E41C3
:100F2000884240F0AB800020F1E100BFB06800F0E3
:100F30000C01F06808295BD0032281F00C0122EA41
:100F400000000844B0FA80F0400951D16068B0F563
:100F5000803F07D0B0F5A02F40F0D680306840F435
:100F600080203060306840F480303060D7E000BFCF
:100F7000B068F16800F00C00042869D001F00301AA
:100F800080F00C0081F002010844B0FA80F04009C2
:100F90005ED1E1683068002900F0CE8040F48070B6
:100FA0003060FFF7CBFA05463068400500F1EC8071
:100FB000FFF7C4FA401B0228F6D920E16169D6F890
:100FC0009400002900F08C8040F00100C6F89400E5
:100FD000FFF7B4FA054600BFD6F8940080073FF546
:100FE00056AFFFF7ABFA401B0228F5D907E100BF67
:100FF000306880037FF544AF606800287FF440AF1D
:101000003CE000BFB06D10F0805808D1B06D40F0EA
:101010008050B065B06D00F080500190019847F2AB
:101020000007C4F200073868C0052BD4386840F4C4
:1010300080703860FFF782FA054600BF3868C00547
:1010400020D4FFF77BFA401B0228F7D9D7E000BF76
:101050003068400501D5E06880B17068216920F0F2
:10106000FE4040EA0160706040F20400C2F20000FD
:101070000068FFF787FA00283FF405AF012002B0AF
:10108000BDE8F081A068012808D0052840F09A80CA
:10109000D6F8900040F00400C6F89000D6F8900012
:1010A00040F00100C6F890009AE000BFA169D6F8B0
:1010B0009800002970D040F00100C6F89800FFF7B2
:1010C0003DFA0546D6F8980080073FF5E8AEFFF7F1
:1010D00035FA401B02284FF00300F3D917E100BF97
:1010E00020F00100C6F89400FFF728FA054600BF7B
:1010F000D6F8940080077FF5CAAEFFF71FFA401BB1
:101100000228F5D97BE000BF3168002821F4803146
:101110003160316821F48021316000F08F80FFF769
:101120000DFA0546306880033FF5AAAEFFF706FAD0
:10113000401B6428F6D962E020F480703060FFF72D
:10114000FDF90546306840057FF59DAEFFF7F6F9DD
:10115000401B02284FF00300F4D9D8E03168022880
:1011600021F0807131604FD1FFF7E8F9054600BFEB
:101170003068800140F18E80FFF7E0F9401B0228C3
:101180004FF00300F4D9C2E07068216920F0FE40FE
:1011900040EA0160706076E620F00100C6F8980031
:1011A000FFF7CCF9054600BFD6F8980080077FF519
:1011B00076AEFFF7C3F9401B02284FF00300F3D9C6
:1011C000A5E000BFD6F89010002821F00101C6F874
:1011D0009010D6F8901021F00401C6F890103DD080
:1011E000FFF7ACF9054641F2883700BFD6F890000A
:1011F000800745D4FFF7A2F9401BB842F6D9032077
:1012000002B0BDE8F08100BFF0684FF6FF7120F03A
:101210000300F060F068CFF6EE610840F060FFF781
:101220008DF90446306880017FF57DAEFFF786F9C1
:10123000001B02284FF00300F4D968E0FFF77EF9A5
:10124000054600BF306880037FF51AAEFFF776F9D8
:10125000401B64284FF00300F4D958E0FFF76EF903
:10126000054641F2883700BFD6F89000800707D5C1
:10127000FFF764F9401BB8424FF00300F4D946E091
:10128000B8F1000F7FF407AEB06D20F08050B0656C
:1012900001E600BFF06848F20C01C0F29F1104F1B2
:1012A000200700EA010C8ECF6FF00F00D4E90C5438
:1012B00000EB02100022CFF6E07241EA0C0102EBD3
:1012C000055208436FF314024FF07E4540EA0320B5
:1012D00005EB0465104305F07E4540EAC7602843EE
:1012E000F060306840F080703060F06840F08070EE
:1012F000F060FFF723F90446306880013FF513AE34
:10130000FFF71CF9001B02284FF00300F4D902B0CC
:10131000BDE8F08142F20050C4F2000050F8210014
:101320007047000042F20050C4F2000040F8212053
:101330007047000010B5006840684FEA1043C0F3E2
:10134000042E00F03F0CC0F34234CB7081F801E072
:1013500081F802C00C700AB1002010BDDCB2240973
:1013600004EB840403F00F0303EB4403020ACB7085
:101370004FEA1E1343EA830302F00F0202EB43021B
:101380004A704FEA1C1242EA820200F00F0000EBA2
:1013900042008870002010BD10B5006883684B6063
:1013A00003696FF3DF338B600068C0F30543C0F35C
:1013B000062E00F07F0CC0F380540B7081F801E022
:1013C00081F802C0CC700AB1002010BD020C1B09CC
:1013D00043EA830302F00F0202EB4302040A0A709D
:1013E0004FEA1E1202EB820204F00F0303EB4202EB
:1013F0004A704FEA1C1202EB820200F00F0000EB71
:1014000042008870002010BDB0B5002846D00446C8
:1014100090F8250028B9002084F82400204600F028
:1014200059F8022084F825002168CA204862532018
:101430004862C868400615D4C86840F08000C8609B
:10144000FFF77CF82168CA6852060BD4054600BF36
:10145000FFF774F8401BB0F57A7F33D82168C8686D
:101460004006F5D588694FF6BF72CFF68F3210402F
:101470008861D4E9010CD4E903531843A3698A694C
:1014800018431043886145EA0C400861204600F08B
:101490004FFC216820B1FF224A62B0BD0120B0BDDF
:1014A0008869D4E9075320F06040626918432843F3
:1014B00010438861FF204862012084F82500002045
:1014C000B0BD00BF032084F825002168CA68FF2250
:1014D0004A62B0BD10B596B0044601A804304C2154
:1014E000FEF7CEFE206842F60001C4F200018842F9
:1014F00002D016B010BD00BF4FF4002001904FF491
:101500000070159001A8FFF74DF9002818BFFEF7ED
:101510000DFF41F25800C4F20200816B41F400411A
:101520008163016841F480610160006800F48060BB
:101530000090009816B010BD2DE9F041044690F8D7
:10154000240001284FF0020008BFBDE8F08101230C
:1015500084F8243084F8250032B14878CA788E782F
:10156000000240EA024841E048784FF0CD0CC20644
:1015700042BF00F0EF000A304870CA784FF0010E09
:10158000A2F10A03DFB207FB0CF7FD0A05EB8505A4
:10159000A3EB45038E780EEBD727092A88BF43EAD1
:1015A0000712A0F10A03DFB207FB0CF7FD0A05EBF7
:1015B0008505A3EB45030EEBD725092888BF43EA31
:1015C0000510C0B2D2B2000240EA0248A6F10A00F9
:1015D000C2B202FB0CF2D30A03EB8303A0EB43007D
:1015E0000EEBD222092E88BF40EA02160F7821683E
:1015F000CA20486253204862C868400614D4C868AC
:1016000040F08000C860FEF799FF2168CA68520662
:101610000AD40546FEF792FF401BB0F57A7F21D829
:101620002168C8684006F5D5F0B240EA08007A03A0
:1016300020F0C00010434860204600F079FB21688C
:10164000FF224A6220B1002184F82410BDE8F08115
:10165000012084F825000020002184F82410BDE832
:10166000F08100BF032084F825002168CA68FF22AA
:101670004A62002184F82410BDE8F0812DE9F0438E
:1016800081B0044690F8240001284FF0020000F0D9
:10169000AD800D46012184F8241084F825002168CE
:1016A000CA20486253204862C8681646400616D4CD
:1016B000C86840F08000C860FEF740FF2168CA6833
:1016C00052060CD4074600BFFEF738FFC01BB0F52A
:1016D0007A7F00F281802168C8684006F4D5886965
:1016E00000F0400036B158B94FF0000C85F803C047
:1016F00009E000BF70B94FF0000C85F803C00CE0A2
:10170000E8784FEA805C6B782878AA781B0243EA75
:10171000004340E0E8784FEA805C2B784FF0CD0E34
:10172000A3F10A085FFA88F000FB0EF0C60A06EB88
:1017300086066F78A8EB46064FF00108AA7808EBFA
:10174000D020092B88BF46EA00135FFA83F9A7F17E
:101750000A03DEB206FB0EF6F00A00EB8000A3EBF4
:10176000400008EBD623092F88BF40EA0317F8B2E0
:10177000000240EA0943A2F10A00C6B206FB0EF7D6
:10178000FE0A06EB8606A0EB460008EBD727092ADF
:1017900088BF40EA0712D0B2184347F67F7240EA8A
:1017A0000C00C0F27F0210400860886920F480209D
:1017B0008861D5E903028B6910431843886120468C
:1017C00000F0B6FA2168FF224A6260B9012084F86D
:1017D0002500002007E000BF032084F825002168D1
:1017E000CA68FF224A62002184F8241001B0BDE8D3
:1017F000F0830000411E0020B0EB116F1CBF0120E0
:1018000070474EF21002CEF2000251604EF62351A4
:10181000CEF20001F0230B70072190601160704739
:1018200090F88010012904BF022070472421C0F8DD
:10183000841002681168136823F00103136021F01B
:1018400000530021416613602022C0F8842080F8F4
:101850008010084670470000B0B590F88020012A3B
:1018600004BF0220B0BD2422C0F884200268D0F852
:1018700064E0D2F800C01368BEF1000F23F001034A
:101880001360936823F0606341EA0301916019D00B
:101890009368916842F6880E490FC0F6000E42F632
:1018A00090051EF80140C0F60005695CC3F3426371
:1018B000E400B4FBF1F11EF80340EB5CE500B5FB7E
:1018C000F3F301E001210123A0F86A102021A0F820
:1018D0006830C2F800C0C0F88410002180F8801081
:1018E0000846B0BDB0B590F88020012A04BF0220A0
:1018F000B0BD2422C0F884200268D0F864E0D2F899
:1019000000C01368BEF1000F23F001031360936859
:1019100023F0604341EA0301916019D09368916814
:1019200042F6880E490FC0F6000E42F690051EF8EA
:101930000140C0F60005695CC3F34263E400B4FBF8
:10194000F1F11EF80340EB5CE500B5FBF3F301E0B9
:1019500001210123A0F86A102021A0F86830C2F804
:1019600000C0C0F88410002180F880100846B0BD87
:10197000B0B582B0B0B10446D0F8840028B90020D8
:1019800084F88000204600F059F82420C4F8840030
:101990002068016821F001010160204600F092FA00
:1019A000012803D1012002B0B0BD00BFA06A10B170
:1019B000204600F013FA2068416821F4904141600C
:1019C000816821F02A018160016841F00101016014
:1019D0000020C4F88C00FEF7B1FD216805460A68B6
:1019E00012070CD56FF07E4C20464FF400110022F8
:1019F0002B46CDF800C000F0C5FB78B92168086817
:101A000040070FD56FF07E4C20464FF48001002236
:101A10002B46CDF800C000F0B5FB18B1032002B092
:101A2000B0BD00BF2020C4F88400C4F888000020A6
:101A3000E06684F8800002B0B0BD000010B59AB036
:101A40000446684608304C21FEF71AFC206843F62D
:101A50000001C4F20101884202D01AB010BD00BFDB
:101A600001200090002468460194FEF79BFE0028A8
:101A700018BFFEF75BFC41F24C00C4F20200416962
:101A800041F480414161416901F48041159115990A
:101A9000016841F001010160006815A900F0010032
:101AA000159015984FF4C06015900220CDE91604EA
:101AB000072019904FF090401894FEF751FC1AB08F
:101AC00010BD00002DE9F04381B00446D0F8840039
:101AD00020280BD10E4600294FF001005CD017469C
:101AE000002A59D094F88000012803D1022001B0C7
:101AF000BDE8F083012084F880004FF00009212028
:101B00001D46C4F88C90C4F88400FEF717FDA4F8B5
:101B10005470A4F85670A1680746B1F5805F07D1EC
:101B2000206900281CBF30464E46B046064601E0FC
:101B30004FF0000884F8809009E000BF16F8010B10
:101B400021688862B4F856000138A4F85600B4F849
:101B5000560088B12046802100223B46009500F0C7
:101B600011FB88B9002EE9D138F8020B21686FF318
:101B70005F2088620026E5E72046402100223B46A0
:101B8000009500F0FFFA18B1032001B0BDE8F08322
:101B90002020C4F88400002001B0BDE8F0830000DC
:101BA000FEE7000083B041F24C00C4F2020001687D
:101BB00041F004010160016801F004010291029901
:101BC000016841F020010160016801F020010191EC
:101BD0000199016841F001010160006800F0010015
:101BE0000090009803B0704710B586B040F2100026
:101BF00042F600020021C2F20000C4F200027F237C
:101C0000FF244FF0804CCDE90211CDE90011C0E96D
:101C10000021C0E90234C0E90411C0E9061C0162D8
:101C2000FFF7F2FB002818BFFEF780FB40F2100020
:101C3000C2F200000121FFF76DFB41F2240188424E
:101C40002BD040F21004C2F200042046012141F2E0
:101C50002402FFF767FB0020ADF804008DF80600B2
:101C60000290CDE9040001A920460022FFF706FDFD
:101C7000002818BFFEF75AFB40F20110C1F6010020
:101C8000009040F21000C2F2000069460022FFF707
:101C900053FC002818BFFEF749FB06B010BD00003A
:101CA00080B540F2380043F60001C2F20000C4F2F1
:101CB000010100234FF00C0C4FF4E13280E80E00DC
:101CC000C0E90333C0E905C3C0E90733C0E90933FC
:101CD000FFF74EFE002818BFFEF728FB40F2380041
:101CE000C2F200000021FFF7FDFD002818BFFEF73B
:101CF0001DFB40F23800C2F200000021FFF7ACFDEE
:101D0000002818BFFEF712FB40F23800C2F20000B4
:101D1000FFF786FD002808BF80BDBDE88040FEF7C4
:101D200005BB0000FEE70000FEE700007047000072
:101D3000B0B504460068C16821F08001C1608169C6
:101D4000890615D4C16821F02001C160FEF7F6FBB9
:101D5000054600BF2068C068800629D4FEF7EEFB68
:101D6000401BB0F57A7FF5D9032084F82500B0BD7B
:101D7000816921F020018161C16821F02001C160E9
:101D8000FEF7DCFB054600BF2168C868800611D459
:101D9000FEF7D4FB401BB0F57A7FF5D9032084F819
:101DA000250021688A6942F020028A61B0BD00BF27
:101DB0000020B0BD00208A6942F020028A61B0BDD7
:101DC00070470000FEF7C0BB4EF68850CEF2000010
:101DD000016841F4700101607047000080B5816ABC
:101DE000CA070DD18A0716D44A071FD40A0728D478
:101DF000CA0631D48A063AD44A0658D542E000BF12
:101E00000268D0F82CC0536823F4003343EA0C0373
:101E100053608A07E8D50268D0F830C0536823F4CD
:101E2000803343EA0C0353604A07DFD50268D0F8D9
:101E300034C0536823F4802343EA0C0353600A0739
:101E4000D6D50268D0F838C0536823F4004343EA7B
:101E50000C035360CA06CDD50268D0F83CC0936825
:101E600023F4805343EA0C0393608A06C4D50268C6
:101E7000D0F840C0936823F4005343EA0C03936006
:101E80004A0614D50268D0F844C05368BCF5801FD8
:101E900023F4801343EA0C03536008D1D2F804C042
:101EA000D0F848E02CF4C00343EA0E03536009065F
:101EB00058BF80BD0168C06C4A6822F400221043FC
:101EC000486080BD70B504462269D4E902130068F9
:101ED0000A436169E6691143026846F6F315CCF6D8
:101EE000FF7531432A4011430160416848F2000CFC
:101EF00021F4405119434160A269C4F2000C6045CD
:101F00001CBF216A0A4381684FF2FF43C1F2FF13ED
:101F1000194011438160C16AD4F824E021F00F0117
:101F200041EA0E01C16244F6FF71C4F20001884229
:101F30004FF0100318DC44F20041C4F20001884263
:101F400028D044F60001C4F2000188422AD044F6A9
:101F50000041C4F20001884242D141F28801C4F23A
:101F6000020109688B0933E045F20001C4F2000167
:101F700088421FD0604525D043F60001C4F201011C
:101F800088422DD141F28801C4F202010B6879A286
:101F900022E000BF41F28801C4F2020109688B0807
:101FA00016E000BF41F28801C4F2020109680B0982
:101FB0000EE000BF41F28801C4F2020109680B0A79
:101FC00006E000BF41F28801C4F2020109688B0AF1
:101FD00042F67802C0F6000203F0030152F8213005
:101FE000604542F20040C0F2F40015D0B6F5004F53
:101FF00024D1082B4FF0010100F2B380DFE803F099
:10200000065E6CB164B1B1B16A0000BFFEF7C0FEFC
:10201000002856D15CE000BF082B4FF0010100F210
:10202000A080DFE803F0059E259E1D9E9E9E230056
:10203000FEF7AEFEC0B1D4F824E019E0082B4FF053
:10204000010100F28E80DFE803F00565738C6B8C74
:102050008C8C7100FEF79CFE00285ED164E000BF0E
:10206000FEF7C2FE0028E6D100217AE04FF40040DE
:1020700042F65E01C0F6000131F81E106268B0FB46
:10208000F1F002EB420188424FF0010169D31303E2
:10209000984266D8010E000210EB520041F1000197
:1020A0000023FEF7B5F84FF60052A0F54071C0F2DC
:1020B0000F0291424FD3012153E000BFFEF77EFE95
:1020C00030B1D4F824E007E0FEF78EFE0028F8D106
:1020D000002146E04FF4004042F65E01C0F60001E8
:1020E00031F81E106268B0FBF1F0510801EB4000BE
:1020F000B0FBF2F04FF6EF72A0F11001914207D859
:102100004FF6F0710140C0F34200084423E000BFE5
:10211000012126E0FEF752FE30B1D4F824E007E0BA
:10212000FEF762FE0028F8D100211AE04FF40040CB
:1021300042F65E01C0F6000131F81E104FF6EF7254
:10214000B0FBF1F0616800EB5100B0FBF1F0A0F1E1
:102150001001914204D82168C860002101E000BF4D
:1021600001214FF00110A066002208462267626735
:1021700070BD00BF0100000004000000020000006C
:10218000080000002DE9F041044600681546C269C8
:102190000E461140891BB1FA81F14909A94240F06C
:1021A000A080DDF81880B8F1000F29D018F10101E6
:1021B00040F08080C1693140891BB1FA81F1490941
:1021C000A94240F08E80C1693140891BB1FA81F18A
:1021D0004909A94240F08580C1693140891BB1FAA3
:1021E00081F14909A9427CD1C1693140891BB1FA09
:1021F00081F14909A942DDD00020BDE8F08100BF8E
:10220000FEF79CF9206850E8000F216820F4D07098
:1022100041E80002BAB3206850E8000F216820F4BA
:10222000D07041E8000272B3206850E8000F2168C6
:1022300020F4D07041E800022AB3206850E8000F73
:10224000216820F4D07041E80002002ADAD11AE0B7
:10225000206850E8020F216820F0010041E80202E6
:10226000DAB1206850E8020F216820F0010041E84F
:10227000020292B1206850E8020F216820F00100AC
:1022800041E802024AB1206850E8020F216820F0BC
:10229000010041E80202002ADAD12020C4F88400BB
:1022A00004F1880020210160002084F880000320D0
:1022B000BDE8F0811F4600BFFEF740F9C01B404556
:1022C000A0D820680168490744BFC1695FEA01518D
:1022D0000AD4C0693040801BB0FA80F04009A8429F
:1022E000EAD00020BDE8F0814FF40061016200BF38
:1022F00050E8000F216820F4D07041E80002C2B31A
:10230000206850E8000F216820F4D07041E80002F6
:102310007AB3206850E8000F216820F4D07041E8BB
:10232000000232B3206850E8000F216820F4D0701A
:1023300041E80002EAB12068DAE700BF206850E80F
:10234000020F216820F0010041E80202DAB12068A2
:1023500050E8020F216820F0010041E8020292B12A
:10236000206850E8020F216820F0010041E80202D5
:102370004AB1206850E8020F216820F0010041E8CE
:102380000202002ADAD12020C4F88400C4F88800B0
:1023900004F18C0086E70000FEE7000080B582B003
:1023A000019040F23800C2F2000001A901224FF46E
:1023B0007A73FFF787FB019802B080BD94B0FEF7F7
:1023C000D1F800240020CDE90B44CDE90944CDE942
:1023D0000744FEF753F90A2006904FF480700990E5
:1023E00040200A90012004210B9002200F915521DA
:1023F000CDE90D00CDE91010CDE9120006A8FEF7D9
:1024000031FD28B1EFF3108072B600BFFEE700BFC8
:102410000F2001900320CDE9020401A80421CDE999
:102420000444FEF72BFB28B1EFF3108072B600BF17
:10243000FEE700BFFFF7B6FBFFF732FCFFF7D4FB68
:1024400040F21004C2F200040DF1180801AE12A708
:1024500017A500BF204641460022FEF79DFF2046FB
:1024600031460022FEF766FF9DF805209DF80630F4
:102470009DF80710384600F025F89DF818109DF8D3
:1024800019209DF81A30284600F01CF84FF47A7095
:10249000FDF752FFDEE700BF7274633A3230253039
:1024A00032642D253032642D253032642000000046
:1024B000253032643A253032643A253032640D0AD0
:1024C000000000000FB4054B10B503A9044A0298A0
:1024D00000F018F810BC5DF814FB00009D23000804
:1024E0000000002002E008C8121F08C1002AFAD12B
:1024F00070477047002001E001C1121F002AFBD184
:10250000704700002DE9FF4F8BB088460546002636
:1025100006E025280BD0DDE90D1290476D1C761CD6
:1025200028780028F5D10FB03046BDE8F08F0024A0
:10253000A146A2460122AE4900E0044315F8013F3E
:10254000203B02FA03F00842F7D128782A2810D05D
:102550006FF02F022878A0F13001092915D809EB76
:10256000890102EB410144F0020400EB01096D1CFA
:10257000F0E758F8041B5FEA010903D544F400545E
:10258000C9F1000944F002046D1C28782E2817D1E7
:1025900015F8010F44F004042A280ED06FF02F0222
:1025A0002878A0F1300109290AD80AEB8A0102EB48
:1025B000410100EB010A6D1CF2E758F804AB6D1CF9
:1025C00028786C280FD006DC4C2817D068280DD04E
:1025D0006A2814D104E0742810D07A280FD10DE0B5
:1025E00044F400140AE044F4801401E044F440147C
:1025F0006978814202D104F580146D1C6D1C287825
:10260000692865D006DC00288DD0632827D064288F
:1026100006D15DE06E2808D073282AD0752877D0BF
:10262000DDE90D129047761CE0E0C4F30250022869
:1026300009D003280DD0D8F8001004280DD00E6062
:1026400008F10408D2E0D8F80010F217C1E90062DE
:10265000F6E7D8F800100E80F2E70E70F0E718F8F1
:10266000041B8DF8001000208DF80100EB460120BE
:1026700003E058F804BB4FF0FF3061074FF000074C
:1026800001D40AE07F1C57450DDA8742FADB1BF8BC
:1026900007100029F6D106E07F1C8742FCDB1BF8FF
:1026A00007100029F8D1DDE90D23A9EB07008146C9
:1026B000214600F0B1F83044C61904E0DDE90D12FE
:1026C0001BF8010B90477F1EF8D22146484688E050
:1026D00058F8040BC4F302514FF00A0B032900D140
:1026E00000B2042900D140B2002802DA40422D2174
:1026F00002E0210505D52B218DF82410012104E0ED
:1027000006E0E10710D02021F6E708AF089113E0BA
:1027100058F8040BC4F302514FF00A0B032900D1FF
:1027200080B2042900D1C0B20021EEE75946FDF77E
:10273000B2FD303107F8011D0028F7D1ADEB0700DD
:1027400000F1200B600702D524F4803401E04FF043
:10275000010ADA4502DDAAEB0B0000E00020824608
:1027600000EB0B0108980144A9EB01000A90E0037B
:1027700006D4DDE90D2321460A9800F04DF8064401
:102780004FF0000908E009A911F80900DDE90D1270
:10279000904709F10109761C08998945F3DBE003AC
:1027A0000CD5DDE90D2321460A9800F035F80644E2
:1027B00004E0DDE90D1230209047761CBAF10001EB
:1027C000AAF1010AF5DC05E0DDE90D1217F8010BAD
:1027D0009047761CBBF10001ABF1010BF4DC0A98C9
:1027E0002146DDE90D2300F005F806446D1C97E64F
:1027F000092801002DE9F041044600251E46174630
:10280000880404D405E039462020B0476D1C641EBE
:10281000F9D52846BDE8F0812DE9F04104460025B0
:102820001E469046C80301D5302700E020278804C3
:1028300004D505E041463846B0476D1C641EF9D505
:102840002846BDE8F0810000000000000000010201
:102850000304060708090000000001020304010048
:1028600002000400060008000A000C00100020000E
:102870004000800000010000000000000400000093
:102880000200000008000000010101030701000030
:102890000804020408010101B82800080000002013
:1028A00010000000E4240008C828000810000020E0
:1028B000C0040000F4240008000000001000000024
:0828C000010000000024F400F7
:04000005080001D915
:00000001FF
