:020000040800F2
:10000000D8060020F10100089D1D00083F180008D7
:10001000991D000879070008C920000800000000A9
:100020000000000000000000000000004120000867
:100030007D07000800000000A11D00084320000803
:100040000B0200080B0200080B0200080B0200085C
:100050000B0200080B0200080B0200080B0200084C
:100060000B0200080B0200080B0200080B0200083C
:100070000B0200080B0200080B0200080B0200082C
:100080000B0200080B0200080B0200080B0200081C
:100090000B0200080B0200080B0200087F07000893
:1000A0000B0200080B0200080B0200080B020008FC
:1000B0000B0200080B0200080B0200080B020008EC
:1000C0000B0200080B0200080B0200080B020008DC
:1000D0000B0200080B0200080B0200080B020008CC
:1000E0000B0200080B0200080B0200080B020008BC
:1000F0000B0200080B0200080B0200080B020008AC
:100100000B0200080B0200080B0200080B0200089B
:100110000B0200080B0200080B0200080B0200088B
:100120000B0200080B0200080B0200080B0200087B
:100130000B0200080B0200080B0200080B0200086B
:100140000B0200080B0200080B0200080B0200085B
:100150000B0200080B0200080B0200080B0200084B
:100160000B0200080B0200080B0200080B0200083B
:100170000B0200080B0200080B0200080B0200082B
:100180000B0200080B0200080B0200080B0200081B
:100190000B020008000000000B0200080B02000820
:1001A0000B0200080B0200080B0200080B020008FB
:1001B0000B0200080B0200080B0200080B020008EB
:1001C0000B0200080B0200080B0200080B020008DB
:1001D0000B0200080B020008DFF810D000F02CFA28
:1001E00000480047DD290008AFF30080D806002052
:1001F0000648804706480047FEE7FEE7FEE7FEE7C1
:10020000FEE7FEE7FEE7FEE7FEE7FEE7B5200008B3
:10021000D9010008D2B201E000F8012B491EFBD23F
:1002200070470022F6E710B513460A460446194601
:10023000FFF7F0FF204610BD30B50B460146002009
:100240002022012409E021FA02F59D4205D303FA98
:1002500002F5491B04FA02F52844151EA2F1010219
:10026000F1DC30BD2DE9F05F0546002092469B464B
:1002700088460646814640241BE0284641464746BC
:10028000224600F0FAF953465A46C01A914110D35B
:1002900011461846224600F0E1F92D1A67EB0108D5
:1002A0004F4622460120002100F0D8F917EB000943
:1002B0004E41201EA4F10104DFDC484631462A46A7
:1002C0004346BDE8F09F2DE9FE4F804681EA0300DA
:1002D000C00F0C46009021F0004123F00045B8EB20
:1002E0000200A94105D24046214690461C460B46D5
:1002F000024623F00040104347D0270DC7F30A0001
:10030000C3F30A510290401A019040286BDAC3F3FC
:10031000130040F4801B0098924620B10023D2EBDA
:10032000030A63EB0B0B01985946C0F1400250469B
:1003300000F094F906460D4650465946019A00F0E1
:10034000ACF910EB08006141002487EA115284EAFD
:10035000E7731A4340D0009A62B3019A012A4FEA28
:10036000075215DC001B61EB02014FF0004202EA6C
:100370000752CDE90042001C41F5801132462B4660
:1003800000F0ACF903B0BDE8F08F40462146F9E734
:10039000001B61EB0201001C41F5801300185B415A
:1003A0002018A2F5001747EB030140EAD570B619F3
:1003B0006D4111E06D084FEA360645EAC0754FEA17
:1003C0000752001B61EB0201001C41F58011490836
:1003D0004FEA30000019514132462B4603B0BDE8C8
:1003E000F04F00F06CB90098012240000023D0EBE0
:1003F000020263EBE073009821464FEAE074B8EB29
:10040000000061EB0401E9E783F000435BE781F062
:10041000004158E72DE9FE4F81EA030404F000444F
:1004200021F0004100944FF0000B23F0004350EA0C
:1004300001045ED052EA03045BD0C3F30A54C1F353
:100440000A552C44A4F2F3340194A0FB0254C1F3E6
:10045000130141F48011C3F3130343F4801301FB30
:10046000024400FB034E840A970A44EA815447EA97
:100470008357A4FB076802958D0A05FB07854FEAA1
:10048000932C04FB0C542705029D4FEA065847EABB
:100490001637B5EB08056EEB070C870E920E47EA90
:1004A000811742EA8312A7FB0201B6EB0B0164EB52
:1004B00000042B0D43EA0C335E1844EB1C50DA4663
:1004C0005146E7FB0201C5F313044FEA0B3343EA3D
:1004D00014534FEA0432019C43EA0603A4F10C04CE
:1004E0000294009CCDE900B400F0F8F803B0BDE838
:1004F000F08F00200146F9E72DE9F04D81EA030471
:1005000004F0004B21F0004514464FF0000A23F0A0
:10051000004150EA050220D054EA01021DD0C5F383
:100520000A570246C5F31303C1F31300C1F30A5679
:1005300040F4801543F48013A7EB0608101BD64641
:1005400008F2FD3873EB050002D308F1010801E061
:1005500092185B41B8F1000F03DA00200146BDE8B4
:10056000F08D00204FF48011064684460EE0171BE4
:1005700073EB050705D3121B63EB050306434CEA37
:10058000010C49084FEA300092185B4150EA01071C
:10059000EDD152EA030012D082EA040083EA050199
:1005A000084305D0101BAB4106D20122002306E010
:1005B00000224FF0004302E06FF0010253101AEBEB
:1005C00006004CEB085110EB0A0041EB0B01BDE8B3
:1005D000F04D00F074B8C1F30A52C1F3130140F2B8
:1005E000FF3341F480119A4202DA0020014670473D
:1005F00040F233439A42A2F2334202DC524200F00C
:100600003CB800F02BB8000030B5041E71F10004B6
:1006100004DB4FF00044404264EB0101141E73F10F
:10062000000405DB1C464FF00043524263EB040319
:10063000994208BF904230BD064C074D06E0E06885
:1006400040F0010394E8070098471034AC42F6D319
:10065000FFF7C6FD6C3000088C300008202A04DB50
:10066000203A00FA02F1002070479140C2F12003C5
:1006700020FA03F3194390407047202A04DB203A04
:1006800021FA02F00021704721FA02F3D040C2F1B2
:1006900020029140084319467047202A06DBCB17F9
:1006A000203A41FA02F043EAE07306E041FA02F32D
:1006B000D040C2F12002914008431946704710B55E
:1006C000141E73F1000408DA401C41F10001921875
:1006D0005B411A4301D120F0010010BD2DE9F04D1E
:1006E00092469B4611B1B1FA81F202E0B0FA80F273
:1006F00020329046FFF7B2FF04460F4640EA0A0058
:1007000041EA0B0153465A46084313D0114653EAB7
:10071000010019D0C8F140025046FFF7AEFF054670
:100720000E46504659464246FFF798FF084305D00B
:10073000012004E020463946BDE8F08D0020054345
:1007400046EAE0762C4337430A986305E40AA0EBB7
:1007500008000022FD0A44EA47540A3002D500206E
:100760000146E9E7010510196941DDE9084500196D
:100770006941BDE8F04DA2E700BFFEE7704710B544
:100780004FF4807000F01AF810BD72B600BFFEE79B
:1007900070B5044600F00CF906462546681C10B1F9
:1007A00004480068054400BF00F002F9801BA8421D
:1007B000FAD370BD080000207047000010B5044651
:1007C00004480068204020B1024804602046FFF73A
:1007D000F3FF10BD1404014078B502460B4600211A
:1007E000CAE001268E401D6805EA0604002C73D07D
:1007F0001D7905F00305012D04D01D7905F00305D1
:10080000022D13D190684E000325B540A8434E0039
:10081000DD68B54028439060506801258D40A843AD
:100820001D79C5F300158D40284350601D7905F0F2
:100830000305032D09D0D0684E000325B540A84319
:100840004E009D68B5402843D0601D7905F0030532
:10085000022D13D1CE0802F1200555F826004D07D0
:10086000EE0E0F25B540A8434E07F60E1D69B540A4
:100870002843CE0802F1200545F8260010684E00F6
:100880000325B540A8431D7905F003054E00B5408A
:10089000284310605D6805F44035002D6BD000BF23
:1008A000384D2D6E45F00105364E356635462D6EB8
:1008B00005F00105009500BF00BF4FEAB6358E0870
:1008C00055F826008D072E0F0F25B540A843B2F12D
:1008D000904F02D100251AE04DE02B4DAA4201D1E4
:1008E000012514E0294DAA4201D102250FE0284D2F
:1008F000AA4201D103250AE0264DAA4201D10425CE
:1009000005E0254DAA4201D1052500E006258E0708
:10091000360FB5402843214D8E0845F82600204D5E
:100920002868A0435D6805F4801505B120431C4D7F
:1009300028602D1D2868A0435D6805F4001505B1E9
:100940002043174D2D1D2860154D2D1F2868A043ED
:100950005D6805F4003505B12043114D2D1F286059
:100960002D1F2868A0435D6805F4803505B120433C
:100970000B4D083D2860491C1D68CD40002D7FF4BB
:1009800030AF78BD00100240000400480008004865
:10099000000C004800100048001400480800014006
:1009A000080401400AB1816100E0816270470000E3
:1009B00001480068704700000000002003480068FC
:1009C0000349096808440149086070470000002095
:1009D0000800002010B50024032000F0ABF80F2021
:1009E00000F008F808B1012401E000F02FF82046DB
:1009F00010BD000070B50446002511480068D8B14C
:100A00000F4800684FF47A71B1FBF0F00D490968A6
:100A1000B1FBF0F6304600F0F8FE58B9102C07D2C2
:100A200000222146501E00F047F80748046004E009
:100A3000012502E0012500E00125284670BD0000E7
:100A4000080000200C0000200400002008B500BFB2
:100A50000E48006E40F001000C4908660846006E22
:100A600000F00100009000BF00BF00BF0846806D8D
:100A700040F0805088650846806D00F080500090FE
:100A800000BF00BF00F0F6F808BD000000100240F3
:100A90000146084600280DDB00BF00BF00F01F0321
:100AA00001229A4043099B0003F1E023C3F800218F
:100AB00000BF00BF00BF70472DE9F05F80460D46C4
:100AC000164601F015FB074639462A46334601F023
:100AD0000700C0F1070ABAF1040F02D94FF0040A67
:100AE00001E0C0F1070AD14600F1040ABAF1070F8C
:100AF00002D24FF0000A01E0A0F1030AD4464FF001
:100B0000010A0AFA09FAAAF1010A0AEA020A0AFA29
:100B10000CFA4FF0010B0BFA0CFBABF1010B0BEADB
:100B2000030B4AEA0B042146404601F0E9FABDE80E
:100B3000F09F000000BF00F00702064B19684FF657
:100B4000FF031940044B0B4343EA0221014B196098
:100B500000BF70470CED00E00000FA0502468ABBBA
:100B60004148006800F4C060B0F5806F2BD13E486A
:100B70008030006820F480703B4BC3F8800018463A
:100B8000006820F4C06040F40070186037480068C6
:100B900032235843364BB0FBF3F0411C00E0491EB2
:100BA0003148406900F48060B0F5806F01D10029C0
:100BB000F5D12D48406900F48060B0F5806F51D1C7
:100BC0000320704708E028488030006820F48070D7
:100BD000254BC3F8800045E0B2F5007F3AD12248AA
:100BE000006800F4C060B0F5806F2AD11E488030E4
:100BF000006840F480701C4BC3F880001846006801
:100C000020F4C06040F40070186018480068322377
:100C10005843174BB0FBF3F0411C00E0491E12484B
:100C2000406900F48060B0F5806F01D10029F5D1F2
:100C30000D48406900F48060B0F5806F12D1032048
:100C4000BFE709488030006840F48070064BC3F865
:100C5000800007E00448006820F4C06040F4806031
:100C6000014B18600020ACE7007000400C00002031
:100C700040420F000348806840F48040014988608A
:100C800070470000007000402DE9F04104460D4619
:100C90004FF0000814B90120BDE8F0817D480068DC
:100CA00000F00F00A8420ED27A48006820F00F0032
:100CB0002843784908600846006800F00F00A84201
:100CC00001D00120E8E7207800F00100002864D07E
:100CD0006068032823D17048006800F0007008B9EC
:100CE0000120D9E701F05EF806466C48864237D904
:100CF0006948806800F0F00030B1207800F0020010
:100D000002282DD1A06858BB6348806820F0F0000D
:100D100040F08000604988604FF0800820E0606803
:100D2000022806D15C48006800F4003040B9012078
:100D3000B2E75948006800F4806008B90120ABE7C9
:100D400000F0B4F806465548864209D952488068F2
:100D500020F0F00040F080004F4988604FF080089C
:100D60004D48806820F00300616808434A49886064
:100D7000FFF71EFE074608E0FFF71AFEC01B41F210
:100D80008831884201D9032086E74348806800F013
:100D90000C006168B0EB810FEED1207800F002000A
:100DA000022820D1207800F00400042805D13A4818
:100DB000806840F4E06038498860207800F00800DE
:100DC000082807D13448806820F4605040F4E0607F
:100DD000314988603048806820F0F000A1680843FD
:100DE0002D49886008E0B8F1800F05D12A48806855
:100DF00020F0F000284988602648006800F00F00C5
:100E0000A84219D92348006820F00F00284321493F
:100E10000860FFF7CDFD074608E0FFF7C9FDC01BDE
:100E200041F28831884201D9032035E7194800682A
:100E300000F00F00A842F0D1207800F00400042850
:100E400007D11548806820F4E060E1680843124942
:100E50008860207800F00800082808D10E488068D3
:100E600020F46050216940EAC1000B49886000F01D
:100E70001DF809498968C1F30311094A515C01F061
:100E80001F01C8400749086007480068FFF7B2FD26
:100E900002E70000002002400010024000B4C40439
:100EA000543000080C0000200400002070B5224DD2
:100EB000AD6805F00C05042D01D120483AE01E4D27
:100EC000AD6805F00C05082D01D11D4832E01A4D22
:100ED000AD6805F00C050C2D2BD1174DED6805F014
:100EE0000304154DED68C5F303156A1C022C0CD0E4
:100EF000032C09D1124DB5FBF2F50F4EF668C6F37F
:100F0000062605FB06F10AE000BF0C4DB5FBF2F525
:100F1000094EF668C6F3062605FB06F100BF00BFC2
:100F2000054DED68C5F341656D1C6B00B1FBF3F039
:100F300000E0002070BD0000001002400024F4001A
:100F400000127A002DE9F843044614B90120BDE8E7
:100F5000F883207800F00100002865D0FC48806804
:100F600000F00C07FA48C06800F003060C2F01D10E
:100F7000032E01D0082F0AD1F548006800F4003094
:100F8000002851D0606800284ED10120DFE700BF63
:100F90006068B0F5803F06D1ED48006840F48030CD
:100FA000EB4908601AE06068B0F5A02F0BD1E84863
:100FB000006840F48020E64908600846006840F474
:100FC000803008600AE0E248006820F48030E049A0
:100FD00008600846006820F48020086000BF606850
:100FE00088B1FFF7E5FC054606E0FFF7E1FC401B92
:100FF000642801D90320AAE7D548006800F400302E
:101000000028F2D010E0FFF7D3FC054606E0FFF71A
:10101000CFFC401B642801D9032098E7CC48006826
:1010200000F400300028F2D1207800F002000228FD
:1010300060D1C748806800F00C07C548C06800F060
:1010400003060C2F01D1022E01D0042F18D1C04865
:10105000006800F4806018B1E06808B9012076E704
:10106000BB48406820F0FE40217C40EA0160B8495E
:101070004860B8480068FFF7BDFC18B3012066E778
:10108000E06800B3B248006840F48070B04908607E
:10109000FFF78EFC054606E0FFF78AFC401B02289E
:1010A00001D9032053E7AA48006800F480600028B3
:1010B000F2D0A748406820F0FE40217C40EA016061
:1010C000A349486016E0A248006820F48070A04957
:1010D0000860FFF76DFC054606E0FFF769FC401B62
:1010E000022801D9032032E79948006800F48060A3
:1010F0000028F2D1207800F00800082836D1606975
:10110000D0B193489430006840F001009049C1F894
:101110009400FFF74DFC054606E0FFF749FC401B35
:10112000022801D9032012E789489430006800F0B2
:1011300002000028F1D019E085489430006820F0C2
:1011400001008349C1F89400FFF732FC054606E030
:10115000FFF72EFC401B022801D90320F7E67C484C
:101160009430006800F002000028F1D1207800F0EF
:101170000400042872D14FF000087548806D0121E9
:1011800021EA107078B100BF7148806D40F0805046
:101190006F4988650846806D00F08050009000BF60
:1011A00000BF4FF001086C48006800F48070B0B9CF
:1011B0006948006840F4807067490860FFF7F8FBF1
:1011C000054606E0FFF7F4FB401B022801D9032087
:1011D000BDE66148006800F480700028F2D000BFCE
:1011E000A068012808D15A489030006840F00100FA
:1011F0005749C1F8900021E0A06805280FD1544854
:101200009030006840F004005149C1F89000084651
:10121000D0F8900040F00100C1F890000EE04C487A
:101220009030006820F001004949C1F8900008465C
:10123000D0F8900020F00400C1F8900000BFA06832
:10124000A8B1FFF7B5FB054609E0FFF7B1FB401B6E
:1012500041F28831884202D9032078E625E03C48F3
:101260009030006800F002000028EED013E0FFF795
:101270009FFB054608E0FFF79BFB401B41F28831CE
:10128000884201D9032062E631489030006800F0BE
:1012900002000028EFD1B8F1010F05D12C48806D74
:1012A00020F080502A49886500BF207800F0200097
:1012B000202836D1A069D0B125489830006840F088
:1012C00001002349C1F89800FFF772FB054606E0CC
:1012D000FFF76EFB401B022801D9032037E61C48AC
:1012E0009830006800F002000028F1D019E018489A
:1012F0009830006820F001001549C1F89800FFF708
:1013000057FB054606E0FFF753FB401B022801D9B7
:1013100003201CE60E489830006800F00200002808
:10132000F1D1E069002860D00948806800F00C0025
:101330000C287FD0E069022858D10548006820F0C9
:10134000807003490860FFF733FB05460DE000009D
:10135000001002400400002000700040FFF728FB4E
:10136000401B022801D90320F1E54D48006800F038
:1013700000700028F2D1D4E90810401E41EA0011A3
:10138000A06A41EA0021208E0122C2EB500041EA0E
:1013900040513420005DC2EB500041EA40612C20F6
:1013A000005D41EAC0603E49C9683E4A11400843B9
:1013B0003B49C8600846006840F0807008600846F5
:1013C000C06840F08070C860FFF7F2FA054606E09A
:1013D000FFF7EEFA401B022801D90320B7E5304899
:1013E000006800F000700028F2D056E02C48006839
:1013F00020F080702A4908600846C06820F0030089
:10140000C8600846C068284908402549C860FFF7F9
:10141000CFFA054607E00DE0FFF7CAFA401B0228A5
:1014200001D9032093E51E48006800F000700028F1
:10143000F2D132E0E069012800D188E51848C66899
:1014400006F00301206A814225D106F0F001606AAE
:10145000401EB1EB001F1ED106F4FE41A06AB1EBA5
:10146000002F18D106F078412C20005DB1EBC06F41
:1014700011D106F4C001208E0122C2EB5000B1EB65
:10148000405F08D106F0C0613420005DC2EB50001F
:10149000B1EB406F01D0012059E5002057E5000075
:1014A000001002400C809F01FFFFEEFE70B5044665
:1014B0000CB9012070BD606A38B96068B0F5827FF0
:1014C00000D105E00021E16102E0002121616161BC
:1014D0000021A16294F85D0028B9002084F85C0026
:1014E000204600F061F8022084F85D002068006862
:1014F00020F0400021680860E068B0F5E06F01D995
:10150000002501E04FF48055E068B0F5706F05D01C
:10151000E068B0F5E06F01D00021A162A08800F47E
:101520008270218901F404410843217C01F0020109
:101530000843217D01F001010843218B01F4007172
:101540000843217F01F0380108432021095D01F0A3
:1015500080010843218D01F400510843216808608F
:101560000421A06901EA104094F8241001F0100150
:10157000084394F8341001F008010843A18901F4EC
:101580007061084305F48051084321684860206871
:10159000C06920F400602168C86100202066012035
:1015A00084F85D00002085E710B586B0044614215C
:1015B00001A8FEF736FE17492068884228D100BFEF
:1015C0001548806D40F48040134988650846806D59
:1015D00000F48040009000BF00BF00BF0846C06C10
:1015E00040F00200C8640846C06C00F002000090A1
:1015F00000BF00BF4FF42040019002200290002065
:10160000039004900520059001A90448FFF7E4F831
:1016100006B010BD00380040001002400004004831
:101620002DE9F84F0446884616461D464FF0000A3D
:1016300000BF94F85C00012802D10220BDE8F88FB9
:10164000012084F85C0000BFFFF7B2F90746B146FD
:1016500094F85D00012802D04FF0020ACBE0B8F107
:10166000000F00D016B94FF0010AC4E0032084F83F
:101670005D0000202066C4F83880A687E6872064D5
:10168000A4F84400A4F846002065E064A068B0F522
:10169000004F0BD12068006820F0400021680860EE
:1016A0002068006840F48040216808602068006875
:1016B00000F04000402805D02068006840F040005D
:1016C00021680860E068B0F5E06F2FD9606810B15C
:1016D000B9F1010F09D1A06B00882168C860A06B27
:1016E000801CA063E08F401EE0871BE020688068BC
:1016F00000F0020002280AD1A06B00882168C860AF
:10170000A06B801CA063E08F401EE0870AE0FFF71B
:101710004FF9C01BA84201D3681C00B915B94FF09E
:10172000030A68E0E08F0028E0D14AE0606810B169
:10173000B9F1010F17D1E08F01280AD9A06B0088F9
:101740002168C860A06B801CA063E08F801EE087CA
:1017500009E0A06B007821680873A06B401CA063AF
:10176000E08F401EE08729E02068806800F00200DA
:10177000022818D1E08F01280AD9A06B00882168BF
:10178000C860A06B801CA063E08F801EE08715E01E
:10179000A06B007821680873A06B401CA063E08FE9
:1017A000401EE0870AE0FFF703F9C01BA84201D3FF
:1017B000681C00B915B94FF0030A1CE0E08F00283F
:1017C000D2D13A462946204600F020FB08B120201D
:1017D0002066A06850B900BF002000902068C06853
:1017E000009020688068009000BF00BF206E08B1A4
:1017F0004FF0010A00BF012084F85D0000BF002007
:1018000084F85C0000BF504618E770B504462546D2
:10181000681EB0F1807F01D301200FE0681E4FF0F9
:10182000E02148610F214FF0FF3000F069FC0020FB
:101830004FF0E021886107200861002070BD00BFE3
:10184000FEE72DE9F04107460C4615461E462A20C4
:1018500000F0C8F9384600F0ADF9284600F0AAF9C2
:101860002B2000F0BFF904F1140188B200F0A2F9B6
:1018700006F1140188B200F09DF92C2000F0B2F9B5
:10188000BDE8F08170B504460D4616462B4622464B
:1018900029462046FFF7D5FF304600F08BF970BD92
:1018A0002DE9F04704460D4616461F46DDF820A0F8
:1018B0003B46324629462046FFF7C3FFA8460EE0C6
:1018C000A14606E0504600F075F909F101001FFA43
:1018D00080F9B145F6DD08F101001FFA80F8B8453E
:1018E000EEDDBDE8F08710B5012220214FF09040D9
:1018F000FFF758F80A20FEF74BFF002220214FF097
:101900009040FFF74FF80A20FEF742FF0122202106
:101910004FF09040FFF746F87820FEF739FF01229C
:1019200040214FF09040FFF73DF8362000F05AF983
:10193000002000F049F93A2000F054F9052000F0A9
:1019400043F9B22000F04EF90B2000F03DF90B20D6
:1019500000F03AF9002000F037F9332000F034F9B4
:10196000332000F031F9B72000F03CF9112000F0ED
:101970002BF9BB2000F036F92F2000F025F9C0200C
:1019800000F030F92C2000F01FF9C22000F02AF9F5
:10199000012000F019F9C32000F024F90D2000F017
:1019A00013F9C42000F01EF9202000F00DF9C62024
:1019B00000F018F9182000F007F9D02000F012F913
:1019C000A72000F001F9A12000F0FEF8D02000F0DF
:1019D00009F9A42000F0F8F8A12000F0F5F8D620CD
:1019E00000F000F9A12000F0EFF8E02000F0FAF894
:1019F000F02000F0E9F8062000F0E6F80B2000F0F7
:101A0000E3F80A2000F0E0F8092000F0DDF82620D5
:101A100000F0DAF8292000F0D7F8332000F0D4F8ED
:101A2000412000F0D1F8182000F0CEF8162000F088
:101A3000CBF8152000F0C8F8292000F0C5F82D20BB
:101A400000F0C2F8E12000F0CDF8F02000F0BCF882
:101A5000042000F0B9F8082000F0B6F8082000F0E3
:101A6000B3F8072000F0B0F8032000F0ADF828200C
:101A700000F0AAF8322000F0A7F8402000F0A4F807
:101A80003B2000F0A1F8192000F09EF8182000F08B
:101A90009BF82A2000F098F82E2000F095F8E4201A
:101AA00000F0A0F8252000F08FF8002000F08CF85E
:101AB000002000F089F8352000F094F8002000F0B4
:101AC00083F8442000F08EF8002000F07DF82020FC
:101AD00000F07AF8212000F085F8112000F082F85B
:101AE0007820FEF755FE292000F07CF810BD00009C
:101AF0002DE9F04705460E4617469946E02D02DCD3
:101B0000B6F5847F01DDBDE8F087A7F1200087B23C
:101B100006F10F0083B2E81D82B231462846FFF776
:101B200090FE00241DE004EB0710104911F800A0FE
:101B30004FF0000810E00AF0010038B1321991B2FC
:101B400005EB080290B24A46FFF79CFE4FEA6A0A8C
:101B500008F101001FFA80F8B8F1080FEBDB601CF8
:101B600084B2102CDFDB00BFCDE70000642A000840
:101B70002DE9F04105460E4614461F4615E0E02DBE
:101B800003DD002506F1100086B2B6F5847F02DD84
:101B900000200546064622783B4631462846FFF798
:101BA000A7FF05F1080085B2641C20780028E6D163
:101BB000BDE8F08110B50446201200F005F8E0B24F
:101BC00000F002F810BD000038B5044644F48070FF
:101BD00000900A23012269460148FFF721FD38BD24
:101BE0007002002038B5044600940A230122694699
:101BF0000148FFF715FD38BD700200200FB4F8B59D
:101C000005460E4614460AA800900848009A09990D
:101C100000F05CFA002000902346044A3146284632
:101C2000FFF7A6FFF8BC5DF814FB0000F0010020F0
:101C300000B587B0142102A8FEF7F3FA00BF3F48B1
:101C4000C06C40F020003D49C8640846C06C00F0FC
:101C50002000019000BF00BF00BF0846C06C40F0EC
:101C60000400C8640846C06C00F00400019000BF86
:101C700000BF00BF0846C06C40F00100C8640846C1
:101C8000C06C00F00100019000BF00BF00BF08461B
:101C9000C06C40F00200C8640846C06C00F002004E
:101CA000019000BF00BF002207212548FEF77AFE01
:101CB0000022E0214FF09040FEF774FE00224FF426
:101CC00080412048FEF76EFE07200290012003901D
:101CD00000200490059002A91948FEF77DFDE02040
:101CE00002900120039000200490059002A94FF07B
:101CF0009040FEF771FD4FF4804002900120039068
:101D000000200490059002A90E48FEF765FD4FF4EF
:101D1000807002904FF4881003900020049002A974
:101D20000748FEF759FD002211461720FEF7C4FEB2
:101D30001720FEF7ADFE07B000BD00000010024006
:101D4000000800480004004810B511481149086017
:101D50004FF4827048604FF400410E4881600911D1
:101D6000C16002210161012141614902816120219B
:101D7000C16100210162416281620721C1620021CB
:101D800001634163FFF792FB08B1FEF7FEFC10BD53
:101D9000003800407002002000BFFEE700BFFEE7F1
:101DA0007047000070B5164DED6805F00304144D42
:101DB000ED68C5F303156B1C022C0CD0032C09D164
:101DC000104DB5FBF3F50E4EF668C6F3062605FB7F
:101DD00006F10AE000BF0C4DB5FBF3F5084EF668BE
:101DE000C6F3062605FB06F100BF00BF044DED68F3
:101DF000C5F341656D1C6A00B1FBF2F070BD0000D7
:101E00000010024000127A000024F400F8B50446E5
:101E10000E461546334600224FF4C0512046009529
:101E200000F026F828B1206E40F020002066032044
:101E3000F8BD3346002280212046009500F094F83A
:101E400028B1206E40F0200020660320F0E73346E2
:101E500000224FF4C0612046009500F009F828B137
:101E6000206E40F0200020660320E1E70020DFE73D
:101E70002DE9FC5F04460D4616461F46DDF83090FE
:101E800000200090FEF794FDA0EB0900A7EB0008EE
:101E9000FEF78EFD8246206800F10C0B3148006889
:101EA000C0EBC00000EB8000000D00FB08F00190CB
:101EB00050E0B5F5C06F05D126B99BF80000009041
:101EC0009DF80000781C002844D0FEF771FDA0EBBF
:101ED0000A00404502D2B8F1000F34D120684068B2
:101EE00020F0E000216848606068B0F5827F0DD185
:101EF000A068B0F5004F03D0A068B0F5806F05D1A1
:101F00002068006820F0400021680860A06AB0F5F1
:101F1000005F0DD100BF2068006820F400502168E8
:101F200008602068006840F400502168086000BF25
:101F3000012084F85D0000BF002084F85C0000BF31
:101F40000320BDE8FC9F019808B94FF000080198F4
:101F5000401E0190206880682840B042A9D100202E
:101F6000EFE700000C0000202DE9F84F04460D4675
:101F700090461E46DDF82890FEF71AFDA0EB0900FA
:101F8000371AFEF715FD82462C480068C0F3CB30A7
:101F90007843009045E0701C002842D0FEF708FD11
:101FA000A0EB0A00B84200D2A7BB2068406820F02E
:101FB000E000216848606068B0F5827F0DD1A068BC
:101FC000B0F5004F03D0A068B0F5806F05D1206850
:101FD000006820F0400021680860A06AB0F5005F4A
:101FE0000DD100BF2068006820F40050216808600F
:101FF0002068006840F400502168086000BF01209C
:1020000084F85D0000BF002084F85C0000BF03205E
:10201000BDE8F88FFFE7009800B900270098401E40
:102020000090206880682840A84201D1012000E08B
:1020300000204045AFD10020EAE700000C0000205E
:10204000704710B5FEF7BAFC10BD00B593B038214B
:1020500005A8FEF7E6F814216846FEF7E2F800202E
:10206000FEF77CFD012005900004069002200C90F4
:1020700003210D9102210E9155210F910221109102
:102080001191129105A8FEF75DFF08B1FEF77DFBE7
:102090000F200090032001900020029003900490F4
:1020A00004216846FEF7F0FD08B1FEF76EFB13B0A1
:1020B00000BD00000348006840F47000014908605A
:1020C0007047000088ED00E000BFFEE737B514461A
:1020D0000846064B6A46214600F0F8F80446694671
:1020E000002000F076FC20463EBD0000D329000809
:1020F00002480068C0F30220704700000CED00E0C9
:1021000010B5002804DB0A07130E054A135406E035
:102110000A07140E034A00F00F031B1FD45410BD0E
:1021200000E400E018ED00E002E008C8121F08C15A
:10213000002AFAD170477047002001E001C1121F48
:10214000002AFBD1704700002DE9FF5F82B000211B
:10215000DDE90430020DDDF840B0034318D044F649
:102160001050A2F2FF3242431514119801281FD0DB
:10217000A5EB0B00401C5FEA000A4FF000064E4F33
:10218000DFF83891B046504615D5CAF1000413E087
:10219000119801244AA3012801D16FEA0B0102988A
:1021A000119AC0E90031C0E9024206B0BDE8F09FD3
:1021B000CBF10000DFE704460021404A491842EB1A
:1021C0000450CDE9001012E0E00707D032463B464C
:1021D00040464946FEF71EF98046894632463B4650
:1021E00010461946FEF716F906460F466410002CF5
:1021F000EAD1DDE90401DDE90023BAF1000F06DAD6
:10220000FEF708F942464B46FEF704F905E0FEF7F3
:1022100073F942464B46FEF76FF904460E4600221C
:10222000284BFEF7F1F903D84FF0FF30014607E0E5
:102230000022254B20463146FEF745F8FEF7CBF944
:10224000102409E0002C0ADB0A220023FEF70AF81A
:10225000039B30321A55641E50EA0102F2D1641C0D
:10226000039AC4F111031444119A012A03D00122E4
:1022700008430DD10AE0084304D000204FF0110BB1
:10228000119072E7A3EB0B056D1E0DE05B4504DDBD
:102290004FF0000205F1010504E003DA4FF00002FF
:1022A000A5F10105002AECD002981199C0E902318C
:1022B000C0E9004579E70000000014400000F03F4D
:1022C000300000000000F0430000E03F2DE9FF4F28
:1022D00095B09A46884606460025EEE1252877D136
:1022E00000242746F94A0121039400E0044316F82C
:1022F000013F203B01FA03F01042F7D130782A2841
:1023000011D06FF02F033078A0F13002092A16D8CF
:10231000039A44F0020402EB820203EB42021044EF
:10232000761C0390EFE758F8042B0392002A03DA97
:10233000504244F40054039044F00204761C307878
:102340002E2816D116F8010F44F004042A280DD0C7
:102350006FF02F023078A0F13003092B09D807EB7A
:10236000870302EB4303C718761CF3E758F8047B96
:10237000761C30786C280FD006DC4C2817D06828E3
:102380000DD06A2814D104E0742810D07A280FD117
:102390000DE044F400140AE044F4801401E044F435
:1023A00040147278824202D104F58014761C761CA7
:1023B000307866280BD013DC582877D009DC002849
:1023C00075D04528F6D04628F4D047281AD193E195
:1023D00018E0632835D0642879D0652812D18BE1C4
:1023E000702873D008DC6728F1D069286FD06E2878
:1023F0000DD06F2806D1ACE073282CD0752874D08E
:10240000782853D05246179990476D1C54E1C4F375
:102410000250022809D003280DD0D8F80010042853
:102420000DD00D6008F1040846E1D8F80010EA1755
:10243000C1E90052F6E7D8F800100D80F2E70D7000
:10244000F0E718F8041B8DF8001000208DF801004B
:10245000EB46012003E058F804BB4FF0FF30610762
:102460004FF0000102D40DE009F101018946B942A3
:102470000FDA8145F8DB1BF809100029F4D108E0D8
:1024800009F1010189468142FADB1BF80910002994
:10249000F6D103985346A0EB090721463846179A10
:1024A00000F080FA284400EB090507E044E008E169
:1024B0000DE01BF8010B524617999047B9F101093D
:1024C000F7D2534621463846179AF2E039E00A21FE
:1024D000C4F302524FF0000B0091022A06D058F8C4
:1024E000040BC117032A09D00AE023E008F1070012
:1024F00020F00702F2E80201904605E000B2C117A1
:10250000042A01D140B2C117002906DA0A46002187
:10251000404261EB02012D2202E0220504D52B226C
:102520008DF80420012203E0E20701D02022F7E722
:10253000914657E00A2100E010214FF0000B009176
:102540000BE010214FF0000B44F004040827009129
:1025500003E008204FF0000B0090C4F30252022A5F
:1025600005D058F8040B0021032A08D008E008F130
:10257000070020F00702F2E80201904603E080B273
:10258000042A00D1C0B24FF0000922072AD53278C0
:10259000702A07D0DDF800C08CF0100C5CEA0B0C40
:1025A00005D00EE040228DF80420012208E050EA18
:1025B000010306D030238DF804308DF80520022267
:1025C0009146009B83F0080353EA0B030AD150EABB
:1025D000010201D1620705D530228DF804204FF0A9
:1025E00001097F1E3278582A04D039A20C920CAA15
:1025F00002920BE03BA2F9E75B46009AFDF732FE40
:102600000C9B9B5C029A521E0292137050EA0102CC
:10261000F2D1029804A9081A00F1200B600702D534
:1026200024F4803400E001275F4502DDA7EB0B00B6
:1026300000E0002000EB0B01009003984944401A91
:102640000390E00306D453462146179A039800F0FE
:10265000A9F90544002706E001A85246C05D179974
:1026600090476D1C7F1C4F45F6DBE0030CD55346AD
:102670002146179A039800F095F9054404E03020AC
:102680005246179990476D1C0099481E00900029EA
:10269000F5DC08E00298029952460078491C029144
:1026A000179990476D1CBBF10001ABF1010BF1DCF8
:1026B0005BE100F065F90544761C307800287FF472
:1026C0000DAE19B02846BDE8F08F000009280100C2
:1026D0003031323334353637383961626364656698
:1026E000000000003031323334353637383941425A
:1026F0004344454600000000600700D4062708F167
:10270000070020F00700F0E80223804603F0004CA9
:102710005FEA0C0001D097A009E0200501D596A042
:1027200005E0E00701D095A001E0AFF24C00139066
:10273000307823F0004365280CD006DC452809D00A
:1027400046281DD047287FD13BE0662818D067284F
:102750007AD136E00021112F01DB112000E0781C36
:10276000CDE9000104A90CA8FFF7EEFCDDE90D019D
:102770000C9A4FF0000B07F10109109200914EE006
:102780004FF000400097CDE9011004A90CA8FFF715
:10279000DBFCDDE90D020C9B0F994FF0000B91461D
:1027A0001093009211B9791C00EB0109B7EB0900F5
:1027B00003D4C0F1FF3B07F10109A9EB0700019029
:1027C00042E0012F00DA01270021112F01DD112045
:1027D00000E03846CDE9000104A90CA8FFF7B4FCDD
:1027E000DDE90D010C9A00914FF0000BB9461092F3
:1027F00021070FD4009A4A4503DA914601E0A9F176
:102800000109B9F1010F05DD109AA9F10101515C2F
:102810003029F4D0B84202DA10F1040F03DA0121B2
:10282000CDE9011010E0002803DC8344A9EB00018E
:1028300002E0411C494500DD8946A0EB0B00401C2D
:1028400001904FF000400290200705D401984845C0
:1028500002DB4FF0FF30019000208DF84B00029812
:102860000DF14B07B0F1004F25D002200C902B202A
:102870000D90029800280CDA404202902D200D9015
:1028800007E00A210298FDF7D7FC3031029007F8E3
:10289000011D0C99481E0C900029F2DC02980028BA
:1028A000EFD1791E0D980870307800F0200040F0CC
:1028B000450007F8020D11A8C01BC01D0290139817
:1028C000007800B1012000EB0901019801EBE071F3
:1028D000029801440398401A401E0390E00306D476
:1028E00053462146179A039800F05CF80544139864
:1028F000007818B15246179990476D1CE00323D514
:1029000053462146179A039800F04CF805441BE003
:10291000BBF1000F07DB0098584504DD10981799AC
:1029200010F80B0001E017993020524690470198AB
:102930000BF1010B401E05F10105019004D12E2081
:102940005246179990476D1CB9F10001A9F1010990
:10295000DEDC05E017F8010B5246179990476D1C15
:102960000299481E02900029F4DC53462146179A2A
:1029700003989EE62D0000002B00000020000000C0
:102980002DE9F041044600251E461746880404D46C
:1029900005E039462020B0476D1C641EF9D5284655
:1029A000BDE8F0812DE9F041044600251E46904621
:1029B000C80301D5302700E02027880404D505E0AE
:1029C00041463846B0476D1C641EF9D52846BDE81F
:1029D000F0810A68531C0B601070704708B5FDF752
:1029E000F9FFFFF732FBFFF723F9FFF7ADF9FEF729
:1029F0007AFF4FF61F004FF48C73F02200210090F5
:102A00000846FEF74DFF10A34FF4784232215A20BA
:102A1000FFF7F4F80CA31F2250215A20FFF7EEF81D
:102A200009A34FF4FC626E215A20FFF7E7F808A3D0
:102A300047F67C52C8213220FFF7E0F84FF47A7055
:102A4000FDF7A6FE00BFFEE7582050756C736500C9
:102A5000323032342D30312D30312030303A303078
:102A60003A303100000000000000000000000000CB
:102A7000000000000000000808080808080800001E
:102A80001818000000486C2412000000000000002C
:102A9000000000000000002424247F1212127F1284
:102AA000121200000000081C2A2A0A0C1828282AE2
:102AB0002A1C080800000022251515152A58545410
:102AC000542200000000000C1212120A762529116F
:102AD000916E0000000606040300000000000000E4
:102AE0000000000000402010100808080808081026
:102AF00010204000000204080810101010101008E8
:102B0000080402000000000008086B1C1C6B080889
:102B10000000000000000000080808087F080808FE
:102B2000080000000000000000000000000000009D
:102B3000060604030000000000000000FE00000084
:102B40000000000000000000000000000000000085
:102B500006060000000080404020201010080804F5
:102B60000402020000000018244242424242424253
:102B700024180000000000080E08080808080808CB
:102B8000083E00000000003C4242422020100804A1
:102B9000427E00000000003C42422018204040429B
:102BA000221C0000000000203028242422227E2045
:102BB000207800000000007E0202021A26404042F7
:102BC000221C0000000000382402021A2642424261
:102BD000241800000000007E2222101008080808B7
:102BE000080800000000003C4242422418244242EF
:102BF000423C000000000018244242426458404019
:102C0000241C000000000000000018180000000054
:102C1000181800000000000000000008000000007C
:102C200000080804000000402010080402040810F6
:102C3000204000000000000000007F0000007F0036
:102C400000000000000000020408102040201008CE
:102C5000040200000000003C4242464020101000E8
:102C6000181800000000001C225A555555552D42D9
:102C7000221C00000000000808181414243C224202
:102C800042E700000000001F2222221E2242424290
:102C9000221F00000000007C4242010101010142AC
:102CA000221C00000000001F2242424242424242D7
:102CB000221F00000000003F4212121E12120242A8
:102CC000423F00000000003F4212121E1212020298
:102CD000020700000000003C2222010101712122B4
:102CE000221C0000000000E7424242427E42424273
:102CF00042E700000000003E08080808080808082D
:102D0000083E00000000007C101010101010101081
:102D10001010110F0000007722120A0E0A12122260
:102D200022770000000000070202020202020202F3
:102D3000427F000000000077363636362A2A2A2ADB
:102D40002A6B0000000000E346464A4A5252526293
:102D5000624700000000001C2241414141414141C5
:102D6000221C00000000003F424242423E0202029A
:102D7000020700000000001C2241414141414D5327
:102D8000321C60000000003F4242423E12122222EA
:102D900042C700000000007C42420204182040426A
:102DA000423E00000000007F4908080808080808A3
:102DB000081C0000000000E74242424242424242F8
:102DC000423C0000000000E7424222242414141870
:102DD000080800000000006B494949495555362252
:102DE00022220000000000E742242418181824249E
:102DF00042E70000000000772222141408080808A7
:102E0000081C00000000007E21201010080404426D
:102E1000423F000000780808080808080808080869
:102E200008087800000002020404080808101020B6
:102E300020204040001E1010101010101010101014
:102E400010101E00003844000000000000000000C8
:102E50000000000000000000000000000000000072
:102E6000000000FF00060800000000000000000055
:102E700000000000000000000000003C42784442D6
:102E800042FC0000000000030202021A26424242F5
:102E9000261A000000000000000000384402020270
:102EA0004438000000000060404040784442424204
:102EB00064D80000000000000000003C427E0202D6
:102EC000423C0000000000F08808087E080808085E
:102ED000083E0000000000000000007C22221C02CE
:102EE0003C42423C000000030202023A4642424297
:102EF00042E700000000000C0C00000E0808080863
:102F0000083E000000000030300000382020202063
:102F10002020221E0000000302020272120A161272
:102F2000227700000000000E0808080808080808BA
:102F3000083E0000000000000000007F9292929284
:102F400092B70000000000000000003B46424242F1
:102F500042E70000000000000000003C4242424204
:102F6000423C0000000000000000001B26424242DC
:102F7000221E020700000000000000784442424286
:102F8000447840E000000000000000774C04040496
:102F9000041F0000000000000000007C42023C40D2
:102FA000423E0000000000000008083E0808080833
:102FB000083000000000000000000063424242426E
:102FC00062DC000000000000000000E7422424143E
:102FD0000808000000000000000000EB49495555BA
:102FE00022220000000000000000007624181818BB
:102FF000246E000000000000000000E742242414BA
:1030000018080807000000000000007E22100808D1
:10301000447E000000C020202020201020202020FE
:103020002020C000101010101010101010101010E0
:1030300010101010000608080808081008080808F2
:10304000080806000C32C20000000000000000006A
:103050000000000000000000000000000102030466
:103060000607080900000000010203048C30000874
:103070000000002010000000282100089C300008FB
:1030800010000020C80600003821000800000000E1
:0C30900010000000010000000024F4000B
:04000005080001D915
:00000001FF
