:020000040800F2
:1000000078070020ED010008D125000861170008DD
:10001000CD2500085D070008452800080000000005
:100020000000000000000000000000002928000877
:100030006107000800000000D52500082D280008F1
:10004000070200080702000807020008070200086C
:10005000070200080702000807020008070200085C
:10006000070200080702000807020008070200084C
:10007000070200080702000807020008070200083C
:10008000070200080702000807020008070200082C
:10009000070200080702000807020008070200081C
:1000A000070200080702000807020008070200080C
:1000B00007020008070200080702000807020008FC
:1000C00007020008070200080702000807020008EC
:1000D00007020008070200080702000807020008DC
:1000E00007020008070200080702000807020008CC
:1000F00007020008070200080702000807020008BC
:1001000007020008070200080702000807020008AB
:10011000070200080702000807020008070200089B
:10012000070200080702000807020008070200088B
:10013000070200080702000807020008070200087B
:10014000070200080702000807020008070200086B
:10015000070200080702000807020008070200085B
:10016000070200080702000807020008070200084B
:10017000070200080702000807020008070200083B
:10018000070200080702000807020008070200082B
:10019000070200080000000007020008070200082C
:1001A000070200080702000807020008070200080B
:1001B00007020008070200080702000807020008FB
:1001C00007020008070200080702000807020008EB
:1001D0000702000807020008DFF80CD000F018FA48
:1001E0000048004749280008780700200648804753
:1001F00006480047FEE7FEE7FEE7FEE7FEE7FEE70C
:10020000FEE7FEE7FEE7FEE731280008D901000817
:1002100030B50B46014600202022012409E021FAD6
:1002200002F59D4205D303FA02F5491B04FA02F5D3
:100230002844151EA2F10102F1DC30BD2DE9F05F6A
:100240000546002092469B46884606468146402445
:100250001BE0284641464746224600F000FA534636
:100260005A46C01A914110D311461846224600F052
:10027000E7F92D1A67EB01084F46224601200021BD
:1002800000F0DEF917EB00094E41201EA4F1010435
:10029000DFDC484631462A464346BDE8F09F2DE95B
:1002A000FE4F804681EA0300C00F0C46009021F00B
:1002B000004123F00045B8EB0200A94105D24046B9
:1002C000214690461C460B46024623F00040104350
:1002D00047D0270DC7F30A00C3F30A510290401A12
:1002E000019040286BDAC3F3130040F4801B0098A0
:1002F000924620B10023D2EB030A63EB0B0B01986B
:100300005946C0F14002504600F09AF906460D46A3
:1003100050465946019A00F0B2F910EB08006141CD
:10032000002487EA115284EAE7731A4340D0009A06
:1003300062B3019A012A4FEA075215DC001B61EBF8
:1003400002014FF0004202EA0752CDE90042001CD0
:1003500041F5801132462B4600F0B2F903B0BDE8FA
:10036000F08F40462146F9E7001B61EB0201001CBB
:1003700041F5801300185B412018A2F5001747EBE8
:10038000030140EAD570B6196D4111E06D084FEADE
:10039000360645EAC0754FEA0752001B61EB0201C1
:1003A000001C41F5801149084FEA30000019514105
:1003B00032462B4603B0BDE8F04F00F072B900980A
:1003C000012240000023D0EB020263EBE0730098AF
:1003D00021464FEAE074B8EB000061EB0401E9E765
:1003E00083F000435BE781F0004158E72DE9FE4FC1
:1003F00081EA030404F0004421F0004100944FF02E
:10040000000B23F0004350EA01045ED052EA0304DB
:100410005BD0C3F30A54C1F30A552C44A4F2F3345D
:100420000194A0FB0254C1F3130141F48011C3F302
:10043000130343F4801301FB024400FB034E840AC0
:10044000970A44EA815447EA8357A4FB0768029558
:100450008D0A05FB07854FEA932C04FB0C542705F6
:10046000029D4FEA065847EA1637B5EB08056EEBD2
:10047000070C870E920E47EA811742EA8312A7FB08
:100480000201B6EB0B0164EB00042B0D43EA0C33C5
:100490005E1844EB1C50DA465146E7FB0201C5F3F7
:1004A00013044FEA0B3343EA14534FEA0432019C1E
:1004B00043EA0603A4F10C040294009CCDE900B4C5
:1004C00000F0FEF803B0BDE8F08F00200146F9E728
:1004D0002DE9F04D81EA030404F0004B21F00045C2
:1004E00014464FF0000A23F0004150EA050220D0E4
:1004F00054EA01021DD0C5F30A570246C5F313039F
:10050000C1F31300C1F30A5640F4801543F480137D
:10051000A7EB0608101BD64608F2FD3873EB050062
:1005200002D308F1010801E092185B41B8F1000F15
:1005300003DA00200146BDE8F08D00204FF4801161
:10054000064684460EE0171B73EB050705D3121B06
:1005500063EB050306434CEA010C49084FEA3000FF
:1005600092185B4150EA0107EDD152EA030012D024
:1005700082EA040083EA0501084305D0101BAB4161
:1005800006D20122002306E000224FF0004302E0E1
:100590006FF0010253101AEB06004CEB085110EB00
:1005A0000A0041EB0B01BDE8F04D00F07AB8C1F351
:1005B0000A52C1F3130140F2FF3341F480119A4211
:1005C00002DA00200146704740F233439A42A2F219
:1005D000334202DC524200F042B800F031B8000071
:1005E00030B5041E71F1000404DB4FF000444042BA
:1005F00064EB0101141E73F1000405DB1C464FF08F
:100600000043524263EB0403994208BF904230BD5D
:100610001CB509480090094801900546009C06E079
:10062000E06840F0010394E8070098471034AC42BA
:10063000F6D3FFF7D5FD00004CE601086CE6010893
:10064000202A04DB203A00FA02F100207047914092
:10065000C2F1200320FA03F3194390407047202A87
:1006600004DB203A21FA02F00021704721FA02F35C
:10067000D040C2F120029140084319467047202A19
:1006800006DBCB17203A41FA02F043EAE07306E0BA
:1006900041FA02F3D040C2F12002914008431946CA
:1006A000704710B5141E73F1000408DA401C41F1C4
:1006B000000192185B411A4301D120F0010010BDE6
:1006C0002DE9F04D92469B4611B1B1FA81F202E05C
:1006D000B0FA80F220329046FFF7B2FF04460F4690
:1006E00040EA0A0041EA0B0153465A46084313D038
:1006F000114653EA010019D0C8F140025046FFF7F5
:10070000AEFF05460E46504659464246FFF798FF53
:10071000084305D0012004E020463946BDE8F08DAD
:100720000020054346EAE0762C4337430A986305E8
:10073000E40AA0EB08000022FD0A44EA47540A300C
:1007400002D500200146E9E7010510196941DDE9FC
:10075000084500196941BDE8F04DA2E7FEE7000039
:1007600070470000EFF3108072B600BFFEE7000094
:10077000B0B5044600F0F0F8054640F20000C2F2C1
:1007800000004068611C18BF044400BF00F0E4F89A
:10079000401BA042FAD3B0BD2DE9F04F83B00E68E4
:1007A000002E00F0CF8000F1200241F2004C0092B8
:1007B00000F13847C4F6000C06224FEAB725604521
:1007C00008BF0522052D38BF4FEAB72200250027B4
:1007D0004FF0000801920AE00E6808F1010836FAAD
:1007E00008F207F1020705F1040500F0AB800122D1
:1007F00002FA08FE16EA0E09EED0D1F804C0032270
:100800000CF0030BABF1010602FA07F4012E6FEABC
:10081000040A11D88468CE6804EA0A04BE4034434E
:100820008460446824EA0E06CCF3001404FA08F449
:100830002643466006E000BFBBF1030F02D14FF034
:10084000030B21E0C6688C6806EA0A06BC40264312
:10085000BBF1020FC66017D16FF00302009B02EAE2
:10086000580605F01C020F2453F806C004FA02FED5
:100870000C692CEA0E0C04FA02F242EA0C029A51BC
:10088000D1F804C00CF0030B02680BFA07F302EA7C
:100890000A021A431CF4403F02609DD041F26003FB
:1008A000C4F202031A6840F2004E42F001021A60DC
:1008B0001A68C4F2010E02F001020292029A28F0B4
:1008C00003024FF6084C7244CFF6FF7C52F80C300E
:1008D00005F00C060F24B440A343019C04FA06F66D
:1008E000334342F80C30DEF808204B6842EA090630
:1008F00040F20C4CDC0258BF22EA0906CEF8086030
:10090000C4F2010CDCF800209C0242EA090658BF40
:1009100022EA0906CCF80060DEF804209C0342EAD3
:10092000090658BF22EA0906CEF80460DEF8002066
:10093000DB0342EA090658BF22EA0906CEF8006046
:100940004AE700BF03B0BDE8F08F00001823002A7B
:1009500008BF2823C150704740F27430C2F2000033
:100960000068704740F2000040F27431C2F20000AB
:10097000C2F2000140680A68104408607047000035
:1009800080B5032000F07AF80F2000F009F8002865
:100990001CBF012080BD00F02BF8002080BD0000AE
:1009A000B0B540F20005C2F200056968F1B1044635
:1009B00040F20800C2F200004FF47A720068B2FB05
:1009C000F1F1B0FBF1F000F0B5FE01460F2C4FF055
:1009D00001000AD8002918BFB0BD4FF0FF302146F2
:1009E000002200F01FF800202C60B0BD0120B0BD37
:1009F00082B041F25800C4F20200816841F0010166
:100A00008160816801F0010101910199016841F063
:100A100080510160006800F080500090009802B0A2
:100A200000F0C4B810B54EF60C5CCEF2000CDCF849
:100A30000030C3F3022E8EF00704042C28BF0424D8
:100A4000BEF103034FF0FF3E0EFA04F438BF00235B
:100A5000A14399400EFA03F39A43114300F00F02A9
:100A600000F160430901043A03F56443624400283D
:100A700048BF02F10C03197010BD00004EF60C5176
:100A8000CEF200010A684FF6FF031A4060F30A2213
:100A900042F0806040F0FD700860704747F214013A
:100AA000C4F2000151F8142CB0F5007F3CD00028AE
:100AB00074D1C86E02F4C06220F48070B2F5806F09
:100AC000C8662FD151F8140C012262F34A2041F874
:100AD000140C40F20800C2F20000006832225043B9
:100AE0004DF68362C4F21B32A0FB0202900C00BFE1
:100AF0000A68520511D5421C0FD00A6852050CD560
:100B000058B10A68520508D5012806D00A6852056E
:100B100003D50228A0F10400EAD10868400544BFCB
:100B20000320704700207047C86E02F4C06240F492
:100B30008070B2F5806FC866F4D151F8140C0122B0
:100B400062F34A2041F8140C40F20800C2F200009F
:100B50000068322250434DF68362C4F21B32A0FB80
:100B60000202900C0A68520511D5421C0FD00A6887
:100B700052050CD558B10A68520508D5012806D08F
:100B80000A68520503D50228A0F10400EAD10868DA
:100B9000400544BF03207047C4E700BF022060F354
:100BA0004A2241F8142C00207047000047F2080048
:100BB000C4F20000016841F4804101607047000008
:100BC0002DE9F047002863D042F2000AC4F2020A7D
:100BD0000446DAF800000D4600F00F0088420CD2FF
:100BE000DAF8000020F00F002843CAF80000DAF815
:100BF000000000F00F00A8424AD1216841F2080825
:100C0000C807C4F2020803D1880740F1D080B5E0DC
:100C1000606858F8082C022838D003283CD192018B
:100C200036D5D8F80420D8F8043042F20046C3F391
:100C3000031302F00302D8F804700133C0F2F40683
:100C4000032A04BF41F20026C0F27A06B6FBF3F293
:100C5000D8F80430C7F306277A43C3F34163022769
:100C600007EB4303B2FBF3F24BF20043C0F2C44381
:100C70009A4259D9D8F8002012F0F00F49D08907CC
:100C800052D5A16800294FD143E000BF910305D49C
:100C90000120BDE8F08700BF5105F9D5D8F8001054
:100CA00001F00C0104293FD0D8F8001001F00C012C
:100CB000082939D0D8F8001001F00C010C2933D1E3
:100CC000D8F80410D8F8042042F20047C2F3031207
:100CD00001F00301D8F804300132C0F2F40703290F
:100CE00004BF41F20027C0F27A07B7FBF2F1D8F84F
:100CF0000420C3F306235943C2F34162022303EBEA
:100D00004202B1FBF2F14BF20042C0F2C442914206
:100D10000AD9D8F80010082262F307114FF0010930
:100D2000C8F8001002E000BF4FF00009D8F800102A
:100D300021F003010843C8F80000FFF70DFE064646
:100D400041F28837D8F80000616800F00C00B0EB81
:100D5000810F07D0FFF700FE801BB842F2D90320B5
:100D6000BDE8F0872168880708D4B9F1000F1ED0CC
:100D7000D8F8000020F0F00017E000BF480705D5C4
:100D8000D8F8000040F4E060C8F80000080706D575
:100D9000D8F80000072262F30D20C8F80000D8F848
:100DA0000000A26820F0F0001043C8F80000DAF854
:100DB000000000F00F00A8421BD9DAF8000020F074
:100DC0000F002843CAF80000FFF7C6FD064641F2AF
:100DD000883700BFDAF8000000F00F00A84207D003
:100DE000FFF7BAFD801BB842F4D90320BDE8F087B5
:100DF0002168480707D5D8F80000E26820F4E060D1
:100E00001043C8F80000080708D5D8F80000216989
:100E100020F4605040EAC100C8F80000D8F8000093
:100E200042F20041C0F2F40100F00C000428084630
:100E30002DD0D8F8000000F00C00082841F2002066
:100E4000C0F27A0023D0D8F8002002F00C020C2A5D
:100E50001CD1D8F80420D8F8043002F00302C3F300
:100E60000313D8F804700133032A08BF0146B1FB0D
:100E7000F3F0D8F80410C7F30627C1F3416102224A
:100E8000784302EB4101B0FBF1F000E00020D8F81C
:100E9000001043F24022C1F30311C0F60002515C7E
:100EA00040F2080201F01F0120FA01F140F20000B7
:100EB000C2F200000068C2F200021160BDE8F04713
:100EC000FFF76EBD002804BF012070472DE9F041F7
:100ED00082B00446007841F20006C007C4F2020660
:100EE0001ED1207880073DD42078000764D4207874
:100EF000400700F187802078800600F1D980E06902
:100F0000002800F0C181B16801F00C010C2940F00B
:100F10002F81012840F08081012002B0BDE8F081DE
:100F2000B06800F00C01F068082961D0032281F05C
:100F30000C0122EA00000844B0FA80F0400957D1C1
:100F400061683068B1F5803F07D0B1F5A02F40F05F
:100F5000E18040F480203060306840F480303060C0
:100F6000E2E000BFB068F16800F00C00042871D026
:100F700001F0030180F00C0081F002010844B0FA96
:100F800080F0400966D1E1683068002900F0DE8019
:100F900040F480703060FFF7DFFC054630684005A4
:100FA00000F1FC80FFF7D8FC401B0228F6D9032093
:100FB00002B0BDE8F08100BF6169D6F89400002955
:100FC00000F0928040F00100C6F89400FFF7C4FCE6
:100FD000054600BFD6F8940080073FF588AFFFF7BD
:100FE000BBFC401B0228F5D9032002B0BDE8F0810C
:100FF000306880037FF575AF606800287FF471AFBB
:101000003EE000BFB06D5FEAC00808D4B06D40F0AC
:101010008050B065B06D00F080500190019847F2AB
:101020000007C4F200073868C0052DD4386840F4C2
:1010300080703860FFF790FC054600BF3868C00537
:1010400022D4FFF789FC401B0228F7D9032002B005
:10105000BDE8F0813068400501D5E06880B1706876
:10106000216920F0FE4040EA0160706040F200001B
:10107000C2F200000068FFF793FC00283FF434AF91
:10108000012002B0BDE8F081A168D6F890000129E6
:1010900008D0052940F0A08040F00400C6F8900078
:1010A000D6F8900040F00100C6F89000A0E000BF24
:1010B000A169D6F89800002978D040F00100C6F860
:1010C0009800FFF749FC0546D6F8980080073FF5E1
:1010D00016AFFFF741FC401B02284FF00300F3D985
:1010E00002B0BDE8F08100BF20F00100C6F8940016
:1010F000FFF732FC054600BFD6F8940080077FF565
:10110000F6AEFFF729FC401B0228F5D9032002B0F8
:10111000BDE8F08120F4803030603068002920F490
:101120008020306000F0CE80FFF716FC054600BF3F
:10113000306880033FF5D5AEFFF70EFC401B6428F6
:10114000F6D9032002B0BDE8F08100BF20F4807022
:101150003060FFF701FC0546306840057FF5C4AEFE
:10116000FFF7FAFB401B02284FF00300F4D9B7E762
:101170003168022821F08071316040F08980FFF7EA
:10118000EBFB05463068800140F1C880FFF7E4FBC7
:10119000401B02284FF00300F4D9A1E770682169D1
:1011A00020F0FE4040EA016070609DE620F0010002
:1011B000C6F89800FFF7D0FB054600BFD6F89800A8
:1011C00080077FF59CAEFFF7C7FB401B02284FF05E
:1011D0000300F3D984E700BF20F00100C6F89000B7
:1011E000D6F89000002920F00400C6F8900079D0CD
:1011F000FFF7B2FB054641F2883700BFD6F89000F2
:10120000800700F18180FFF7A7FB401BB842F5D9AA
:10121000032002B0BDE8F081F068216A00F003020B
:101220008A427FF42DAF626A6FF00F0300F0F00185
:1012300003EB021291427FF423AFA16A00F4FE4255
:10124000B2EB012F7FF41CAFE16A00F07842B2EB01
:10125000C16F7FF415AF226B0023CFF6E07303EA72
:10126000025200F4C001A2F5001291427FF408AFCF
:10127000616B4FF07E4202EA016100F0C06001F153
:101280007E4188427FF4FCAE002002B0BDE8F081D0
:10129000F0684FF6FF7120F00300F060F068CFF6C1
:1012A000EE610840F060FFF757FB044630688001AC
:1012B000EAD5FFF751FB001B02284FF00300F5D9D8
:1012C0000EE700BFFFF748FB054600BF306880030C
:1012D0007FF507AEFFF740FB401B64284FF003008B
:1012E000F4D9FDE6FFF738FB054641F2883700BF29
:1012F000D6F89000800707D5FFF72EFB401BB842B9
:101300004FF00300F4D9EBE6B8F1000F3FF5F3AD71
:10131000B06D20F08050B065EDE500BFF06848F298
:101320000C01C0F29F1104F1200700EA010C8ECFDE
:101330006FF00F00D4E90C5400EB02100022CFF63E
:10134000E07241EA0C0102EA05520843A2F50012DC
:101350004FF07E4540EA032005EA0465104305F19D
:101360007E4540EAC7602843F060306840F08070F6
:101370003060F06840F08070F060FFF7EDFA0446EE
:10138000306880013FF580AFFFF7E6FA001B0228C6
:101390004FF00300F4D9A3E6002804BF01207047F2
:1013A000416A19B100210161142104E04168B1F5DD
:1013B000827F02D01C2100224250B0B500258562F8
:1013C00090F85D1029B980F85C50044600F056F89A
:1013D0002046022180F85D100168D0F80CE00B680F
:1013E000BEF5E06F23F040030B6098BF01254EF47B
:1013F0000063B3F5706F4FEA053C1CBF00258562A2
:10140000D0E90154D0E9043205F4827504F40444AF
:101410002C4403F002032344846902F00102C569ED
:101420001A4404F400731A4405F03803056A1A4498
:1014300005F08003856A1A4405F400531A430A60D4
:101440000422436A0EF4706502EA1442446B45EAD2
:101450000C0503F010032A4304F008041A43224346
:101460004A60CA6922F40062CA6100210122016651
:1014700080F85D20BDE8B0400846704780B586B072
:10148000006843F60002C4F2000200219042CDE958
:101490000411CDE90211019102D006B080BD00BF58
:1014A00041F24C00C4F20200C26842F48042C260C1
:1014B000C26802F480420092009A026842F002027E
:1014C0000260006800F00200009000984FF4204095
:1014D00001900220CDE902010520059040F2004074
:1014E0000491C4F6000001A9FFF756F906B080BDCB
:1014F0002DE9F04381B0044690F85C00012803D147
:10150000022001B0BDE8F0834FF001081D460F46F0
:10151000164684F85C80FFF71FFA94F85D100129E5
:1015200048D18146002F4FF0010018BF002E00F077
:10153000D9800320002284F85D002266A763A68775
:10154000E6872264A4F84420A4F84620A068314627
:10155000B0F5004F2068E264226507D1026822F0EE
:1015600040020260026842F4804202600268520651
:1015700003D4026842F04002026062680139E36805
:10158000B2FA82F2B1FA81F152094909B3F5E06F7A
:1015900041EA02013ED931B137F8021BC160A763AD
:1015A000E08F0138E087E08F002871D0681C0ED1F1
:1015B0001FE000BF022095E0A16B31F8022BC26052
:1015C000A163E08F0138E087E08F002860D02068B9
:1015D00081688907F0D4FFF7BFF9A0EB0900A842A2
:1015E000F2D303207EE000BFFFF7B6F9E08F0028BA
:1015F0004ED0206881688907F6D5A16B31F8022B9F
:10160000C260A163E08F0138E087E08F0028F0D14D
:101610003EE000BF89B1E18F02294FF6FE7103D38E
:1016200037F8022BC26004E03A7801310273A06BF4
:10163000471CA763E08F0844E087E08F40B3681C35
:101640005DD04FF6FE70471C08E000BFFFF784F93D
:10165000A0EB0900A842C4D2E08FC8B12168886815
:101660008007F3D5E28FA06B022A05D330F8022B56
:10167000CA604FF6FE7104E000780873A06B39462B
:101680000130A063E08F0844E087E08F0028E5D1B7
:1016900020464FF4C0512A464B4600F09DFF68B9E2
:1016A000204629464A4601F057F838B920464FF4FB
:1016B000C0612A464B4600F08FFF28B1206E40F0F3
:1016C0002000206620202066A06838B90020009005
:1016D0002068C1680091806800900098206E002802
:1016E00018BF0120002184F85D8084F85C1001B0EF
:1016F000BDE8F083FFF730F9E08F0028C8D02068FC
:1017000081688907F6D5E28FA16B012A08D931F8E3
:10171000022BC260A163E08F0238E087ECE700BFD4
:1017200009780173A06B0130A063E08F0138E08776
:10173000E2E70000411E0020B0EB116F1CBF01204A
:1017400070474EF21002CEF2000251604EF6235165
:10175000CEF20001F0230B700721906011607047FA
:10176000FEE700002DE9F04385B040F20044074653
:101770002A20C4F60004164689468DF80700204644
:101780004FF4804100229846FFF7E0F840F29005C0
:10179000C2F200050DF10701284601220A23FFF7D6
:1017A000A7FE78BAADF8080020464FF48041012228
:1017B000FFF7CCF802A9284602220A23FFF798FE79
:1017C00070BAADF80A0020464FF480410122FFF7BD
:1017D000BDF80DF10A01284602220A23FFF788FE10
:1017E0002B208DF80D0020464FF480410022FFF79A
:1017F000ADF80DF10D01284601220A23FFF778FE0E
:1018000009F1220000BA000CADF80E0020464FF49A
:1018100080410122FFF79AF80DF10E0128460222BD
:101820000A23FFF765FE08F1220000BA000CADF8AC
:10183000100020464FF480410122FFF787F804A9E9
:10184000284602220A23FFF753FE2C208DF81300AE
:1018500020464FF480410022FFF778F80DF1130184
:10186000284601220A23FFF743FE05B0BDE8F083B6
:1018700070B504460020002140F23F12AB23FFF771
:1018800071FF4FF6805140F2F40260BACFF6FF715B
:10189000C2F2000253185031A3F88002A3F882026A
:1018A000A3F88402A3F88602A3F88802A3F88A02A8
:1018B000A3F88C02A3F88E02A3F89002A3F8920278
:1018C000A3F89402A3F89602A3F89802A3F89A0248
:1018D000A3F89C02A3F89E02A3F8A002A3F8A20218
:1018E000A3F8A402A3F8A602A3F8A802A3F8AA02E8
:1018F000A3F8AC02A3F8AE02A3F8B002A3F8B202B8
:10190000A3F8B402A3F8B602A3F8B802A3F8BA0287
:10191000A3F8BC02A3F8BE02A3F8C002A3F8C20257
:10192000A3F8C402A3F8C602A3F8C802A3F8CA0227
:10193000A3F8CC02A3F8CE02ACD140F20040C4F62A
:1019400000004FF480410122FFF700F840F29004BC
:1019500040F2F405AC26C2F20004C2F2000500BF5A
:10196000204629464FF420724FF48073FFF7C0FDE4
:10197000013EF5D170BD00002DE9F04F81B04FF070
:101980009040202100224FF020084FF0000BFEF77E
:10199000DDFF1E20FEF7ECFE4FF0904020210122DB
:1019A0004FF00109FEF7D2FF6420FEF7E1FE4FF091
:1019B000904040210022FEF7C9FF6420FEF7D8FEC8
:1019C00040F200441120C4F600048DF803002046C4
:1019D0004FF480410022FEF7B9FF40F29005C2F2B9
:1019E00000050DF10301284601220A23FFF780FDBF
:1019F00036208DF8030020464FF480410022FEF788
:101A0000A5FF0DF10301284601220A23FFF770FD0F
:101A1000A0208DF8030020464FF480410122FEF7FC
:101A200095FF0DF10301284601220A23FFF760FD0F
:101A30003A208DF8030020464FF480410022FEF743
:101A400085FF0DF10301284601220A23FFF750FD0F
:101A5000052720464FF4804101228DF80370FEF7E0
:101A600075FF0DF10301284601220A23FFF740FD0F
:101A7000B2208DF8030020464FF480410022FEF78B
:101A800065FF0DF10301284601220A23FFF730FD0F
:101A90000C2620464FF4804101228DF80360FEF7AA
:101AA00055FF0DF10301284601220A23FFF720FD0F
:101AB00020464FF4804101228DF80360FEF746FF77
:101AC0000DF10301284601220A23FFF711FD2046EC
:101AD0004FF4804101228DF803B0FEF737FF0DF17E
:101AE0000301284601220A23FFF702FD4FF0330AC3
:101AF00020464FF4804101228DF803A0FEF726FF17
:101B00000DF10301284601220A23FFF7F1FC2046CC
:101B10004FF4804101228DF803A0FEF717FF0DF16D
:101B20000301284601220A23FFF7E2FCB7208DF8C3
:101B3000030020464FF480410022FEF707FF0DF11D
:101B40000301284601220A23FFF7D2FC352620464E
:101B50004FF4804101228DF80360FEF7F7FE0DF18E
:101B60000301284601220A23FFF7C2FCBB208DF89F
:101B7000030020464FF480410022FEF7E7FE0DF1FE
:101B80000301284601220A23FFF7B2FC20464FF446
:101B9000804101228DF80360FEF7D8FE0DF10301AC
:101BA000284601220A23FFF7A3FCC0208DF803007A
:101BB00020464FF480410022FEF7C8FE0DF10301DC
:101BC000284601220A23FFF793FC2C208DF80300FE
:101BD00020464FF480410122FEF7B8FE0DF10301CB
:101BE000284601220A23FFF783FCC2208DF8030058
:101BF00020464FF480410022FEF7A8FE0DF10301BC
:101C0000284601220A23FFF773FC20464FF4804147
:101C100001228DF80390FEF799FE0DF1030128468D
:101C200001220A23FFF764FCC3208DF8030020463D
:101C30004FF480410022FEF789FE0DF10301284692
:101C400001220A23FFF754FC13208DF803002046DD
:101C50004FF480410122FEF779FE0DF10301284681
:101C600001220A23FFF744FCC4208DF8030020461C
:101C70004FF480410022FEF769FE0DF10301284672
:101C800001220A23FFF734FC20464FF48041012251
:101C90008DF80380FEF75AFE0DF10301284601225C
:101CA0000A23FFF725FCC6208DF8030020464FF4D9
:101CB00080410022FEF74AFE0DF103012846012271
:101CC0000A23FFF715FC0F208DF8030020464FF480
:101CD00080410122FEF73AFE0DF103012846012260
:101CE0000A23FFF705FCD0208DF8030020464FF4AF
:101CF00080410022FEF72AFE0DF103012846012251
:101D00000A23FFF7F5FBA4208DF8030020464FF4CB
:101D100080410122FEF71AFE0DF10301284601223F
:101D20000A23FFF7E5FBA12620464FF4804101225C
:101D30008DF80360FEF70AFE0DF10301284601222B
:101D40000A23FFF7D5FBD6208DF8030020464FF479
:101D500080410022FEF7FAFD0DF103012846012221
:101D60000A23FFF7C5FB20464FF4804101228DF87E
:101D70000360FEF7EBFD0DF10301284601220A2363
:101D8000FFF7B6FBE0208DF8030020464FF48041BA
:101D90000022FEF7DBFD0DF10301284601220A2394
:101DA000FFF7A6FB4FF0F00920464FF480410122D7
:101DB0008DF80390FEF7CAFD0DF1030128460122BC
:101DC0000A23FFF795FB20464FF4804101228DF84E
:101DD00003B0FEF7BBFD0DF10301284601220A23E3
:101DE000FFF786FB042620464FF4804101228DF840
:101DF0000360FEF7ABFD0DF10301284601220A2323
:101E0000FFF776FB20464FF4804101228DF80360F6
:101E1000FEF79CFD0DF10301284601220A23FFF77E
:101E200067FB20464FF4804101228DF80360FEF7E6
:101E30008DFD0DF10301284601220A23FFF758FB0F
:101E400020464FF4804101228DF80370FEF77EFD9D
:101E50000DF10301284601220A23FFF749FB4FF049
:101E6000290820464FF4804101228DF80380FEF7B7
:101E70006DFD0DF10301284601220A23FFF738FB0F
:101E800020464FF4804101228DF803A0FEF75EFD4D
:101E90000DF10301284601220A23FFF729FB4FF029
:101EA0003E0B20464FF4804101228DF803B0FEF72F
:101EB0004DFD0DF10301284601220A23FFF718FB0F
:101EC00038208DF8030020464FF480410122FEF7B0
:101ED0003DFD0DF10301284601220A23FFF708FB0F
:101EE000122620464FF4804101228DF80360FEF750
:101EF0002DFD0DF10301284601220A23FFF7F8FA10
:101F000020464FF4804101228DF80360FEF71EFD4C
:101F10000DF10301284601220A23FFF7E9FA2826DA
:101F200020464FF4804101228DF80360FEF70EFD3C
:101F30000DF10301284601220A23FFF7D9FA3020C8
:101F40008DF8030020464FF480410122FEF7FEFC8D
:101F50000DF10301284601220A23FFF7C9FAE12007
:101F60008DF8030020464FF480410022FEF7EEFC7E
:101F70000DF10301284601220A23FFF7B9FA204692
:101F80004FF4804101228DF80390FEF7DFFC0DF144
:101F90000301284601220A23FFF7AAFA0727204651
:101FA0004FF4804101228DF80370FEF7CFFC0DF154
:101FB0000301284601220A23FFF79AFA0A208DF826
:101FC000030020464FF480410122FEF7BFFC0DF1D3
:101FD0000301284601220A23FFF78AFA0D208DF813
:101FE000030020464FF480410122FEF7AFFC0DF1C3
:101FF0000301284601220A23FFF77AFA0B208DF805
:10200000030020464FF480410122FEF79FFC0DF1B2
:102010000301284601220A23FFF76AFA20464FF4FB
:10202000804101228DF80370FEF790FC0DF1030151
:10203000284601220A23FFF75BFA20464FF480412D
:1020400001228DF80360FEF781FC0DF103012846A3
:1020500001220A23FFF74CFA20464FF48041012267
:102060008DF803A0FEF772FC0DF103012846012252
:102070000A23FFF73DFA20464FF4804101228DF8F4
:1020800003B0FEF763FC0DF10301284601220A2389
:10209000FFF72EFA36208DF8030020464FF48041DA
:1020A0000122FEF753FC0DF10301284601220A2309
:1020B000FFF71EFA142620464FF4804101228DF8C6
:1020C0000360FEF743FC0DF10301284601220A23B9
:1020D000FFF70EFA20464FF4804101228DF803608D
:1020E000FEF734FC0DF10301284601220A23FFF715
:1020F000FFF920464FF4804101228DF80380FEF75E
:1021000025FC0DF10301284601220A23FFF7F0F90F
:1021100032208DF8030020464FF480410122FEF763
:1021200015FC0DF10301284601220A23FFF7E0F90F
:1021300021208DF8030020464FF480410022FEF755
:1021400005FC0DF10301284601220A23FFF7D0F90F
:1021500011208DF8030020464FF480410022FEF745
:10216000F5FB0DF10301284601220A23FFF7C0F910
:102170007820FEF7FDFA20464FF4804100228DF8CA
:102180000380FEF7E3FB0DF10301284601220A2339
:10219000FFF7AEF901B0BDE8F08F0000B0F5987F11
:1021A00098BF9C2900D970472DE9F04F87B0984619
:1021B0000446073001F10F0340F20045A2F120066A
:1021C00082B29BB22046C4F600050F46FFF7CAFA5A
:1021D000B0B2000140F29006019007F1220098FA97
:1021E00098FB0021C2F20006009004E00299013140
:1021F000102900F09980019843F250220844C0F65B
:10220000000212F8008000984FF0000A084400BA5B
:102210004FEA1049029107E01FFA8AF04FEA580886
:102220000AF1010A0728E1D25FEAC870F4D02A2037
:102230008DF80F0028464FF4804100220AEB040776
:10224000FEF784FB30460DF10F0101220A23FFF750
:102250004FF938BA070C28464FF480410122ADF8F7
:102260001070FEF773FB304604A902220A23FFF721
:102270003FF928464FF480410122ADF81270FEF775
:1022800065FB30460DF1120102220A23FFF730F9F7
:102290002B208DF8150028464FF480410022FEF7D0
:1022A00055FB30460DF1150101220A23FFF720F9F5
:1022B00028464FF480410122ADF81690FEF746FB08
:1022C00030460DF1160102220A23FFF711F92846C4
:1022D0004FF480410122ADF81890FEF737FB3046ED
:1022E00006A902220A23FFF703F92C208DF81B0010
:1022F00028464FF480410022FEF728FB30460DF1BE
:102300001B0101220A23FFF7F3F828464FF480410E
:102310000122ADF80CB0FEF719FB304603A90222EA
:102320000A23FFF7E5F877E707B0BDE8F04F7047FD
:10233000002B08BF70472DE9F04F81B006461044CE
:102340000A9F01384FEA42099A4688464FF0000B2F
:1023500085B21FFA89F400BF0BEB080081B230464A
:102360002A460B46FFF7FEF940F20040C4F6000093
:102370004FF480410122FEF7E9FA40F29000C2F2E8
:102380000000394622464FF47A73FFF7B1F80BF19B
:10239000010BDA454F44DFD101B0BDE8F04F704783
:1023A0002DE9F04F81B092461278002A74D040F2A5
:1023B000F40640F2004840F2900799460C46054664
:1023C000C2F200064FF0F81BC4F60008C2F2000784
:1023D0000BE000BFA8B2A1B2D2B24B46FFF7DEFEBF
:1023E0001AF8012F0835002A56D0A8B2B0F5987F08
:1023F00088BF1034A0B288BF00259D28EAD30020F2
:10240000002140F23F12AB23FFF7ACF94FF68050AA
:10241000CFF6FF7031185030C1F880B2C1F884B2E5
:10242000C1F888B2C1F88CB2C1F890B2C1F894B2C8
:10243000C1F898B2C1F89CB2C1F8A0B2C1F8A4B278
:10244000C1F8A8B2C1F8ACB2C1F8B0B2C1F8B4B228
:10245000C1F8B8B2C1F8BCB2C1F8C0B2C1F8C4B2D8
:10246000C1F8C8B2C1F8CCB2D4D140464FF48041D3
:102470000122FEF76BFAAC24384631464FF4207245
:102480004FF48073FFF734F8013CF5D19AF800203F
:10249000002400259EE700BF01B0BDE8F08F0000DA
:1024A000F0B581B040F21007C2F2000714460D46A5
:1024B000064606AA38461946009200F041FA304610
:1024C00029463A462346FFF76BFF01B0F0BD0000F6
:1024D0002DE9F04186B0002641F24C000596CDE989
:1024E0000366CDE90166C4F202000168002241F0F2
:1024F000200101600168E02501F0200100910099B0
:10250000016841F001010160016801F001010091E1
:102510000099016841F0020101600068E02100F0CB
:102520000200009000984FF09040FEF70FFA40F242
:102530000044C4F6000420464FF4804100224FF4CA
:102540008048FEF703FA019501AD01274FF0904056
:102550002946CDE902760496FEF71EF92046294663
:10256000CDE90187CDE90366FEF716F906B0BDE8AF
:10257000F081000070B540F2900043F60001C2F215
:102580000000C4F200014FF482724FF400434FF494
:10259000E06C4FF0020E012480E80E5000F11401AF
:1025A0004FF40075102670C100210722C0E9081100
:1025B000C0E90A12C0E90C11FEF7EEFE002808BFC0
:1025C00070BDBDE87040FEF7CDB80000FEE700002A
:1025D000FEE70000704700002DE9F04782B00026BA
:1025E0001F4690460D4681468DF80360FEF7B4F90C
:1025F000381A00EB0807FEF7AFF940F20801C2F203
:102600000001096823225143090DD9F8004079439C
:102610000191A168294235D0824618F1010035D0D8
:10262000B5F5C06F1AD100BF207B8DF803009DF86F
:102630000300FEF791F9A0EB0A00B8425ED20198C0
:1026400001990028A1F101010191D9F800108968D0
:1026500008BF074611F4C06FE6D112E0FEF77CF91F
:10266000A0EB0A00B84249D2019801990028A1F1D3
:1026700001010191D9F80010896808BF0746294275
:10268000ECD10026304602B0BDE8F0870026B5F553
:10269000C06F25D1207B8DF803009DF80300A06852
:1026A00010F4C06FEDD0207B8DF803009DF803007F
:1026B000A06810F4C06FE4D0207B8DF803009DF873
:1026C0000300A06810F4C06FDBD0207B8DF80300FE
:1026D0009DF80300A06810F4C06FDBD1D2E700BF03
:1026E000A0682842CDD0A0682842CAD0A06828425D
:1026F000C7D0A0682842F3D1C4E700BFD9E90001E0
:102700004268B1F5827F22F0E00242600BD1D9F835
:102710000810B1F5004F02D0B1F5806F03D1016808
:1027200021F040010160D9F82810B1F5005F07D110
:10273000016821F400510160016841F40051016019
:10274000012089F85D00002089F85C0003263046EE
:1027500002B0BDE8F0870000F0B581B015460E4626
:102760000446FEF7F9F8281A8719FEF7F5F840F243
:102770000801C2F200010968C1F3CB31794300912D
:1027800021688A68120622D50546701C15D000BF44
:10279000FEF7E2F8401BB8421CD2009800990028CE
:1027A000A1F1010100912168896808BF0746080668
:1027B000EED40CE08868000609D58868000606D5C6
:1027C0008868000644BF88685FEA0060F2D4002091
:1027D00001B0F0BDD4E900014268B1F5827F22F07A
:1027E000E00242600AD1A168B1F5004F02D0B1F514
:1027F000806F03D1016821F040010160A16AB1F549
:10280000005F07D1016821F400510160016841F4C3
:1028100000510160012084F85D00002084F85C0014
:10282000032001B0F0BD000070470000FEF79AB829
:102830004EF68850CEF20000016841F4700101604C
:1028400070470000FEE7000094B0FEF799F80024FE
:102850000020CDE90B44CDE90944CDE90744FEF75A
:102860001DF94FF48071099140210A910421022041
:102870000F9155210690CDE90D00CDE91010CDE95D
:10288000120006A8FEF71EFB20B1EFF3108072B60F
:10289000FEE700BF0F2001900320CDE9020401A84C
:1028A0000421CDE90444FEF78BF928B1EFF3108041
:1028B00072B600BFFEE700BFFFF70AFEFFF75AFE41
:1028C000FFF75AF80020FEF7D3FF4EF24064C0F63F
:1028D0000104002014214FF478422346FFF7E0FD65
:1028E000002032211F222346FFF7DAFD002050216D
:1028F0004FF4FC622346FFF7D3FD0CA346209C2136
:1029000047F67C52FFF7CCFD4FF47A70FDF730FFAD
:1029100043F64004C0F60004002000214FF4A072EA
:10292000AC230094FFF704FDFEE700BF32303234E1
:102930002D30312D30312030303A30303A303100C6
:1029400037B514460846064B6A46214600F0DCF8C7
:1029500004466946002000F06EFC20463EBD0000A3
:102960003732000802E008C8121F08C1002AFAD155
:1029700070477047002001E001C1121F002AFBD1FF
:10298000704700002DE9FF5F82B00021DDE90430CF
:10299000020DDDF840B0034318D044F61050A2F207
:1029A000FF3242431514119801281FD0A5EB0B00EC
:1029B000401C5FEA000A4FF000064E4FDFF83891E6
:1029C000B046504615D5CAF1000413E01198012411
:1029D0004AA3012801D16FEA0B010298119AC0E9BC
:1029E0000031C0E9024206B0BDE8F09FCBF1000023
:1029F000DFE704460021404A491842EB0450CDE984
:102A0000001012E0E00707D032463B4640464946F8
:102A1000FDF7ECFC8046894632463B461046194697
:102A2000FDF7E4FC06460F466410002CEAD1DDE910
:102A30000401DDE90023BAF1000F06DAFDF7D6FC48
:102A400042464B46FDF7D2FC05E0FDF741FD42460C
:102A50004B46FDF73DFD04460E460022284BFDF790
:102A6000BFFD03D84FF0FF30014607E00022254BA1
:102A700020463146FDF713FCFDF799FD102409E0CF
:102A8000002C0ADB0A220023FDF7D8FB039B30321F
:102A90001A55641E50EA0102F2D1641C039AC4F173
:102AA00011031444119A012A03D0012208430DD1C5
:102AB0000AE0084304D000204FF0110B119072E798
:102AC000A3EB0B056D1E0DE05B4504DD4FF000022E
:102AD00005F1010504E003DA4FF00002A5F101055C
:102AE000002AECD002981199C0E90231C0E90045F2
:102AF00079E70000000014400000F03F30000000C3
:102B00000000F0430000E03F2DE9FF4F95B09B46E9
:102B10008946064600250FE2252877D1002427465E
:102B2000F84A0121059400E0044316F8013F203BD8
:102B300001FA03F01042F7D130782A2811D06FF053
:102B40002F033078A0F13002092A16D8059A44F0F4
:102B5000020402EB820203EB42021044761C059051
:102B6000EFE759F8042B0592002A03DA504244F4A7
:102B70000054059044F00204761C30782E2816D1BB
:102B800016F8010F44F004042A280DD06FF02F022C
:102B90003078A0F13003092B09D807EB870302EB4B
:102BA0004303C718761CF3E759F8047B761C30788A
:102BB0006C280FD006DC4C2817D068280DD06A2866
:102BC00014D104E0742810D07A280FD10DE044F419
:102BD00000140AE044F4801401E044F440147278D4
:102BE000824202D104F58014761C761C3078662867
:102BF0000BD013DC582877D009DC002875D0452885
:102C0000F6D04628F4D047281AD19DE118E0632871
:102C100035D0642879D0652812D195E1702873D019
:102C200008DC6728F1D069286FD06E280DD06F2896
:102C300006D1B5E073282CD0752875D0782874D0CB
:102C40005A46179990476D1C75E1C4F3025002284B
:102C500009D003280DD0D9F8001004280DD00D603C
:102C600009F1040967E1D9F80010EA17C1E9005237
:102C7000F6E7D9F800100D80F2E70D70F0E719F8CB
:102C8000041B8DF8001000208DF80100EA46012099
:102C900003E059F804AB4FF0FF3061074FF000013B
:102CA00002D40DE008F101018846B9420FDA8045EF
:102CB000F8DB1AF808100029F4D108E008F1010146
:102CC00088468142FADB1AF808100029F6D10598E7
:102CD0005B46A0EB080721463846179A00F094FAA5
:102CE000284400EB080507E04DE029E10DE01AF863
:102CF000010B5A4617999047B8F10108F7D25B4685
:102D000021463846179A13E142E00A220092C4F3A2
:102D100002524FF0000A022A08D059F804CB032AC5
:102D20004FEAEC710AD00DE029E02AE009F1070131
:102D300021F00702F2E802C1914609E00FFA8CFC8B
:102D40004FEAEC71042A03D14FFA8CFC4FEAEC7184
:102D5000002907DA0A460021DCF1000C61EB0201D0
:102D60002D2202E0220504D52B228DF80420012219
:102D700003E0E20701D02022F7E7904659E00A215C
:102D800002E010220DE010214FF0000A00910BE04C
:102D900010224FF0000A44F004040827009203E0D8
:102DA00008224FF0000A0092C4F30252022A05D012
:102DB00059F804CB0021032A08D009E009F10701E2
:102DC00021F00702F2E802C1914605E01FFA8CFCEF
:102DD000042A01D10CF0FF0C4FF00008220728D57F
:102DE000702806D0009B83F0100353EA0A0305D035
:102DF0000EE040228DF80420012208E05CEA010286
:102E000006D030228DF804208DF80500022290466D
:102E1000009B83F0080353EA0A030AD15CEA01022B
:102E200001D1620705D530228DF804204FF001084A
:102E30007F1E582804D034A003900EA802900DE005
:102E400036A0F9E753466046009AFDF7F7F9844645
:102E50000398825C0298401E029002705CEA0100B6
:102E6000F0D1029806A9081A00F1200A600702D5DD
:102E700024F4803400E00127574502DDA7EB0A0067
:102E800000E0002000EB0A01009005984144401A40
:102E90000590E00306D45B462146179A059800F09A
:102EA000B3F90544002706E001A85A46C05D17990A
:102EB00090476D1C7F1C4745F6DBE0030CD55B4655
:102EC0002146179A059800F09FF9054404E0302048
:102ED0005A46179990476D1C0099481E009000298A
:102EE000F5DC08E0029802995A460078491C0291E4
:102EF000179990476D1CBAF10001AAF1010AF1DCA3
:102F000065E10000092801003031323334353637AD
:102F10003839616263646566000000003031323325
:102F200034353637383941424344454600000000C5
:102F300000F058F90544761C307800287FF4ECAD99
:102F400019B02846BDE8F08F620700D4062709F1C2
:102F5000070222F0070CFCE80223E14603F00048D8
:102F60005FEA080C02D00FF2702C0DE05FEA045CFF
:102F700002D50FF2682C07E05FEAC47C02D00FF2A2
:102F8000602C01E0AFF2700C4FF0FF3823F00043EB
:102F9000CDF850C065280CD006DC452809D046285D
:102FA0001DD047283DD13DE0662818D067287ED146
:102FB00038E00021112F01DB112000E0781CCDE961
:102FC000000106A90EA8FFF7DDFCDDE90F010E9A4E
:102FD00003910021009207F1010A04914DE04FF0A6
:102FE00000400097CDE9011006A90EA8FFF7CAFC22
:102FF000DDE90F0203920E9B11990022DDF80CA06F
:103000000093049211B9791C00EB010AB7EB0A0096
:1030100004D4C0F1FF3007F1010A0490AAEB0700C5
:10302000019044E0012F00DA01270021112F01DD7A
:10303000112000E03846CDE9000106A90EA8FFF7EF
:10304000A1FCDDE90F010E9A039100210491009289
:10305000BA4621070CD40399514500DA8A46BAF1E1
:10306000010F05DD009AAAF10101515C302908D059
:10307000B84202DA10F1040F06DA0121CDE901109D
:1030800015E0AAF10101E9E7002805DC04990144F3
:103090000491AAEB000102E0411C514500DD8A4683
:1030A0000499401A401C01904FF000400290200704
:1030B00004D40198504501DBCDF8048000208DF840
:1030C0004F0002980DF14F07B0F1004F25D02B2093
:1030D0000E9002984FF0020800280CDA404202904D
:1030E0002D200E9007E00A210298FDF791F830316B
:1030F000029007F8011DB8F10001A8F10108F2DC07
:1031000002980028EFD1791E0E980870307800F0F0
:10311000200040F0450007F8020D12A8C01B00F186
:1031200007081498007800B1012000EB0A0101980B
:1031300001EBE07105984144401A401E0590E00300
:1031400006D45B462146179A059800F05DF80544C1
:103150001498007818B15A46179990476D1CE003EF
:1031600024D55B462146179A059800F04DF8054492
:103170001CE00498002807DBDDE90301884203DD39
:103180000098405C179901E0179930205A46904703
:10319000049805F10105401C04900198401E01901F
:1031A00004D12E205A46179990476D1CBAF10001A0
:1031B000AAF1010ADDDC05E017F8010B5A46179960
:1031C00090476D1CB8F10001A8F10108F4DC5B46E2
:1031D0002146179A0598ABE62D0000002B00000051
:1031E000200000002DE9F041044600251E46174648
:1031F000880404D405E039462020B0476D1C641EC5
:10320000F9D52846BDE8F0812DE9F04104460025B6
:103210001E469046C80301D5302700E020278804C9
:1032200004D505E041463846B0476D1C641EF9D50B
:103230002846BDE8F0810A68531C0B601070704787
:103240000000000000000000010203040607080956
:10325000000000000000000000000000000000006E
:1032600000000008080808080808000018180000F6
:1032700000486C2412000000000000000000000064
:103280000000002424247F1212127F121212000068
:103290000000081C2A2A0A0C1828282A2A1C0808B8
:1032A00000000022251515152A58545454220000F8
:1032B0000000000C1212120A76252911916E0000EE
:1032C00000060604030000000000000000000000EB
:1032D00000402010100808080808081010204000BE
:1032E0000002040808101010101010080804020052
:1032F0000000000008086B1C1C6B080800000000A0
:1033000000000000080808087F08080808000000FE
:10331000000000000000000000000000060604039A
:103320000000000000000000FE000000000000009F
:103330000000000000000000000000000606000081
:103340000000804040202010100808040402020001
:103350000000001824424242424242422418000027
:10336000000000080E08080808080808083E0000C9
:103370000000003C4242422020100804427E00002F
:103380000000003C4242201820404042221C000025
:10339000000000203028242422227E2020780000F3
:1033A0000000007E0202021A26404042221C000059
:1033B000000000382402021A26424242241800006B
:1033C0000000007E222210100808080808080000EB
:1033D0000000003C4242422418244242423C000089
:1033E000000000182442424264584040241C00005F
:1033F000000000000000181800000000181800006D
:1034000000000000000000080000000000080804A0
:1034100000000040201008040204081020400000B2
:103420000000000000007F0000007F00000000009E
:1034300000000002040810204020100804020000D0
:103440000000003C424246402010100018180000C6
:103450000000001C225A555555552D42221C0000D3
:103460000000000808181414243C224242E700001F
:103470000000001F2222221E22424242221F000080
:103480000000007C4242010101010142221C0000B7
:103490000000001F2242424242424242221F0000DC
:1034A0000000003F4212121E12120242423F000070
:1034B0000000003F4212121E121202020207000018
:1034C0000000003C2222010101712122221C000087
:1034D000000000E7424242427E42424242E7000090
:1034E0000000003E0808080808080808083E000018
:1034F0000000007C10101010101010101010110F90
:103500000000007722120A0E0A121222227700000F
:10351000000000070202020202020202427F0000D3
:1035200000000077363636362A2A2A2A2A6B00000F
:10353000000000E346464A4A525252626247000087
:103540000000001C2241414141414141221C000038
:103550000000003F424242423E02020202070000D7
:103560000000001C2241414141414D53321C60008A
:103570000000003F4242423E1212222242C7000097
:103580000000007C4242020418204042423E0000FB
:103590000000007F4908080808080808081C000007
:1035A000000000E74242424242424242423C0000A6
:1035B000000000E7424222242414141808080000E6
:1035C0000000006B49494949555536222222000026
:1035D000000000E7422424181818242442E70000C1
:1035E000000000772222141408080808081C0000B4
:1035F0000000007E2120101008040442423F000019
:10360000007808080808080808080808080878006A
:103610000000020204040808081010202020404086
:10362000001E1010101010101010101010101E009E
:10363000003844000000000000000000000000000E
:10364000000000000000000000000000000000FF7B
:10365000000608000000000000000000000000005C
:10366000000000000000003C4278444242FC0000A0
:10367000000000030202021A26424242261A0000FB
:10368000000000000000003844020202443800003C
:1036900000000060404040784442424264D800004C
:1036A000000000000000003C427E0202423C00009C
:1036B000000000F08808087E08080808083E00009E
:1036C000000000000000007C22221C023C42423C20
:1036D000000000030202023A4642424242E7000072
:1036E0000000000C0C00000E08080808083E00004E
:1036F0000000003030000038202020202020221E32
:103700000000000302020272120A16122277000061
:103710000000000E0808080808080808083E000015
:10372000000000000000007F9292929292B7000089
:10373000000000000000003B4642424242E7000019
:10374000000000000000003C42424242423C0000B7
:10375000000000000000001B26424242221E020719
:10376000000000000000007844424242447840E0FB
:1037700000000000000000774C040404041F000057
:10378000000000000000007C42023C40423E00007D
:10379000000000000008083E080808080830000083
:1037A00000000000000000634242424262DC000070
:1037B00000000000000000E7422424140808000074
:1037C00000000000000000EB49495555222200008E
:1037D000000000000000007624181818246E000075
:1037E00000000000000000E7422424141808080725
:1037F000000000000000007E22100808447E000047
:1038000000C0202020202010202020202020C000C8
:1038100010101010101010101010101010101010A8
:103820000006080808080810080808080808060024
:103830000C32C20000000000000000000000000088
:1038400064B46CB46CB46CD46CD46CD46CB46CD400
:103850006CD46CD474D474D47CF47CF47CF47CF498
:103860007CF47CF484F484F484F484F484F484F4A8
:1038700084F48CF48CF48CF48CF48CF48CF48CF450
:103880008CF48CF48CF48CF48CF48D148D148CF4F6
:103890008CF48CF48CF48CF48CF48CF48CF48CF428
:1038A0008CF48D148CF48CF48D148D148D148CF494
:1038B0008CF48CF48CF48CF484F484F484F484D448
:1038C0008CF48CD48CD48CF48CF48CF48CF48CF438
:1038D0008CF48CF48CF48CF48D148D148D148D1464
:1038E0008CF48CF48CF48CF48CF48CF48D148D1496
:1038F0008D148CF48CF48CF48CF48CF48CF48CF4A7
:103900008CF48CF48D148CF48CF48CF58CF58CF494
:103910008CF48CF48CF48CF48CF48CF48D148D1465
:103920008D148CF48CF48CF48CF48CF48CF48CF476
:103930008CF484D48CF48CF48CF58D158D158D1548
:103940008D158D148D148D148D148D148D148D146E
:103950008D148D158D158D158D158D158D158D1558
:103960008D158D158D158D148D148D148D148D154B
:103970008D158D148D148D158D158D148D148D143C
:103980008D148D148D148CF48D1484F484F484F4CB
:1039900084F484F484F484F484F484F484F484F368
:1039A0007C904AC84AE74B084309430943083B084F
:1039B0003B083AE83AA742E8430943093AE932C9E1
:1039C00032C83AE83AC832C932C833093B4843A83A
:1039D00043A7438543834BA24BA14BA14BA14BA1D2
:1039E0004B814B8343A73C0E34113412136F0B4FA2
:1039F0000B500B50132F1B2E12AB12491A481A48AA
:103A00001A48224822281A481A071A071A071A279A
:103A10001A271A271A281A481A471A471A471A47FC
:103A20001A471A471A471A471A471A471A471A478E
:103A30001A471A471A471A471A471A471A471A477E
:103A40001A471A471A471A471A471A471A471A476E
:103A50001A471A471A471A471A471A471A471A475E
:103A60001A471A471A471A471A481A481A481A484A
:103A70001A471A471A481A481A481A481A481A4838
:103A80001A481A481A471A471A471A471A481A284A
:103A90001A271A271A471A471A471A471A481A475D
:103AA0001A271A271A271A271A271A271A471A47CE
:103AB0001A471A471A471A271A271A271A471A277E
:103AC00064B46CB46CB464B46CD46CD46CB46CD4A6
:103AD0006CD46CD474D474D47CF47CD47CF47CF436
:103AE0007CF47CF47CF484F484F484F484F484F42E
:103AF00084F48CF48CF48CF48CF48CF48CF48CF4CE
:103B00008CF48CF48CF48CF48CF48CF48CF48CF4B5
:103B10008CF48CF48CF48CF48CF48CF48CF48CF4A5
:103B20008CF48CF48CF48CF48CF48CF48CF48CF495
:103B30008D148CF48CF48CF484F484F484F48CF47C
:103B40008CD48CD48CF48CF48CF48CF48CF48CF4B5
:103B50008CF48CF48CF48CF48CF48D148D148CF423
:103B60008CF48CF48CF48CF48CF48CF48CF48CF455
:103B70008CF48CF48CF48CF48CF48CF48CF48CF445
:103B80008CF48CF48CF48CF48CF48CF48CF48CF435
:103B90008CF48CF48CF48CF48CF48CF48D148D14E3
:103BA0008D148CF48CF48CF48CF48CF48CF48CF4F4
:103BB0008CF48CF48CF48D158CF58D158D158D157C
:103BC0008D158D148D148D148D148D148D148D14EC
:103BD0008D148D158D158D158D158D158D158D15D6
:103BE0008D158D158D158D148D148D148D148D15C9
:103BF0008D158D148D148D158D158D148D148D14BA
:103C00008D148D148D148CF48CF484F484F484F469
:103C100084F484F484F484F484F484F484F384D207
:103C20006C2E4AC84AE84B094309432943284328D4
:103C300043083AE73AA742E8432943093AE932C838
:103C40003AE83AC83AE83AE932E933083B283B888F
:103C500043A7438543834B824BA14BA153A153A15F
:103C60004BA14BA343A733CD2BD02BF1134F0B4FBD
:103C70000B500B4F134F1B4E12AB1A491A481A48E0
:103C80001A271A071A271A271A0719E619E61A27F0
:103C90001A271A271A281A481A471A471A471A477A
:103CA0001A471A471A471A471A471A471A471A470C
:103CB0001A471A471A471A471A471A471A471A47FC
:103CC0001A471A471A471A471A471A471A471A47EC
:103CD0001A471A471A471A471A471A471A471A47DC
:103CE0001A471A481A481A481A481A481A481A48C5
:103CF0001A481A481A481A481A481A481A481A48B4
:103D00001A281A481A471A471A471A471A271A2709
:103D10001A271A271A471A471A471A481A271A271A
:103D20001A2712071A271A481A481A471A271A4731
:103D30001A471A471A471A471A271A271A481A47BA
:103D400064B46CB46CB46CD46CD46CB46CB46CD41B
:103D50006CD474D474D474D47CD47CF47CF47CF4AB
:103D600084F484F47CF484F484F484F48CF48CF48B
:103D70008CF48CF48CF48CF48CF48CF48CF48CF443
:103D80008CF48CF48CF48CF48CF48CF48CF48CF433
:103D90008D148D148D148CF48CF48CF48CF48CF4C0
:103DA0008CF48CF48CF48CF48CF48CF48CF48CF413
:103DB0008CF48CF48CF48CF48CF48CF48CF48CF403
:103DC0008CF48CF48CF48CF48CF48CF48CF48CF4F3
:103DD0008CF48CF48CF48CF48CF48CF48CF48CF4E3
:103DE0008CF48CF48CF48CF48CF48CF48CF48CF4D3
:103DF0008CF48CF48CF48CF48CF48CF48CF48CF4C3
:103E00008CF48CF48CF48CF48D148CF48CF48CF491
:103E10008CF48CF48CF48CF48CF48CF48CF48D1481
:103E20008CF48CF48CF48CF48CF48CF48CF48CF492
:103E30008CF48CF48CF48D158D158D158D158D14D9
:103E40008D148D158D158D158D158D148D148D1565
:103E50008D158D158D158D158D158D158D158D1552
:103E60008D158D158D158D148D148D148D148D1447
:103E70008D148D148D148D158D158D158D158D1436
:103E80008D148D148CF48CF48CF484F484F484F408
:103E900084F484F484F484F484F484F463EE4AE9CE
:103EA0004AE84AE84B094309432943294328432860
:103EB00043073AC63AA63AC743093B093B083AE8E2
:103EC0003AC83AE73AE73B083B083B083B283B4700
:103ED0003B874BA54B834BA24B804B814BA14BA106
:103EE0004B8143833BA733CE23D123D1134F0B4FB9
:103EF0000B500B4F134F12CC12691A481A47224825
:103F00001A2719E71A071A281A0719E619E61A07CD
:103F10001A071A271A281A481A471A471A471A4717
:103F20001A471A471A471A471A471A471A471A4789
:103F30001A471A471A471A471A471A471A471A4779
:103F40001A471A471A471A471A471A471A471A4769
:103F50001A471A471A471A471A471A471A471A4759
:103F60001A481A481A481A481A481A481A481A4841
:103F70001A481A481A481A281A281A281A481A4891
:103F80001A481A481A471A471A271A281A071A07E6
:103F90001A281A271A471A471A481A271A271A4896
:103FA0001A271A271A281A481A481A481A271A4785
:103FB0001A471A471A471A471A271A271A271A4858
:103FC00064B46CB46CD46CD46CD46CD46CD46CD439
:103FD0006CD474D474D474D47CD47CD47CF47CF449
:103FE00084F484F484F484F484F48CF48D148CF4D8
:103FF0008CF48CF48CF48CF48CF48CF48CF48CF4C1
:104000008CF48CF48CF48CF48CF48CF48CF48CF4B0
:104010008D148D148D148CF48CF48CF48CF48D141C
:104020008CF48D148CF48CF48D148D148D148CF40C
:104030008CF48CF48CF48CF48CF48CF48CF48CF480
:104040008CF48CF48CF48CF48CF48CF48CF48CF470
:104050008CF48CF48CF48CF48CF48CF48CF48CF460
:104060008CF48CF48CF48CF48CF48CF48CF48CF450
:104070008CF48CF48CF48CF48CF48CF48CF48CF440
:104080008CF48CF48CF48D148D148CF48CF48CF4EE
:104090008CF48CF48CF48CF48CF48CF48CF48CF420
:1040A0008CF48CF48CF48CF48CF48CF48CF48CF410
:1040B0008CF48CF48D148D158D158D158D158D1436
:1040C0008D148D158D158D158D158D148D148D15E3
:1040D0008D158D158D158D158D158D158D158D15D0
:1040E0008D158D158D158D148D148D148D148D14C5
:1040F0008D148D148D148D158D158D158D158D14B4
:104100008CF48CF48CF48CF484F484F484F484F4CF
:1041100084F484F484F484F484F484F363AE4AE98C
:1041200042C8430943094329432943293B283B0704
:104130003AE742E742E73AC73B083B293B293B09BC
:104140003AE83AE63AC643073B073B273B273B267C
:10415000436643844BA3642353804B814BA14BA103
:104160004B8143A33BA72BCD23D123D113700B50FD
:104170000B500B4F132E12AB12691A481A471A48EC
:104180001A2719E71A071A281A0719E719E61A074A
:104190001A071A271A281A481A471A471A471A4795
:1041A0001A471A471A471A471A471A471A471A4707
:1041B0001A471A471A471A471A471A471A471A47F7
:1041C0001A471A471A471A471A471A471A471A47E7
:1041D0001A471A471A471A471A471A471A471A47D7
:1041E0001A481A481A481A481A481A481A481A48BF
:1041F0001A481A481A481A271A281A281A481A4810
:104200001A481A271A481A271A281A271A071A07A3
:104210001A281A481A471A271A271A271A271A4833
:104220001A281A281A281A481A481A481A471A47E0
:104230001A271A471A471A471A481A271A271A48D4
:1042400064B464B46CD46CD46CD46CD46CD46CD4BE
:1042500074D474D474D47CF47CD47CF47CF47CF476
:1042600084F484F484F484F484F48CF48CF48CF476
:104270008CF48D148D148D148D148D148D148D1457
:104280008CF48CF48CF48CF48CF48CF48D148D14EC
:104290008D148D148D148D148D148CF48CF48CF479
:1042A0008CF48CF48CF48CF48CF48CF48CF48CF40E
:1042B0008CF48CF48CF48CF48CF48D148D148CF4BC
:1042C0008CF48CF48CF48CF48CF48CF48CF48D14CD
:1042D0008D148CF48CF48CF48CF48CF48CF48CF4BD
:1042E0008CF48CF48D148D148CF48CF48CF48CF48C
:1042F0008CF48CF48CF48CF48CF48CF48CF48CF4BE
:104300008CF48CF48D148D148D148CF48CF48CF44A
:104310008CF48CF48CF48CF48CF48CF48CF48CF49D
:104320008CF48CF48CF48CF48D148D148D148D1409
:104330008D148D148D158D158D148CF48D158D1592
:104340008D158D158D158D158D158D158D158D155D
:104350008D158D158D158D158D158D158D158D144E
:104360008D148D148D148D148D148D148D148D1445
:104370008D148D148D148D158D158D158CF48D1453
:104380008CF48CF48CF48CF484F484F484F484F44D
:1043900084F484F484F484F484F484F484F37CB1A9
:1043A000744F5BAC432A4329432943293B083B080C
:1043B0003B283B283B283AE83B083B283B293B2944
:1043C0003B283AE63AC642E63AE643273B063AE558
:1043D00043454BA45BE3644353A04BA04BA04B80ED
:1043E000438143A33BA72BCE23D123D113700B4F83
:1043F0000B500B4F132E12AB12691A481A48224861
:104400001A271A071A071A071A071A0719E71A07A5
:104410001A071A271A271A481A471A471A471A4713
:104420001A471A471A471A471A471A471A471A4784
:104430001A471A471A471A471A471A471A471A4774
:104440001A471A471A471A471A471A471A471A4764
:104450001A471A471A471A471A471A471A471A4754
:104460001A471A481A481A481A481A481A481A483D
:104470001A481A481A271A281A281A271A271A28EF
:104480001A271A271A271A271A071A071A071A2784
:104490001A281A481A471A271A471A471A481A4850
:1044A0001A481A481A481A481A271A471A471A4720
:1044B0001A471A471A471A471A471A481A481A0732
:1044C00064B464B46CD46CD46CD46CD46CD46CD43C
:1044D00074D474D474D47CF47CD47CF47CF47CF4F4
:1044E00084F484F484F484F484F48CF48CF48CF4F4
:1044F0008CF48D148D148D148D148D148D148D14D5
:104500008CF48CF48CF48CF48CF48CF48D148D1469
:104510008D148D148D148D148D148CF48CF48CF4F6
:104520008CF48CF48CF48CF48CF48CF48CF48CF48B
:104530008CF48CF48CF48CF48D148D148D148CF418
:104540008CF48CF48CF48CF48CF48D148CF48D1429
:104550008D148CF48CF48CF48CF48CF48CF48CF43A
:104560008CF48CF48D148CF48CF48CF494F494F41A
:104570008CF48CF48CF48CF48CF48CF48CF48CF43B
:104580008CF48CF48CF48D148CF48CF48CF48CF40A
:104590008CF48CF48CF48CF48CF48CF48CF48CF41B
:1045A0008CF48CF48CF48CF48D148D148D148D1487
:1045B0008D148D148D158D158CF48CF48CF48D1553
:1045C0008D158D158D158D158D158D158D158D15DB
:1045D0008D158D158D158D158D158D158D158D14CC
:1045E0008D148D148D148D148D148D148D148D14C3
:1045F0008D148D148D148D158D158D158CF48D14D1
:104600008CF48CF48CF484F484F484F484F484F4D2
:1046100084F484F484F484F484F484F484F374716E
:10462000536C4B2A432A432A432943283AE7430839
:1046300043283B283B283B283B083B083B293B2998
:104640003B28430742E642E642E63AE542E53AE4E1
:10465000432353C364436C425BE053A04BA04BA085
:104660004BA143A33BA72BCE23D11BB113700B4F00
:104670000B4F0B2F132E1AEC12691A481A481A48BE
:1046800022481A071A071A071A071A0719E71A07FA
:104690001A071A271A281A481A471A471A471A4790
:1046A0001A471A471A471A471A471A471A471A4702
:1046B0001A471A471A471A471A471A471A471A47F2
:1046C0001A471A471A471A471A471A471A471A47E2
:1046D0001A471A471A471A471A471A471A471A47D2
:1046E0001A471A471A471A481A481A481A481A48BD
:1046F0001A481A271A271A271A271A271A271A2890
:104700001A271A271A281A071A0719E71A071A0761
:104710001A281A481A471A271A471A471A471A47CF
:104720001A471A481A271A271A471A471A471A47C0
:104730001A471A471A471A471A471A471A471A2791
:1047400064B46CB46CD46CD46CD46CD46CD474D4A9
:1047500074D474D474D47CD47CD47CF47CF47CF491
:1047600084F484F484F484F484F48CF48D148CF450
:104770008CF48D148D148D148D148D148D148D1452
:104780008CF48CF48CF48CF48CF48CF48D148D14E7
:104790008D148D148D148CF48CF48CF48CF48CF4B6
:1047A0008D158D148CF48CF48CF48CF48CF48CF4C6
:1047B0008CF48CF48CF48CF48CF48CF48CF48CF4F9
:1047C0008CF48CF48CF48CF48CF48CF48CF48CF4E9
:1047D0008CF48CF48CF48CF48CF48CF48CF48CF4D9
:1047E0008CF48CF48CF48D158CF48CF494F5951475
:1047F00095148CF494F494F494F494F48CF48CF470
:104800008D148CF48CF48CF48CF48CF48CF48CF487
:104810008CF48CF48CF48CF48CF48CF48CF48CF498
:104820008CF48CF48CF48CF48D148D148D148D1404
:104830008D148D158CF48CF48CF48CF48D158D15F1
:104840008D158D158D158D158D158D158D158D1558
:104850008D158D158D158D158D158D158D158D1449
:104860008D148D148D148D158D158D148D148D143E
:104870008D148D148D148D158D158D158CF48D144E
:104880008CF48CF48CF484F484F484F484F484F450
:1048900084F484F484F484F484F484F484F4534C31
:1048A00042C9430A432A432A432943083AE73AC6FE
:1048B000430843283B083B283B083B083B083B098F
:1048C0003B28430742E642C542C542C442E4430393
:1048D00042E15BC26C226C2264215BE053C04BA0BE
:1048E000438143A33BA72BCE1BB10B2F0B2F032FD1
:1048F0000B2F0B2F12ED0A6A12491A481A481A4850
:1049000022481A071A071A071A271A071A071A0736
:104910001A071A271A271A481A471A471A471A470E
:104920001A471A471A471A471A471A471A471A477F
:104930001A471A471A471A471A471A471A471A476F
:104940001A471A471A471A471A471A471A471A475F
:104950001A471A471A471A471A471A471A471A474F
:104960001A471A471A481A481A481A481A481A4839
:104970001A481A281A271A271A271A271A281A280B
:104980001A281A071A281A071A0719E71A071A07FE
:104990001A281A471A271A471A471A471A471A474E
:1049A0001A481A481A481A271A471A481A481A471A
:1049B0001A481A471A471A471A471A471A481A48EC
:1049C00064B46CB46CD46CD46CD46CD46CD474D427
:1049D00074D474D474D47CD47CF47CF47CF47CF4EF
:1049E00084F484F484F484F484F48CF48D148CF4CE
:1049F0008CF48D148D148D148D148D148D148D14D0
:104A00008CF48CF48D148CF48CF48CF48D148D1443
:104A10008D148D148D148CF48CF48CF48CF48CF433
:104A20008D158D148CF48CF48CF48CF48CF48CF443
:104A30008CF48CF48CF48CF48CF48CF48CF48CF476
:104A40008CF48D148CF48CF48CF48CF48CF48CF445
:104A50008CF48CF48D148CF48CF48CF48CF48CF435
:104A60008CF48CF48CF48CF48CF48CF495159514F3
:104A70008CF48CF4951494F494F494F48CF48CF4F5
:104A80008CF48D148CF48CF48CF48CF48CF48CF405
:104A90008CF48CF48CF48CF48CF48CF48CF48CF416
:104AA0008CF48CF48CF48D148D148D148D148D1461
:104AB0008D148D158CF48D158CF48CF48D158D154D
:104AC0008D158D158D158D158D158D158D158D15D6
:104AD0008D158D158D158D158D158D158D158D14C7
:104AE0008D148D148D148D148D158D148D148D14BD
:104AF0008D148D148D148D158D158D158CF48D14CC
:104B00008D148CF48CF48CF484F484D484F484F4C4
:104B100084F484F484F484F484F484F484F484F3D6
:104B2000747063EE538C4B2A4B2943283AE742E7D3
:104B300043073B083B0843283B083B0832A732A702
:104B400032E83AE742C642C542C542C54B055BC59D
:104B50005BA35BA164026C216421640153E04BA060
:104B6000438143A33BA72BAE0B2F0B2F032F032F08
:104B7000030F0B0F12ED126A1A491A481A481A4805
:104B80001A2819E71A071A071A071A071A281A27DC
:104B90001A271A271A281A481A471A471A471A476B
:104BA0001A471A471A471A471A471A471A471A47FD
:104BB0001A471A471A471A471A471A471A471A47ED
:104BC0001A471A471A471A471A471A471A471A47DD
:104BD0001A471A471A471A471A471A471A471A47CD
:104BE0001A471A471A481A481A481A481A481A48B7
:104BF0001A481A281A271A271A271A271A271A288A
:104C00001A281A281A271A271A271A0719E71A071B
:104C10001A271A471A471A471A471A471A471A47AC
:104C20001A481A481A481A271A471A481A481A27B7
:104C30001A471A471A471A471A471A471A481A486A
:104C400064B464B46CD46CD46CD46CD46CD46CD4B4
:104C500074F474D474D474F47CF47CF47CF484F52B
:104C600084F484F484F484F484F48D148D148D1409
:104C70008D148D148D148D148D148D148D148D142C
:104C80008CF48CF48CF48D148CF48CF48CF48D14E2
:104C90008D148D148D148D148D148D158D158D140A
:104CA0008D148D148D148D158CF48CF48CF48D145E
:104CB0008D148D158D158CF48CF48CF48D148CF46E
:104CC0008CF48CF48CF48CF48CF48CF48CF48CF4E4
:104CD0008D148D148D148CF48CF48CF48CF48CF471
:104CE0008CF48CF48CF48CF48CF48CF48CF48CF4C4
:104CF0008CF48CF4951495149514951494F48CF408
:104D00008CF48CF48CF48CF48CF48CF48CF48CF4A3
:104D10008D148CF48CF48CF48CF48CF48CF48CF472
:104D20008CF48D148D148D148D148D148D148D149C
:104D30008D148D158D158D158D158D158D158D1564
:104D40008D158D158D158D158D158D158D158D1553
:104D50008D158D148D148D158D158D158D158D1545
:104D60008D148D148D148D148D148D148D148D143B
:104D70008D148D148D148D148D148CF48D148D144C
:104D80008D148D148CF484F484F484F484F484F409
:104D900084F484F484F484F484F47CF47CF484F463
:104DA0007CD37CD3640F430A4B2943284308430830
:104DB00043284308432843084308430842E742E89E
:104DC0003AE83AC732853AA642C642C542E54B6543
:104DD0005BC45BA263C16C416C4164005BE04B80CF
:104DE0004B8143833BA723AE0B2F032F032F030FCE
:104DF000030F0B0F130E126A12481A481A481A486A
:104E00001A2711E71A071A271A071A0722481A271A
:104E10001A271A271A281A481A471A471A471A47E8
:104E20001A471A471A471A471A471A471A471A477A
:104E30001A471A471A471A471A471A471A471A476A
:104E40001A471A471A471A471A471A471A471A475A
:104E50001A471A471A471A471A471A471A471A474A
:104E60001A471A471A471A481A481A271A271A2798
:104E70001A271A271A271A271A271A271A271A272A
:104E80001A271A281A271A271A281A271A071A2738
:104E90001A271A271A471A471A471A471A471A474A
:104EA0001A471A281A281A271A271A271A481A4797
:104EB0001A471A471A471A471A471A471A471A48E9
:104EC00064B464B46CD46CD46CD46CD46CD46CD432
:104ED00074F474D474D474F47CF47CF47CF47CF4B2
:104EE00084F484F484F484F484F48CF48D148D14A8
:104EF0008D148D148D148D148D148D148D148D14AA
:104F00008CF48CF48CF48CF48CF48CF48CF48CF4A1
:104F10008D148D148CF48D148D148D158D158D14A8
:104F20008D148D148D148D158CF48CF48CF48D14DB
:104F30008D148D148CF48CF48CF48CF48D148CF40E
:104F40008CF48CF48CF48CF48CF48D148D148D14FE
:104F50008D148D148D148CF48CF48CF48CF48CF4EE
:104F60008CF48CF48CF48CF48CF48CF48CF48CF441
:104F70008CF495149514951495149514951494F433
:104F80008CF48CF48CF48CF48CF48CF48CF48CF421
:104F90008CF48CF48CF48CF48CF48CF48CF48CF411
:104FA0008CF48D148D148D148D148D1495148D1412
:104FB0008D148D158D158D158D158D158D158D15E2
:104FC0008D158D158D158D158D158D158D158D15D1
:104FD0008D158D148D148D158D158D158D158D15C3
:104FE0008D158D148D148D148D148D148D148D14B8
:104FF0008D148D148D148CF48CF48D148D148D14EB
:105000008D148D148CF484F484F484F484F484F486
:1050100084F484F484F484F484F47CD47CD47CD448
:105020007CD47CD47CF35BCD432A432943084308DA
:10503000430843284328430843084B0842E74B08EA
:105040004308430842E73AA632853AA542E643259B
:1050500053645BA26C016C416C2064005BE04B808C
:105060004B8143833BA723AD030F032F030F030F94
:10507000030F030F0AEE0A6A12481A481A481A2840
:105080001A071A0719E71A071A0711E71A281A4800
:105090001A271A281A481A481A471A471A471A4745
:1050A0001A471A471A471A471A471A471A471A47F8
:1050B0001A471A471A471A471A471A471A471A47E8
:1050C0001A471A471A471A471A471A471A471A47D8
:1050D0001A471A471A471A471A471A471A471A47C8
:1050E0001A471A471A471A471A471A271A271A2718
:1050F0001A271A271A271A281A281A271A271A27A6
:105100001A271A271A271A271A271A271A271A07B7
:105110001A271A271A471A481A481A471A471A47C5
:105120001A471A471A471A481A271A271A481A48B4
:105130001A471A471A471A471A471A471A471A4767
:1051400064B464B46CB46CD46CD46CD46CD474D4C7
:1051500074D474D474D47CF47CF47CF47CF47CF447
:1051600084F484F484F48CF48CF48CF48CF48D1436
:105170008D148D148D148D158D158D148D148D1425
:105180008CF48CF48CF48CF48CF48CF48CF48CF41F
:105190008CF48CF48CF48D148D148CF48D158D1589
:1051A0008D158D148D148D158D158CF48CF48D1436
:1051B0008D148CF48CF48CF48CF48CF48CF48D14AD
:1051C0008D148D148D148D148D148D148D148D14D7
:1051D0008CF48CF48CF48D158D158D158D158D1525
:1051E0008D158D158D158D158D158D148D148D14B2
:1051F0009514951495149514951495149514951467
:10520000951495148D158CF48CF48CF48CF48CF42A
:105210008CF48CF48CF48D148CF48CF48D148CF44C
:105220008D148D1495149514951495149514951446
:105230008D148D158D158D158D158D158D158D155F
:105240008D158D158D158D158D158D158D158D154E
:105250008D158D158D158D158D158D158D158D153E
:105260008D158D148D148D148D148D148D148D1435
:105270008D148D148D148CF48CF48CF48CF48CF4CB
:105280008CF48CF48CF48CF484F484F484F484F43E
:1052900084F484F484F484F484F47CF47CD47CD4A6
:1052A0007CF47CD47CD37CD35BCE430A430942E8B4
:1052B000430843294B294B084B084B084AE742E86F
:1052C000430843293AE83AC732A6328542E642E625
:1052D00053666BE474426C416420642064215BE09B
:1052E0004B8143833B8723AD030E032F032F030F13
:1052F000032F030F0B0E0AAB12491A481A481A283B
:1053000019E71A071A0719E71A071A071A071A28B6
:105310001A481A281A281A481A471A471A471A47C1
:105320001A471A471A471A471A471A471A471A4775
:105330001A471A471A471A471A471A471A471A4765
:105340001A471A471A471A471A471A471A471A4755
:105350001A471A471A471A471A471A471A471A4745
:105360001A471A471A471A471A471A271A271A2795
:105370001A271A481A481A281A281A281A481A489E
:105380001A471A481A271A271A271A271A281A07F3
:105390001A271A271A481A481A481A481A471A4741
:1053A0001A471A471A471A471A271A271A471A4735
:1053B0001A481A471A471A471A471A471A471A47E4
:1053C00064B46CB46CB46CD46CD46CD46CD474D43D
:1053D00074D474D474D47CF47CF47CF47CF47CF4C5
:1053E00084F484F484F48CF48CF48CF48CF48D14B4
:1053F0008CF48CF48CF48CF48CF48D148D148D144A
:105400008CF48CF48CF48CF48CF48CF48CF48CF49C
:105410008CF48CF48CF48CF48D148CF48CF48CF46B
:105420008D158D148D148D158D158CF48CF48CF4D4
:105430008D148CF48CF48D148D148D158CF48CF4E7
:105440008CF48CF48CF48CF48CF48CF48CF48CF45C
:105450008CF48CF48CF48CF48CF48CF48CF48D152A
:105460008D158D158D158D158D158D148CF48CF471
:105470008CF495149514951495149514951495140D
:10548000951495158D158D158D158D158D158CF41F
:105490008CF48CF48CF48CF48CF48CF48D148CF4EB
:1054A0008CF4951494F495149514951495149514FE
:1054B0009514951495158D158D158D158D158D15C6
:1054C0008D158D158D158D158D158D158D158D15CC
:1054D0008D158D158D158D158D158D158D158D15BC
:1054E0008D158D148D148D148D148D148D148D14B3
:1054F0008D148D148D148D158CF48CF48CF48D1406
:105500008CF48CF48CF48CF484F484F484F484F4BB
:1055100084F484F484F484F47CF47CF47CD47CF40B
:105520007CF47CF47CD47CF37CD35BCD430A4309CC
:1055300043084B094B295329532953084B284AE860
:10554000430843093B083B083AE73AC73AE73AA61B
:105550003AA45B8374436C416C20642064005C015A
:1055600053C143A33BA723AD030E032F030F030F28
:10557000030F030F0B0E12ED126A12481A481A2875
:1055800019E719E71A071A071A071A281A071A2813
:105590001A281A481A281A481A471A471A471A473F
:1055A0001A471A471A471A471A471A471A471A47F3
:1055B0001A471A471A471A471A471A471A471A47E3
:1055C0001A471A471A471A471A471A471A471A47D3
:1055D0001A471A471A471A471A471A471A471A47C3
:1055E0001A471A471A471A471A471A271A271A2713
:1055F0001A271A481A481A281A281A281A481A481C
:105600001A481A471A271A471A271A481A481A28EE
:105610001A271A481A481A481A481A481A471A479D
:105620001A471A471A471A471A481A271A271A27D1
:105630001A471A471A471A481A481A481A481A485D
:1056400064B46CB46CB46CD46CD46CD46CD474D4BA
:1056500074D474D474D47CF47CF47CF47CF47CF442
:1056600084F484F484F484F484F48CF48CF48CF462
:105670008CF48CF48CF48CF48CF48CF48CF48CF42A
:105680008CF48CF48CF48CF48CF48CF48CF48CF41A
:105690008CF48CF48CF48CF48D148D148D148CF4A7
:1056A0008D148D148D148D148D148CF48CF48CF455
:1056B0008D148D148CF48D158D158D158D158D15FE
:1056C0008D158D158D158D158D158D158D158CF4EC
:1056D0008CF48CF48CF48CF48CF48CF48CF48D15A8
:1056E0008D158D148D148D148D148CF48CF48CF414
:1056F0008CF48CF4951495149514951495149514B4
:1057000095148D158D158D1595158D158D158CF49C
:105710008CF48CF48CF48CF48CF48CF48CF48CF489
:105720008CF494F494F494F49514951495149514BD
:1057300095149514951495148D148D148D148D1441
:105740008D148D148D148D148D148D158D158D154E
:105750008D158D158D158D158D158D158D158D1539
:105760008D158D158D158D148D148D148D148D142E
:105770008D148D148D148D158D158CF48CF48D1461
:105780008CF48CF48CF48CF484F484F484F484F439
:1057900084F484F484F47CF47CF47CF47CD47CF491
:1057A0007CF47CF47CF47CD47CD384D2534B4B0AC1
:1057B00053095308530853284B284B2842E742C744
:1057C0003AC73AE83AE83AE83B083B083AE83AA7E9
:1057D00032233A80744374616C616C4064206401CC
:1057E00053E243823BA723AD030E032F030F030FA6
:1057F000030F030F030E12ED0A6A12481A481A2803
:1058000019E719E719E71A071A271A281A281A2771
:105810001A481A481A481A481A471A471A471A477C
:105820001A471A471A471A471A471A471A471A4770
:105830001A471A471A471A471A471A471A471A4760
:105840001A471A471A471A471A471A471A471A4750
:105850001A471A471A471A471A471A471A471A4740
:105860001A471A471A471A471A471A271A271A2790
:105870001A271A481A481A481A481A481A481A4839
:105880001A481A481A271A471A471A481A481A482B
:105890001A481A471A471A481A481A471A471A47FD
:1058A0001A471A471A471A471A471A271A271A2750
:1058B0001A271A471A481A481A481A481A481A48FA
:1058C00064B46CB46CD46CD46CD46CD46CD474D319
:1058D00074D474D474D47CF47CF47CF47CF47CF4C0
:1058E00084F484F484F484F484F48CF48CF48CF4E0
:1058F0008CF48CF48CF48CF48CF48CF48CF48CF4A8
:105900008CF48CF48CF48CF48CF48CF48CF48CF497
:105910008CF48CF48CF48CF48D148D148D148CF424
:105920008D148D148D148D148D148D158D158D156C
:105930008D158D158D158D159515951595158D153F
:105940008D158D158D158D158D158D158D1595153F
:1059500095158D158D158D158D15951595158D151F
:105960008D158D148D148D148D148D148CF48CF470
:105970008CF48CF49514951495148D148D148D1449
:105980008D148D158D158D158D158D158D158CF42A
:105990008CF48CF48CF48CF48CF48D159515951591
:1059A00094F494F494F494F4951495149514951433
:1059B000951495149514951495148D148D148D14B7
:1059C0008D148D14951495149514951595158D15A4
:1059D0008D158D158D158D158D158D158D158D15B7
:1059E0008D158D158D158D148D148D148D148D14AC
:1059F0008D148D148D148D158D158CF48CF48CF400
:105A00008CF48CF48D148CF484F484F484F484F495
:105A100084F484F484F47CF47CD47CD47CF47CF42E
:105A20007CF47CF47CF47CD47CD384D37C916BEECA
:105A3000638B5B085B084B084B084B0842E73AA6B0
:105A40003AC73AE832E83AE83B083AE83AE83AA78F
:105A50003A8542E26C246C216C206C2064205BC08F
:105A60004BA14BA33BC723AD030E032F032F030F03
:105A7000030F030F0B0E0AED0A6A12481A481A2781
:105A800019E719E719E71A071A281A281A271A27EF
:105A90001A271A271A481A481A471A471A471A473C
:105AA0001A471A471A471A471A471A471A471A47EE
:105AB0001A471A471A471A471A471A471A471A47DE
:105AC0001A471A471A471A471A471A471A471A47CE
:105AD0001A471A471A471A271A271A471A471A47FE
