:020000040800F2
:10000000E0070020ED010008AD180008A91700085E
:10001000A918000881070008211B00080000000043
:10002000000000000000000000000000051B0008A8
:100030008507000800000000B1180008091B00082F
:10004000070200080702000807020008070200086C
:10005000070200080702000807020008070200085C
:10006000070200080702000807020008070200084C
:10007000070200080702000807020008070200083C
:10008000070200080702000807020008070200082C
:10009000070200080702000807020008070200081C
:1000A000070200080702000807020008070200080C
:1000B00007020008070200080702000807020008FC
:1000C00007020008070200080702000807020008EC
:1000D00007020008070200080702000807020008DC
:1000E00007020008070200080702000807020008CC
:1000F00007020008070200080702000807020008BC
:1001000007020008070200080702000807020008AB
:10011000070200080702000807020008070200089B
:10012000070200080702000807020008070200088B
:10013000070200080702000807020008070200087B
:10014000070200080702000807020008070200086B
:10015000070200080702000807020008070200085B
:10016000070200080702000807020008070200084B
:10017000070200080702000807020008070200083B
:10018000070200080702000807020008070200082B
:10019000070200080000000007020008070200082C
:1001A000070200080702000807020008070200080B
:1001B00007020008070200080702000807020008FB
:1001C00007020008070200080702000807020008EB
:1001D0000702000807020008DFF80CD000F02AFA36
:1001E00000480047C9250008E0070020064880476E
:1001F00006480047FEE7FEE7FEE7FEE7FEE7FEE70C
:10020000FEE7FEE7FEE7FEE70D1B0008D901000848
:10021000D2B201E000F8012B491EFBD27047002248
:10022000F6E710B513460A4604461946FFF7F0FFF5
:10023000204610BD30B50B46014600202022012487
:1002400009E021FA02F59D4205D303FA02F5491BA4
:1002500004FA02F52844151EA2F10102F1DC30BDBA
:100260002DE9F05F0546002092469B4688460646EB
:10027000814640241BE0284641464746224600F07E
:1002800000FA53465A46C01A914110D311461846F7
:10029000224600F0E7F92D1A67EB01084F46224687
:1002A0000120002100F0DEF917EB00094E41201E6D
:1002B000A4F10104DFDC484631462A464346BDE846
:1002C000F09F2DE9FE4F804681EA0300C00F0C46E7
:1002D000009021F0004123F00045B8EB0200A94155
:1002E00005D24046214690461C460B46024623F066
:1002F0000040104347D0270DC7F30A00C3F30A514B
:100300000290401A019040286BDAC3F3130040F4C6
:10031000801B0098924620B10023D2EB030A63EBC6
:100320000B0B01985946C0F14002504600F09AF973
:1003300006460D4650465946019A00F0B2F910EBB8
:1003400008006141002487EA115284EAE7731A43E6
:1003500040D0009A62B3019A012A4FEA075215DC95
:10036000001B61EB02014FF0004202EA0752CDE9A7
:100370000042001C41F5801132462B4600F0B2F9D4
:1003800003B0BDE8F08F40462146F9E7001B61EB62
:100390000201001C41F5801300185B412018A2F5F2
:1003A000001747EB030140EAD570B6196D4111E023
:1003B0006D084FEA360645EAC0754FEA0752001B42
:1003C00061EB0201001C41F5801149084FEA300041
:1003D0000019514132462B4603B0BDE8F04F00F002
:1003E00072B90098012240000023D0EB020263EBB7
:1003F000E073009821464FEAE074B8EB000061EB2F
:100400000401E9E783F000435BE781F0004158E72E
:100410002DE9FE4F81EA030404F0004421F000417D
:1004200000944FF0000B23F0004350EA01045ED02B
:1004300052EA03045BD0C3F30A54C1F30A552C44B7
:10044000A4F2F3340194A0FB0254C1F3130141F46C
:100450008011C3F3130343F4801301FB024400FB38
:10046000034E840A970A44EA815447EA8357A4FB5F
:10047000076802958D0A05FB07854FEA932C04FB5C
:100480000C542705029D4FEA065847EA1637B5EB8C
:1004900008056EEB070C870E920E47EA811742EAB9
:1004A0008312A7FB0201B6EB0B0164EB00042B0DDA
:1004B00043EA0C335E1844EB1C50DA465146E7FB26
:1004C0000201C5F313044FEA0B3343EA14534FEA16
:1004D0000432019C43EA0603A4F10C040294009C3C
:1004E000CDE900B400F0FEF803B0BDE8F08F0020C5
:1004F0000146F9E72DE9F04D81EA030404F0004BD1
:1005000021F0004514464FF0000A23F0004150EA64
:10051000050220D054EA01021DD0C5F30A57024655
:10052000C5F31303C1F31300C1F30A5640F4801559
:1005300043F48013A7EB0608101BD64608F2FD38DB
:1005400073EB050002D308F1010801E092185B414A
:10055000B8F1000F03DA00200146BDE8F08D00205D
:100560004FF48011064684460EE0171B73EB050717
:1005700005D3121B63EB050306434CEA010C490843
:100580004FEA300092185B4150EA0107EDD152EA80
:10059000030012D082EA040083EA0501084305D073
:1005A000101BAB4106D20122002306E000224FF0CF
:1005B000004302E06FF0010253101AEB06004CEB0F
:1005C000085110EB0A0041EB0B01BDE8F04D00F0C3
:1005D0007AB8C1F30A52C1F3130140F2FF3341F478
:1005E00080119A4202DA00200146704740F23343FC
:1005F0009A42A2F2334202DC524200F042B800F0CA
:1006000031B8000030B5041E71F1000404DB4FF076
:100610000044404264EB0101141E73F1000405DB49
:100620001C464FF00043524263EB0403994208BF5B
:10063000904230BD1CB5094800900948019005461C
:10064000009C06E0E06840F0010394E8070098474A
:100650001034AC42F6D3FFF7C3FD00009C960008AF
:10066000BC960008202A04DB203A00FA02F10020A0
:1006700070479140C2F1200320FA03F319439040E0
:100680007047202A04DB203A21FA02F0002170474B
:1006900021FA02F3D040C2F12002914008431946EA
:1006A0007047202A06DBCB17203A41FA02F043EAD2
:1006B000E07306E041FA02F3D040C2F1200291401B
:1006C00008431946704710B5141E73F1000408DA88
:1006D000401C41F1000192185B411A4301D120F006
:1006E000010010BD2DE9F04D92469B4611B1B1FAC3
:1006F00081F202E0B0FA80F220329046FFF7B2FFBA
:1007000004460F4640EA0A0041EA0B0153465A46A6
:10071000084313D0114653EA010019D0C8F1400232
:100720005046FFF7AEFF05460E4650465946424634
:10073000FFF798FF084305D0012004E02046394622
:10074000BDE8F08D0020054346EAE0762C433743B0
:100750000A986305E40AA0EB08000022FD0A44EAB7
:1007600047540A3002D500200146E9E70105101977
:100770006941DDE9084500196941BDE8F04DA2E78E
:10078000FEE7000070470000EFF3108072B600BF74
:10079000FEE70000B0B5044600F0F0F8054640F270
:1007A0000000C2F200004068611C18BF044400BF92
:1007B00000F0E4F8401BA042FAD3B0BD2DE9F04FA1
:1007C00083B00E68002E00F0CF8000F1200241F2CD
:1007D000004C009200F13847C4F6000C06224FEAA4
:1007E000B725604508BF0522052D38BF4FEAB7225F
:1007F000002500274FF0000801920AE00E6808F17A
:10080000010836FA08F207F1020705F1040500F0C5
:10081000AB80012202FA08FE16EA0E09EED0D1F8EA
:1008200004C003220CF0030BABF1010602FA07F43B
:10083000012E6FEA040A11D88468CE6804EA0A041B
:10084000BE4034438460446824EA0E06CCF30014AE
:1008500004FA08F42643466006E000BFBBF1030F2C
:1008600002D14FF0030B21E0C6688C6806EA0A0645
:10087000BC402643BBF1020FC66017D16FF00302E4
:10088000009B02EA580605F01C020F2453F806C02C
:1008900004FA02FE0C692CEA0E0C04FA02F242EA97
:1008A0000C029A51D1F804C00CF0030B02680BFA49
:1008B00007F302EA0A021A431CF4403F02609DD08B
:1008C00041F26003C4F202031A6840F2004E42F0A3
:1008D00001021A601A68C4F2010E02F001020292CB
:1008E000029A28F003024FF6084C7244CFF6FF7CC0
:1008F00052F80C3005F00C060F24B440A343019CC1
:1009000004FA06F6334342F80C30DEF808204B6850
:1009100042EA090640F20C4CDC0258BF22EA090602
:10092000CEF80860C4F2010CDCF800209C0242EA18
:10093000090658BF22EA0906CCF80060DEF8042058
:100940009C0342EA090658BF22EA0906CEF8046071
:10095000DEF80020DB0342EA090658BF22EA090656
:10096000CEF800604AE700BF03B0BDE8F08F00009A
:100970001823002A08BF2823C150704740F2DC30FA
:10098000C2F200000068704740F2000040F2DC3123
:10099000C2F20000C2F2000140680A681044086018
:1009A0007047000080B5032000F07AF80F2000F0B7
:1009B00009F800281CBF012080BD00F02BF80020A2
:1009C00080BD0000B0B540F20005C2F200056968C4
:1009D000F1B1044640F20800C2F200004FF47A720E
:1009E0000068B2FBF1F1B0FBF1F000F0C7FE014688
:1009F0000F2C4FF001000AD8002918BFB0BD4FF0EE
:100A0000FF302146002200F01FF800202C60B0BD0E
:100A10000120B0BD82B041F25800C4F202008168EA
:100A200041F001018160816801F0010101910199AA
:100A3000016841F080510160006800F08050009032
:100A4000009802B000F0C4B810B54EF60C5CCEF2BF
:100A5000000CDCF80030C3F3022E8EF00704042CE7
:100A600028BF0424BEF103034FF0FF3E0EFA04F446
:100A700038BF0023A14399400EFA03F39A43114370
:100A800000F00F0200F160430901043A03F56443EA
:100A90006244002848BF02F10C03197010BD000029
:100AA0004EF60C51CEF200010A684FF6FF031A40D1
:100AB00060F30A2242F0806040F0FD7008607047E9
:100AC00047F21401C4F2000151F8142CB0F5007F74
:100AD0003CD0002874D1C86E02F4C06220F480704B
:100AE000B2F5806FC8662FD151F8140C012262F361
:100AF0004A2041F8140C40F20800C2F200000068DD
:100B0000322250434DF68362C4F21B32A0FB020234
:100B1000900C00BF0A68520511D5421C0FD00A681C
:100B200052050CD558B10A68520508D5012806D0DF
:100B30000A68520503D50228A0F10400EAD108682A
:100B4000400544BF0320704700207047C86E02F480
:100B5000C06240F48070B2F5806FC866F4D151F87D
:100B6000140C012262F34A2041F8140C40F20800F0
:100B7000C2F200000068322250434DF68362C4F294
:100B80001B32A0FB0202900C0A68520511D5421CD0
:100B90000FD00A6852050CD558B10A68520508D51D
:100BA000012806D00A68520503D50228A0F10400E6
:100BB000EAD10868400544BF03207047C4E700BF7E
:100BC000022060F34A2241F8142C002070470000F4
:100BD00047F20800C4F20000016841F4804101605E
:100BE000704700002DE9F047002863D042F2000A68
:100BF000C4F2020A0446DAF800000D4600F00F00C5
:100C000088420CD2DAF8000020F00F002843CAF81E
:100C10000000DAF8000000F00F00A8424AD1216875
:100C200041F20808C807C4F2020803D1880740F15E
:100C3000D080B5E0606858F8082C022838D0032826
:100C40003CD1920136D5D8F80420D8F8043042F2CD
:100C50000046C3F3031302F00302D8F80470013313
:100C6000C0F2F406032A04BF41F20026C0F27A065D
:100C7000B6FBF3F2D8F80430C7F306277A43C3F380
:100C80004163022707EB4303B2FBF3F24BF200434D
:100C9000C0F2C4439A4259D9D8F8002012F0F00F9C
:100CA00049D0890752D5A16800294FD143E000BF40
:100CB000910305D40120BDE8F08700BF5105F9D5A7
:100CC000D8F8001001F00C0104293FD0D8F800102A
:100CD00001F00C01082939D0D8F8001001F00C01FE
:100CE0000C2933D1D8F80410D8F8042042F2004778
:100CF000C2F3031201F00301D8F804300132C0F24C
:100D0000F407032904BF41F20027C0F27A07B7FBBA
:100D1000F2F1D8F80420C3F306235943C2F3416229
:100D2000022303EB4202B1FBF2F14BF20042C0F2AC
:100D3000C44291420AD9D8F80010082262F3071180
:100D40004FF00109C8F8001002E000BF4FF00009A1
:100D5000D8F8001021F003010843C8F80000FFF79D
:100D60000DFE064641F28837D8F80000616800F0B1
:100D70000C00B0EB810F07D0FFF700FE801BB842DC
:100D8000F2D90320BDE8F0872168880708D4B9F1BB
:100D9000000F1ED0D8F8000020F0F00017E000BFD0
:100DA000480705D5D8F8000040F4E060C8F8000016
:100DB000080706D5D8F80000072262F30D20C8F80E
:100DC0000000D8F80000A26820F0F0001043C8F836
:100DD0000000DAF8000000F00F00A8421BD9DAF892
:100DE000000020F00F002843CAF80000FFF7C6FDFE
:100DF000064641F2883700BFDAF8000000F00F0025
:100E0000A84207D0FFF7BAFD801BB842F4D90320EF
:100E1000BDE8F0872168480707D5D8F80000E268E8
:100E200020F4E0601043C8F80000080708D5D8F89F
:100E30000000216920F4605040EAC100C8F80000B9
:100E4000D8F8000042F20041C0F2F40100F00C00BA
:100E5000042808462DD0D8F8000000F00C0008281F
:100E600041F20020C0F27A0023D0D8F8002002F02E
:100E70000C020C2A1CD1D8F80420D8F8043002F057
:100E80000302C3F30313D8F804700133032A08BF25
:100E90000146B1FBF3F0D8F80410C7F30627C1F3FD
:100EA00041610222784302EB4101B0FBF1F000E026
:100EB0000020D8F8001043F23002C1F30311C0F64D
:100EC0000002515C40F2080201F01F0120FA01F11A
:100ED00040F20000C2F200000068C2F2000211609D
:100EE000BDE8F047FFF76EBD002804BF0120704742
:100EF0002DE9F04182B00446007841F20006C007B7
:100F0000C4F202061ED1207880073DD42078000765
:100F100064D42078400700F187802078800600F1B3
:100F2000D980E569002D00F04282B06800F00C0025
:100F30000C2840F03181012D40F08E81012002B05B
:100F4000BDE8F081B06800F00C01F068082961D0BC
:100F5000032281F00C0122EA00000844B0FA80F07C
:100F6000400957D161683068B1F5803F07D0B1F5CD
:100F7000A02F40F0E38040F480203060306840F4DF
:100F800080303060E4E000BFB068F16800F00C0031
:100F9000042871D001F0030180F00C0081F00201FF
:100FA0000844B0FA80F0400966D1E1683068002951
:100FB00000F0E08040F480703060FFF7DFFC054611
:100FC0003068400500F10A81FFF7D8FC401B022879
:100FD000F6D9032002B0BDE8F08100BF6169D6F800
:100FE0009400002900F0948040F00100C6F89400BD
:100FF000FFF7C4FC054600BFD6F8940080073FF514
:1010000088AFFFF7BBFC401B0228F5D9032002B0D4
:10101000BDE8F081306880037FF575AF6068002817
:101020007FF471AF3EE000BFB06D5FEAC00808D446
:10103000B06D40F08050B065B06D00F08050019010
:10104000019847F20007C4F200073868C0052DD4A4
:10105000386840F480703860FFF790FC054600BFA8
:101060003868C00522D4FFF789FC401B0228F7D955
:10107000032002B0BDE8F0813068400501D5E0688A
:1010800080B17068216920F0FE4040EA0160706024
:1010900040F20000C2F200000068FFF793FC002855
:1010A0003FF434AF012002B0BDE8F081A168D6F86A
:1010B0009000012908D0052940F0AE8040F00400DE
:1010C000C6F89000D6F8900040F00100C6F89000F5
:1010D000AEE000BFA169D6F89800002900F0868034
:1010E00040F00100C6F89800FFF748FC054600BF35
:1010F000D6F8980080073FF514AFFFF73FFC401B80
:1011000002284FF00300F3D902B0BDE8F08100BF20
:1011100020F00100C6F89400FFF730FC054600BF40
:10112000D6F8940080077FF5F4AEFFF727FC401B4C
:101130000228F5D9032002B0BDE8F08120F4803008
:1011400030603068002920F48020306000F0BE80DC
:10115000FFF714FC054600BF306880033FF5D3AEAF
:10116000FFF70CFC401B6428F6D9032002B0BDE851
:10117000F08100BF20F480703060FFF7FFFB054670
:10118000306840057FF5C2AEFFF7F8FB401B022830
:101190004FF00300F4D9B7E7306820F0807030607A
:1011A000FFF7ECFB022D05460CD100BF3068800133
:1011B00040F1B880FFF7E2FB401B02284FF003002C
:1011C000F4D9A1E73068800140F1EA80FFF7D6FB4F
:1011D000401B02284FF00300F4D995E7706821699D
:1011E00020F0FE4040EA016070608FE620F00100D0
:1011F000C6F89800FFF7C2FB054600BFD6F8980076
:1012000080077FF58EAEFFF7B9FB401B02284FF039
:101210000300F3D978E700BF20F00100C6F8900082
:10122000D6F89000002920F00400C6F890005DD0A8
:10123000FFF7A4FB054641F2883700BFD6F89000BF
:10124000800765D4FFF79AFB401BB842F6D903200C
:1012500002B0BDE8F08100BFF068216A00F003022F
:101260008A427FF41FAF626A6FF00F0300F0F00153
:1012700003EB021291427FF415AFA16A00F4FE4223
:10128000B2EB012F7FF40EAFE16A00F07842B2EBCF
:10129000C16F7FF407AF226B0023CFF6E07303EA40
:1012A000025200F4C001A2F5001291427FF4FAAE9E
:1012B000616B4FF07E4202EA016100F0C06001F113
:1012C0007E4188427FF4EEAE71E000BFFFF756FB2F
:1012D000054600BF306880037FF515AEFFF74EFB73
:1012E000401B64284FF00300F4D90DE7FFF746FBDD
:1012F000054641F2883700BFD6F89000800707D531
:10130000FFF73CFB401BB8424FF00300F4D9FBE66B
:10131000B8F1000F3FF501AEB06D20F08050B06520
:10132000FBE500BFF06848F20C01C0F29F1104F128
:10133000200700EA010C8ECF6FF00F00D4E90C54A7
:1013400000EB02100022CFF6E07241EA0C0102EA43
:1013500005520843A2F500124FF07E4540EA0320F3
:1013600005EA0465104305F17E4540EAC76028435D
:10137000F060306840F080703060F06840F080705D
:10138000F060FFF7FBFA0446306880010FD4FFF7E6
:10139000F5FA001B02284FF00300F5D9B4E600BFB0
:1013A000F0684FF6FC71CFF6EE610840F060002067
:1013B00002B0BDE8F0810000002804BF01207047A2
:1013C000416A19B100210161142104E04168B1F5BD
:1013D000827F02D01C2100224250B0B500258562D8
:1013E00090F85D1029B980F85C50044600F056F87A
:1013F0002046022180F85D100168D0F80CE00B68EF
:10140000BEF5E06F23F040030B6098BF01254EF45A
:101410000063B3F5706F4FEA053C1CBF0025856281
:10142000D0E90154D0E9043205F4827504F404448F
:101430002C4403F002032344846902F00102C569CD
:101440001A4404F400731A4405F03803056A1A4478
:1014500005F08003856A1A4405F400531A430A60B4
:101460000422436A0EF4706502EA1442446B45EAB2
:101470000C0503F010032A4304F008041A43224326
:101480004A60CA6922F40062CA6100210122016631
:1014900080F85D20BDE8B0400846704780B586B052
:1014A000006843F60001C4F2000188424FF00000DA
:1014B0000590CDE90300CDE9010001D006B080BD63
:1014C00041F24C00C4F20200C16841F48041C160A5
:1014D000C16801F4804100910099016841F0020166
:1014E00001600068012100F00200009000984FF4B4
:1014F0002040019002200290CDE9031005200590C4
:1015000040F20040C4F6000001A9FFF757F906B009
:1015100080BD00002DE9F04182B0044690F85C00E7
:10152000012803D1022002B0BDE8F08101201D4650
:101530000F46164684F85C00FFF720FA94F85D1019
:1015400001290DD18046002F4FF0010018BF002E59
:101550000ED1002184F85C1002B0BDE8F08100BF1C
:101560000220002184F85C1002B0BDE8F08100BFC9
:101570000320002284F85D002266A763A687E68721
:101580002264A4F84420A4F84620A0683146B0F5AF
:10159000004F2068E264226507D1026822F0400211
:1015A0000260026842F4804202600268520603D47C
:1015B000026842F04002026062680139E368B2FAF0
:1015C00082F2B1FA81F152094909B3F5E06F41EABB
:1015D00002013BD931B137F8021BC160A763E08F2C
:1015E0000138E087E08F00286ED0681C0BD11CE02A
:1015F000A16B31F8022BC260A163E08F0138E08754
:10160000E08F002860D0206881688907F0D4FFF758
:10161000B5F9A0EB0800A842F2D30320A5E000BF73
:10162000FFF7ACF9E08F00284ED020688168890769
:10163000F6D5A16B31F8022BC260A163E08F0138AF
:10164000E087E08F0028F0D13EE000BF89B1E18F54
:1016500002294FF6FE7103D337F8022BC26004E073
:101660003A7801310273A06B471CA763E08F0844EE
:10167000E087E08F40B3681C5BD04FF6FE70471CDC
:1016800008E000BFFFF77AF9A0EB0800A842C4D237
:10169000E08FC8B1216888688007F3D5E28FA06B1E
:1016A000022A05D330F8022BCA604FF6FE7104E01F
:1016B00000780873A06B39460130A063E08F0844BE
:1016C000E087E08F0028E5D120464FF4C0512A463C
:1016D000434600F0EFF868B920462946424600F03C
:1016E000A9F938B920464FF4C0612A46434600F0B4
:1016F000E1F828B1206E40F020002066202020660E
:10170000A06838B9002001902068C1680191806804
:1017100001900198206E38B30120002184F85C10FC
:1017200002B0BDE8F08100BFFFF728F9E08F002884
:10173000CAD0206881688907F6D5E28FA16B012A9B
:1017400008D931F8022BC260A163E08F0238E0872C
:10175000ECE700BF09780173A06B0130A063E08F54
:101760000138E087E2E700BF0020012184F85D1026
:10177000002184F85C1002B0BDE8F081411E002019
:10178000B0EB116F1CBF012070474EF21002CEF279
:10179000000251604EF62351CEF20001F0230B708F
:1017A0000721906011607047FEE700002DE9F041CD
:1017B00086B0002641F24C000596CDE90366CDE9DE
:1017C0000166C4F202000168002241F020010160BC
:1017D0000168E02501F0200100910099016841F0C5
:1017E00001010160016801F00101009100990168A7
:1017F00041F0020101600068E02100F00200009069
:1018000000984FF09040FFF7B3F840F20044C4F660
:10181000000420464FF4804100224FF48048FFF737
:10182000A7F8019501AD01274FF090402946CDE979
:1018300002760496FEF7C2FF20462946CDE90187CD
:10184000CDE90366FEF7BAFF06B0BDE8F0810000FF
:1018500070B540F2F80043F60001C2F20000C4F295
:1018600000014FF482724FF400434FF4E06C4FF0EC
:10187000020E012480E80E5000F114014FF40075AF
:10188000182670C100210722C0E90811C0E90A1218
:10189000C0E90C11FFF790FD002808BF70BDBDE83E
:1018A0007040FEF771BF0000FEE70000FEE7000099
:1018B000704700002DE9F04782B000261F46904691
:1018C0000D4681468DF80360FFF758F8381A00EB93
:1018D0000807FFF753F840F20801C2F20001096857
:1018E00023225143090DD9F8004079430191A168A1
:1018F000294235D0824618F1010035D0B5F5C06FC8
:101900001AD100BF207B8DF803009DF80300FFF77C
:1019100035F8A0EB0A00B8425ED201980199002880
:10192000A1F101010191D9F80010896808BF0746AB
:1019300011F4C06FE6D112E0FFF720F8A0EB0A0027
:10194000B84249D2019801990028A1F10101019101
:10195000D9F80010896808BF07462942ECD1002653
:10196000304602B0BDE8F0870026B5F5C06F25D13E
:10197000207B8DF803009DF80300A06810F4C06F71
:10198000EDD0207B8DF803009DF80300A06810F4D3
:10199000C06FE4D0207B8DF803009DF80300A068A1
:1019A00010F4C06FDBD0207B8DF803009DF803009E
:1019B000A06810F4C06FDBD1D2E700BFA068284256
:1019C000CDD0A0682842CAD0A0682842C7D0A0685D
:1019D0002842F3D1C4E700BFD9E900014268B1F55C
:1019E000827F22F0E00242600BD1D9F80810B1F5F5
:1019F000004F02D0B1F5806F03D1016821F04001A2
:101A00000160D9F82810B1F5005F07D1016821F411
:101A100000510160016841F400510160012089F822
:101A20005D00002089F85C000326304602B0BDE866
:101A3000F0870000F0B581B015460E460446FEF76B
:101A40009DFF281A8719FEF799FF40F20801C2F29C
:101A500000010968C1F3CB317943009121688A689C
:101A6000120622D50546701C15D000BFFEF786FF72
:101A7000401BB8421CD2009800990028A1F1010136
:101A800000912168896808BF07460806EED40CE07B
:101A90008868000609D58868000606D588680006AB
:101AA00044BF88685FEA0060F2D4002001B0F0BD56
:101AB000D4E900014268B1F5827F22F0E002426081
:101AC0000AD1A168B1F5004F02D0B1F5806F03D102
:101AD000016821F040010160A16AB1F5005F07D102
:101AE000016821F400510160016841F40051016076
:101AF000012084F85D00002084F85C00032001B020
:101B0000F0BD000070470000FEF73EBF4EF6885063
:101B1000CEF20000016841F47001016070470000DE
:101B2000FEE700002DE9F04F8DB00446006801216A
:101B3000112200F027FD052000F0F8F9D4E900019A
:101B400040F24C030A794979C2F2000303EB8202A6
:101B5000535C0221362200F015FD206802213A2252
:101B6000052300F00FFD2068332100220C27CDE96A
:101B7000012103910621B2220C23009700F002FDFF
:101B800020680221B722352300F0FCFC20680221E6
:101B9000BB22192300F0F6FC20680221C0222C236E
:101BA00000F0F0FC20680221C222012300F0EAFCD0
:101BB00020680221C322122300F0E4FC20680221E5
:101BC000C422202300F0DEFC20680221C6220F235D
:101BD00000F0D8FC2068A1270321D022A42300977D
:101BE00000F0D0FC0D22182320680B21CDE908322B
:101BF0000AAB4FF023091F2683E842024C215423ED
:101C00004FF0040A3F252B274FF01308CDE900A21F
:101C10004FF0110BCDE906310F21E022D023CDE9A1
:101C200002B80497059500F0ADFC2F212068CDE99E
:101C3000081620210C22CDE90B194421CDE9012BF6
:101C40002C225127CDE9042506910F21E122D02332
:101C50000A96CDF800A0CDF80C80079700F092FC12
:101C600020680121212200F08DFC20680121292219
:101C70000DB0BDE8F04F00F085BC00002DE9F04F3D
:101C80008DB0044600680121112200F07BFC052084
:101C90004FF0050900F04AF9D4E9000140F24C0385
:101CA0000A794979C2F2000303EB8202535C0221F4
:101CB00036224FF0360800F065FC206802213A22F7
:101CC000052300F05FFC20680C214FF0330B4FF030
:101CD000000A8DE8020C0621B2220C23CDF80CB0CC
:101CE00000F050FC20680221B722352300F04AFCA6
:101CF00020680221BB22352300F044FC2068022129
:101D0000C0222C2300F03EFC20680221C2220123C5
:101D100000F038FC20680221C322132300F032FCBB
:101D200020680221C422202300F02CFC206802211C
:101D3000C6220F2300F026FC2068A1270321D02211
:101D4000A423009700F01EFC20680221D622A123C4
:101D500000F018FC302120682827122238230C912B
:101D60000421CDE90832CDE90A273E252926CDE90F
:101D700000A1CDE902110F21E022F023CDE9049664
:101D8000CDF818B0079500F0FDFB14222068322131
:101D9000CDE90882CDE90A260B220D230C910721FB
:101DA0000A26CDE9023204AACDE9001682E88208AB
:101DB0000F21E122F023079500F0E4FB20680121C8
:101DC000212200F0DFFB20680121112200F0DAFB64
:101DD000782000F0ABF82068012129220DB0BDE881
:101DE000F04F00F0CFBB00002DE9F04F8DB004465E
:101DF00000680121112200F0C5FB052000F096F8D3
:101E0000D4E9000140F24C030A794979C2F2000397
:101E100003EB8202535C0221362200F0B3FB206800
:101E200002213A22052300F0ADFB206800210C229C
:101E30003327CDE900210621B2220C230297039714
:101E400000F0A0FB20680221B722352300F09AFBA6
:101E500020680221BB22322300F094FB206802217B
:101E6000C222012300F08EFB20680221C322152329
:101E70004FF0150800F086FB20680221C4222023C1
:101E800000F080FB20680221C6220F2300F07AFBBD
:101E90002068A1270321D022A423009700F072FB21
:101EA0003421206831250C91052114264FF01709A3
:101EB000CDE90A854FF0480C4FF009084FF00E0AA3
:101EC0004FF0080BCDE9041533270F21E022D02372
:101ED000CDE90896CDE900BACDE902880697CDF89C
:101EE0001CC000F04FFB3422206815210C9204AA7C
:101EF000CDE90A15A2C20F21E122D0234827CDE95E
:101F00000896CDE900BACDE90288079700F03AFBC0
:101F100020680121212200F035FB206801212922BF
:101F20000DB0BDE8F04F00F02DBB0000FEF732BC55
:101F30002DE9F04F85B00446DDE90EC6581A8B46F0
:101F4000411C206AACEB020707F1010877BA039243
:101F500050B18EB2002E00F08C80042E06F0030EDD
:101F60006AD2002276E000BF1FFA88F000280290B3
:101F700000F091808DB2002D00F08D8040F20C06B3
:101F80000021C2F2000600BF03984FF0000901EBE8
:101F900000080491206801212A2209EB0B0A00F0B5
:101FA000F1FAD4E900010A79497906EB021212F834
:101FB0002110514489B200F0B1FAD4E900010A7944
:101FC000497906EB021202EB81014978514489B24A
:101FD00000F0A4FA206801212B2200F0D3FAD4E902
:101FE00000010A79497906EB021202EB8101897836
:101FF000414489B200F092FAD4E900010A794979A2
:1020000006EB021202EB8101C978414489B200F06B
:1020100085FA206801212C2200F0B4FA20683946A4
:1020200000F07CFA09F101094D45B3D104990298F9
:1020300001318142A8D12EE026F00301A0F108056C
:10204000002200BF043225F8087F91426F80AF80E4
:10205000EF80F7D1BEF1000F0BD0BEF1010F20F8D9
:10206000127006D000EB4200BEF1020F478018BF8D
:102070008780039A20465946CDF800C000F0CEF87C
:102080001FFA88F73FB175002068216A2A4600F0E0
:10209000F9F9013FF8D105B0BDE8F08F70B582B015
:1020A00040F2B803C2F2000353F821100446416025
:1020B0000620022A38BF08204FF0080338BF062345
:1020C000085ACB5AC88046F234400B814A71C0F698
:1020D000000000F11003C0690ECB606104F108003C
:1020E0000EC040F2FF70E08100262046268200F0FC
:1020F00011F860680022C18800890139013885B271
:102100008BB220460021CDE90056FFF711FF02B047
:1021100070BD000010B504460068002100F03AF8D8
:102120006420FFF703FF2068012100F033F86420EA
:10213000FFF7FCFE2068012100F01EF86420FFF785
:10214000F5FE61680979032910D0022908D0012918
:1021500018BF10BD2046BDE81040FFF7E3BC00BF2C
:102160002046BDE81040FFF789BD00BF2046BDE80E
:102170001040FFF739BE00000246C068002808BFC3
:102180007047937CB2F810C083EA01026146FEF703
:10219000EFBB000002464068002808BF7047937AF2
:1021A000B2F808C083EA01026146FEF7E1BB000015
:1021B0002DE9F041A2B00DF108080E460546404653
:1021C00080211F461446FEF72AF828AB404680219E
:1021D0003A46019300F09EFA9DF80800D0B1298993
:1021E00008F101070BE000BFB1B2A2B2C3B22846AA
:1021F00000F07CF817F8010B29890E4450B16A6889
:1022000089B2D288B3B2511A9942EDDA69890026AF
:102210000C44E9E722B0BDE8F08100002DE9F0436D
:1022200081B0044600689146DDF820800F46012108
:102230002A221E4600F0A6F9D4E9000140F20C055E
:102240000A794979C2F2000505EB021212F8211051
:10225000394489B200F062F9D4E900010A79497978
:1022600005EB021202EB81014978314489B200F09A
:1022700055F9206801212B2200F084F9D4E90001EE
:102280000A79497905EB021202EB81018978494408
:1022900089B200F043F9D4E900010A79497905EBE4
:1022A000021202EB8101C978414489B200F036F98B
:1022B000206801212C2201B0BDE8F04300F062B992
:1022C00070B546F2344CC0F6000C0CEB011E0E014A
:1022D000DEE90145DEF80C10C0E9034541615CF818
:1022E0000610C2818160038270BD00002DE9F041BB
:1022F00082B047680446FE880089361A8E42C0F2D2
:10230000A1803E896789F61B9642C0F29B800844F3
:1023100001381744013F1FFA80FCBFB220461D461A
:1023200063460097FFF77AFFA089002800F08A80B3
:102330002946A5F120011FFA81F80026002700BFD9
:10234000616900FB0810855D2068E9074FF00E0108
:1023500008BF1021615A00F0E1F8781C2189C0B251
:10236000814253D0A9074FF00E01206858BF1021B9
:10237000615A00F0D3F8B81C2189C0B2814245D01F
:1023800069074FF00E01206858BF1021615A00F014
:10239000C5F8F81C2189C0B2814237D029074FF017
:1023A0000E01206858BF1021615A00F0B7F8381D9F
:1023B0002189C0B2814229D0E9064FF00E01206880
:1023C00058BF1021615A00F0A9F8781D2189C0B2C8
:1023D00081421BD0A9064FF00E01206858BF102182
:1023E000615A00F09BF8B81D2189C0B281420DD01E
:1023F00069064FF00E01206858BF1021615A00F0A5
:102400008DF8F81D2189C0B2814205D10027A0892D
:102410000136864294D315E069B200294FF01001CD
:10242000206848BF0E21615A07F1080500F076F8D0
:102430002089E9B2471A18BF2F46A0890136864283
:10244000FFF47EAF02B0BDE8F08100002DE9F0415D
:1024500082B0DDE908781C460546C818D319013852
:10246000013B9EB283B228460096FFF7D7FE28684C
:1024700004FB07F14A00414602B0BDE8F04100F01C
:1024800001B800002DE9F0410646C06915460C462A
:1024900030B196F82220318C82F00102FEF768FA02
:1024A00005B33668002E08BFBDE8F081B5F5803F62
:1024B0000FD34FF6FF780027304621464FF6FF72C4
:1024C0004FF6FF73A5EB0805FFF724F8B7EB154FA0
:1024D000F2D1AAB2304621464FF6FF73BDE8F04173
:1024E000FFF718B8BDE8F08110B582B00446C069A6
:1024F0008DF8071030B194F82220218C82F001026F
:10250000FEF736FA206830B10DF1070101224FF6CF
:10251000FF73FEF7FFFF02B010BD0000B0B582B040
:102520000446C0690D4630B194F82220218C82F017
:102530000102FEF71DFA206869BAADF8061030B145
:102540000DF1060102224FF6FF73FEF7E3FF02B022
:10255000B0BD000010B582B00446C0698DF8071008
:1025600020B1218C94F82220FEF702FA206830B1C5
:102570000DF1070101224FF6FF73FEF7CBFF02B00A
:1025800010BD000082B0B0B582B00D4606A904317E
:10259000CDE9062301919DF818100446FFF7DAFFF4
:1025A000022D0BDB6D4200BF0198011D01910178E6
:1025B0002046FFF799FF0135681CF5D102B0BDE850
:1025C000B04002B07047000096B0FEF7EBF900246F
:1025D00000200E94CDE90C44CDE90A44FEF770FAD0
:1025E000012008904FF480300990022003255521E6
:1025F0000F90CDE91050CDE91210CDE9140008A8D4
:10260000FEF772FC20B1EFF3108072B6FEE700BF58
:102610000F20CDE9030503A80421CDE90544079463
:10262000FEF7E0FA20B1EFF3108072B6FEE700BFCC
:10263000FFF7BCF8FFF70CF940F25C04C2F20004AB
:10264000204603210222FFF729FD1EA32046002178
:102650000A220026FFF7ACFD1DA3204600211E2202
:10266000FFF7A6FD1FA3204600213222FFF7A0FDA1
:1026700022A3204600214622FFF79AFD46F2744C21
:10268000C0F6000C50252046F021A0225023CDE9B1
:10269000005CFFF7DBFE204602214FF6E0720023CC
:1026A000FFF70EFE18A500BF2046002178222B461A
:1026B000771C0096FFF77CFD4FF47A70FEF76AF8FE
:1026C0003E46F1E73E20582050756C7365000000CF
:1026D0003E2053544D3332206C63642064656D6F2B
:1026E000000000003E204C434420322E3020696E12
:1026F0006368203332307832343000003E2032308C
:1027000032342F392F3100003E20636F756E743ADA
:10271000256400007CB50C001D461646014601D01C
:10272000601E00E00020CDE90010064B6A462946F5
:10273000304600F0DBF8002C02D0009A0021117026
:102740007CBD00001B30000802E008C8121F08C151
:10275000002AFAD170477047002001E001C1121F22
:10276000002AFBD1704700002DE9FF5F82B00021F5
:10277000DDE90430020DDDF840B0034318D044F623
:102780001050A2F2FF3242431514119801281FD0B5
:10279000A5EB0B00401C5FEA000A4FF000064E4F0D
:1027A000DFF83891B046504615D5CAF1000413E061
:1027B000119801244AA3012801D16FEA0B01029864
:1027C000119AC0E90031C0E9024206B0BDE8F09FAD
:1027D000CBF10000DFE704460021404A491842EBF4
:1027E0000450CDE9001012E0E00707D032463B4626
:1027F00040464946FDF70CFE8046894632463B4638
:1028000010461946FDF704FE06460F466410002CDC
:10281000EAD1DDE90401DDE90023BAF1000F06DAAF
:10282000FDF7F6FD42464B46FDF7F2FD05E0FDF7EC
:1028300061FE42464B46FDF75DFE04460E46002211
:10284000284BFDF7DFFE03D84FF0FF30014607E0CD
:102850000022254B20463146FDF733FDFDF7B9FE3A
:10286000102409E0002C0ADB0A220023FDF7F8FC03
:10287000039B30321A55641E50EA0102F2D1641CE7
:10288000039AC4F111031444119A012A03D00122BE
:1028900008430DD10AE0084304D000204FF0110B8B
:1028A000119072E7A3EB0B056D1E0DE05B4504DD97
:1028B0004FF0000205F1010504E003DA4FF00002D9
:1028C000A5F10105002AECD002981199C0E9023166
:1028D000C0E9004579E70000000014400000F03F27
:1028E000300000000000F0430000E03F2DE9FF4F02
:1028F00095B09B468946064600250FE2252877D1EC
:1029000000242746F84A0121059400E0044316F804
:10291000013F203B01FA03F01042F7D130782A281A
:1029200011D06FF02F033078A0F13002092A16D8A9
:10293000059A44F0020402EB820203EB42021044C7
:10294000761C0590EFE759F8042B0592002A03DA6C
:10295000504244F40054059044F00204761C307850
:102960002E2816D116F8010F44F004042A280DD0A1
:102970006FF02F023078A0F13003092B09D807EB54
:10298000870302EB4303C718761CF3E759F8047B6F
:10299000761C30786C280FD006DC4C2817D06828BD
:1029A0000DD06A2814D104E0742810D07A280FD1F1
:1029B0000DE044F400140AE044F4801401E044F40F
:1029C00040147278824202D104F58014761C761C81
:1029D000307866280BD013DC582877D009DC002823
:1029E00075D04528F6D04628F4D047281AD19DE165
:1029F00018E0632835D0642879D0652812D195E194
:102A0000702873D008DC6728F1D069286FD06E2851
:102A10000DD06F2806D1B5E073282CD0752875D05D
:102A2000782874D05A46179990476D1C75E1C4F305
:102A30000250022809D003280DD0D9F8001004282C
:102A40000DD00D6009F1040967E1D9F80010EA170B
:102A5000C1E90052F6E7D9F800100D80F2E70D70D9
:102A6000F0E719F8041B8DF8001000208DF8010024
:102A7000EA46012003E059F804AB4FF0FF3061074C
:102A80004FF0000102D40DE008F101018846B9427F
:102A90000FDA8045F8DB1AF808100029F4D108E0B5
:102AA00008F1010188468142FADB1AF80810002972
:102AB000F6D105985B46A0EB080721463846179AE1
:102AC00000F094FA284400EB080507E04DE029E106
:102AD0000DE01AF8010B5A4617999047B8F1010812
:102AE000F7D25B4621463846179A13E142E00A22A4
:102AF0000092C4F302524FF0000A022A08D059F89B
:102B000004CB032A4FEAEC710AD00DE029E02AE059
:102B100009F1070121F00702F2E802C1914609E03C
:102B20000FFA8CFC4FEAEC71042A03D14FFA8CFCAB
:102B30004FEAEC71002907DA0A460021DCF1000CAB
:102B400061EB02012D2202E0220504D52B228DF833
:102B50000420012203E0E20701D02022F7E790469B
:102B600059E00A2102E010220DE010214FF0000A86
:102B700000910BE010224FF0000A44F004040827F3
:102B8000009203E008224FF0000A0092C4F30252C0
:102B9000022A05D059F804CB0021032A08D009E005
:102BA00009F1070121F00702F2E802C1914605E0B0
:102BB0001FFA8CFC042A01D10CF0FF0C4FF0000826
:102BC000220728D5702806D0009B83F0100353EA13
:102BD0000A0305D00EE040228DF80420012208E00F
:102BE0005CEA010206D030228DF804208DF8050041
:102BF00002229046009B83F0080353EA0A030AD19D
:102C00005CEA010201D1620705D530228DF804206B
:102C10004FF001087F1E582804D034A003900EA85E
:102C200002900DE036A0F9E753466046009AFDF7A2
:102C300017FB84460398825C0298401E0290027043
:102C40005CEA0100F0D1029806A9081A00F1200AF6
:102C5000600702D524F4803400E00127574502DDE7
:102C6000A7EB0A0000E0002000EB0A0100900598A5
:102C70004144401A0590E00306D45B462146179A6A
:102C8000059800F0B3F90544002706E001A85A466C
:102C9000C05D179990476D1C7F1C4745F6DBE0032C
:102CA0000CD55B462146179A059800F09FF905441C
:102CB00004E030205A46179990476D1C0099481E31
:102CC00000900029F5DC08E0029802995A46007845
:102CD000491C0291179990476D1CBAF10001AAF1A5
:102CE000010AF1DC65E100000928010030313233CE
:102CF0003435363738396162636465660000000038
:102D00003031323334353637383941424344454621
:102D10000000000000F058F90544761C30780028C7
:102D20007FF4ECAD19B02846BDE8F08F620700D4FF
:102D3000062709F1070222F0070CFCE80223E1460E
:102D400003F000485FEA080C02D00FF2702C0DE08F
:102D50005FEA045C02D50FF2682C07E05FEAC47CEE
:102D600002D00FF2602C01E0AFF2700C4FF0FF3890
:102D700023F00043CDF850C065280CD006DC452870
:102D800009D046281DD047283DD13DE0662818D0FF
:102D900067287ED138E00021112F01DB112000E0EF
:102DA000781CCDE9000106A90EA8FFF7DDFCDDE9DE
:102DB0000F010E9A03910021009207F1010A04917C
:102DC0004DE04FF000400097CDE9011006A90EA894
:102DD000FFF7CAFCDDE90F0203920E9B1199002256
:102DE000DDF80CA00093049211B9791C00EB010AE4
:102DF000B7EB0A0004D4C0F1FF3007F1010A0490D8
:102E0000AAEB0700019044E0012F00DA012700211E
:102E1000112F01DD112000E03846CDE9000106A99F
:102E20000EA8FFF7A1FCDDE90F010E9A0391002126
:102E300004910092BA4621070CD40399514500DA57
:102E40008A46BAF1010F05DD009AAAF10101515C31
:102E5000302908D0B84202DA10F1040F06DA012155
:102E6000CDE9011015E0AAF10101E9E7002805DC30
:102E7000049901440491AAEB000102E0411C514570
:102E800000DD8A460499401A401C01904FF0004032
:102E90000290200704D40198504501DBCDF804804E
:102EA00000208DF84F0002980DF14F07B0F1004F50
:102EB00025D02B200E9002984FF0020800280CDA43
:102EC000404202902D200E9007E00A210298FDF763
:102ED000B1F93031029007F8011DB8F10001A8F1F5
:102EE0000108F2DC02980028EFD1791E0E980870D4
:102EF000307800F0200040F0450007F8020D12A8DD
:102F0000C01B00F107081498007800B1012000EB05
:102F10000A01019801EBE07105984144401A401EF6
:102F20000590E00306D45B462146179A059800F009
:102F30005DF805441498007818B15A4617999047DF
:102F40006D1CE00324D55B462146179A059800F0D6
:102F50004DF805441CE00498002807DBDDE9030177
:102F6000884203DD0098405C179901E017993020F2
:102F70005A469047049805F10105401C04900198B9
:102F8000401E019004D12E205A46179990476D1C7F
:102F9000BAF10001AAF1010ADDDC05E017F8010B26
:102FA0005A46179990476D1CB8F10001A8F1010825
:102FB000F4DC5B462146179A0598ABE62D0000002D
:102FC0002B000000200000002DE9F0410446002500
:102FD0001E461746880404D405E039462020B04731
:102FE0006D1C641EF9D52846BDE8F0812DE9F0413D
:102FF000044600251E469046C80301D5302700E050
:103000002027880404D505E041463846B0476D1CAA
:10301000641EF9D52846BDE8F0814A68002A06D02A
:103020000A68531C0B6010704868401E4860704767
:103030000000000000000000010203040607080968
:103040000000000000000000000000000000040478
:10305000040404000004000014140A00000000002E
:103060000000000000000A0A1F0A0A1F0A0A0000E6
:1030700000040E1505060C14150E040000001215B0
:103080000D152E2C2A1200000000040A0A36151510
:1030900029160000020201000000000000000000EC
:1030A00010080804040404040808100002040408BA
:1030B000080808080404020000000004150E0E159C
:1030C0000400000000000008083E0808000000009E
:1030D00000000000000000000202010000000000EB
:1030E000003F0000000000000000000000000000A1
:1030F0000002000000201010080804040202010071
:1031000000000E1111111111110E00000000040633
:1031100004040404040E000000000E11110804024F
:10312000011F000000000E11100C1010110E000005
:103130000000080C0C0A091F081C000000001F01F9
:10314000010F1110110E000000000C12010D1311DF
:10315000110E000000001E10080804040404000002
:1031600000000E11110E1111110E000000000E11C1
:1031700011191610090600000000000004000000EC
:10318000000400000000000000040000000404002F
:1031900000001008040202040810000000000000F3
:1031A0003F003F000000000000000204081010086B
:1031B0000402000000000E111108040400040000C5
:1031C00000001C22292D2D1D221C000000000404DB
:1031D0000C0A0A1E1233000000000F12120E121207
:1031E000120F000000001E1101010101110E00006C
:1031F00000000F1212121212120F000000001F1214
:103200000A0E0A02121F000000001F120A0E0A0214
:103210000207000000001C1201013911120C00000D
:1032200000003312121E12121233000000001F049D
:1032300004040404041F000000003E0808080808F5
:1032400008080907000037120A060A1212370000A0
:103250000000070202020202223F000000003B1BA6
:103260001B1B15151535000000003B1216161A1A07
:103270001217000000000E1111111111110E0000A3
:1032800000000F12120E02020207000000000E11D1
:1032900011111117190E180000000F12120E0A1248
:1032A0001237000000001E1101060810110F000067
:1032B00000001F1504040404040E00000000331273
:1032C00012121212120C000000003312120A0A0C21
:1032D000040400000000151515150E0A0A0A000066
:1032E00000001B0A0A04040A0A1B000000001B0A53
:1032F0000A0A0404040E000000001F090804040266
:10330000121F00001C0404040404040404041C0030
:103310000002020404040808081010000E0808083F
:103320000808080808080E00040A00000000000051
:103330000000000000000000000000000000003F4E
:103340000204000000000000000000000000000077
:10335000000C121C123C000000030202020E1212AA
:10336000120E000000000000001C1202120C0000EF
:1033700000181010101C1212123C00000000000077
:10338000000C121E021C000000182404041E040479
:10339000041E000000000000003C120C021C221C55
:1033A00000030202020E1212123700000004040091
:1033B00000060404040E000000080800000C0808C1
:1033C0000808080700030202021A0A060A1300008E
:1033D0000007040404040404041F000000000000AB
:1033E000000F15151515000000000000000F121247
:1033F0001237000000000000000C1212120C000036
:1034000000000000000F1212120E02070000000060
:10341000001C1212121C103800000000001B0602D3
:103420000207000000000000001E020C101E000039
:1034300000000004041E0404041C0000000000003E
:10344000001B1212123C000000000000001B0A0AC0
:1034500004040000000000000015150E0A0A000018
:1034600000000000001B0A040A1B0000000000000E
:10347000003312120C08040300000000001E0804B0
:10348000041E000018080808080C0808080818009E
:1034900008080808080808080808080806040404BA
:1034A00004080404040406001609000000000000DB
:1034B000000000000000000000000000000000000C
:1034C00000000000000000080808080808080000C4
:1034D0001818000000486C241200000000000000D2
:1034E000000000000000002424247F1212127F122A
:1034F000121200000000081C2A2A0A0C1828282A88
:103500002A1C080800000022251515152A585454B5
:10351000542200000000000C1212120A7625291114
:10352000916E000000060604030000000000000089
:1035300000000000004020101008080808080810CB
:10354000102040000002040808101010101010088D
:10355000080402000000000008086B1C1C6B08082F
:103560000000000000000000080808087F080808A4
:103570000800000000000000000000000000000043
:10358000060604030000000000000000FE0000002A
:10359000000000000000000000000000000000002B
:1035A000060600000000804040202010100808049B
:1035B00004020200000000182442424242424242F9
:1035C00024180000000000080E0808080808080871
:1035D000083E00000000003C424242202010080447
:1035E000427E00000000003C424220182040404241
:1035F000221C0000000000203028242422227E20EB
:10360000207800000000007E0202021A264040429C
:10361000221C0000000000382402021A2642424206
:10362000241800000000007E22221010080808085C
:10363000080800000000003C424242241824424294
:10364000423C0000000000182442424264584040BE
:10365000241C0000000000000000181800000000FA
:103660001818000000000000000000080000000022
:10367000000808040000004020100804020408109C
:10368000204000000000000000007F0000007F00DC
:103690000000000000000002040810204020100874
:1036A000040200000000003C42424640201010008E
:1036B000181800000000001C225A555555552D427F
:1036C000221C00000000000808181414243C2242A8
:1036D00042E700000000001F2222221E2242424236
:1036E000221F00000000007C424201010101014252
:1036F000221C00000000001F22424242424242427D
:10370000221F00000000003F4212121E121202424D
:10371000423F00000000003F4212121E121202023D
:10372000020700000000003C222201010171212259
:10373000221C0000000000E7424242427E42424218
:1037400042E700000000003E0808080808080808D2
:10375000083E00000000007C101010101010101027
:103760001010110F0000007722120A0E0A12122206
:103770002277000000000007020202020202020299
:10378000427F000000000077363636362A2A2A2A81
:103790002A6B0000000000E346464A4A5252526239
:1037A000624700000000001C22414141414141416B
:1037B000221C00000000003F424242423E02020240
:1037C000020700000000001C2241414141414D53CD
:1037D000321C60000000003F4242423E1212222290
:1037E00042C700000000007C424202041820404210
:1037F000423E00000000007F490808080808080849
:10380000081C0000000000E742424242424242429D
:10381000423C0000000000E7424222242414141815
:10382000080800000000006B4949494955553622F7
:1038300022220000000000E7422424181818242443
:1038400042E700000000007722221414080808084C
:10385000081C00000000007E212010100804044213
:10386000423F00000078080808080808080808080F
:10387000080878000000020204040808081010205C
:1038800020204040001E10101010101010101010BA
:1038900010101E000038440000000000000000006E
:1038A0000000000000000000000000000000000018
:1038B000000000FF000608000000000000000000FB
:1038C00000000000000000000000003C427844427C
:1038D00042FC0000000000030202021A264242429B
:1038E000261A000000000000000000384402020216
:1038F00044380000000000604040407844424242AA
:1039000064D80000000000000000003C427E02027B
:10391000423C0000000000F08808087E0808080803
:10392000083E0000000000000000007C22221C0273
:103930003C42423C000000030202023A464242423C
:1039400042E700000000000C0C00000E0808080808
:10395000083E000000000030300000382020202009
:103960002020221E0000000302020272120A161218
:10397000227700000000000E080808080808080860
:10398000083E0000000000000000007F929292922A
:1039900092B70000000000000000003B4642424297
:1039A00042E70000000000000000003C42424242AA
:1039B000423C0000000000000000001B2642424282
:1039C000221E02070000000000000078444242422C
:1039D000447840E000000000000000774C0404043C
:1039E000041F0000000000000000007C42023C4078
:1039F000423E0000000000000008083E08080808D9
:103A00000830000000000000000000634242424213
:103A100062DC000000000000000000E742242414E3
:103A20000808000000000000000000EB494955555F
:103A30002222000000000000000000762418181860
:103A4000246E000000000000000000E7422424145F
:103A500018080807000000000000007E2210080877
:103A6000447E000000C020202020201020202020A4
:103A70002020C00010101010101010101010101086
:103A80001010101000060808080808100808080898
:103A9000080806000C32C200000000000000000010
:103AA0000000000000000000000000000000000016
:103AB0000000000000000000000000000000000006
:103AC00000000000000000000000000000000000F6
:103AD0000000000000000000000000006000600026
:103AE0006000600060006000600040002000200076
:103AF0002000000000000000600060006000000086
:103B0000000000000000000060066006300398011D
:103B100088004400000000000000000000000000D9
:103B20000000000000000000000000000000000095
:103B30000000000000000000000000001002100261
:103B400010021002FE07FE07080208010801080122
:103B50000801FE07FE07040104010401040100003E
:103B60000000000000000000000040004000F001E4
:103B700058034C03CC034C0058007000E000C00117
:103B8000C00140034C035C034C034801F0004000BB
:103B90004000000000000000000000000E010A01CB
:103BA000910091009100510051003A00AE03A00233
:103BB000500450044804480448048402840300006C
:103BC00000000000000000000000000038006C0051
:103BD0006C006C006C006C002C0098071C011A0132
:103BE000330133016301E300C308C6093C07000049
:103BF00000000000000000000C001C00100010007D
:103C000008000400000000000000000000000000A8
:103C100000000000000000000000000000000000A4
:103C2000000000000000000000040002000180000D
:103C300080004000400020002000200020002000E4
:103C400020002000400040008000800000010002B1
:103C50000004000000000000020004000800100042
:103C600010002000200040004000400040004000C4
:103C70004000400020002000100010000800040058
:103C80000200000000000000000000000000000032
:103C90004000C0004000460C4E0FD001F0015E0F06
:103CA000460C400040004000000000000000000002
:103CB0000000000000000000000000000000000004
:103CC000000040004000400040004000FE0F400067
:103CD00040004000400040000000000000000000E4
:103CE00000000000000000000000000000000000D4
:103CF00000000000000000000000000000000000C4
:103D000000000000000000000C001C00100010006B
:103D10000800040000000000000000000000000097
:103D2000000000000000000000000000FE0700008E
:103D30000000000000000000000000000000000083
:103D40000000000000000000000000000000000073
:103D50000000000000000000000000000000000063
:103D600000000000000000001C001C001C000000FF
:103D70000000000000000000000400060002000334
:103D80000001000180008000400040006000200031
:103D9000200010001000080008000C0004000600BD
:103DA0000200000000000000000000000000F00021
:103DB00098010C030C030606060606060606060610
:103DC0000606060606060C030C039801F000000028
:103DD00000000000000000000000000000004000A3
:103DE0007C006000600060006000600060006000B7
:103DF000600060006000600060006000FC03000084
:103E00000000000000000000000000000000F800BA
:103E10008401020306030603000300018001C000C1
:103E2000600020001000080204020602FE030000E9
:103E3000000000000000000000000000000078000A
:103E4000C6008601860180018001C00070008001EB
:103E5000000100030003060306038601F8000000CA
:103E600000000000000000000000000000008001D1
:103E70008001C001A001A001900188018801840196
:103E80008201FE0F8001800180018001E0070000B7
:103E90000000000000000000000000000000FC0323
:103EA00004000400040004000400F4008C01040376
:103EB000000300030603060382018401F8000000EA
:103EC0000000000000000000000000000000E00111
:103ED00018030C030C0004000600E60116030E068E
:103EE00006060606060604060C021803F00000008B
:103EF0000000000000000000000000000000F807C3
:103F00000C06040204010001000180008000400052
:103F10004000400060006000600060006000000041
:103F20000000000000000000000000000000F80198
:103F30000C030606060606060C021C03F000C80168
:103F40000C0306060606060606060C03F001000032
:103F50000000000000000000000000000000F00071
:103F60000C010C03060206060606060606078C066A
:103F700078060006000300030C018C0178000000A5
:103F80000000000000000000000000000000000031
:103F90000000000000000000E000E000E000000081
:103FA0000000000000000000E000E000E000000071
:103FB0000000000000000000000000000000000001
:103FC0000000000000000000600060000000000031
:103FD00000000000000000000000600060004000E1
:103FE000200020000000000000000000000400028B
:103FF00000018000400020001000080004000800BC
:1040000010002000400080000001000200040000B9
:1040100000000000000000000000000000000000A0
:104020000000000000000000FE070000000000008B
:10403000FE0700000000000000000000000000007B
:104040000000000000000000000000000400080064
:104050001000200040008000000100020004000267
:104060000001800040002000100008000400000053
:104070000000000000000000000000000000E0035D
:104080001806040C040C0C0C0C0C000780014000FA
:104090004000400000000000E000E000E000000000
:1040A000000000000000000000000000E000180315
:1040B0000C02CC0564056605A605B604B604B60474
:1040C000B604B602E4010C040C021803F000000070
:1040D0000000000000000000000000000000600080
:1040E00060005000D0009000900088008801080116
:1040F000F801040304030402020202060F0F000089
:104100000000000000000000000000000000FE00B1
:104110008C030C030C030C030C038C01FC000C033C
:104120000C020C060C060C060C060C03FE0100002B
:104130000000000000000000000000000000E0039C
:1041400018030C060C040404060006000600060012
:104150000600060006040C040C021803F000000020
:1041600000000000000000000000000000007F00D0
:104170008C010C030C030C060C060C060C060C063A
:104180000C060C060C060C030C038C017F000000CF
:104190000000000000000000000000000000FF031D
:1041A000060306040604060086008600FE0086005C
:1041B000860086000600060406040602FF030000CF
:1041C0000000000000000000000000000000FF03ED
:1041D000060306040604060086008600FE0086002C
:1041E0008600860006000600060006001F0000008C
:1041F0000000000000000000000000000000F000CF
:1042000018010C020C02040206000600060006005B
:10421000C60F060306030C030C031803F00000008E
:1042200000000000000000000000000000000F0F70
:10423000060606060606060606060606FE07060625
:104240000606060606060606060606060F0F000008
:104250000000000000000000000000000000FC035F
:10426000600060006000600060006000600060004E
:10427000600060006000600060006000FC030000FF
:104280000000000000000000000000000000F8072F
:10429000C000C000C000C000C000C000C000C0001E
:1042A000C000C000C000C000C000C000C000C60008
:1042B00066003C0000000000000000000000CF038A
:1042C0008601C60046002600160036002E006E004D
:1042D0004600C60086008601060106038F0700001F
:1042E00000000000000000000000000000001F00AF
:1042F000060006000600060006000600060006008E
:10430000060006000600060406040602FF0300007D
:10431000000000000000000000000000000007078F
:10432000860386038E038E034E034E034A035A030D
:104330005A033A03320332033203120387070000A1
:1043400000000000000000000000000000008E0FD0
:104350000C021C021C023402340264026402440295
:10436000C402840284038403040304031F020000C4
:104370000000000000000000000000000000F0004D
:1043800098010C030C02060606060606060606063B
:104390000606060606060C020C039801F000000053
:1043A0000000000000000000000000000000FF000E
:1043B0000603060606060606060606068603FE0031
:1043C0000600060006000600060006001F000000AA
:1043D0000000000000000000000000000000F000ED
:1043E00098010C030C0206060606060606060606DB
:1043F0000606060676064C02CC039801F0008007FC
:104400000003000000000000000000000000FF01A9
:10441000060306060606060606060603FE00460016
:10442000C600860086010603060306060F0E00007E
:104430000000000000000000000000000000F80282
:104440000C030602060206000E003C00F800E00322
:10445000800300070206020606060C03F0010000B6
:104460000000000000000000000000000000FE0747
:104470006204610861086000600060006000600024
:10448000600060006000600060006000F8010000F3
:1044900000000000000000000000000000001E07F7
:1044A0000C020C020C020C020C020C020C020C029C
:1044B0000C020C020C020C020C021801F0000000AD
:1044C00000000000000000000000000000000F07D6
:1044D0000602040104010C010C0188008800980008
:1044E00098005000500070003000200020000000B4
:1044F0000000000000000000000000000000F70EB7
:10450000620442044604460464026402E402E402D3
:104510009C029C0198019801880188008800000095
:1045200000000000000000000000000000009E07E6
:104530000C01080118019000B0006000200060002C
:104540006000D00090008801080104038E0700007D
:1045500000000000000000000000000000000F0F3D
:10456000060404020C0208011801B800B000700033
:10457000600060006000600060006000F801000002
:104580000000000000000000000000000000FC0728
:104590000C02060302018001800040004000200060
:1045A00020001000180008040C040402FE030000A0
:1045B0000000000000000000E003200020002000B8
:1045C00020002000200020002000200020002000EB
:1045D00020002000200020002000200020002000DB
:1045E000E0030000000000000000000004000400E0
:1045F00008000800100010001000200020004000FB
:104600004000C000800080000001000100020002A4
:1046100000020004000000007C0040004000400058
:10462000400040004000400040004000400040008A
:10463000400040004000400040004000400040007A
:104640007C000000000060009000080100000000F5
:10465000000000000000000000000000000000005A
:10466000000000000000000000000000000000004A
:10467000000000000000000000000000000000003A
:10468000000000000000000000000000000000002A
:10469000000000000000000000000000000000001A
:1046A0000000FF0F00000000180060000000000084
:1046B00000000000000000000000000000000000FA
:1046C00000000000000000000000000000000000EA
:1046D00000000000000000000000000000000000DA
:1046E0000000000000000000F0010C030C030003B8
:1046F000E0031C030E03060306038E0B7C0E000072
:1047000000000000000000000000000008000E0093
:104710000C000C000C000C00CC013C031C060C0629
:104720000C060C060C060C060C021C03E40100002F
:104730000000000000000000000000000000000079
:104740000000000000000000F0008C018C018601D8
:1047500006000600060006020C020C01F000000034
:104760000000000000000000000000000002C00384
:10477000000300030003000378038C030C0306030B
:10478000060306030603060304038C0778010000F2
:104790000000000000000000000000000000000019
:1047A0000000000000000000E001180308020C06F1
:1047B0000C06FC070C000C0018041802E0010000B5
:1047C0000000000000000000000000000000C00326
:1047D0006006300630003000FE013000300030004E
:1047E000300030003000300030003000FC010000AC
:1047F00000000000000000000000000000000000B9
:104800000000000000000000F007D8068C018C01B9
:104810008C019801F8000C00FC00CC030603060391
:104820008E03F800000000000000000008000E00E9
:104830000C000C000C000C00EC011C030C030C031E
:104840000C030C030C030C030C030C039E07000069
:1048500000000000000000000000000000006000F8
:1048600060000000000040007C006000600060000C
:10487000600060006000600060006000FC030000F9
:104880000000000000000000000000000000C00167
:10489000C001000000000001F001800180018001E2
:1048A0008001800180018001800180018001800100
:1048B000CC007C00000000000000000008000E009A
:1048C0000C000C000C000C008C038C008C004C00C5
:1048D0006C005C008C008C010C010C039E07000036
:1048E00000000000000000000000000040007C000C
:1048F00060006000600060006000600060006000B8
:10490000600060006000600060006000FC03000068
:104910000000000000000000000000000000000097
:1049200000000000000000003707EE06660666067D
:10493000660666066606660666066606FF0F0000E1
:104940000000000000000000000000000000000067
:104950000000000000000000EE011C030C030C032B
:104960000C030C030C030C030C030C039E07000048
:104970000000000000000000000000000000000037
:104980000000000000000000F00098010C03060683
:1049900006060606060606060C030C03F0000000D9
:1049A0000000000000000000000000000000000007
:1049B0000000000000000000EE011C030C060C06C5
:1049C0000C060C060C060C060C031C03EC010C0078
:1049D0000C003E000000000000000000000000008D
:1049E000000000000000000078028C030C030603A6
:1049F000060306030603060304038C03780300037F
:104A00000003C007000000000000000000000000DC
:104A100000000000000000009F0358063806180040
:104A2000180018001800180018001800FF000000F7
:104A30000000000000000000000000000000000076
:104A40000000000000000000F0031C030C020C0238
:104A50003800F000C003040304038C03FC010000D1
:104A60000000000000000000000000000000000046
:104A70002000200030003000FE0130003000300007
:104A8000300030003000300030023002E001000021
:104A90000000000000000000000000000000000016
:104AA00000000000000008028E030C030C030C033E
:104AB0000C030C030C030C030C039C07780100008F
:104AC00000000000000000000000000000000000E6
:104AD00000000000000000001E070C020801080191
:104AE00018019000B000B0006000600020000000DD
:104AF00000000000000000000000000000000000B6
:104B00000000000000000000F70E6204460464028A
:104B10006402EC029C0198019801980108000000D1
:104B20000000000000000000000000000000000085
:104B30000000000000000000BC0718011001B000D8
:104B400060006000E0009000080108039E0700007C
:104B50000000000000000000000000000000000055
:104B600000000000000000009E0708010801080185
:104B700090009000B0006000600060002000200005
:104B800024001C00000000000000000000000000E5
:104B90000000000000000000FC018401C40044008B
:104BA000600020003000180208020C03FC01000025
:104BB0000000000000000000000380008000800072
:104BC00080008000800080008000400020004000C5
:104BD00080008000800080008000800080008000D5
:104BE0000003000040004000400040004000400042
:104BF00040004000400040004000400040004000B5
:104C000040004000400040004000400040004000A4
:104C100040004000000000000C00100010001000D8
:104C200010001000100010001000200040002000B4
:104C300010001000100010001000100010001000F4
:104C40000C00000000001C002204C20480030000CD
:104C50000000000000000000000000000000000054
:104C60000000000000000000000000000000000044
:104C70000000000000000000000000000000000034
:104C80000000000000000000000000000000000024
:104C90000000000000000000000000000000000014
:104CA0000000000000000000000000000000000004
:104CB0000000000000000000000000000000C00133
:104CC000C001C001C001C001C001C001800080005E
:104CD0008000800080008000800000000000000054
:104CE00000008001C003C00380010000000000003C
:104CF00000000000000000000000E01CE01CF01EAE
:104D0000700E38071803080184000000000000003E
:104D10000000000000000000000000000000000093
:104D20000000000000000000000000000000000083
:104D30000000000000000000000000000000000073
:104D400020102010201020102010FE7FFE7F100861
:104D5000100810081008100810081008FE7FFE7FC9
:104D60000804080408040804080400000000000007
:104D70000000000000000000000000000001000131
:104D8000C00760191031183118391839380170010D
:104D9000E001C0038007000F001D003900311C3105
:104DA0001C310C310C11180DE0070001000100014D
:104DB00000000000000000000000000000000000F3
:104DC0001C1036186308630C6304630463026302F7
:104DD0006301361D9C3780228063406340632063FB
:104DE0002063306310221836081C00000000000009
:104DF00000000000000000000000000000000000B3
:104E0000F00098018C018C018C018C018C00CC008D
:104E10007800183E1C083608320863046304C30493
:104E2000C303834306438E26781C00000000000065
:104E3000000000000000000000001C003C003C00DE
:104E40003000300010000C000600000000000000E0
:104E50000000000000000000000000000000000052
:104E60000000000000000000000000000000000042
:104E700000000000000000000000004000200010C2
:104E80000008000C0004000600030003000380017A
:104E90008001800180018001800180018001000388
:104EA0000003000300060006000C000800100020AC
:104EB00000400000000000000000020004000800A4
:104EC0001000300020006000C000C000C000800161
:104ED0008001800180018001800180018001C0008B
:104EE000C000C00060006000300010000800040036
:104EF00002000000000000000000000000000000B0
:104F00000000000000018003800300011C713C7957
:104F1000783DC0070001C007783D3C791C71000155
:104F200080038003800100000000000000000000FA
:104F30000000000000000000000000000000000071
:104F4000000000000000000100010001000100015C
:104F500000010001FC7F00010001000100010001CF
:104F6000000100010000000000000000000000003F
:104F70000000000000000000000000000000000031
:104F80000000000000000000000000000000000021
:104F90000000000000000000000000000000000011
:104FA000000000001C003C003C00300030001000FD
:104FB0000C000600000000000000000000000000DF
:104FC00000000000000000000000000000000000E1
:104FD00000000000FE7F0000000000000000000054
:104FE00000000000000000000000000000000000C1
:104FF00000000000000000000000000000000000B1
:1050000000000000000000000000000000000000A0
:105010000000000000000000000000000000000090
:10502000000018003C003C001800000000000000D8
:1050300000000000000000000000004000600020B0
:105040000030001000180008000C000400060002E8
:105050000003000180018000C000400060002000CB
:1050600030001000180008000C00040006000200C8
:105070000000000000000000000000000000000030
:10508000C007600C30181830183018200C600C6005
:105090000C600C600C600C600C600C600C601820E4
:1050A000183018303018600CC007000000000000F5
:1050B00000000000000000000000000000000000F0
:1050C00000018001F80180018001800180018001E0
:1050D00080018001800180018001800180018001C8
:1050E000800180018001C003F81F00000000000063
:1050F00000000000000000000000000000000000B0
:10510000E007101C0818043004300C300C3000305C
:105110000018000800040002000180004000202068
:10512000102008200430FC1FFC1F000000000000BD
:10513000000000000000000000000000000000006F
:10514000E003180E0C0C0C180C180C180018000CAE
:105150000006C003000E00180010003000300C30B4
:105160000C300C100C18180CE003000000000000BC
:10517000000000000000000000000000000000002F
:10518000000C000E000E000F800E800E400E600E10
:10519000200E100E100E080E040E040EFE7F000EE0
:1051A000000E000E000E000E000EC07F000000007A
:1051B00000000000000000000000000000000000EF
:1051C000F03FF03F10001000100008000800C80772
:1051D000280C1818081000300030003000300C3057
:1051E0000C3004180418080CF00300000000000044
:1051F00000000000000000000000000000000000AF
:10520000800FC010203010301800180008000C006B
:105210008C0F6C183C301C600C600C600C600C60D7
:105220001860182030306018C0070000000000002F
:10523000000000000000000000000000000000006E
:10524000F83FF83F1C100C08040804040004000296
:105250000002000100010001800080008000C00009
:10526000C000C000C000C000C0000000000000007E
:10527000000000000000000000000000000000002E
:10528000E007300C18180C300C300C301C3038187B
:105290007008E007B007180E0C1C06380630063000
:1052A000063006300C18180CE00300000000000067
:1052B00000000000000000000000000000000000EE
:1052C000E00318040C080C180610063006300630EF
:1052D000063006380C3C1836F03100300018001843
:1052E00000180C0C0C060C03F0010000000000007C
:1052F00000000000000000000000000000000000AE
:10530000000000000000000000000000000080011C
:10531000C003C00380010000000000000000000086
:1053200000008001C003C0038001000000000000F5
:10533000000000000000000000000000000000006D
:105340000000000000000000000000000000C0009D
:10535000C00000000000000000000000000000008D
:10536000000000000000C000C0008000800040007D
:1053700040000000000000000000000000000020CD
:10538000001000080004000600038001C000600057
:10539000300018000C00180030006000C0008001D0
:1053A00000030006000400080010002000000000B8
:1053B00000000000000000000000000000000000ED
:1053C0000000000000000000000000000000FE7F60
:1053D00000000000000000000000FE7F0000000050
:1053E00000000000000000000000000000000000BD
:1053F00000000000000000000000000000000400A9
:105400000800100020006000C000800100030006BA
:10541000000C001800300018000C0006000380018A
:10542000C000600020001000080004000000000020
:105430000000000000000000000000000000C007A5
:105440003018083008600C601C601C601C60003064
:10545000001C000600018000800080008000000029
:1054600000008001C003C0038001000000000000B4
:10547000000000000000000000000000000000002C
:10548000C0076018103018200C2F8C4D864CC64C6D
:10549000C64C664C66446644662666266615CC1C79
:1054A0000C40082018303018C00700000000000031
:1054B00000000000000000000000000000000001EB
:1054C000C001C001C001400160032003200320038C
:1054D0003006100610061006F80F080C080C080C11
:1054E0000C0C0418041806181F7C000000000000B3
:1054F00000000000000000000000000000000000AC
:10550000FE07181C183818301830183018301818C2
:10551000180CF80718181830182018601860186050
:105520001860186018301818FE0F00000000000006
:10553000000000000000000000000000000000006B
:10554000C0276038103018200C400C4004000600C2
:1055500006000600060006000600060006000C40D5
:105560000C400C2018303018C0070000000000006C
:10557000000000000000000000000000000000002B
:10558000FE03180E181818301830183018601860FC
:10559000186018601860186018601860186018307B
:1055A000183018101818180EFE0300000000000034
:1055B00000000000000000000000000000000000EB
:1055C000FE3F1830182018601840180018081808F6
:1055D000180CF80F180C18081808180018001800F4
:1055E0001840184018201830FE3F0000000000004E
:1055F00000000000000000000000000000000000AB
:10560000FE7F1870184018C0188018001810181065
:105610001818F81F1818181018101800180018007B
:1056200018001800180018007E000000000000009C
:10563000000000000000000000000000000000006A
:10564000C013701C101018100C200C200400060051
:10565000060006000600060006FC063006300C3088
:105660000C30183018303008C0070000000000006F
:10567000000000000000000000000000000000002A
:105680003F7E0C180C180C180C180C180C180C1861
:105690000C180C18FC1F0C180C180C180C180C18F3
:1056A0000C180C180C180C183F7E000000000000AD
:1056B00000000000000000000000000000000000EA
:1056C000F81F80018001800180018001800180013C
:1056D00080018001800180018001800180018001C2
:1056E0008001800180018001F81F0000000000009F
:1056F00000000000000000000000000000000000AA
:10570000E07F000600060006000600060006000610
:105710000006000600060006000600060006000659
:105720000006000600060006000600060E060E0330
:105730008E01FC00000000000000000000000000DE
:105740007E7C181818081804180618021801980109
:105750009801D801B803380318071806180E180C5A
:10576000181C1818183018307EFC000000000000CB
:105770000000000000000000000000000000000029
:105780007E001800180018001800180018001800F3
:105790001800180018001800180018001800180049
:1057A0001840184018201830FE3F0000000000008C
:1057B00000000000000000000000000000000000E9
:1057C0001FF81C381C381C381C3C34343434343436
:1057D000343674326432643264326431C431C43178
:1057E000C431C430C43084309FFC0000000000008D
:1057F00000000000000000000000000000000000A9
:105800001F7C1C103C103410341074106410E41011
:10581000C410C41184118413041304170416041E45
:10582000041C041C041C04181F18000000000000C5
:105830000000000000000000000000000000000068
:10584000C003300C181808100C300C3006600660CD
:1058500006600660066006600660066006600C2052
:105860000C3008101818300CC003000000000000B5
:105870000000000000000000000000000000000028
:10588000FE0F18181830186018601860186018603B
:1058900018301818F80F1800180018001800180011
:1058A00018001800180018007E000000000000001A
:1058B00000000000000000000000000000000000E8
:1058C000C003300C18180C100C300C200660066059
:1058D0000660066006600660066006600660E461B9
:1058E0002C331C321816300EC007004C007C0038D8
:1058F00000000000000000000000000000000000A8
:10590000FE07181C183818301830183018301818BE
:10591000180CF80798031803180718061806180E2D
:10592000180C180C181C18187E78000000000000D5
:105930000000000000000000000000000000000067
:10594000E027303818300C200C200C000C00180018
:105950007800E003800F001E0038007000600460D3
:105960000460086018303818C80F000000000000FC
:105970000000000000000000000000000000000027
:10598000FC3F8C2184618241824180018001800141
:1059900080018001800180018001800180018001FF
:1059A0008001800180018001E0070000000000000C
:1059B00000000000000000000000000000000000E7
:1059C0003F7C0C100C100C100C100C100C100C1058
:1059D0000C100C100C100C100C100C100C100C10E7
:1059E0000C100C1008083804E00300000000000050
:1059F00000000000000000000000000000000000A7
:105A00003EF81820182018203010301030103010B8
:105A1000600860086008E00CC004C004C004800393
:105A200080038003800300010001000000000000EB
:105A30000000000000000000000000000000000066
:105A4000DFF38661862186218C210C218C238C1327
:105A50008C138C134C1358125816580E380E380EDF
:105A6000380E300C10041004100400000000000078
:105A70000000000000000000000000000000000026
:105A80007E3E180838083004300470026002E001DD
:105A9000C001C001800180034003400720062006AA
:105AA000100C100C081808183E7C000000000000C4
:105AB00000000000000000000000000000000000E6
:105AC0007E7C1C10181018083008300C700460041C
:105AD0006002C002C002C00180018001800180011B
