:020000040800F2
:10000000D8060020ED0100084925000881170008E6
:100010004525000851070008C5270008000000001A
:10002000000000000000000000000000A9270008F8
:1000300055070008000000004D250008AD27000806
:10004000070200080702000807020008070200086C
:10005000070200080702000807020008070200085C
:10006000070200080702000807020008070200084C
:10007000070200080702000807020008070200083C
:10008000070200080702000807020008070200082C
:10009000070200080702000807020008070200081C
:1000A000070200080702000807020008070200080C
:1000B00007020008070200080702000807020008FC
:1000C00007020008070200080702000807020008EC
:1000D00007020008070200080702000807020008DC
:1000E00007020008070200080702000807020008CC
:1000F00007020008070200080702000807020008BC
:1001000007020008070200080702000807020008AB
:10011000070200080702000807020008070200089B
:10012000070200080702000807020008070200088B
:10013000070200080702000807020008070200087B
:10014000070200080702000807020008070200086B
:10015000070200080702000807020008070200085B
:10016000070200080702000807020008070200084B
:10017000070200080702000807020008070200083B
:10018000070200080702000807020008070200082B
:10019000070200080000000007020008070200082C
:1001A000070200080702000807020008070200080B
:1001B00007020008070200080702000807020008FB
:1001C00007020008070200080702000807020008EB
:1001D0000702000807020008DFF80CD000F018FA48
:1001E00000480047C9270008D80600200648804775
:1001F00006480047FEE7FEE7FEE7FEE7FEE7FEE70C
:10020000FEE7FEE7FEE7FEE7B1270008D901000898
:1002100030B50B46014600202022012409E021FAD6
:1002200002F59D4205D303FA02F5491B04FA02F5D3
:100230002844151EA2F10102F1DC30BD2DE9F05F6A
:100240000546002092469B46884606468146402445
:100250001BE0284641464746224600F0FAF953463D
:100260005A46C01A914110D311461846224600F052
:10027000E1F92D1A67EB01084F46224601200021C3
:1002800000F0D8F917EB00094E41201EA4F101043B
:10029000DFDC484631462A464346BDE8F09F2DE95B
:1002A000FE4F804681EA0300C00F0C46009021F00B
:1002B000004123F00045B8EB0200A94105D24046B9
:1002C000214690461C460B46024623F00040104350
:1002D00047D0270DC7F30A00C3F30A510290401A12
:1002E000019040286BDAC3F3130040F4801B0098A0
:1002F000924620B10023D2EB030A63EB0B0B01986B
:100300005946C0F14002504600F094F906460D46A9
:1003100050465946019A00F0ACF910EB08006141D3
:10032000002487EA115284EAE7731A4340D0009A06
:1003300062B3019A012A4FEA075215DC001B61EBF8
:1003400002014FF0004202EA0752CDE90042001CD0
:1003500041F5801132462B4600F0ACF903B0BDE800
:10036000F08F40462146F9E7001B61EB0201001CBB
:1003700041F5801300185B412018A2F5001747EBE8
:10038000030140EAD570B6196D4111E06D084FEADE
:10039000360645EAC0754FEA0752001B61EB0201C1
:1003A000001C41F5801149084FEA30000019514105
:1003B00032462B4603B0BDE8F04F00F06CB9009810
:1003C000012240000023D0EB020263EBE0730098AF
:1003D00021464FEAE074B8EB000061EB0401E9E765
:1003E00083F000435BE781F0004158E72DE9FE4FC1
:1003F00081EA030404F0004421F0004100944FF02E
:10040000000B23F0004350EA01045ED052EA0304DB
:100410005BD0C3F30A54C1F30A552C44A4F2F3345D
:100420000194A0FB0254C1F3130141F48011C3F302
:10043000130343F4801301FB024400FB034E840AC0
:10044000970A44EA815447EA8357A4FB0768029558
:100450008D0A05FB07854FEA932C04FB0C542705F6
:10046000029D4FEA065847EA1637B5EB08056EEBD2
:10047000070C870E920E47EA811742EA8312A7FB08
:100480000201B6EB0B0164EB00042B0D43EA0C33C5
:100490005E1844EB1C50DA465146E7FB0201C5F3F7
:1004A00013044FEA0B3343EA14534FEA0432019C1E
:1004B00043EA0603A4F10C040294009CCDE900B4C5
:1004C00000F0F8F803B0BDE8F08F00200146F9E72E
:1004D0002DE9F04D81EA030404F0004B21F00045C2
:1004E00014464FF0000A23F0004150EA050220D0E4
:1004F00054EA01021DD0C5F30A570246C5F313039F
:10050000C1F31300C1F30A5640F4801543F480137D
:10051000A7EB0608101BD64608F2FD3873EB050062
:1005200002D308F1010801E092185B41B8F1000F15
:1005300003DA00200146BDE8F08D00204FF4801161
:10054000064684460EE0171B73EB050705D3121B06
:1005500063EB050306434CEA010C49084FEA3000FF
:1005600092185B4150EA0107EDD152EA030012D024
:1005700082EA040083EA0501084305D0101BAB4161
:1005800006D20122002306E000224FF0004302E0E1
:100590006FF0010253101AEB06004CEB085110EB00
:1005A0000A0041EB0B01BDE8F04D00F074B8C1F357
:1005B0000A52C1F3130140F2FF3341F480119A4211
:1005C00002DA00200146704740F233439A42A2F219
:1005D000334202DC524200F03CB800F02BB800007D
:1005E00030B5041E71F1000404DB4FF000444042BA
:1005F00064EB0101141E73F1000405DB1C464FF08F
:100600000043524263EB0403994208BF904230BD5D
:10061000064C074D06E0E06840F0010394E807004F
:1006200098471034AC42F6D3FFF7DAFDE434010802
:1006300004350108202A04DB203A00FA02F10020E8
:1006400070479140C2F1200320FA03F31943904010
:100650007047202A04DB203A21FA02F0002170477B
:1006600021FA02F3D040C2F120029140084319461A
:100670007047202A06DBCB17203A41FA02F043EA02
:10068000E07306E041FA02F3D040C2F1200291404B
:1006900008431946704710B5141E73F1000408DAB8
:1006A000401C41F1000192185B411A4301D120F036
:1006B000010010BD2DE9F04D92469B4611B1B1FAF3
:1006C00081F202E0B0FA80F220329046FFF7B2FFEA
:1006D00004460F4640EA0A0041EA0B0153465A46D7
:1006E000084313D0114653EA010019D0C8F1400263
:1006F0005046FFF7AEFF05460E4650465946424665
:10070000FFF798FF084305D0012004E02046394652
:10071000BDE8F08D0020054346EAE0762C433743E0
:100720000A986305E40AA0EB08000022FD0A44EAE7
:1007300047540A3002D500200146E9E701051019A7
:100740006941DDE9084500196941BDE8F04DA2E7BE
:10075000FEE7000070470000EFF3108072B600BFA4
:10076000FEE70000B0B5044600F004F9054640F28B
:100770000000C2F200004068611C18BF044400BFC2
:1007800000F0F8F8401BA042FAD3B0BD2DE9F04FBD
:1007900084B08E4641F20042C4F60002DEF800400A
:1007A00006219042019008BF0521002C009100F025
:1007B000D7800198002500F138424FEAB223009813
:1007C000012700264FF00008052B38BF184600907F
:1007D000CDF808E00EE000BFDEF8004008F10108A7
:1007E00034FA07F106F1020607F1010705F10405E5
:1007F00000F0B680A7F1010A012000FA0AF314EA1A
:100800000309E9D0DEF804C00CF0030BABF10104DE
:10081000012C17D80198744681680322E468B2401D
:100820009143B4402143816041684FEA480E9943A7
:10083000CCF3001303FA0AF30446D0431943616072
:100840000CE000BF0321B140019CC843BBF1030F82
:10085000B64603D1B6464FF0030B23E0E168029A97
:1008600001409368BBF1020F03FA0EF341EA030162
:10087000E16017D16FF0030101EA5A01214405F04C
:100880001C040F23D1F820C003FA04FB13692CEADF
:100890000B0CA34043EA0C03019C0B62D2F804C08A
:1008A0000CF0030B21680BFA0EF20140114321609A
:1008B000DDF808E01CF4403F8ED041F26000C4F245
:1008C0000200016840F2004C41F001010160016842
:1008D000C4F2010C01F00101039103992AF0030114
:1008E0004FF6084A6144CFF6FF7A05F00C030F205B
:1008F00051F80A2000FA03F40098A24300FA03F327
:100900001A4341F80A20DCF80810DEF8042041EA16
:10091000090340F20C40D40258BF21EA0903CCF885
:100920000830C4F201000168940241EA090358BF8B
:1009300021EA09030360DCF80410940341EA090387
:1009400058BF21EA0903CCF80430DCF80010D203C8
:1009500041EA090358BF21EA0903CCF800303BE71C
:1009600004B0BDE8F08F00001823002A08BF282338
:10097000C150704740F2D420C2F2000000687047B6
:1009800040F2000040F2D421C2F20000C2F20001A5
:1009900040680A68104408607047000080B5032072
:1009A00000F078F80F2000F009F800281CBF0120A3
:1009B00080BD00F029F8002080BD000070B540F235
:1009C0000006C2F200067168E1B1044640F2080078
:1009D000C2F200004FF47A720068B2FBF1F1B0FB92
:1009E000F1F000F0B7FE0F2C4FF0010508D838B930
:1009F0004FF0FF3021460022002500F01FF8346040
:100A0000284670BD012070BD82B041F25800C4F28A
:100A10000200816841F001018160816801F00101FB
:100A200001910199016841F080510160006800F076
:100A300080500090009802B000F0D0B810B54EF68B
:100A40000C5CCEF2000CDCF80030C3F3022E8EF00A
:100A50000704042C28BF0424BEF103034FF0FF3E1B
:100A60000EFA04F438BF0023A14399400EFA03F3B1
:100A70009A43114300F00F02043A624409010C3218
:100A800000F16043B0F1FF3FC8BF03F5644211704D
:100A900010BD00004EF60C51CEF200010A684FF670
:100AA000FF031A4060F30A2242F0806040F0FD70BC
:100AB00008607047B0F5007F42D0002840F0808089
:100AC00047F21400C4F2000050F8141CC26E01F486
:100AD000C06122F48072B1F5806FC2662ED150F8E9
:100AE000141C012262F34A2140F8141C40F2080150
:100AF000C2F200010968322251434DF68362C4F20A
:100B00001B32A1FB0212910C0268520511D54A1C3E
:100B10000FD0026852050CD559B10268520508D5AC
:100B2000012906D00268520503D50229A1F104016A
:100B3000EAD10068400544BF032070470020704799
:100B400047F21400C4F2000050F8141CC26E01F405
:100B5000C06142F48072B1F5806FC266EED150F888
:100B6000141C012262F34A2140F8141C40F20801CF
:100B7000C2F200010968322251434DF68362C4F289
:100B80001B32A1FB0212910C0268520511D54A1CBE
:100B90000FD0026852050CD559B10268520508D52C
:100BA000012906D00268520503D50229A1F10401EA
:100BB000EAD10068400544BF03207047BEE700BF8C
:100BC00047F21400C4F2000050F8141C022262F331
:100BD0004A2140F8141C00207047000047F208002A
:100BE000C4F20000016841F48041016070470000D8
:100BF0002DE9F04700286DD042F2000AC4F2020A43
:100C00000446DAF800000D4600F00F0088420CD2CE
:100C1000DAF8000020F00F002843CAF80000DAF8E4
:100C2000000000F00F00A84254D1216841F20808EA
:100C3000C807C4F2020803D1880740F1D880BDE09C
:100C4000606802283AD0032840D158F8082C920155
:100C500040D5D8F80420D8F8043042F2004702F01A
:100C60000302C3F30313C0F2F4070133032A04BFE2
:100C700041F20027C0F27A07D8F80420B7FBF3F35B
:100C8000D8F80470C2F306225A43C7F3416302271F
:100C900007EB4303B2FBF3F24BF20043C0F2C44351
:100CA0009A4261D9D8F8002012F0F00F51D089078C
:100CB0005AD5A168002957D14BE000BF58F8081C4D
:100CC00089035CBF0120BDE8F08707E058F8081CE5
:100CD000490503D40120BDE8F08700BFD8F8001013
:100CE00001F00C0104293FD0D8F8001001F00C01EC
:100CF000082939D0D8F8001001F00C010C2933D1A3
:100D0000D8F80410D8F8042042F2004301F003019F
:100D1000C2F30312C0F2F4030132032904BF41F20B
:100D20000023C0F27A03D8F80410B3FBF2F2D8F82B
:100D30000430C1F306215143C3F34162022303EBA4
:100D40004202B1FBF2F14BF20042C0F2C4429142C6
:100D50000AD9D8F80010082262F307114FF00109F0
:100D6000C8F8001002E000BF4FF00009D8F80010EA
:100D700021F003010843C8F80000FFF7FBFD064619
:100D800041F28837D8F80000616800F00C00B0EB41
:100D9000810F07D0FFF7EEFD801BB842F2D9032088
:100DA000BDE8F0872168880708D4B9F1000F1ED08C
:100DB000D8F8000020F0F00017E000BF480705D584
:100DC000D8F8000040F4E060C8F80000080706D535
:100DD000D8F80000072262F30D20C8F80000D8F808
:100DE0000000A26820F0F0001043C8F80000DAF814
:100DF000000000F00F00A8421BD9DAF8000020F034
:100E00000F002843CAF80000FFF7B4FD064641F280
:100E1000883700BFDAF8000000F00F00A84207D0C2
:100E2000FFF7A8FD801BB842F4D90320BDE8F08786
:100E30002168480707D5D8F80000E26820F4E06090
:100E40001043C8F80000080708D5D8F80000216949
:100E500020F4605040EAC100C8F80000D8F8000053
:100E600042F20041C0F2F40100F00C0004280846F0
:100E70002DD0D8F8000000F00C00082841F2002026
:100E8000C0F27A0023D0D8F8002002F00C020C2A1D
:100E90001CD1D8F80420D8F8043002F00302C3F3C0
:100EA00003130133032A08BF0146D8F80400B1FB3D
:100EB000F3F1D8F80420C0F306204843C2F341619F
:100EC000022202EB4101B0FBF1F000E00020D8F873
:100ED000001043F2B812C1F30311C0F60002515CD6
:100EE00040F2080201F01F0120FA01F140F2000077
:100EF000C2F200000068C2F200021160BDE8F047D3
:100F0000FFF75CBD2DE9F04182B0002800F00681BA
:100F10000446007841F20006C007C4F2020655D12B
:100F20002078800774D42078000700F1978020781B
:100F3000400700F1B7802078800600F10781E06962
:100F4000002840D0B16801F00C010C2940F0568116
:100F5000012800F0E380F068216A00F003028A4271
:100F600040F0DC80626A6FF00F0300F0F00103EBE9
:100F70000212914240F0D280A16A00F4FE42B2EB2C
:100F8000012F40F0CB80E16A00F07842B2EBC16FF4
:100F900040F0C480226B0023CFF6E07303EB0252D3
:100FA00000F4C0016FF31402914240F0B780616B0E
:100FB0004FF07E4202EB016100F0C06001F07E4123
:100FC000884240F0AB800020F1E100BFB06800F043
:100FD0000C01F06808295BD0032281F00C0122EAA1
:100FE00000000844B0FA80F0400951D16068B0F5C3
:100FF000803F07D0B0F5A02F40F0D680306840F495
:1010000080203060306840F480303060D7E000BF2E
:10101000B068F16800F00C00042869D001F0030109
:1010200080F00C0081F002010844B0FA80F0400921
:101030005ED1E1683068002900F0CE8040F4807015
:101040003060FFF797FC05463068400500F1EC8002
:10105000FFF790FC401B0228F6D920E16169D6F821
:101060009400002900F08C8040F00100C6F8940044
:10107000FFF780FC054600BFD6F8940080073FF5D7
:1010800056AFFFF777FC401B0228F5D907E100BFF8
:10109000306880037FF544AF606800287FF440AF7C
:1010A0003CE000BFB06D10F0805808D1B06D40F04A
:1010B0008050B065B06D00F080500190019847F20B
:1010C0000007C4F200073868C0052BD4386840F424
:1010D00080703860FFF74EFC054600BF3868C005D9
:1010E00020D4FFF747FC401B0228F7D9D7E000BF08
:1010F0003068400501D5E06880B17068216920F052
:10110000FE4040EA0160706040F20000C2F2000060
:101110000068FFF753FC00283FF405AF012002B040
:10112000BDE8F081A068012808D0052840F09A8029
:10113000D6F8900040F00400C6F89000D6F8900071
:1011400040F00100C6F890009AE000BFA169D6F80F
:101150009800002970D040F00100C6F89800FFF711
:1011600009FC0546D6F8980080073FF5E8AEFFF782
:1011700001FC401B02284FF00300F3D917E100BF28
:1011800020F00100C6F89400FFF7F4FB054600BF0D
:10119000D6F8940080077FF5CAAEFFF7EBFB401B43
:1011A0000228F5D97BE000BF3168002821F48031A6
:1011B0003160316821F48021316000F08F80FFF7C9
:1011C000D9FB0546306880033FF5AAAEFFF7D2FB96
:1011D000401B6428F6D962E020F480703060FFF78D
:1011E000C9FB0546306840057FF59DAEFFF7C2FBA1
:1011F000401B02284FF00300F4D9D8E031680228E0
:1012000021F0807131604FD1FFF7B4FB054600BF7C
:101210003068800140F18E80FFF7ACFB401B022854
:101220004FF00300F4D9C2E07068216920F0FE405D
:1012300040EA0160706076E620F00100C6F8980090
:10124000FFF798FB054600BFD6F8980080077FF5AA
:1012500076AEFFF78FFB401B02284FF00300F3D957
:10126000A5E000BFD6F89010002821F00101C6F8D3
:101270009010D6F8901021F00401C6F890103DD0DF
:10128000FFF778FB054641F2883700BFD6F890009B
:10129000800745D4FFF76EFB401BB842F6D9032008
:1012A00002B0BDE8F08100BFF0684FF6FF7120F09A
:1012B0000300F060F068CFF6EE610840F060FFF7E1
:1012C00059FB0446306880017FF57DAEFFF752FB85
:1012D000001B02284FF00300F4D968E0FFF74AFB37
:1012E000054600BF306880037FF51AAEFFF742FB6A
:1012F000401B64284FF00300F4D958E0FFF73AFB95
:10130000054641F2883700BFD6F89000800707D520
:10131000FFF730FB401BB8424FF00300F4D946E022
:10132000B8F1000F7FF407AEB06D20F08050B065CB
:1013300001E600BFF06848F20C01C0F29F1104F111
:10134000200700EA010C8ECF6FF00F00D4E90C5497
:1013500000EB02100022CFF6E07241EA0C0102EB32
:10136000055208436FF314024FF07E4540EA032014
:1013700005EB0465104305F07E4540EAC76028434D
:10138000F060306840F080703060F06840F080704D
:10139000F060FFF7EFFA0446306880013FF513AEC6
:1013A000FFF7E8FA001B02284FF00300F4D902B05F
:1013B000BDE8F081002804BF01207047B0B50446A5
:1013C000406A28B10020206104F1140006E000BF4B
:1013D0006068B0F5827F03D004F11C000021016039
:1013E0000025A56294F85D0020B9204684F85C5081
:1013F00000F052F8022084F85D002068D4F80CE078
:101400000268BEF5E06F22F0400202604EF4006216
:1014100098BF0125B2F5706F1CBF0023A3624FEA8D
:10142000053CD4E90135D4E9042103F4827305F4C1
:1014300004452B4402F002021A44A36901F00101A1
:10144000E569114403F40072114405F03802256A7D
:10145000114405F08002A56A114405F400521143BD
:1014600001600421626A0EF4706501EA1341636B46
:1014700045EA0C0502F01002294303F0080311436A
:1014800019434160C16921F40061C161002001215B
:10149000206684F85D10B0BD80B586B0006843F664
:1014A0000001C4F20001884202D006B080BD00BF36
:1014B00041F24C00C4F20200C16841F48041C160B5
:1014C000C16801F4804101910199016841F0020174
:1014D0000160006801A900F00200019001984FF43A
:1014E00020400190022002900020CDE90300052059
:1014F000059040F20040C4F60000FFF747F906B03F
:1015000080BD00002DE9F04381B0044690F85C00F6
:10151000012803D1022001B0BDE8F0834FF001099A
:101520001D4616460F4684F85C90FFF723FA94F8A0
:101530005D10012974D18046002F4FF0010018BFC3
:10154000002E00F0DA800320002184F85D0021667F
:10155000A763A687E6872164A4F84410A4F8461080
:10156000A068E164B0F5004F2068216507D10168EB
:1015700021F040010160016841F48041016001688F
:10158000490603D4016841F0400101606168731E9F
:10159000E268B1FA81F1B3FA83F349095B09B2F564
:1015A000E06F41EA03013DD931B137F8021BC16058
:1015B000A763E18F0139E187E18F002973D0691CAE
:1015C0001BD000BF8168890706D4FFF7D3F9A0EBD1
:1015D0000800A84208D3B9E0A16B31F8022BC26021
:1015E000A163E08F0138E087E08F00285BD020689E
:1015F00081688907E9D5EFE720688168890703D406
:10160000FFF7B8F908E000BFA16B31F8022BC26008
:10161000A163E08F0138E087E08F0028ECD142E041
:1016200002206AE089B1E18F02294FF6FE7103D3EF
:1016300037F8022BC26004E03A7801310273A06BE4
:10164000471CA763E08F0844E087E08F58B3681C0D
:1016500061D04FF6FE70461C08E000BFFFF78AF924
:10166000A0EB0800A84273D2E08FE0B12068816847
:101670008907F3D5E18F022908D3A16B31F8022B3A
:10168000C260A1634FF6FE7007E000BFA16B09784E
:101690000173A06B0130A0633046E18F0844E087FE
:1016A000E08F0028E2D120464FF4C0512A4643463D
:1016B00000F04EFF68B920462946424601F00CF87A
:1016C00038B920464FF4C0612A46434600F040FF37
:1016D00028B1206E40F02000206620202066A068FF
:1016E00038B9002000902068C1680091806800909F
:1016F0000098206E002818BF0120002184F85D901A
:1017000084F85C1001B0BDE8F08300BFFFF732F948
:10171000E08F0028C7D0206881688907F6D5E18F5F
:10172000012909D9A16B31F8022BC260A163E08FB6
:101730000238E087ECE700BFA16B09780173A06B6A
:101740000130A063E08F0138E087E1E70320D4E7B0
:101750000320D2E7411E0020B0EB116F1CBF012017
:1017600070474EF21002CEF2000251604EF6235145
:10177000CEF20001F0230B700721906011607047DA
:10178000FEE700002DE9F04385B040F20044074633
:101790002A20C4F60004164689468DF80700204624
:1017A0004FF4804100229846FFF7DEF840F29005A2
:1017B000C2F200050DF10701284601220A23FFF7B6
:1017C000A1FE07F1280000BA000CADF80800204681
:1017D0004FF480410122FFF7C7F802A928460222F0
:1017E0000A23FFF78FFE06F1280000BA000CADF8BF
:1017F0000A0020464FF480410122FFF7B5F80DF1B1
:101800000A01284602220A23FFF77CFE2B208DF8CE
:101810000D0020464FF480410022FFF7A5F80DF19E
:101820000D01284601220A23FFF76CFE09F135005D
:1018300000BA000CADF80E0020464FF480410122A2
:10184000FFF792F80DF10E01284602220A23FFF756
:1018500059FE08F1350000BA000CADF81000204622
:101860004FF480410122FFF77FF804A928460222A5
:101870000A23FFF747FE2C208DF8130020464FF473
:1018800080410022FFF770F80DF113012846012274
:101890000A23FFF737FE05B0BDE8F08370B50446B4
:1018A00000200021EF2286230025FFF76BFF40F286
:1018B000F40160BAC2F200014A1948536035B5F527
:1018C000F07F50809080D080108150819081D081B5
:1018D000108250829082D082108350839083D08374
:1018E000108450849084D084108550859085D08554
:1018F000108650869086D086108750879087D08734
:10190000A2F84000A2F84200A2F84400A2F8460063
:10191000A2F84800A2F84A00A2F84C00A2F84E0033
:10192000A2F85000A2F85200A2F85400A2F8560003
:10193000A2F85800A2F85A00A2F85C00A2F85E00D3
:10194000BAD140F20040C4F600004FF480410122B9
:10195000FFF70AF840F2900440F2F4058726C2F23D
:101960000004C2F2000500BF204629464FF4F07281
:101970004FF48073FFF7C6FD013EF5D170BD000046
:101980002DE9F04F81B04FF09040202100224FF020
:1019900020080026FEF7E8FF6420FEF7E3FE4FF084
:1019A0009040202101224FF0010AFEF7DDFF642064
:1019B000FEF7D8FE4FF0904080210022FEF7D4FFC2
:1019C0004FF0904040210022FEF7CEFF6420FEF74A
:1019D000C9FE40F200441120C4F600048DF8030053
:1019E00020464FF4804100224FF01109FEF7BCFF62
:1019F00040F29005C2F200050DF1030128460122D4
:101A00000A23FFF77FFD7820FEF7ACFE36208DF825
:101A1000030020464FF480410022FEF7A5FF0DF1A0
:101A20000301284601220A23FFF76CFD70208DF880
:101A3000030020464FF480410122FEF795FF0DF18F
:101A40000301284601220A23FFF75CFD3A208DF8A6
:101A5000030020464FF480410022FEF785FF0DF180
:101A60000301284601220A23FFF74CFD05208DF8CB
:101A7000030020464FF480410122FEF775FF0DF16F
:101A80000301284601220A23FFF73CFDB2208DF80E
:101A9000030020464FF480410022FEF765FF0DF160
:101AA0000301284601220A23FFF72CFD0C208DF8A4
:101AB000030020464FF4804101220C27FEF754FF1B
:101AC0000DF10301284601220A23FFF71BFD2046E2
:101AD0004FF4804101228DF80370FEF745FF0DF1B0
:101AE0000301284601220A23FFF70CFD20464FF48C
:101AF000804101228DF80360FEF736FF0DF10301EE
:101B0000284601220A23FFF7FDFC332620464FF426
:101B1000804101228DF80360FEF726FF0DF10301DD
:101B2000284601220A23FFF7EDFC20464FF48041AE
:101B300001228DF80360FEF717FF0DF1030128461F
:101B400001220A23FFF7DEFCB7208DF803002046B0
:101B50004FF480410022FEF707FF0DF103012846F4
:101B600001220A23FFF7CEFC35208DF80300204622
:101B70004FF480410122FEF7F7FE0DF103012846E4
:101B800001220A23FFF7BEFCBB208DF8030020468C
:101B90004FF480410022FEF7E7FE0DF103012846D5
:101BA00001220A23FFF7AEFC19208DF8030020461E
:101BB0004FF480410122FEF7D7FE0DF103012846C4
:101BC00001220A23FFF79EFCC0208DF80300204667
:101BD0004FF480410022FEF7C7FE0DF103012846B5
:101BE00001220A23FFF78EFC2C208DF803002046EB
:101BF0004FF480410122FEF7B7FE0DF103012846A4
:101C000001220A23FFF77EFCC2208DF80300204644
:101C10004FF480410022FEF7A7FE0DF10301284694
:101C200001220A23FFF76EFC20464FF48041012277
:101C30008DF803A0FEF798FE0DF10301284601225E
:101C40000A23FFF75FFCC3208DF8030020464FF402
:101C500080410022FEF788FE0DF103012846012293
:101C60000A23FFF74FFC12208DF8030020464FF4A3
:101C700080410122FEF778FE0DF103012846012282
:101C80000A23FFF73FFCC4208DF8030020464FF4E1
:101C900080410022FEF768FE0DF103012846012273
:101CA0000A23FFF72FFC20464FF4804101228DF8D4
:101CB0000380FEF759FE0DF10301284601220A2395
:101CC000FFF720FCC6208DF8030020464FF480412A
:101CD0000022FEF749FE0DF10301284601220A23E6
:101CE000FFF710FC0F208DF8030020464FF48041D1
:101CF0000122FEF739FE0DF10301284601220A23D5
:101D0000FFF700FCD02720464FF4804100228DF8D9
:101D10000370FEF729FE0DF10301284601220A2374
:101D2000FFF7F0FBA4208DF8030020464FF480411C
:101D30000122FEF719FE0DF10301284601220A23B4
:101D4000FFF7E0FBA1208DF8030020464FF480410F
:101D50000122FEF709FE0DF10301284601220A23A4
:101D6000FFF7D0FBE0208DF8030020464FF48041C0
:101D70000022FEF7F9FD0DF10301284601220A2396
:101D8000FFF7C0FB20464FF4804101228DF803701D
:101D9000FEF7EAFD0DF10301284601220A23FFF7B1
:101DA000B1FB04208DF8030020464FF4804101224E
:101DB000FEF7DAFD0DF10301284601220A23FFF7A1
:101DC000A1FB0D2620464FF4804101228DF80360CF
:101DD000FEF7CAFD0DF10301284601220A23FFF791
:101DE00091FB20464FF4804101228DF80390FEF7CD
:101DF000BBFD0DF10301284601220A23FFF782FBF8
:101E00004FF0130820464FF4804101228DF80380E3
:101E1000FEF7AAFD0DF10301284601220A23FFF770
:101E200071FB2B208DF8030020464FF480410122E6
:101E3000FEF79AFD0DF10301284601220A23FFF760
:101E400061FB4FF03F0920464FF4804101228DF89D
:101E50000390FEF789FD0DF10301284601220A23B4
:101E6000FFF750FB54208DF8030020464FF48041CB
:101E70000122FEF779FD0DF10301284601220A2314
:101E8000FFF740FB4C208DF8030020464FF48041C3
:101E90000122FEF769FD0DF10301284601220A2304
:101EA000FFF730FB18208DF8030020464FF48041E7
:101EB0000122FEF759FD0DF10301284601220A23F4
:101EC000FFF720FB20464FF4804101228DF803608C
:101ED000FEF74AFD0DF10301284601220A23FFF710
:101EE00011FB0B208DF8030020464FF480410122A6
:101EF000FEF73AFD0DF10301284601220A23FFF700
:101F000001FB4FF01F0B20464FF4804101228DF85A
:101F100003B0FEF729FD0DF10301284601220A2333
:101F2000FFF7F0FA4FF0230A20464FF480410122D8
:101F30008DF803A0FEF718FD0DF1030128460122DC
:101F40000A23FFF7DFFAE1208DF8030020464FF463
:101F500080410022FEF708FD0DF103012846012211
:101F60000A23FFF7CFFA20464FF4804101228DF873
:101F70000370FEF7F9FC0DF10301284601220A2344
:101F8000FFF7C0FA04208DF8030020464FF480418B
:101F90000122FEF7E9FC0DF10301284601220A2384
:101FA000FFF7B0FA0C208DF8030020464FF4804173
:101FB0000122FEF7D9FC0DF10301284601220A2374
:101FC000FFF7A0FA11208DF8030020464FF480415E
:101FD0000122FEF7C9FC0DF10301284601220A2364
:101FE000FFF790FA20464FF4804101228DF80380DC
:101FF000FEF7BAFC0DF10301284601220A23FFF780
:1020000081FA2C208DF8030020464FF480410122F4
:10201000FEF7AAFC0DF10301284601220A23FFF76F
:1020200071FA20464FF4804101228DF80390FEF7AB
:102030009BFC0DF10301284601220A23FFF762FAF7
:1020400044208DF8030020464FF480410122FEF722
:102050008BFC0DF10301284601220A23FFF752FAF7
:1020600051208DF8030020464FF480410122FEF7F5
:102070007BFC0DF10301284601220A23FFF742FAF7
:102080002F208DF8030020464FF480410122FEF7F7
:102090006BFC0DF10301284601220A23FFF732FAF7
:1020A00020464FF4804101228DF803B0FEF75CFC1E
:1020B0000DF10301284601220A23FFF723FA2046E7
:1020C0004FF4804101228DF803B0FEF74DFC0DF175
:1020D0000301284601220A23FFF714FA20208DF875
:1020E000030020464FF480410122FEF73DFC0DF134
:1020F0000301284601220A23FFF704FA20464FF481
:10210000804101228DF803A0FEF72EFC0DF10301A2
:10211000284601220A23FFF7F5F921208DF8030054
:1021200020464FF480410022FEF71EFC0DF1030112
:10213000284601220A23FFF7E5F929208DF803003C
:1021400020464FF480410022FEF70EFC0DF1030102
:10215000284601220A23FFF7D5F901B0BDE8F08F28
:102160002DE9F04F87B0E02800F2C2800F467729B2
:1021700000F2BE800646073007F10F01984640F294
:102180000044A2F1200582B28BB230463946C4F633
:102190000004FFF7F7FAA8B2000140F290050190A1
:1021A00006F1280A07F1350098FA98FB0021C2F2DF
:1021B0000005009005E000BF02990131102900F0F0
:1021C0009780019843F2C8120844C0F60002175CD9
:1021D00000984FF00009084400BA4FEA10480291F5
:1021E00007E000BF1FFA89F07F0809F101090728FD
:1021F000E2D2F807F6D02A208DF80F0020464FF4DF
:1022000080410022FEF7B0FB28460DF10F010122AC
:102210000A23FFF777F90AEB090000BA060C2046FB
:102220004FF480410122ADF81060FEF79DFB284677
:1022300004A902220A23FFF765F920464FF48041E2
:102240000122ADF81260FEF78FFB28460DF1120156
:1022500002220A23FFF756F92B208DF8150020469D
:102260004FF480410022FEF77FFB28460DF1150157
:1022700001220A23FFF746F920464FF4804101224C
:10228000ADF81680FEF770FB28460DF1160102220C
:102290000A23FFF737F920464FF480410122ADF8B9
:1022A0001880FEF761FB284606A902220A23FFF7E1
:1022B00029F92C208DF81B0020464FF48041002284
:1022C000FEF752FB28460DF11B0101220A23FFF7FE
:1022D00019F920464FF480410122ADF80CB0FEF709
:1022E00043FB284603A902220A23FFF70BF979E7EB
:1022F00007B0BDE8F08F000070B51D4616460244D9
:102300000B44013A013B049C92B29BB2FFF73AFAAC
:1023100006FB05F0450040F20040C4F600004FF413
:1023200080410122FEF720FB40F29000AAB2C2F2E7
:10233000000021464FF47A73BDE87040FFF7E2B821
:102340002DE9F04F81B092461278002A64D040F215
:10235000F40640F2004840F2900799468B46054645
:10236000C2F200064FF0F814C4F60008C2F20007EB
:102370000CE000BFA8B21FFA8BF1D2B24B46FFF7B8
:10238000EFFE1AF8012F0835002A45D0A8B2E02840
:1023900088BF0BF1100B1FFA8BF088BF002578283F
:1023A000E8D300200021EF2286230025FFF7EAF979
:1023B000701974516035B5F5F07F44608460C46075
:1023C000046144618461C461046244628462C462E1
:1023D000046344638463C463046444648464C464C1
:1023E000046544658465C465E2D140464FF480418C
:1023F0000122FEF7B9FA8725384631464FF4F072CC
:102400004FF48073FFF77EF8013DF5D19AF8002074
:102410004FF0000B0025ADE701B0BDE8F08F0000E4
:10242000F0B581B040F21007C2F2000714460D4625
:10243000064606AA38461946009200F03DFA304694
:1024400029463A462346FFF77BFF01B0F0BD000066
:102450002DE9F04186B0002641F24C000596C4F209
:1024600002000168002241F0200101600168E025BE
:1024700001F0200100910099016841F00101016023
:10248000016801F0010100910099016841F0020129
:1024900001600068E02100F00200009000984FF019
:1024A0009040FEF761FA40F20044C4F60004204672
:1024B0004FF4804100224FF48048FEF755FA019511
:1024C00001AD01274FF090402946CDE902760496F0
:1024D000FEF75CF920462946CDE90187CDE9036680
:1024E000FEF754F906B0BDE8F081000070B540F287
:1024F000900043F60001C2F20000C4F200014FF464
:1025000082724FF400434FF4E06C4FF0020E01244E
:1025100080E80E5000F114014FF40075102670C1D0
:1025200000210722C0E90811C0E90A12C0E90C1114
:10253000FEF740FF002808BF70BDBDE87040FEF701
:102540000BB90000FEE70000FEE700007047000046
:102550002DE9F04782B000261F4690460D46814681
:102560008DF80360FEF706FA381A00EB0807FEF74D
:1025700001FA40F20801C2F2000109682322514326
:10258000090DD9F8004079430191A168294271D021
:10259000824618F1010037D0B5F5C06F1CD100BFDD
:1025A000207B8DF803009DF80300FEF7E3F9A0EB14
:1025B0000A00B84262D2019801990028A1F10101F4
:1025C0000191D9F80010896808BF074611F4C06F5F
:1025D000E6D100264EE000BFFEF7CCF9A0EB0A00E2
:1025E000B8424BD2019801990028A1F10101019153
:1025F000D9F80010896808BF07462942ECD10026A7
:10260000304602B0BDE8F0870026B5F5C06F25D191
:10261000207B8DF803009DF80300A06810F4C06FC4
:10262000EDD0207B8DF803009DF80300A06810F426
:10263000C06FE4D0207B8DF803009DF80300A068F4
:1026400010F4C06FDBD0207B8DF803009DF80300F1
:10265000A06810F4C06FDBD10CE000BFA068284276
:10266000CDD0A0682842CAD0A0682842C7D0A068B0
:102670002842F3D1304602B0BDE8F087D9E9000125
:102680004268B1F5827F22F0E00242600BD1D9F8B6
:102690000810B1F5004F02D0B1F5806F03D1016889
:1026A00021F040010160D9F82810B1F5005F07D191
:1026B000016821F400510160016841F4005101609A
:1026C000012089F85D00002089F85C00032630466F
:1026D00002B0BDE8F0870000F0B581B015460E46A7
:1026E0000446FEF747F9281A8719FEF743F940F226
:1026F0000801C2F200010968C1F3CB3179430091AE
:1027000021688A68120622D50546701C15D000BFC4
:10271000FEF730F9401BB8421CD2009800990028FF
:10272000A1F1010100912168896808BF07460806E8
:10273000EED40CE08868000609D58868000606D546
:102740008868000644BF88685FEA0060F2D4002011
:1027500001B0F0BDD4E900014268B1F5827F22F0FA
:10276000E00242600AD1A168B1F5004F02D0B1F594
:10277000806F03D1016821F040010160A16AB1F5C9
:10278000005F07D1016821F400510160016841F444
:1027900000510160012084F85D00002084F85C0095
:1027A000032001B0F0BD000070470000FEF7E8B85C
:1027B0004EF68850CEF20000016841F470010160CD
:1027C00070470000FEE7000094B0FEF7E7F8002431
:1027D00000200C94CDE90A44CDE90844FEF76AF9DB
:1027E000012006904FF480300790022003255521E8
:1027F0000D90CDE90E50CDE91010CDE9120006A8DC
:10280000FEF780FB20B1EFF3108072B6FEE700BF49
:102810000F20CDE9010501A80421CDE90344059469
:10282000FEF7E6F920B1EFF3108072B6FEE700BFC5
:10283000FFF70EFEFFF75AFEFFF7A2F80020FFF7A2
:102840002DF843F2D844C0F60104002000214FF4D3
:1028500078422346FFF7E4FD00201E211F22234675
:10286000FFF7DEFD00203C214FF4FC622346FFF71A
:10287000D7FD0CA32D206E2147F67C52FFF7D0FD2B
:102880004FF47A70FDF76EFF43F2B875C0F600059D
:1028900000200021F02287230095FFF72DFD00BFC7
:1028A000FEE700BF323032342D30312D3031203050
:1028B000303A30303A30310037B514460846064BCE
:1028C0006A46214600F0DCF804466946002000F024
:1028D0006EFC20463EBD0000AF31000802E008C893
:1028E000121F08C1002AFAD170477047002001E08A
:1028F00001C1121F002AFBD1704700002DE9FF5FC4
:1029000082B00021DDE90430020DDDF840B0034360
:1029100018D044F61050A2F2FF3242431514119819
:1029200001281FD0A5EB0B00401C5FEA000A4FF006
:1029300000064E4FDFF83891B046504615D5CAF123
:10294000000413E0119801244AA3012801D16FEA81
:102950000B010298119AC0E90031C0E9024206B0A9
:10296000BDE8F09FCBF10000DFE704460021404ABC
:10297000491842EB0450CDE9001012E0E00707D0FF
:1029800032463B4640464946FDF730FD8046894683
:1029900032463B4610461946FDF728FD06460F46CF
:1029A0006410002CEAD1DDE90401DDE90023BAF16D
:1029B000000F06DAFDF71AFD42464B46FDF716FDFD
:1029C00005E0FDF785FD42464B46FDF781FD0446D7
:1029D0000E460022284BFDF703FE03D84FF0FF30D0
:1029E000014607E00022254B20463146FDF757FC03
:1029F000FDF7DDFD102409E0002C0ADB0A2200238C
:102A0000FDF71CFC039B30321A55641E50EA01028C
:102A1000F2D1641C039AC4F111031444119A012ADF
:102A200003D0012208430DD10AE0084304D000205E
:102A30004FF0110B119072E7A3EB0B056D1E0DE02B
:102A40005B4504DD4FF0000205F1010504E003DA07
:102A50004FF00002A5F10105002AECD0029811996F
:102A6000C0E90231C0E9004579E7000000001440E8
:102A70000000F03F300000000000F0430000E03FA5
:102A80002DE9FF4F95B09B468946064600250FE28B
:102A9000252877D100242746F84A0121059400E033
:102AA000044316F8013F203B01FA03F01042F7D12E
:102AB00030782A2811D06FF02F033078A0F130023F
:102AC000092A16D8059A44F0020402EB820203EBAD
:102AD00042021044761C0590EFE759F8042B05924A
:102AE000002A03DA504244F40054059044F00204F2
:102AF000761C30782E2816D116F8010F44F0040405
:102B00002A280DD06FF02F023078A0F13003092B66
:102B100009D807EB870302EB4303C718761CF3E7DA
:102B200059F8047B761C30786C280FD006DC4C28D2
:102B300017D068280DD06A2814D104E0742810D06A
:102B40007A280FD10DE044F400140AE044F4801414
:102B500001E044F440147278824202D104F58014FA
:102B6000761C761C307866280BD013DC582877D07A
:102B700009DC002875D04528F6D04628F4D047282F
:102B80001AD19DE118E0632835D0642879D06528F2
:102B900012D195E1702873D008DC6728F1D069283C
:102BA0006FD06E280DD06F2806D1B5E073282CD0D9
:102BB000752875D0782874D05A46179990476D1C9F
:102BC00075E1C4F30250022809D003280DD0D9F8CA
:102BD000001004280DD00D6009F1040967E1D9F84F
:102BE0000010EA17C1E90052F6E7D9F800100D808D
:102BF000F2E70D70F0E719F8041B8DF800100020C3
:102C00008DF80100EA46012003E059F804AB4FF0CB
:102C1000FF3061074FF0000102D40DE008F101011F
:102C20008846B9420FDA8045F8DB1AF80810002907
:102C3000F4D108E008F1010188468142FADB1AF874
:102C400008100029F6D105985B46A0EB080721463D
:102C50003846179A00F094FA284400EB080507E07C
:102C60004DE029E10DE01AF8010B5A4617999047FB
:102C7000B8F10108F7D25B4621463846179A13E1AE
:102C800042E00A220092C4F302524FF0000A022AE4
:102C900008D059F804CB032A4FEAEC710AD00DE0B2
:102CA00029E02AE009F1070121F00702F2E802C158
:102CB000914609E00FFA8CFC4FEAEC71042A03D12B
:102CC0004FFA8CFC4FEAEC71002907DA0A46002122
:102CD000DCF1000C61EB02012D2202E0220504D59B
:102CE0002B228DF80420012203E0E20701D02022EC
:102CF000F7E7904659E00A2102E010220DE010218A
:102D00004FF0000A00910BE010224FF0000A44F04F
:102D100004040827009203E008224FF0000A009202
:102D2000C4F30252022A05D059F804CB0021032A29
:102D300008D009E009F1070121F00702F2E802C119
:102D4000914605E01FFA8CFC042A01D10CF0FF0C1F
:102D50004FF00008220728D5702806D0009B83F08A
:102D6000100353EA0A0305D00EE040228DF8042038
:102D7000012208E05CEA010206D030228DF804202E
:102D80008DF8050002229046009B83F0080353EA69
:102D90000A030AD15CEA010201D1620705D530229B
:102DA0008DF804204FF001087F1E582804D034A06D
:102DB00003900EA802900DE036A0F9E75346604656
:102DC000009AFDF73BFA84460398825C0298401E05
:102DD000029002705CEA0100F0D1029806A9081A7C
:102DE00000F1200A600702D524F4803400E00127B6
:102DF000574502DDA7EB0A0000E0002000EB0A01C6
:102E0000009005984144401A0590E00306D45B46C3
:102E10002146179A059800F0B3F90544002706E00B
:102E200001A85A46C05D179990476D1C7F1C474505
:102E3000F6DBE0030CD55B462146179A059800F0B7
:102E40009FF9054404E030205A46179990476D1CBD
:102E50000099481E00900029F5DC08E002980299CC
:102E60005A460078491C0291179990476D1CBAF197
:102E70000001AAF1010AF1DC65E100000928010066
:102E800030313233343536373839616263646566E0
:102E900000000000303132333435363738394142A2
:102EA000434445460000000000F058F90544761CF4
:102EB000307800287FF4ECAD19B02846BDE8F08FDB
:102EC000620700D4062709F1070222F0070CFCE88C
:102ED0000223E14603F000485FEA080C02D00FF23B
:102EE000702C0DE05FEA045C02D50FF2682C07E05D
:102EF0005FEAC47C02D00FF2602C01E0AFF2700CEC
:102F00004FF0FF3823F00043CDF850C065280CD0B7
:102F100006DC452809D046281DD047283DD13DE094
:102F2000662818D067287ED138E00021112F01DBF8
:102F3000112000E0781CCDE9000106A90EA8FFF7DA
:102F4000DDFCDDE90F010E9A03910021009207F1EB
:102F5000010A04914DE04FF000400097CDE90110C7
:102F600006A90EA8FFF7CAFCDDE90F0203920E9B2B
:102F700011990022DDF80CA00093049211B9791C7C
:102F800000EB010AB7EB0A0004D4C0F1FF3007F1EF
:102F9000010A0490AAEB0700019044E0012F00DA37
:102FA00001270021112F01DD112000E03846CDE975
:102FB000000106A90EA8FFF7A1FCDDE90F010E9A9A
:102FC0000391002104910092BA4621070CD4039981
:102FD000514500DA8A46BAF1010F05DD009AAAF1DF
:102FE0000101515C302908D0B84202DA10F1040F17
:102FF00006DA0121CDE9011015E0AAF10101E9E7A6
:10300000002805DC049901440491AAEB000102E0C8
:10301000411C514500DD8A460499401A401C01902C
:103020004FF000400290200704D40198504501DB86
:10303000CDF8048000208DF84F0002980DF14F0765
:10304000B0F1004F25D02B200E9002984FF00208CF
:1030500000280CDA404202902D200E9007E00A2151
:103060000298FDF7D5F83031029007F8011DB8F14C
:103070000001A8F10108F2DC02980028EFD1791EC6
:103080000E980870307800F0200040F0450007F8F6
:10309000020D12A8C01B00F107081498007800B1B7
:1030A000012000EB0A01019801EBE0710598414411
:1030B000401A401E0590E00306D45B462146179A4D
:1030C000059800F05DF805441498007818B15A4648
:1030D000179990476D1CE00324D55B462146179A4B
:1030E000059800F04DF805441CE00498002807DB23
:1030F000DDE90301884203DD0098405C179901E097
:10310000179930205A469047049805F10105401C54
:1031100004900198401E019004D12E205A46179920
:1031200090476D1CBAF10001AAF1010ADDDC05E04F
:1031300017F8010B5A46179990476D1CB8F100011A
:10314000A8F10108F4DC5B462146179A0598ABE626
:103150002D0000002B000000200000002DE9F041B0
:10316000044600251E461746880404D405E0394667
:103170002020B0476D1C641EF9D52846BDE8F081BB
:103180002DE9F041044600251E469046C80301D5AE
:10319000302700E02027880404D505E04146384662
:1031A000B0476D1C641EF9D52846BDE8F0810A6859
:1031B000531C0B60107070470000000000000000FE
:1031C00001020304060708090000000000000000D7
:1031D00000000000000000000000000808080808C7
:1031E000080800001818000000486C2412000000B5
:1031F00000000000000000000000002424247F12D2
:1032000012127F12121200000000081C2A2A0A0C57
:103210001828282A2A1C0808000000222515151540
:103220002A585454542200000000000C1212120AB2
:1032300076252911916E00000006060403000000A7
:1032400000000000000000000040201010080808E6
:103250000808081010204000000204080810101090
:1032600010101008080402000000000008086B1C81
:103270001C6B080800000000000000000808080897
:103280007F0808080800000000000000000000009F
:10329000000000000606040300000000000000001B
:1032A000FE00000000000000000000000000000020
:1032B00000000000060600000000804040202010B2
:1032C00010080804040202000000001824424242D0
:1032D0004242424224180000000000080E0808087C
:1032E00008080808083E00000000003C4242422056
:1032F00020100804427E00000000003C42422018DA
:1033000020404042221C00000000002030282424DD
:1033100022227E20207800000000007E0202021A95
:1033200026404042221C0000000000382402021AFD
:1033300026424242241800000000007E2222101083
:1033400008080808080800000000003C4242422427
:1033500018244242423C000000000018244242422D
:1033600064584040241C00000000000000001818B1
:103370000000000018180000000000000000000815
:1033800000000000000808040000004020100804AD
:1033900002040810204000000000000000007F0030
:1033A00000007F0000000000000000020408102060
:1033B00040201008040200000000003C4242464049
:1033C00020101000181800000000001C225A55554B
:1033D00055552D42221C0000000000080818141446
:1033E000243C224242E700000000001F2222221E4D
:1033F00022424242221F00000000007C42420101A2
:1034000001010142221C00000000001F2242424232
:1034100042424242221F00000000003F4212121EA0
:1034200012120242423F00000000003F4212121EF0
:1034300012120202020700000000003C22220101D9
:1034400001712122221C0000000000E7424242429A
:103450007E42424242E700000000003E08080808A1
:1034600008080808083E00000000007C101010103A
:10347000101010101010110F0000007722120A0E09
:103480000A12122222770000000000070202020244
:1034900002020202427F0000000000773636363614
:1034A0002A2A2A2A2A6B0000000000E346464A4ADC
:1034B00052525262624700000000001C224141410A
:1034C00041414141221C00000000003F4242424273
:1034D0003E020202020700000000001C224141419E
:1034E00041414D53321C60000000003F4242423EC9
:1034F0001212222242C700000000007C4242020455
:1035000018204042423E00000000007F49080808A1
:1035100008080808081C0000000000E74242424278
:1035200042424242423C0000000000E74242222464
:1035300024141418080800000000006B4949494988
:103540005555362222220000000000E742242418AC
:103550001818242442E700000000007722221414E7
:1035600008080808081C00000000007E2120101038
:1035700008040442423F00000078080808080808D0
:103580000808080808087800000002020404080877
:103590000810102020204040001E101010101010A5
:1035A0001010101010101E00003844000000000021
:1035B000000000000000000000000000000000000B
:1035C00000000000000000FF0006080000000000EE
:1035D0000000000000000000000000000000003CAF
:1035E0004278444242FC0000000000030202021A3A
:1035F00026424242261A0000000000000000003867
:10360000440202024438000000000060404040785C
:103610004442424264D80000000000000000003C28
:10362000427E0202423C0000000000F08808087E52
:1036300008080808083E0000000000000000007CA8
:1036400022221C023C42423C000000030202023AD9
:103650004642424242E700000000000C0C00000E0F
:1036600008080808083E000000000030300000385C
:10367000202020202020221E0000000302020272CF
:10368000120A1612227700000000000E080808082F
:1036900008080808083E0000000000000000007F45
:1036A0009292929292B70000000000000000003B4E
:1036B0004642424242E70000000000000000003C99
:1036C00042424242423C0000000000000000001B59
:1036D00026424242221E020700000000000000783D
:1036E00044424242447840E000000000000000777D
:1036F0004C040404041F0000000000000000007CD3
:1037000042023C40423E0000000000000008083E2B
:1037100008080808083000000000000000000063EE
:103720004242424262DC000000000000000000E76C
:10373000422424140808000000000000000000EBF0
:103740004949555522220000000000000000007683
:1037500024181818246E000000000000000000E784
:103760004224241418080807000000000000007E0E
:1037700022100808447E000000C0202020202010D5
:10378000202020202020C000101010101010101039
:10379000101010101010101000060808080808106B
:1037A00008080808080806000C32C20000000000E3
:1037B0000000000000000000D166D966D987D9A7B3
:1037C000D9A7D9A7D9A7D9A7E1C7D9A7D9A7E1A7C9
:1037D000E1C7E186D966D946D946D945E1A7D98658
:1037E000D986E1A7E1A7D9A7D986E1A7E187E18733
:1037F000D987D986D946E187E187D987D9A7D9A7BB
:10380000E186E1A7E1A7E1A7E1A7E1C7E1C7E1C739
:10381000E9E8E1C7E1E8E1C7E1C8E9E8EA08EA0860
:10382000E9E7E1C7E1C7E1C7E1A7E187E186E18612
:10383000E187E187E1A7E1A7E9C7E1A7E1A7E1A760
:10384000E1A7E1A7E187E1A7E1C7EA29E9E8E9E81B
:10385000EA08EA08E9E8E9E8E9E8E1A7E1A6E1A77A
:10386000D986D987D986D946D946E166E186E16607
:10387000E1A7E186E186E186E186E187E187E1660D
:10388000E146E145E145E165E145E145E966E125DE
:10389000E125E145E166D946D925D8E5D925D946BE
:1038A000E187D966D1C8DB2DF639EF3DE75EBEBDB5
:1038B0009E5D861D7DDC75BC75BC75DC6D7B6D7B8E
:1038C00075BC759C759B759B6D7B759C759B965E99
:1038D000A69E8DBA85BB85BB85BB85BB85BB7D9B05
:1038E0007DBB7DBB85BB85BB8DBB8DBA8DBA859BF2
:1038F000757A6D5A653A5D1A655B54FA4CDA4499EB
:103900003C5854FA5D1A54D954FA4CB954D954D984
:103910004CB954FA4C994478449844583C3744780C
:10392000447844784478449844583C173C38447868
:1039300044B9447944993C7944993C783C583C5882
:103940003C793C79449944994499447944993C5848
:103950002BF734384499447944784478447844992E
:10396000445844783C584478447844784C99447896
:1039700044373C373C173C373C1733F63BF733D6DC
:10398000339544172B342B541AD21AB21AD322F37C
:103990001AB21AD21AB11250D987D987D9A7D987A2
:1039A000D9A7D9A7D9A7D9A7D987E1A7D9A7D98650
:1039B000D986D966D966D946D145D966E1C7E1C766
:1039C000D9A7E1C7D9A7D986D9A6D987D987E18749
:1039D000D987E187E187E1A7E1A7E187D9A7D9A640
:1039E000E1A7E1A7E1A7E1A7E1A7E1C7E1A7E1A777
:1039F000E1A7E1C7E1C7E1C7E1C8EA08EA08EA08C8
:103A0000E1A7E1A7E187E1A7E1A7E187E187E9A7CE
:103A1000E187E187E1A7E1A7E1A7E1A7E1A6E1A7A7
:103A2000E1A7E1A7E187E1A7E9E8EA29EA08EA08CE
:103A3000EA08E9E8E9C7E9C7E9C7E1A7E1A7E1C7FB
:103A4000E1A7D986D986E186E166D946D945D94527
:103A5000E186E186E186E186E9A7E187E187E18603
:103A6000E986E166E145E165E146E146E145E125BA
:103A7000E125E145E166E146D926D905D925E146AA
:103A8000E166D987D209DB6FFE9AEF3DE73EC6FEBD
:103A90008DFB8E5E7DDC7DDC75DC7DFD75BC759CF3
:103AA00075BC759B759B759B6D7B6D7B75BC8E1D09
:103AB000A6BE85BA859B85BB85BB85BB85BB7DBB0B
:103AC0007DBB7DBB7D9B85BB8DDB8DBA85BA85BB00
:103AD000755A6D5A653A5D3A5D3B54D94CBA449972
:103AE0004CDA5D3B5D1A5CFA54FA54FA54FA54DA33
:103AF0004CB94CB94C9944784C994CB94499449878
:103B00004498449844784C9944783C3734173C584E
:103B10003C58449944993C583C583C583C783C5853
:103B20003C593C58447944994C9A44793C583C5807
:103B30002BF734173C583C584478447844984478E0
:103B400044583C58447844784479447844794458FB
:103B5000443744583C573C373C3733F73C1733D64F
:103B600033952B742B342B341AD21AD322F31AD256
:103B70001AB21AD21A911A71D9A7D987D987D9C777
:103B8000E1A7E1C7E1A7E1A7E1A7E1A7E1A7E187F5
:103B9000E186D966D966D966E1A7E1A7E1C7E1C7A1
:103BA000E1C7E1A7D986E1A7E187D966D986E1A770
:103BB000D987E187E1A7E1A7E187E1A7E187E1876D
:103BC000E187E1A7E1A7E187E1A7E1C7E1C7E1C894
:103BD000E1C7E1C7E1C7E9E8E9E8E9E8E1E8E1C808
:103BE000E1A7E1C7E1A7E1C7E1C7E1A7E1A7E1A735
:103BF000E1C7E1A7E1A7E1A7E1A7E1A7E187E187A5
:103C0000E9A7E9C7E9A7E9A7E1C8E9E8E9E8E1C860
:103C1000EA08E9E8E9E8E9E8E9E8E9C8E9C8E1C764
:103C2000E1A7E1A7D986D966E187E167E146D945F1
:103C3000D945E166E166E186E187E187E9A7E187A9
:103C4000E987E186E166E166E146E146E145E14575
:103C5000D925D925E166E166D946D925D905E146B8
:103C6000E166D9A8DA6BF4B3FE9BEF3DE73ED71FC0
:103C70008DDB8E5E7DBC75BC75BC7DDD6D9B6D9BEB
:103C8000759C759B757B759B6D7B6D7B759B8E3D68
:103C9000A69E85BA859B7D9B85BB859A85BB85BB8A
:103CA0007DBB7DBB7DBB85BB85BB8DBB85BA85BB25
:103CB0006D5A6D5B651A5D3A5D3B5D1A54FA4CB9FD
:103CC0004CB95D1A5D1A54FA5D1A5D1A54D94CB993
:103CD0004C994CB94CB94C984C994C994C984C987F
:103CE00044784478449844784CD944793C383C58DA
:103CF00044993C5844994478447844793C583C5819
:103D000044793C79447944794499449944993438C4
:103D100033F733F73C37447844784478447944584F
:103D200044583C583C384458447944794C99447838
:103D30004437445844383C3744383C1733F733F75A
:103D400033B6339523332B541AB21AD21AB21AD27D
:103D500012911AB222D21A71E1A7D987D9C7E1E824
:103D6000EA08E1A7E1A7D986E1C7E1A7E1A7D986DB
:103D7000D946D986D987E1C8E1C7E1C7E9E8E1A713
:103D8000E1A7E1A7D986D986D987D9A7E1A7D9879D
:103D9000D9A7D9A7E1A7E1A7D987E1A7E9C8E1A7F2
:103DA000E1A7E1A7E1A7E186E1C7E1A7E1A7E1A7D4
:103DB000E1A7E1A7E1A7E1C8E1C7E1C8E9E8E9E8CF
:103DC000E9E8E1C7E1C7E9E8E1C7E9C8E1A7E1C778
:103DD000E1A7E1A7E9A7E9A7E1A7E1A7E9C8E1A76A
:103DE000E9C7E1A7E187E9C8E1A7E1C7E1C8E9E8D8
:103DF000E9E8E9E8E9E8E9E8E9E8E9E8E9C8E9C87B
:103E0000E1A7E1A7E1A7D986D986E187E186E16646
:103E1000D966D945D945E166E186E187E1A7E1A701
:103E2000E186E987E186E166E146E146E966E1454A
:103E3000E125D925D966E166E166D946D905D925B6
:103E4000E167D9C8DAACF4F4F6BBEF3DE73ED73F03
:103E500095DB9E9F759C7DDD7DDD7DFD6D9B75BC3D
:103E6000759C759C759B757B759B6D7B6D7B8E5E64
:103E70009E7D85BA859A7D9A7D9B85BB85BA85BBDB
:103E80007DBB7DBB7D9B7DBB85DB85BB85BA7D9B7B
:103E90006D3A653A653A5D3A5D3B5CFA54FA54DA3C
:103EA0004CB95D3B5D1A655B54D9551A5D1A551ABC
:103EB00054D94C9954B94C994C784CB94CB9447874
:103EC00044784CB94CB94C994478447833F73C3831
:103ED0003C38447944584479447944794499449924
:103EE00044B94499449944994CDA44993C583C5813
:103EF0003C383C584CB94478447844784458445849
:103F00003C373C37445844584478447844984458A3
:103F10003C373C373C173C173BF733F733F633B6A7
:103F20002B7533B52B542B341AD21AF31AF31AD239
:103F300012911AB21A911250E1A7E1A7E1C7D9A7CD
:103F4000E1C7D987D986E1C7E1C7D987D987E1A772
:103F5000E1A7E1A7E1C7E1A7E1A7E1A7E1A7D98729
:103F6000D9A7D9A7D9A7D987D9A7D987D9A7D9A791
:103F7000E1C8E1C7D9A7E1A7E1A7E1A7E1A7E1A7C8
:103F8000E1A7E1C7E1C7D9A6E1A7E1A7E1C7E1A79A
:103F9000E9C7E1A7E1C7E1C8E1A7E1C8E9C7E9E8E6
:103FA000E9E8E9E8E1E7E1E7EA08E9C7E1C7E9C8E4
:103FB000E1A7E9C7E1C7E1C7E1C7E9C8E1A7E9C8E7
:103FC000E9C7E1C7E1A7E1A7E1A7E1A7E1C7E1A749
:103FD000E1A7E9C7E9E8E1C8E1E8E9C8E9C8E9A774
:103FE000E9C7E187E1A7E187E187D986E166E16773
:103FF000E166E166E146E146E186E187E187E18746
:10400000E186E186E186E186E166E146E166D90581
:10401000D905D105D946E187E187D946E125E145B2
:10402000E166D9C8DAECFD77FEDCEF3DE71DD73E4F
:10403000A65C9E7E759B75BC7DFD7DDD6D7B6D9B5D
:10404000759B759B757B757B759C6D7B6D5A8E3DE5
:10405000A67D8D9A859A85BB85BB7DBB7DBB85DBA7
:104060007DBB7DBB7DBB7D9B85BB85BA85BB7DBB99
:104070006D3A6D5A651A653A655B5D3B5D1B54FA96
:104080005D1B655B653B5D1A54FA54FA54FA54FAA9
:1040900054D94CB954B954B954D954D954D9449871
:1040A00044984CB94CB944984478447834173C1738
:1040B00033F73C3744593C58445844593C583C58D1
:1040C0003C583C583C793C793C7944993C583C38C4
:1040D000341734173C3844784C9944794478445820
:1040E0003C583C37445844584478447844784478A1
:1040F0003C373C173C1733F73C173BF733D633D6E6
:10410000339533B623132B341AD222F31AD212B2B8
:104110001AD21AB21AB21A91D9A7D9A7D9A7D98691
:10412000D966D987E1C7E1C7D9A7E1C7E1C7E1C827
:10413000E1C7E1C7E1A7E1C7E186D986D987D98779
:10414000D9A7D9C7D9C7D9A7D987D987D9A7D9C84E
:10415000E1C7E1C8E1E8E1C8E1A7E1E8E1E7E1C7DB
:10416000E1A7E1C7E1C7E1A7E1C7E9E8E1C7E1A746
:10417000E1C7E9E8E1C8E9E8E1C8E1E8E9E8E9E838
:10418000E9E8E9E8E9E8E9E7E9E8E1C7E1C7E9C81A
:10419000E1C7E9C8E9C7E9E8E9C8E1C8E1C8E9C891
:1041A000E9E8E1C7E9C8E1A7E1A7E9C7E9C8E9E8A3
:1041B000E1A7E1A7E1A7E1C8E9E8E9C8E1A7E1A72C
:1041C000E1A7E1A7E187E1A7E187E187E166D96699
:1041D000E186E187E187E166E186E186E187E167E3
:1041E000E187E186E166E186E187E186E166E166F5
:1041F000E166D926D946E1A7E1A7E186E146E14596
:10420000E166D9C8CA8BFDD8FEDCEF3DE73ED71E7C
:10421000AE9D963D6D7B7DDD861D7DDD6D7B6D9B51
:10422000759B759B759B759B6D7B6D7B6D5A8E1C0D
:10423000AEDF859A85BA85BB7DBB7DBB7D9A85BB8C
:104240007DBB7DBB7D9B7DBB85BB85BB85BB7D9BD6
:104250006D5A655A653A5D3A5D3B5D3B5D1B54FAAC
:104260005CFA653B653B5D1A5D1A5D1A54FA54DAD7
:1042700054D954D954B954B954B954D954D94478A7
:104280004C994C9954D94CB944993C5834173C3802
:104290003C583C583C584479447944593C383C7922
:1042A00044793C783C79447944993C7944793C5848
:1042B0003C383C583C3844994478447844583C58FD
:1042C0003C583C374498447844784478449844981F
:1042D0003C573C373C173BF73C1733D633D633D6E5
:1042E00033B52B542B332B341AF31AD31AB21AB218
:1042F0001A911A911A911A70E1C8D9A7E1C8D9A7E1
:10430000D9A7E1A7E1C8E1A7E1C8E1C8E1C8E1A7F1
:10431000E1C7E1C7E1C7E1C7E1C7D9A7D9A7E1C7AD
:10432000D9A7E1C8D9A7D9A7D987D9A7E1E8E1E8F2
:10433000E1A7E1A7E1E8E1C7E1C7E1C8E1E8E1C839
:10434000E1A7E1A7E1C7E1C7E1C7E9C7E1C7E1C765
:10435000E1C7EA08E1C7E9E8E1C8E1E8E9E8E1C75F
:10436000E9E8E1C7E9E8E9E8E9E8E9E8E1C7E9C837
:10437000E9C8E9E8E9E8E9E8E1C8E1C8E9E8E1C74E
:10438000E1C8E1C8E9E8E1C7E1A7E9C8E1A7E1A719
:10439000E1A7E1A7E1A7E1A7E1C7E1C8E1A8E9A892
:1043A000E1A7E1A7E1A7E187E1A7E187E166D96697
:1043B000E187E187E186E166E166E167E167E18740
:1043C000E187E186E186E187E1A7E9A7E9A7E18640
:1043D000E166D946D946E9C8E9E8E1A7E186E166A0
:1043E000E986E1E8CA4AFD35FEDCE73DDF3ECEFE68
:1043F000B6DF7D9B6D7B75BC85FD7DDD759B759BFB
:104400006D7B757B759B757B6D7B6D7B757B8DFC8B
:10441000AEDF859A859A7DBB7D9B7D9A7D9A85BB13
:104420007D9B7D9B7D9B7DBB85DB85DB85BB7D9BF4
:104430006D7B6D5B5D1A5D1A5D1A5D1A5D1B5D1A01
:10444000653B5D3B5D3B5D1A5D1A5CFA54FA54FABC
:1044500054D954FA4CB94CB954DA54FA54DA4C9948
:104460004C994CB94C994CB94C9944783C583C58AF
:10447000447944793C383C5844584CBA44793C58C7
:10448000449944794479449944B9449944793C170E
:1044900033F734173C5844584458447844784458C7
:1044A0003C583C373C5844784478447844984457C6
:1044B0003C373C173C173C173C373C1733D633D6B8
:1044C00033B5339523332B341AD21AF31AD21AB2D6
:1044D0001AB21A9212711250D9C8D9A7D987D9C75E
:1044E000E1C8D9A7E1C8E1C7E1C8E1C8E1E8E1C88E
:1044F000E1C7D9A7E1C7E1A7D9C7E1C8D9A7E1E8D2
:10450000E1C8D9C8D9C8D9C7E1E8D9A7E1C8E1E865
:10451000E1C7E1C8E1C8E1E8E1A7E1C8E1C8E1C756
:10452000E1C7E1C7E1C7D986E187E1A7E1A7E1C714
:10453000E1C7E1C7E1A7E1C7E1C8E1C8E1C8E9E82F
:10454000E9E8E9C8E9E8E9E8EA08E1C8E1C8E1C85A
:10455000E1E8E9E8E9E8E9E8E9E8E9E8E1C8E9E803
:10456000E9E8E9C8E9E8E9C8E9C8E9C8E9C7E9C785
:10457000E9C7E9C7E187E1A7E1C7E1A7E1A7E9A7A3
:10458000E1A7E1A7E1A7E1A7E1A7E1A7E187E1872B
:10459000E167E187E187E166E187E166E167E1875D
:1045A000E186E186E187E187E9A7E9C7E1A7F208AB
:1045B000E166D946D945E187E9E8E9E8E187E98795
:1045C000E166E1C8D24AFCF5FEFCE73DE75ECEFEBF
:1045D000B6FF755A759B75BC7DFD7DBC6D7B759B6B
:1045E0006D7B759B759B759B6D7B6D7B759B8DFC4A
:1045F0009E5D859A859A7D9B7D9B7D9B859A85BBDB
:1046000085BB7DBB7D9B7D9A85DB85DB85BB7D9BEB
:104610006D5A655B5D3A5D3B5D3B5D3B5D1A5D1AC6
:104620005D3A5D3B5D1A5D1A5D1A5D1A54FA54D904
:104630004CB94CB94CB94C984C784CB94CB94478FD
:10464000447844784C984C98449844793C383417D2
:1046500034173C383C583C583C383C3844583C585B
:104660003C793C79447944994499449944793C583B
:104670003C383C37449944794478447844583C5811
:1046800044583C383C37447844574458447844585C
:104690003C3734163BF633F633D633F62BB52BB511
:1046A00033B52B7422F32B341AB21AD31AB21291E7
:1046B0001AB21AB11AB21A91D186D9A7D9C8E2088A
:1046C000D9C7E1C7E1E8D9A7E1C8E1C8E1C8E1C8B5
:1046D000D9A7E1C8E1C7E1C7E1C8E9E8E1C8D9C79E
:1046E000E1C8D9C7D9C8E1E8E1C7E1C8E1C8E1E854
:1046F000E1C8E1C7E1A7E1C7E1A7E1A7E1A7E1A719
:10470000E1A7E1C7E1C7E187E1A7E1A7E1C7E1C709
:10471000E1A7E1A7E1C7E1C7E9C8E9C8E9C8E9C875
:10472000E9E8E1E8E9E8E9E8E9E8E1E7E1E8E9E81A
:10473000E9E8EA08E9E8E1C8E9E8E9E8E9E8E9E8F8
:10474000E9E8E9E8E9C7E9C8E9C7E9C7E9C7E9E786
:10475000E9C7E9C8E9C7E1A7E9E8E1C7E1A7E1A737
:10476000E1A7E1A7E1A7E1A7E1A7E1A7E1A7E18729
:10477000E187E166E187E187E187E167E166E1875B
:10478000E186E186E187E9A7E186E9C7E9A7E9C70C
:10479000F1C8E166D925D945E1C8EA09E9C8E9A81F
:1047A000E987E1A8DA4AFD35FEDCE73DE75ECEFEAB
:1047B000AEBF753A759C75BC7DFD7DDD759B759BA7
:1047C000759B759B759B759C759C6D5B7D9B8DFC2E
:1047D0009E5D859A859A85BB85BB85BB85BB85BB60
:1047E0007DBB7DBB7DBB7DBB85BB85DB85DB759BD9
:1047F000655B653B653B653B5D3B5D1A5D1A5D3BFB
:10480000655B655B653B5D1A5D1A551A54FA54FA8F
:104810004CB954DA4C994CB94C994CB94CB94478D0
:104820004C984C984C984C994C984CB93C583C3806
:104830003417447944594459445944593C384479CB
:104840003C7944793C79447944793C583C583C382B
:104850003C5834173C384458447844783C584478A1
:104860003C373C5844783C57445844784478447822
:104870003C573C173C173C173C173BF633D633B636
:1048800033952B9523132313129212711AB212919E
:104890001A911AB21A911271D9A7D9A7D9C8E209E7
:1048A000D9C7D9C7D9C7D9C7E1C8E1C8D9A7D9A736
:1048B000D9A7D9C7D9C7E1C8E1C8E1C8E1C8D9C8F3
:1048C000D9C7E1E8E1E8E1E8E1C7E1C7E1A7E1C86C
:1048D000E9E8E1C8E1A7E1C8D987E1A7E1A7E1A735
:1048E000E9E8E1C7E9C7E186E1A7E1A7E9C7E9C7C8
:1048F000E9E8E1C7E1C7E1C7E1E7E1C7E9E8E1E8E5
:10490000E1E8E9E8E1E8E9E8E9E8E1C8E9E8E1E85F
:10491000E9E8E9E8EA08E1C8E9C8E9E8E9E8E9E836
:10492000E9E8E9E8E9C7E9E8EA08E1C7E1C7E9E752
:10493000E9E8E1A7E9C7E1A7E1A7E1C7E1C8E9C85C
:10494000E9C8E1A7E9A7E1A7E1A7E1A7E1A7E1A7F6
:10495000E187E187E166E167E187E187E187E18758
:10496000E187E186E187E187E187E9A7E9C7E18699
:10497000E987E146D925D946E1C7F24AEA09F22A90
:10498000E167E1A7DA4ACB0DFEBBE73DDF3ECEFE95
:10499000AE9E753A7DDC75BC7DDC7DDC759B759BC0
:1049A0006D7B759B759B759C759C6D7B757B85DCA4
:1049B000A69E8D9A859A7D9A7D9A7D9A7D9A85BAD2
:1049C0007DBB7D9A7D9B7DBB85DB85DB7D9B6D5AA9
:1049D000655B653B5D3B5D3B5D3B5D1A5D3B5D3B08
:1049E000655B653B653A653B5D1A551A54FA54FAA6
:1049F00054D94C994CB94CB94CB954D94CB94CB95F
:104A00004478447844784C994C98449944993417A4
:104A10003C583C383C584479447944793C383C799A
:104A20004499447944794499449944793C583C38B0
:104A30003417341734173C584458447844583C5879
:104A40003C373C373C573C574458445844784478AA
:104A50003C173BF633F633D633F633D633D633B57D
:104A600033B52B742313231312B21AB21AB2129154
:104A70001291127012500A30E1E8E1E8E1E8E1E851
:104A8000E208E209E1C8E208E1C8E1C8E1E8E1E9D9
:104A9000E1E8E208E1E8E1E8E1E8E1E8E1E8E1E8AD
:104AA000D9E8E1E8E1E8E1A7E1A7D987E1A7E1C812
:104AB000E1C8E1C8E1A7E1C7E1C8E1C8E9C8E1A7E9
:104AC000E9C7E1C7E1C7E1C7E1C8E9E8E9E8E1E82A
:104AD000E9E8E1E8E1E8E9E8EA08E1C8E1E8E9E86D
:104AE000E9E8EA08EA08E9E8EA08E1C8E9E8EA08E2
:104AF000E9E8E1E8E9E8E9E8E1E7E1E8E9E8E9E847
:104B0000E9E8E9E8E9C8E1A7E9E8E1C7E9C7E9C8F0
:104B1000E1A7E9C8E1A7E1A7E1A7E1C7E9C8E1A7E3
:104B2000E1A7E9C8E1A8E9C8E1A7E1A7E187E1A712
:104B3000E9A7E187E187E166E167E187E187E1864F
:104B4000E166E187E187E9A7E9A7E9A7E9C7E9A75E
:104B5000E187E146D925E166E1A7F24AF24AE9E8B0
:104B6000D925E1A7E229EBD0FEDCEF3DDF3EC6DD33
:104B7000A69E6D3A7DBD757B75BC7DDC759B759B76
:104B80006D7B759B759B759B759C6D5A757B7D9B2D
:104B90009E5D859A85BA7D9A85BB7D9B7D9A85BBF6
:104BA00085BB7D9B7DBB7D9B85BB7D9B755A6D5A6F
:104BB000653B655B653B655B5D1A5D1A5D1A5D3B38
:104BC000655B5D1A655B653B5D1A551A54FA54D9ED
:104BD0004CD94CB94C994CB94CB94CB94CB94C99CD
:104BE0004C9844784478447844994499449944587A
:104BF00034173C173C383C583C583C583C58447996
:104C00003C793C783C593C7944794479449934382E
:104C10002BF734173C3844994478445844783C582E
:104C20003C373C58447844573C57445844584458BF
:104C30003C373C173C1733F63BF633D52BB52B9559
:104C400033B52B952313231312B21AD21AB21AB208
:104C50001AB2127112711250E1E8E209E1E8E1E8DA
:104C6000E208E208E1E8E1E8E1E8E1E9D9E8D9E8C9
:104C7000E1E8E1E8E1E8E208E1E8D9C8E1E8D9E8FB
:104C8000E208EA49E1E8D9A7E1C8E1A7E1A7E9E834
:104C9000E1A7E1C7E1C7D9A7E1E8E1C8E1A7E1A73A
:104CA000E1C8E1E8EA08E9E8E9E8E1E8E9E8EA0872
:104CB000E1E8E9E8EA08E9E8EA08E9E8E9E8EA0811
:104CC000EA08EA29E1E8E9E8EA09E9E8E9E8EA08BE
:104CD000EA08E9E8E1E8E9E8E1E8E1C7E9E8E9C884
:104CE000E1E8E9E8EA08E9E8E9C8E9C8E9C8E9C8A3
:104CF000E9C7E9C7E9C8E9A7E1A7E9C8E9C8E9C878
:104D0000E1C7E1A7E1A7E1A7E1A7E1A7E9A7E1875B
:104D1000E1A7E187E187E187E166E186E187E1A735
:104D2000E186E186E187E187E187E9C7E9A7E1A7B5
:104D3000E187D925D905D925E187E9E9FA8BD9A7F2
:104D4000D925E1A8E22ADB6FFEDBEF3DDF5EC6DDA1
:104D50009E5D6D3A7DDD759C75BC75BC759B759BC4
:104D60006D7B6D7B759C759C759C6D5B6D5A7D9B99
:104D7000A67D8DBA859A859A7D9B7DBB7D9B85BBE3
:104D800085BB7D9B7DBB85DB85DB85DB7D9B757B6B
:104D90006D5B655B655B655C653B5D1B655B653B92
:104DA0005D3B5D3B653B655B5D1A5CFA54FA551AE9
:104DB0004CD94CB94CB94CB954D94C994C9954B9BB
:104DC00054B94C99447844784498449844993C5850
:104DD0003C5844583C583C583C58447944793C58D9
:104DE0003C783C5844794479447944793C58343887
:104DF000341734383C373C384478447844583C388D
:104E00003C373C373C573C3744583C3744983C3758
:104E10003C3733F63C1733F633F633F633B52B9580
:104E20002B952B7422F31AD212B212B21291129154
:104E30001271127112501A71D9E8D9E8E209E1E849
:104E4000D9C8E1E8D9C7D9C8E209E209E1E8E1E84F
:104E5000E1E8D9C8E208D9C8E1E8D9C8D9C8E1E889
:104E6000E209E1E8E1E8E1C8E1C8E1E8E9E8E1C830
:104E7000D9A7E1C8E1C8E1C8E1C8E1E8E9E8E1C7CC
:104E8000E1E8E1E8E1E8E9E8EA08EA08E1E8EA0857
:104E9000EA08E208EA28EA08EA29EA08E208E1E87A
:104EA000EA08EA08EA08E208E208EA08EA08EA0882
:104EB000E1E8E9E8E1E8E9E8E1C8E9E8E9E8E9C8C2
:104EC000E9E8E9C8EA08E1C7E9E8E1C7E9C8E9C8EB
:104ED000E9A7E1A7E9A7E9C7E9C8E9C8E9C7E1A7E0
:104EE000E9C8E9E8E9C8E1A7E1A7E1A7E1A7E9A7DF
:104EF000E9A7E187E187E187E166E166E9A7E1A744
:104F0000E186E186E187E187E1A7E9A7E9C7E9A7AB
:104F1000E187D925D925D905D925E1A7FACBEA0911
:104F2000E187E9C8E26BE3F0FE7AEF3DDF3EC6FEC3
:104F3000961C757B759C6D9C75BC75BC759B759B33
:104F40006D5B655B6D7B759C759C6D5B6D3A85DCFF
:104F5000961C8D9A859A7D9A7D9A7DBB7D9B7D9BC3
:104F6000859A85BB7D9B7D7A85BB85BB8DDB85DC8A
:104F70006D5B655B655B653B655B5D3B655B5D3B99
:104F80005D3B655B5D3B5D3A5D3B551A5D1A5CFAC6
:104F900054F954DA4CB94CD954D94C994CB954D928
:104FA0004CB944994CB9449944984C984C984478DD
:104FB0003C383C383C383C583C583C783C383C58B1
:104FC0003C783C783C783C58449944783C583417B9
:104FD00033F73C383C3844793C5844783C583C38AA
:104FE0003C373C373C373C573C573C574458445778
:104FF0003C3733F633F63C173BF633B633D62B95B6
:1050000033B52B9522F323131AD212921AD21AB265
:105010001AB2129112910A50E1E8D9E8D9C8D9E838
:10502000D9C7D9E8E1E8E1E8D9E8E209E1E8D9C877
:10503000E1E8E1E8D9E8D9E8E1E8E209E1E8E1E816
:10504000E208E1C8E1E8E1E8E1C7E1E8E1E8E1C858
:10505000E1E8E1E8E1C8E1C8E1E8E1C8E208E1C867
:10506000E1C8E1E8EA08E208EA08EA08E1E7E2085C
:10507000EA08EA28EA28EA29EA29EA29EA28EA28BD
:10508000EA29EA28E208E208EA08EA29EA08EA093D
:10509000EA08E9E8E1E8E9E8E9E8E1C8E9E8E9E897
:1050A000E1C8E9E8EA08E9E8E1E8E9E8E1C7E9C8D0
:1050B000E1A7E1C7E1C7E9C7E9E8E9C8E9C8E1C78D
:1050C000E9E8EA08E9C8E187E1A7E9A7E1A7E1A7DC
:1050D000E9A7E187E1A7E187E1A7E187E186E1A709
:1050E000E186E186E187E1A7E1A7E1A7E9A7E1A7DA
:1050F000E987E145D905D904D905E1A7FACBF2AB97
:10510000E9E8D9C8DA8BEC72FEBBE73DDF3EBEBDF5
:10511000961C757B759C75BC6D9C759C759C6D7B98
:10512000655B655B6D7B759C759C6D5B757B7DBB05
:105130009E3D8DBA85BA859A7D9A7D9B7D9B85BB68
:1051400085BB85BB7D9B7D9B8DDB8DDB85BB8DFC16
:105150006D7B653B655B5D3B5D3B5D3B655B655BBF
:105160005D3B5D3B655B655B5D3A5D1A5CFA5D1AB4
:1051700054D954D94CB94CB94C9844984CB94C9921
:105180004CB9449844784478449844984C9944588D
:105190003C3744793C583C583C583C583C383C5887
:1051A0003C793C783C5844994CB94479447934383A
:1051B000341734173C17447844783C583C583C38F2
:1051C0003C383C383C583C373C37443744584478AA
:1051D0003C37341633F633F63BF733D633D62B95BC
:1051E0002B952B741AF21AD212B21271127112711B
:1051F0001AB212911AB21291E1E9E1E9E1E8E1E8AB
:10520000E208D9E8D9C8E1E8E1E9E1E8E208E1E843
:10521000E1E8E1E8D9E8E1E8E1E8E1E8E1C8E1E86E
:10522000E1E8D9C7E1C7E1C8E1C8E1C8E1E8E1E8E0
:10523000E1E8E1E8E9E8E9E8E1E8E1E8E1C8E1C856
:10524000E1E8E1E8EA08EA28EA28EA28E208EA28A8
:10525000EA29EA29EA29EA49EA29EA08EA29EA29B7
:10526000EA29EA29EA09EA29EA49EA49EA29EA09A6
:10527000EA29EA08EA08E1E8EA08E9E8EA08E9E8E8
:10528000E1C8E9E8EA08EA29E1E7E9E8E9E8E9C884
:10529000E9E8E1C7E1C7E9C8E1A7E9E8E1C8E9E869
:1052A000EA09EA09EA09E1A8E187E1A7E9C8E1A773
:1052B000E9A8E1A7E1A7E1A7E1A7E1A7E187E187E5
:1052C000E987E987E187E9A7E1A7E9A7E1A7E9A7D6
:1052D000E1A7E166D905D905D905D946F2ABFB4E60
:1052E000F28BD1E9DACCFD77F69BE73DDF3EB69C49
:1052F0009E3D755A7DBC75BC6D9C6D9C759C6D7B8F
:10530000655B655B759C759B759C6D5B759B8DFC8A
:10531000961C859A859A85BB7D9B7DBB7D9B7DBBBD
:105320007D9A7DBB7DBB85BB8DFB85DB85DB7DBB36
:105330006D5B653B653B653B655B6D5B6D7C655B94
:105340005D3B655B655B5D3B5D1A54D954FA4CB8B7
:105350004CB94CB94C984C9944984498449844980A
:105360004CB9447944784478445844784478447833
:105370003C373C5834383C583C583C383C383C5915
:105380003C794479445944794499449944994479FD
:105390004499447944784478447844583C58445873
:1053A0003C583C5844583C383C173C3744584478A7
:1053B0003C373C173C1733F733F633D633D62B95AF
:1053C0002B952B9523331AD212B212B2129112914D
:1053D0001AD212B212911271D9C8E209E209E20995
:1053E000E209E209E209E1E9E1E8E1E8E1E8D9A757
:1053F000D9C8D9E8D9E8E209E1E8E1C8E1C8E1E8BB
:10540000EA09E1C8E1E8E1E8E1C8E1E8E1E8E1E86A
:10541000E1E8E1E8E1E8E1E8E1E8E1E8E1E8E1C765
:10542000E1C8E9E8EA08EA28EA29EA29EA28E208DC
:10543000EA29EA29EA08EA29E208EA08EA08EA0881
:10544000EA29EA29EA29EA29EA29EA6AEA29EA2983
:10545000EA09EA09E208EA08E1E8E9E8E9E8E9E84E
:10546000EA09E208EA49EA28EA08EA08E9E8E9E894
:10547000E9C8E9E8EA08E9E8E1C7EA08EA09EA0868
:10548000EA29EA29E9E8E9E8E9C8E187E1A7E1A72B
:10549000E9A7E1A7E1A7E1A7E1A7E187E1A7E16625
:1054A000E187E187E9A7E187E187E9A7E187E9A744
:1054B000E9A7E166D905D905D905D925EA6AFB4EE0
:1054C000FB2EE2CCDB6EF576FEDCE73DDF5EB69CC4
:1054D000AEBE757B75BC6D7B655B759C75BC6D7B6D
:1054E0005D1A5D1A6D7B759C759C6D5B653A755A8E
:1054F000963D859A859A85BA7D9B7DBB7D9B7D9BDC
:105500007DBB7DBB7DBB7D9B8DDB85BB85DC6D194C
:10551000653A655B5D3A5D3B655B6D7C655B657CB3
:105520005D3B653B655B5D3B5D1A655B5D3A54FACF
:105530004CD954D94CB94CB94C98447844994498B6
:105540004C99447844784458447844584478447892
:105550003C583C783C583C383C583C383C583C59CA
:105560003C583C5844994499447944593C38341740
:10557000341734173C374478447944783C583C37E6
:105580003C373C373C373C373C3844373C373C377A
:105590003C1733F73BF733F63BF733D633B52BB530
:1055A0002B952B952B341AD21AD21AD2129112B2F1
:1055B0001AF312B21AB21271E209E209E209E2091F
:1055C000D9E8E209E229E209E1E8E1E8D9E8D9E825
:1055D000D9C8E209E209E208E1E8E1E8E1E8E1E846
:1055E000E209E1C8E1E8E1E8E1E8EA08E1E8E1C868
:1055F000E1E8E1E8E1E8E1C7E1E8E1E8E1A7E1A706
:10560000E1C7E1C7E1E8EA29EA29EA29EA29EA2922
:10561000EA29EA29EA29EA29EA29E208E208EA0865
:10562000EA29E208E9E8E1E8E208EA29EA29F24A97
:10563000EA08EA29EA09EA09EA08EA08EA09E9E8D7
:10564000EA08E1E8F26AE208EA08E9E8E9E8EA08D3
:10565000E9E8E9E8E9E8EA08F209EA09EA09EA0911
:10566000EA08EA29EA09E9E8E9E8E9E8E1A7E1C79F
:10567000E187E9A7E1A7E1A7E1A7E1A7E9A7E1A7FA
:10568000E186E187E187E187E9A7E1A7E187E18793
:10569000E9A7E187D925D905D8E5D946D9A7FAEDF3
:1056A000FB2EDAACE3F0FDD8F6FCE73DDF5EBE9CF6
:1056B000A69E7D9B7DBC6D7B6D5B6D7B6D5B655B35
:1056C0005D3B655B6D7B759C75BC757B6D3B6D3A19
:1056D000963D85BA859A859A85BB7D9B7D9B7D9AF3
:1056E0007D9A7D9B7D9B85BB85DB85BB7DBB64F9FE
:1056F000653A653B5D3B657B75BC6D7B655B5D1AA3
:105700005D3B5D3B5D3B5D3B5D3B5D1B5D1B5D1A3A
:1057100054FA54FA4CB94CB94C994CB94C994C992F
:1057200044784498447844784C994478447944784F
:105730003C373C583C583C583C5834383C384499E9
:105740003C593C583C794479447944793C593C591A
:1057500044793C373C3744583C583C383C583C171B
:105760003C173C373C383C173C173C3744573C37D8
:105770003C1733F63C1733F633F633D62BB62B955E
:105780002B742B7423131AB21AD212921291129103
:105790001AD312D212711AB2D9E8E229DA09E2292F
:1057A000DA09E22AE229E208E208E1E8D9E8E209B6
:1057B000E209E229E209E1E8E1C8E1E8E1E8E1E83B
:1057C000E208E1E8E1E8E1E8E1E8E208EA08E1C747
:1057D000E1E8EA08E1E8E1E8E1E8E1C7E1A7E1A7FB
:1057E000E1A7E1C7E1C8E1E8EA08EA29E228EA49D5
:1057F000EA29E229EA29E229EA29EA29EA29EA0842
:10580000E208E1E8E1E8E1C8E1E8E208E1E8EA0904
:10581000EA29E1E8EA29EA09EA08EA08E9E8EA08FF
:10582000E1E8EA29F26AEA29EA08E9E8EA08E9E8A7
:10583000E9E8E9E8E9E8EA08EA09EA09EA09EA2917
:10584000EA29EA29EA09EA09EA08E9E8E9E8E1A730
:10585000E1A7E187E1A7E1A7E1A7E1A7E1A7E1A728
:10586000E187E187E187E187E1A7E187E1A7E1A798
:10587000E1A7E9A7D925D905D905D926D946E1E96E
:10588000F2CCDACDE452F5F8F71CE73DE75EC6BD91
:10589000A67D7D9B759B759B759C653A653A655B9E
:1058A0005D1A54FA6D7B759C759C757B6D5B5CB95C
:1058B0008DDC859A859A859A7DBA7D9A7D9B7D9BA4
:1058C0007D9A85BB85BB85BB8DDB85DB85DB65195B
:1058D000653A653B5D3A657B6D7B655B6D7B655BC2
:1058E0005D3B653B5D3B5D1A5D1B5D3B5D1A54FA9C
:1058F00054FA54D94CB94C994C984C984CB94C9991
:105900004CB944994478447844784C9944993C582B
:1059100044583C583C583C583C583C583C583C79BE
:105920003C793C593C5844994C9944793C793438F9
:105930003C383C383C3744583C583C583C373C3762
:105940003C373C5844583C373C373C374458445823
:105950003C3733F733D633D633F633D633D62B959D
:105960002BB52B952334129112B2129112B21292CE
:105970001AD212B212910A50E209E22ADA09E22995
:10598000E24AEA4AE229D9C8D9E8E209D9E8DA09BB
:10599000E229E229E209E1E8E1C8E1C8E209E1C857
:1059A000E209E1E8E1E8E1E8E1E8EA08E208E20822
:1059B000EA29E208E1E8E1E8E208E1C7E1C8E1C775
:1059C000E1A7E1C7E1A7E1E8E1E8EA29EA49EA2934
:1059D000EA49EA4AEA29EA29E249E229EA49E208E7
:1059E000EA29E208E208E1E8E9E8E1C8E1E8E1E8FB
:1059F000E1E8EA09E1C8E1E8EA09E9E8EA08E9E8F2
:105A0000E208EA29EA49E208E9E8E9E8E9E8E9E838
:105A1000E9E8EA08EA08E9E8E9E8E1E8EA09EA0980
:105A2000EA08EA08EA08EA09EA08E9E8E9C8E1C890
:105A3000E1A7E187E9A7E1A7E1A7E1A7E1A7E1A73E
:105A4000E187E1A7E187E187E187E186E1A7E1A7B7
:105A5000E187E9A7E146D905E105D925E146D967FE
:105A6000F2ACE30EEC93EDF8F71CEF3DE73ECEDD34
:105A7000B6BE7539861D759B6D7B6D5B6D7B6D7BD1
:105A80005D1A54DA655B759C757B759C653B4C377C
:105A900085BC85BB859A859A859A7D9A7DBB7D9BC1
:105AA000859A859A85DB85BB85BB85BB85DB6D5A71
:105AB0005CF9653B5D3B653B655B6D5B6D7C655B88
:105AC0005D3B5D3B5D3B5D3B5D1B5D1A5D1A5D1A99
:105AD0005CFA54FA4CB94C994CB94C994CB94CB944
