:020000040800F2
:10000000B014002079020008751D0008291C0008A2
:10001000711D0008810400085D2500080000000033
:10002000000000000000000000000000F11D0008BA
:100030008504000800000000811D0008151E00084E
:10004000930200089302000893020008930200083C
:10005000930200089302000893020008930200082C
:10006000930200089302000893020008930200081C
:10007000930200089302000893020008930200080C
:1000800093020008930200089302000893020008FC
:1000900093020008930200089302000893020008EC
:1000A00093020008591E00089302000893020008FA
:1000B00093020008930200089302000893020008CC
:1000C00093020008930200089302000893020008BC
:1000D00093020008930200089302000893020008AC
:1000E000930200089302000893020008930200089C
:1000F000930200089302000893020008930200088C
:10010000930200089302000893020008930200087B
:10011000930200089302000893020008930200086B
:10012000930200089302000893020008930200085B
:10013000930200089302000893020008930200084B
:10014000930200089302000893020008930200083B
:10015000930200089302000893020008930200082B
:10016000930200089302000893020008930200081B
:10017000930200089302000893020008930200080B
:1001800093020008930200089302000893020008FB
:100190009302000800000000930200089302000888
:1001A00093020008930200089302000893020008DB
:1001B00093020008930200089302000893020008CB
:1001C00093020008930200089302000893020008BB
:1001D000930200089302000800F002F800F03CF8D7
:1001E0000AA090E8000C82448344AAF10107DA4592
:1001F00001D100F031F8AFF2090EBAE80F0013F0A8
:10020000010F18BFFB1A43F00103184770320000BA
:1002100090320000103A24BF78C878C1FAD852074B
:1002200024BF30C830C144BF04680C607047000070
:100230000023002400250026103A28BF78C1FBD8EF
:10024000520728BF30C148BF0B6070471FB503F08D
:10025000C4F81FBD10B510BD00F0D8F81146FFF767
:10026000F5FF02F08BF900F0F6F803B4FFF7F2FFA8
:1002700003BC00F0FDF8000009488047094800472A
:10028000FEE7FEE7FEE7FEE7FEE7FEE7FEE7FEE746
:10029000FEE7FEE704480549054A064B70470000A3
:1002A000451E0008D9010008B00E0020B01400203F
:1002B000B0100020B010002053EA020C00F069805A
:1002C0002DE9F04B4FF00006002B1FBFB3FA83F56A
:1002D00003FA05F424FA05F65E4012BF1643B2FA9B
:1002E00082F502FA05F4C5F120051EBF22FA05FCCD
:1002F00044EA0C04203556EA044C4FEA144418BF73
:10030000641C4FF000084FF00009904271EB030CA1
:1003100039D3002919BFB1FA81F701FA07F6B0FA0B
:1003200080F700FA07F6C7F120071EBF20FA07FC86
:1003300046EA0C062037B6FBF4FCA7EB0507103F96
:1003400007F01F0BCBF120062CFA06F60CFA0BFB7C
:1003500044BFB3460026202FA4BF5E464FF0000BDB
:100360005BEA060C08BF4FF0010B19EB0B0948EBD9
:100370000608ABFB027C06FB02CC0BFB03CCC01BCC
:1003800071EB0C01C1E70B46024641464846BDE809
:10039000F08B13B5084318BF4FF0FF300146AFF3A1
:1003A0000080BDE81C40704702F0FF0343EA0322CF
:1003B00042EA024200F002B84FF0000200B51346D4
:1003C00094469646203922BFA0E80C50A0E80C5075
:1003D000B1F12001BFF4F7AF090728BFA0E80C5026
:1003E00048BF0CC05DF804EB890028BF40F8042B1F
:1003F00008BF704748BF20F8022B11F0804F18BF8C
:1004000000F8012B7047704770477047754600F041
:100410002BF8AE4605006946534620F00700854696
:1004200018B020B5FFF736FFBDE820404FF00006BA
:100430004FF000074FF000084FF0000BAC46ACE85F
:10044000C009ACE8C009ACE8C009ACE8C00921F0BB
:1004500007018D46704710B50446AFF30080204673
:10046000BDE81040FFF701BF0048704710000020B2
:1004700001491820ABBEFEE72600020070470000CD
:10048000FEE7000070470000EFF3108072B600BF77
:10049000FEE700002DE9F04F84B08E4641F20042A5
:1004A000C4F60002DEF8004006219042019008BF29
:1004B0000521002C009100F0D7800198002500F163
:1004C00038424FEAB2230098012700264FF0000877
:1004D000052B38BF18460090CDF808E00EE000BFAD
:1004E000DEF8004008F1010834FA07F106F10206CF
:1004F00007F1010705F1040500F0B680A7F1010A34
:10050000012000FA0AF314EA0309E9D0DEF804C076
:100510000CF0030BABF10104012C17D801987446C1
:1005200081680322E468B2409143B4402143816072
:1005300041684FEA480E9943CCF3001303FA0AF3DB
:100540000446D043194361600CE000BF0321B14071
:10055000019CC843BBF1030FB64603D1B6464FF02A
:10056000030B23E0E168029A01409368BBF1020F9C
:1005700003FA0EF341EA0301E16017D16FF00301C2
:1005800001EA5A01214405F01C040F23D1F820C0D0
:1005900003FA04FB13692CEA0B0CA34043EA0C0397
:1005A000019C0B62D2F804C00CF0030B21680BFA1B
:1005B0000EF2014011432160DDF808E01CF4403FD9
:1005C0008ED041F26000C4F20200016840F2004C9B
:1005D00041F0010101600168C4F2010C01F0010168
:1005E000039103992AF003014FF6084A6144CFF6BC
:1005F000FF7A05F00C030F2051F80A2000FA03F4EB
:100600000098A24300FA03F31A4341F80A20DCF8E9
:100610000810DEF8042041EA090340F20C40D4023D
:1006200058BF21EA0903CCF80830C4F20100016880
:10063000940241EA090358BF21EA09030360DCF888
:100640000410940341EA090358BF21EA0903CCF8D6
:100650000430DCF80010D20341EA090358BF21EA54
:100660000903CCF800303BE704B0BDE8F08F000090
:10067000426902EA0103914341EA03418161704703
:100680001823002A08BF2823C150704740F6A860ED
:10069000C2F200000068704740F2000040F6A86116
:1006A000C2F20000C2F2000140680A68104408600B
:1006B0007047000080B5032000F0BEF80F2000F066
:1006C00009F800281CBF012080BD00F05BF8002065
:1006D00080BD0000B0B586B041F26001C4F20201F5
:1006E0000A68044642F400620A60096801A801F43D
:1006F000006101910199694600F038FC00F06EFC40
:100700004DF68361C4F21B31A0FB01014FF0FF30B5
:1007100000EB914140F2401042F60042C2F200006C
:10072000C4F2010240F2E7330025C0E90021C0E92C
:100730000253056100F00CFF054618B1284606B0CB
:10074000B0BD00BF40F24010C2F2000000F034FF24
:1007500005460028F2D1192000F032F80F2C0DD8F0
:10076000192021460022002500F03AF840F200004E
:10077000C2F200000460284606B0B0BD012528463C
:1007800006B0B0BD82B041F25800C4F202008168E8
:10079000002241F001018160816801F001010191B5
:1007A0000199016841F0805101600068032100F067
:1007B0008050009000986FF0010002B000F010B877
:1007C000002848BF704700F01F01012202FA01F122
:1007D0004EF200124009CEF2000242F8201070479B
:1007E00010B54EF60C5CCEF2000CDCF80030C3F312
:1007F000022E8EF00704042C28BF0424BEF103034C
:100800004FF0FF3E0EFA04F438BF0023A143994095
:100810000EFA03F39A43114300F00F02043A6244C4
:1008200009010C3200F16043B0F1FF3FC8BF03F58E
:100830006442117010BD00004EF60C51CEF2000162
:100840000A684FF6FF031A4060F30A2242F0806004
:1008500040F0FD7008607047B0F5007F42D000287E
:1008600040F0808047F21400C4F2000050F8141CDD
:10087000C26E01F4C06122F48072B1F5806FC2666D
:100880002ED150F8141C012262F34A2140F8141CA6
:1008900040F20801C2F200010968322251434DF6CC
:1008A0008362C4F21B32A1FB0212910C0268520552
:1008B00011D54A1C0FD0026852050CD559B10268F7
:1008C000520508D5012906D00268520503D5022930
:1008D000A1F10401EAD10068400544BF032070473C
:1008E0000020704747F21400C4F2000050F8141CB6
:1008F000C26E01F4C06142F48072B1F5806FC266CD
:10090000EED150F8141C012262F34A2140F8141C65
:1009100040F20801C2F200010968322251434DF64B
:100920008362C4F21B32A1FB0212910C02685205D1
:1009300011D54A1C0FD0026852050CD559B1026876
:10094000520508D5012906D00268520503D50229AF
:10095000A1F10401EAD10068400544BF03207047BB
:10096000BEE700BF47F21400C4F2000050F8141CA8
:10097000022262F34A2140F8141C00207047000054
:100980002DE9F04182B00446807841F288060007E4
:10099000C4F2020602D400202FE000BF56F8300C4B
:1009A00010F080580BD156F8300C40F0805046F8CB
:1009B000300C56F8300C00F080500190019847F24E
:1009C0000007C4F20007386840F480703860FFF711
:1009D0005DFE05463868C00500F10C81FFF756FE44
:1009E000401B0228F6D90320B8F1000F05D156F8B4
:1009F000301C21F0805146F8301C2168CA0717D1FD
:100A00008A071DD44A0723D40A0729D4CA062FD43B
:100A10008A0635D44A063BD40A0641D4CA0547D4CF
:100A20008A034DD48A0553D44A0559D467E000BFE0
:100A30003268636822F003021A4332608A07E1D504
:100A40003268A36822F00C021A4332604A07DBD5F1
:100A50003268E36822F030021A4332600A07D5D5C3
:100A60003268236922F0C0021A433260CA06CFD529
:100A70003268636922F440721A4332608A06C9D52B
:100A80003268A36922F440621A4332604A06C3D531
:100A90003268E36922F440521A4332600A06BDD537
:100AA0003268236A22F440421A433260CA05B7D53D
:100AB0003268636A22F440321A4332608A03B1D545
:100AC0007269A36A22F003021A4372618A05ABD5E8
:100AD0003268E36A22F440221A4332604A050ED596
:100AE0003268236B22F440121A43B3F5801F326040
:100AF00005D156F87C2C42F4801246F87C2C0A056D
:100B00000ED53268636B22F440021A43B3F5800FAE
:100B1000326005D156F87C2C42F4801246F87C2CC9
:100B2000CA040ED53268A36B22F040721A43B3F1A7
:100B3000807F326005D156F87C2C42F4801246F852
:100B40007C2C8A040ED53268E36B22F040621A4393
:100B5000B3F1006F326005D156F87C2C42F480125C
:100B600046F87C2C4A040ED53268236C22F0406291
:100B70001A43B3F1006F326005D156F87C2C42F471
:100B8000801246F87C2C0A040ED53268636C22F081
:100B900040521A43B3F1805F326005D156F87C2C85
:100BA00042F4803246F87C2CCA030ED53268A36C1E
:100BB00022F040421A43B3F1804F326005D156F81B
:100BC0007C2C42F4803246F87C2C49030ED57169A6
:100BD000E26C21F440111143B2F5001F716105D19F
:100BE00056F87C1C41F4801146F87C1C02B0BDE82C
:100BF000F08100BFB06810F4407010D0216D8842C1
:100C00000BD0B068B16820F4407041F48031B1601D
:100C1000B16821F48031B160B060C0070CD1B06818
:100C2000216D20F440700843B0600020B8F1000F3F
:100C30007FF4E3AEDBE600BFFFF728FD054641F297
:100C4000883700BFB0688007E9D4FFF71FFD401B5D
:100C5000B842F7D9C7E600002DE9F04700286DD06B
:100C600042F2000AC4F2020A0446DAF800000D4615
:100C700000F00F0088420CD2DAF8000020F00F00DC
:100C80002843CAF80000DAF8000000F00F00A8427C
:100C900054D1216841F20808C807C4F2020803D100
:100CA000880740F1D880BDE0606802283AD0032868
:100CB00040D158F8082C920140D5D8F80420D8F833
:100CC000043042F2004702F00302C3F30313C0F200
:100CD000F4070133032A04BF41F20027C0F27A0768
:100CE000D8F80420B7FBF3F3D8F80470C2F3062257
:100CF0005A43C7F34163022707EB4303B2FBF3F206
:100D00004BF20043C0F2C4439A4261D9D8F80020A4
:100D100012F0F00F51D089075AD5A168002957D198
:100D20004BE000BF58F8081C89035CBF0120BDE8F8
:100D3000F08707E058F8081C490503D40120BDE8F6
:100D4000F08700BFD8F8001001F00C0104293FD053
:100D5000D8F8001001F00C01082939D0D8F800109B
:100D600001F00C010C2933D1D8F80410D8F8042074
:100D700042F2004301F00301C2F30312C0F2F40394
:100D80000132032904BF41F20023C0F27A03D8F8EC
:100D90000410B3FBF2F2D8F80430C1F3062151433A
:100DA000C3F34162022303EB4202B1FBF2F14BF2C7
:100DB0000042C0F2C44291420AD9D8F80010082279
:100DC00062F307114FF00109C8F8001002E000BFFC
:100DD0004FF00009D8F8001021F003010843C8F8CB
:100DE0000000FFF753FC064641F28837D8F80000B0
:100DF000616800F00C00B0EB810F07D0FFF746FCF4
:100E0000801BB842F2D90320BDE8F087216888072B
:100E100008D4B9F1000F1ED0D8F8000020F0F0007F
:100E200017E000BF480705D5D8F8000040F4E0609F
:100E3000C8F80000080706D5D8F80000072262F3BA
:100E40000D20C8F80000D8F80000A26820F0F000DB
:100E50001043C8F80000DAF8000000F00F00A842C4
:100E60001BD9DAF8000020F00F002843CAF8000070
:100E7000FFF70CFC064641F2883700BFDAF80000A5
:100E800000F00F00A84207D0FFF700FC801BB8421B
:100E9000F4D90320BDE8F0872168480707D5D8F8C2
:100EA0000000E26820F4E0601043C8F80000080782
:100EB00008D5D8F80000216920F4605040EAC1004C
:100EC000C8F80000D8F8000042F20041C0F2F40176
:100ED00000F00C00042808462DD0D8F8000000F0DF
:100EE0000C00082841F20020C0F27A0023D0D8F884
:100EF000002002F00C020C2A1CD1D8F80420D8F8EB
:100F0000043002F00302C3F303130133032A08BFC2
:100F10000146D8F80400B1FBF3F1D8F80420C0F37F
:100F200006204843C2F34161022202EB4101B0FBBB
:100F3000F1F000E00020D8F8001043F21C42C1F3A9
:100F40000311C0F60002515C40F2080201F01F01DB
:100F500020FA01F140F20000C2F200000068C2F283
:100F600000021160BDE8F047FFF7B4BB0F2202603A
:100F700041F20802C4F20202136803F00303436063
:100F8000136803F0F0038360136803F4E063C36045
:100F900012684FF4E06303EAD202026142F20000F9
:100FA000C4F20200006800F00F0008607047000003
:100FB00040F2080041F20801C2F20000C4F202014E
:100FC0000068096843F22C42C1F30221C0F6000216
:100FD000515C01F01F01C8407047000040F208005A
:100FE00041F20801C2F20000C4F20201006809687F
:100FF00043F22C42C1F3C221C0F60002515C01F061
:101000001F01C8407047000041F20C01C4F2020108
:1010100051F8040C42F20042C0F2F40200F00C005D
:101020000428104608BF704751F8040C00F00C006B
:10103000082841F20020C0F27A0021D051F8043C87
:1010400003F00C030C2B1CBF00207047D1F800C02C
:101050000B680CF0030CC3F303130133BCF1030F53
:1010600008BF02460868B2FBF3F20968C0F3062025
:101070005043C1F34161022202EB4101B0FBF1F0A8
:10108000704700002DE9F04182B0002800F0068191
:101090000446007841F20006C007C4F2020655D1AA
:1010A0002078800774D42078000700F1978020789A
:1010B000400700F1B7802078800600F10781E069E1
:1010C000002840D0B16801F00C010C2940F0568195
:1010D000012800F0E380F068216A00F003028A42F0
:1010E00040F0DC80626A6FF00F0300F0F00103EB68
:1010F0000212914240F0D280A16A00F4FE42B2EBAB
:10110000012F40F0CB80E16A00F07842B2EBC16F72
:1011100040F0C480226B0023CFF6E07303EB025251
:1011200000F4C0016FF31402914240F0B780616B8C
:101130004FF07E4202EB016100F0C06001F07E41A1
:10114000884240F0AB800020F1E100BFB06800F0C1
:101150000C01F06808295BD0032281F00C0122EA1F
:1011600000000844B0FA80F0400951D16068B0F541
:10117000803F07D0B0F5A02F40F0D680306840F413
:1011800080203060306840F480303060D7E000BFAD
:10119000B068F16800F00C00042869D001F0030188
:1011A00080F00C0081F002010844B0FA80F04009A0
:1011B0005ED1E1683068002900F0CE8040F4807094
:1011C0003060FFF763FA05463068400500F1EC80B7
:1011D000FFF75CFA401B0228F6D920E16169D6F8D6
:1011E0009400002900F08C8040F00100C6F89400C3
:1011F000FFF74CFA054600BFD6F8940080073FF58C
:1012000056AFFFF743FA401B0228F5D907E100BFAC
:10121000306880037FF544AF606800287FF440AFFA
:101220003CE000BFB06D10F0805808D1B06D40F0C8
:101230008050B065B06D00F080500190019847F289
:101240000007C4F200073868C0052BD4386840F4A2
:1012500080703860FFF71AFA054600BF3868C0058D
:1012600020D4FFF713FA401B0228F7D9D7E000BFBC
:101270003068400501D5E06880B17068216920F0D0
:10128000FE4040EA0160706040F20000C2F20000DF
:101290000068FFF71FFA00283FF405AF012002B0F5
:1012A000BDE8F081A068012808D0052840F09A80A8
:1012B000D6F8900040F00400C6F89000D6F89000F0
:1012C00040F00100C6F890009AE000BFA169D6F88E
:1012D0009800002970D040F00100C6F89800FFF790
:1012E000D5F90546D6F8980080073FF5E8AEFFF738
:1012F000CDF9401B02284FF00300F3D917E100BFDE
:1013000020F00100C6F89400FFF7C0F9054600BFC1
:10131000D6F8940080077FF5CAAEFFF7B7F9401BF7
:101320000228F5D97BE000BF3168002821F4803124
:101330003160316821F48021316000F08F80FFF747
:10134000A5F90546306880033FF5AAAEFFF79EF980
:10135000401B6428F6D962E020F480703060FFF70B
:1013600095F90546306840057FF59DAEFFF78EF98B
:10137000401B02284FF00300F4D9D8E0316802285E
:1013800021F0807131604FD1FFF780F9054600BF31
:101390003068800140F18E80FFF778F9401B022809
:1013A0004FF00300F4D9C2E07068216920F0FE40DC
:1013B00040EA0160706076E620F00100C6F898000F
:1013C000FFF764F9054600BFD6F8980080077FF55F
:1013D00076AEFFF75BF9401B02284FF00300F3D90C
:1013E000A5E000BFD6F89010002821F00101C6F852
:1013F0009010D6F8901021F00401C6F890103DD05E
:10140000FFF744F9054641F2883700BFD6F890004F
:10141000800745D4FFF73AF9401BB842F6D90320BC
:1014200002B0BDE8F08100BFF0684FF6FF7120F018
:101430000300F060F068CFF6EE610840F060FFF75F
:1014400025F90446306880017FF57DAEFFF71EF96F
:10145000001B02284FF00300F4D968E0FFF716F9EB
:10146000054600BF306880037FF51AAEFFF70EF91E
:10147000401B64284FF00300F4D958E0FFF706F949
:10148000054641F2883700BFD6F89000800707D59F
:10149000FFF7FCF8401BB8424FF00300F4D946E0D8
:1014A000B8F1000F7FF407AEB06D20F08050B0654A
:1014B00001E600BFF06848F20C01C0F29F1104F190
:1014C000200700EA010C8ECF6FF00F00D4E90C5416
:1014D00000EB02100022CFF6E07241EA0C0102EBB1
:1014E000055208436FF314024FF07E4540EA032093
:1014F00005EB0465104305F07E4540EAC7602843CC
:10150000F060306840F080703060F06840F08070CB
:10151000F060FFF7BBF80446306880013FF513AE7A
:10152000FFF7B4F8001B02284FF00300F4D902B013
:10153000BDE8F08170470000704700007047000070
:1015400070470000704700007047000070470000BF
:10155000002804BF0120704710B5044690F83D00F4
:1015600028B9002084F83C00204600F023F802202F
:1015700084F83D002068211D00F074FC012084F8EF
:10158000480084F83E0084F83F0084F8400084F866
:10159000410084F8420084F8430084F8440084F851
:1015A000450084F8460084F8470084F83D00002098
:1015B00010BD00007047000090F83D1001291CBFCD
:1015C00001207047022180F83D10016842F6FF3289
:1015D000C868C4F20102914240F00100C8600DDC0D
:1015E00040F2FF70C4F20000814217DCB1F1804F7D
:1015F0002CD040F20040C4F2000025E043F6FF701A
:10160000C4F20100814215DC42F60040C4F2010040
:1016100081421BD043F2004014E000BF40F60000BE
:10162000C4F20000814211D040F60040C4F2000034
:101630000AE000BF45F20000C4F20100814205D07B
:1016400044F20000C4F2010081420CD188680722F4
:10165000C0F201020240062A4FF0000008D0B2F5A5
:10166000803F08BF7047086840F001000860002014
:10167000704700007047000010B501680446086913
:10168000800744BFC8685FEA807061D4086940077A
:1016900044BFC8685FEA407066D40869000744BF69
:1016A000C8685FEA00706DD40869C00644BFC868A6
:1016B0005FEAC06072D40869C0071CBFC8685FEAEF
:1016C000C07079D10869000644BFC8685FEA00604D
:1016D0007AD40869C00544BFC8685FEA006000F1B9
:1016E0007B800869400644BFC8685FEA406000F13B
:1016F0007B800869800644BFC8685FEA806000F1AB
:101700007B800869C00244BFC8685FEAC02000F15E
:101710007B800869800244BFC8685FEA802000F1CE
:101720007B800869400244BFC8685FEA402000F13E
:101730007B800869000246BFC8685FEA002010BDD0
:101740006FF4000220460A61BDE81040FFF7FEBEBC
:101750006FF00200086101202077886980076BD054
:101760002046FFF787FF6DE06FF00400086102205C
:101770002077886910F4407F68D02046FFF77AFF11
:101780006AE000BF6FF00800086104202077C86994
:10179000800765D02046FFF76DFF67E06FF010000F
:1017A000086108202077C86910F4407F62D0204685
:1017B000FFF760FF64E000BF6FF0010008612046A2
:1017C00000F066F821687DE76FF080000861204630
:1017D000FFF7B2FE21687CE76FF480700861204655
:1017E000FFF7A8FE21687CE76FF040000861204603
:1017F00000F058F821687CE76FF02000086120466F
:10180000FFF79CFE21687CE76FF48010086120469A
:10181000FFF798FE21687CE76FF40010086120460E
:10182000FFF78EFE21687CE76FF480000861204698
:10183000FFF78AFE21687CE7204600F025F8204665
:1018400000F024F82168002020771FE7204600F0F0
:101850001BF8204600F01AF82168002020771CE7CA
:10186000204600F011F8204600F010F82168002012
:10187000207719E7204600F007F8204600F006F828
:1018800021680020207716E77047000070470000AD
:10189000006842F60041C4F20101884208BFFEF729
:1018A000FBBE70477047000090F88010012904BF0C
:1018B000022070472421C0F8841002681168136860
:1018C00023F00103136021F00053002141661360EF
:1018D0002022C0F8842080F880100846704700005D
:1018E000B0B590F88020012A04BF0220B0BD2422A8
:1018F000C0F884200268D0F864E0D2F800C0136811
:10190000BEF1000F23F001031360936823F06063BE
:1019100041EA0301916019D09368916843F25C4EEB
:10192000490FC0F6000E43F264451EF80140C0F6B0
:101930000005695CC3F34263E400B4FBF1F11EF8F7
:101940000340EB5CE500B5FBF3F301E0012101236B
:10195000A0F86A102021A0F86830C2F800C0C0F8D2
:101960008410002180F880100846B0BDB0B590F812
:101970008020012A04BF0220B0BD2422C0F88420A8
:101980000268D0F864E0D2F800C01368BEF1000F1E
:1019900023F001031360936823F0604341EA0301DD
:1019A000916019D09368916843F25C4E490FC0F67C
:1019B000000E43F264451EF80140C0F60005695C64
:1019C000C3F34263E400B4FBF1F11EF80340EB5CA7
:1019D000E500B5FBF3F301E001210123A0F86A1053
:1019E0002021A0F86830C2F800C0C0F8841000219F
:1019F00080F880100846B0BDB0B582B0B0B10446E2
:101A0000D0F8840028B9002084F88000204600F037
:101A100059F82420C4F884002068016821F00101ED
:101A20000160204600F030FB012803D1012002B004
:101A3000B0BD00BFA06A10B1204600F0B1FA206826
:101A4000416821F490414160816821F02A01816060
:101A5000016841F0010101600020C4F88C00FEF72C
:101A600015FE216805460A6812070CD56FF07E4CFA
:101A700020464FF4001100222B46CDF800C000F0A4
:101A800063FC78B92168086840070FD56FF07E4C79
:101A900020464FF4800100222B46CDF800C000F014
:101AA00053FC18B1032002B0B0BD00BF2020C4F821
:101AB0008400C4F888000020E06684F8800002B04A
:101AC000B0BD000010B59AB00446684608304C21FD
:101AD000FEF772FC206843F60001C4F2010188425F
:101AE00002D01AB010BD00BF01200090002468464B
:101AF0000194FEF745FF002818BFFEF7C5FC41F230
:101B00004C00C4F20200416941F4804141614169E5
:101B100001F4804115911599016841F001010160BE
:101B2000006815A900F00100159015984FF4C060E9
:101B300015900220CDE91604072019904FF090402F
:101B40001894FEF7A7FC1AB010BD00002DE9F04371
:101B500081B00446D0F8840020280BD10E4600291D
:101B60004FF001005CD01746002A59D094F880004D
:101B7000012803D1022001B0BDE8F083012084F8E0
:101B800080004FF0000921201D46C4F88C90C4F855
:101B90008400FEF77BFDA4F85470A4F85670A16889
:101BA0000746B1F5805F07D1206900281CBF304689
:101BB0004E46B046064601E04FF0000884F880909B
:101BC00009E000BF16F8010B21688862B4F85600DE
:101BD0000138A4F85600B4F8560088B12046802198
:101BE00000223B46009500F0AFFB88B9002EE9D1FA
:101BF00038F8020B21686FF35F2088620026E5E762
:101C00002046402100223B46009500F09DFB18B184
:101C1000032001B0BDE8F0832020C4F88400002038
:101C200001B0BDE8F0830000FEE70000B0B58AB067
:101C300043F20840C0F6000090E80E1000690DF174
:101C4000140E8EE80E10099005A8002100F0E6FCA5
:101C500040F27005C2F20005286043F2F430C0F68D
:101C6000000090E81E0000698DE81E0004906846A0
:101C7000002100F0D3FC68600AB0B0BD70B586B03A
:101C8000002541F24C000595C4F20200016840F6BF
:101C9000000441F0200101600168C4F6000401F075
:101CA0002001009100990168002241F004010160C7
:101CB0000168012601F0040100910099016841F0DA
:101CC000010101600068012100F00100009000980E
:101CD0002046FEF7D5FC01A92046CDE90166CDE9F5
:101CE0000355FEF7D7FB06B070BD000080B540F28B
:101CF0008C1043F60001C2F20000C4F2010100237F
:101D00004FF00C0C4FF4E13280E80E00C0E90333D1
:101D1000C0E905C3C0E90733C0E90933FFF76CFE2A
:101D2000002818BFFEF7B0FB40F28C10C2F2000092
:101D30000021FFF71BFE002818BFFEF7A5FB40F2AD
:101D40008C10C2F200000021FFF7CAFD002818BF66
:101D5000FEF79AFB40F28C10C2F20000FFF7A4FDE0
:101D6000002808BF80BDBDE88040FEF78DBB0000A5
:101D7000FEE70000FEE70000000000000000000099
:101D8000EFF30980BFF36F8F154B1A681EF0100F29
:101D900008BF20ED108A20E9F04F10602DE90900FE
:101DA0004FF0500080F31188BFF34F8FBFF36F8F58
:101DB00000F0C0FF4FF0000080F31188BDE809007B
:101DC00019680868B0E8F04F1EF0100F08BFB0ECBB
:101DD000108A80F30988BFF36F8F704700BF00BF80
:101DE000780000200000000000000000000000005B
:101DF000074B19680868B0E8F04F80F30988BFF313
:101E00006F8F4FF0000080F31188704700BF00BF54
:101E10007800002080B54FF0500080F31188BFF3A8
:101E20006F8FBFF34F8F01F0DFF930B14EF60450E2
:101E3000CEF200004FF080510160002080F3118845
:101E400080BD00004EF68850CEF20000016841F4DB
:101E5000700101607047000040F24010C2F20000C3
:101E6000FFF70ABC80B540F6FF330268C4F20003F6
:101E700043F2FF3C9842C4F2010C0BDD60452FDCBD
:101E800040F60043C4F20003984235D042F60043C6
:101E90002EE000BFB0F1804F2ED040F20043C4F2DC
:101EA0000003984228D040F60003C4F20003984291
:101EB00022D0604526DC40F2FF73C4F20003984252
:101EC00036DD40F60003C4F20003984244D040F6E9
:101ED0000043C4F2000398423ED042F6004337E08C
:101EE00045F20003C4F20103984205D043F20043D7
:101EF000C4F201039842DCD14B6822F070021A430D
:101F00006045D8DD44F2FF33C4F20103984217DD87
:101F100044F20043C4F2010398421DD045F200038D
:101F2000C4F20103984217D044F6000310E000BF4A
:101F3000B0F1804F10D040F20043C4F2000309E03A
:101F400043F20043C4F20103984205D044F2000377
:101F5000C4F20103984203D1CB6822F440721A43C1
:101F60004B6922F0800E8A6843EA0E03D1F800C064
:101F70000360C262A0F18042A2F596324FEAB2221B
:101F8000092AC0F828C008D8012303FA02F240F257
:101F9000E5231A421CBF096901630121416180BD2B
:101FA00080B5816ACA070DD18A0716D44A071FD4A3
:101FB0000A0728D4CA0631D48A063AD44A0658D524
:101FC00042E000BF0268D0F82CC0536823F400330D
:101FD00043EA0C0353608A07E8D50268D0F830C0A2
:101FE000536823F4803343EA0C0353604A07DFD578
:101FF0000268D0F834C0536823F4802343EA0C030A
:1020000053600A07D6D50268D0F838C0536823F465
:10201000004343EA0C035360CA06CDD50268D0F8EA
:102020003CC0936823F4805343EA0C0393608A0610
:10203000C4D50268D0F840C0936823F4005343EA43
:102040000C0393604A0614D50268D0F844C0536864
:10205000BCF5801F23F4801343EA0C03536008D1BE
:10206000D2F804C0D0F848E02CF4C00343EA0E03D1
:102070005360090658BF80BD0168C06C4A6822F4ED
:1020800000221043486080BD70B504462269D4E93F
:10209000021300680A436169E6691143026846F663
:1020A000F315CCF6FF7531432A40114301604168B6
:1020B00048F2000C21F4405119434160A269C4F276
:1020C000000C60451CBF216A0A4381684FF2FF4340
:1020D000C1F2FF13194011438160C16AD4F824E0B2
:1020E00021F00F0141EA0E01C16244F6FF71C4F212
:1020F000000188424FF0100318DC44F20041C4F2A2
:102100000001884228D044F60001C4F20001884250
:102110002AD044F60041C4F20001884242D141F283
:102120008801C4F2020109688B0933E045F200011D
:10213000C4F2000188421FD0604525D043F600015B
:10214000C4F2010188422DD141F28801C4F202019A
:102150000B6879A222E000BF41F28801C4F20201BB
:1021600009688B0816E000BF41F28801C4F2020141
:1021700009680B090EE000BF41F28801C4F20201B8
:1021800009680B0A06E000BF41F28801C4F20201AF
:1021900009688B0A43F24C42C0F6000203F00301C7
:1021A00052F82130604542F20040C0F2F40015D0F0
:1021B000B6F5004F24D1082B4FF0010100F2B38097
:1021C000DFE803F0065E6CB164B1B1B16A0000BF34
:1021D000FEF7EEFE002856D15CE000BF082B4FF062
:1021E000010100F2A080DFE803F0059E259E1D9E00
:1021F0009E9E2300FEF7DCFEC0B1D4F824E019E077
:10220000082B4FF0010100F28E80DFE803F0056536
:10221000738C6B8C8C8C7100FEF7CAFE00285ED12B
:1022200064E000BFFEF7F0FE0028E6D100217AE06E
:102230004FF4004043F23441C0F6000131F81E1063
:102240006268B0FBF1F002EB420188424FF00101FD
:1022500069D31303984266D8010E000210EB5200B6
:1022600041F100010023FEF727F84FF60052A0F5D8
:102270004071C0F20F0291424FD3012153E000BFE1
:10228000FEF7ACFE30B1D4F824E007E0FEF7BCFE68
:102290000028F8D1002146E04FF4004043F23441D9
:1022A000C0F6000131F81E106268B0FBF1F0510871
:1022B00001EB4000B0FBF2F04FF6EF72A0F110011D
:1022C000914207D84FF6F0710140C0F34200084434
:1022D00023E000BF012126E0FEF780FE30B1D4F8F4
:1022E00024E007E0FEF790FE0028F8D100211AE074
:1022F0004FF4004043F23441C0F6000131F81E10A3
:102300004FF6EF72B0FBF1F0616800EB5100B0FBEB
:10231000F1F0A0F11001914204D82168C8600021B9
:1023200001E000BF01214FF00110A0660022084625
:102330002267626770BD00BF01000000040000005A
:1023400002000000080000002DE9F041044600688A
:102350001546C2690E461140891BB1FA81F149093F
:10236000A94240F0A080DDF81880B8F1000F29D014
:1023700018F1010140F08080C1693140891BB1FA38
:1023800081F14909A94240F08E80C1693140891B21
:10239000B1FA81F14909A94240F08580C169314013
:1023A000891BB1FA81F14909A9427CD1C169314047
:1023B000891BB1FA81F14909A942DDD00020BDE8AD
:1023C000F08100BFFEF762F9206850E8000F216835
:1023D00020F4D07041E80002BAB3206850E8000F42
:1023E000216820F4D07041E8000272B3206850E800
:1023F000000F216820F4D07041E800022AB3206861
:1024000050E8000F216820F4D07041E80002002A53
:10241000DAD11AE0206850E8020F216820F00100AC
:1024200041E80202DAB1206850E8020F216820F08A
:10243000010041E8020292B1206850E8020F2168D1
:1024400020F0010041E802024AB1206850E8020F82
:10245000216820F0010041E80202002ADAD12020A0
:10246000C4F8840004F1880020210160002084F871
:1024700080000320BDE8F0811F4600BFFEF706F98B
:10248000C01B4045A0D820680168490744BFC16906
:102490005FEA01510AD4C0693040801BB0FA80F075
:1024A0004009A842EAD00020BDE8F0814FF4006165
:1024B000016200BF50E8000F216820F4D07041E8AD
:1024C0000002C2B3206850E8000F216820F4D070E9
:1024D00041E800027AB3206850E8000F216820F438
:1024E000D07041E8000232B3206850E8000F216844
:1024F00020F4D07041E80002EAB12068DAE700BFBA
:10250000206850E8020F216820F0010041E8020233
:10251000DAB1206850E8020F216820F0010041E89C
:10252000020292B1206850E8020F216820F00100F9
:1025300041E802024AB1206850E8020F216820F009
:10254000010041E80202002ADAD12020C4F8840008
:10255000C4F8880004F18C0086E70000FEE7000064
:1025600040F60004C4F6000420460121FEF780F87E
:102570004FF4967000F044F8F6E7000094B0FEF7D0
:1025800099F800240020CDE90B44CDE90944CDE9B8
:102590000744FEF761F94FF48071099140210A91D7
:1025A000042102200F9155210690CDE90D00CDE9BF
:1025B0001010CDE9120006A8FEF764FD20B1EFF37C
:1025C000108072B6FEE700BF0F2001900320CDE916
:1025D000020401A80421CDE90444FEF73DFB28B123
:1025E000EFF3108072B600BFFEE700BFFFF746FBB7
:1025F000FFF77CFBFFF71AFB00F00AF8FEE700008C
:1026000080B5002808BF012000F000FB002080BD3D
:1026100080B500F04BFB002080BD000010B584B0F9
:1026200003898C46D0E9001E028A18B2843B18BF89
:10263000C31C03AC009370466346019400F074FC25
:102640000399012818BF0021084604B010BD0000FE
:1026500040F2780540F21C264EF60458C2F20005FE
:10266000C2F20006CEF200084FF0805715E000BF1E
:1026700000F00CFAA86CC468201D00F09BF92869D2
:1026800001382861E8680138E86000F023FA206B1F
:1026900000F038FA204600F035FAE8680028E7D163
:1026A00030680228F9D3C8F80070BFF34F8FBFF32A
:1026B0006F8FF2E708480068006880F308884FF0E1
:1026C000000080F3148862B661B6BFF34F8FBFF38A
:1026D0006F8F00DF00BF000008ED00E081B0002038
:1026E000009040F20C00C2F2000000684FF0500170
:1026F00081F31188BFF36F8FBFF34F8F013007D085
:10270000FEE700BF009830B9009820B9009810B9D2
:1027100000980028F6D001B07047000070B504465C
:1027200000F000FB40F2F00CC2F2000CDCF80400F8
:1027300050B19CF80000002818BF4FF000404FF047
:1027400000057CBB8DE000BF40F2A820C2F2000073
:10275000C21D22F0070210F00701A0EB020318BF10
:10276000104600224FF44065CCE90602002918BF4C
:1027700003F540654119083921F00701CCF8041030
:10278000C1E90022DCF80420091AC0E90021012077
:102790008CF800004FF00040CCE90211002C4FF003
:1027A00000055ED020405CD104F1100020F007024B
:1027B000600708BF04F10802002A4FF0000550D05E
:1027C000DCF8080082424CD8604650F818EFDEF87A
:1027D000045095422BD2DEF80010B9B174464D6812
:1027E000954217D20B68ABB15D68954216D2186856
:1027F000A0B14568954215D204689CB165689542C0
:1028000014D22168A6460029E9D110E00CF1180085
:102810000DE000BF8E46204609E000BF9E460846F8
:1028200005E000BF8646184601E000BFA646DCF87A
:1028300004108E4514D00168DEF80040AB1A112B4D
:1028400004604DD30EEB0205680719D04FF050001D
:1028500080F31188BFF36F8FBFF34F8FFEE700BF88
:10286000002500F045FD68075BD04FF0500080F375
:102870001188BFF36F8FBFF34F8F00BFFEE700BF1C
:102880000CF118006B60CEF8042000BF0368AB4267
:102890000AD21868A8420BD20368AB4204D2186867
:1028A0001A46A842F2D304E00246184601E000BFEF
:1028B0001A4653686C68D618AE4202D11C441546BD
:1028C00054602B19834207D1DCF80430984203D0BE
:1028D000D0E9000323446B60AA42286018BF15604A
:1028E00001F10805DEF80400DCE90212091A914240
:1028F000CCF8081038BFCCF80C109CF80010002958
:1029000018BF40F00040CEF80400DCF810000021B1
:102910000130CEF80010CCF8100000F0E9FC680798
:10292000A3D1284670BD0000034642F2DD60C0F628
:1029300000004FF0807C21F0010103E903106FF0EB
:10294000020043F8240CA3F1440043F8202C704704
:1029500088B0104800900FA0D0E9054C051D2ECD81
:10296000C069CDE9054C40F28C140495C2F2000414
:102970006D46019102920393079000BF20462946BD
:1029800020224FF6FF73FFF7E1F84FF47A70FFF75C
:1029900037FEF3E74672656552544F5320757361F5
:1029A00072745F74687265616420746573742E2E2E
:1029B0002E0D0A00D0E9013201699A60D1F804C0F5
:1029C00082688445536008BF4A600022026108683B
:1029D00001380860086870474FF0FF31024642F83E
:1029E000081F00214260C0E9032201607047000017
:1029F000002101617047000010B5D1F800E01EF120
:102A0000010213D000F1080462681368734511D8FD
:102A100053681C68744511D85A68146874450FD8F7
:102A200054682368A4467345EED90BE00269D2F8D6
:102A300004C007E09446224604E000BF9C4601E043
:102A400094461A46C1F804C0CCF808108A60516058
:102A5000086101680131016010BD0000D0F800C0BC
:102A6000436808619A684B608A609A68996051600F
:102A70000CF1010101607047DFF80C00016841F4BE
:102A8000700101607047000088ED00E04FF05000D9
:102A900080F31188BFF36F8FBFF34F8F40F20C00AC
:102AA000C2F2000001684A1C026009B1704700BF11
:102AB0004EF60450CEF200000068000608BF7047D2
:102AC0004FF0500080F31188BFF36F8FBFF34F8F2B
:102AD000FEE7000040F20C00C2F20000016839B1CC
:102AE0000139016018BF7047002080F311887047DA
:102AF0004FF0500080F31188BFF36F8FBFF34F8FFB
:102B0000FEE7000070B5002808BF70BD40F2F00578
:102B1000C2F200050446287854F8041C002818BFA7
:102B20004FF0004008420DD0A4F1080632689AB177
:102B30004FF0500080F31188BFF36F8FBFF34F8FBA
:102B4000FEE700BF4FF0500080F31188BFF36F8F96
:102B5000BFF34F8FFEE700BF21EA000044F8040CEA
:102B600000F0E0F854F8041CA8680844A86005F1D7
:102B7000180000BF0368B3420AD21868B04225D2D9
:102B80000368B34204D218681A46B042F2D301E097
:102B9000024618465368D418B44202D11944164666
:102BA00051607318834206D16B68984203D0D0E914
:102BB000000319447160B242306018BF1660686942
:102BC00001306861BDE8704000F092BB1A4653685E
:102BD000D418B442E5D1E1E74EF21000CEF2000085
:102BE00000210160816040F20801C2F20001096821
:102BF00044F6D352C1F26202A1FB02124FF0FF3140
:102C000001EB9211416007210160704770B5002807
:102C10003FD040F27805C2F200050446A86948B1E9
:102C20004FF0500080F31188BFF36F8FBFF34F8FC9
:102C3000FEE700BFA8690130A861EE69286804308A
:102C4000FFF7B8FE50B12868A419446013D3686A2E
:102C500029680431FFF7D0FE16E000BF2868012183
:102C6000C06A6A6801FA00F022EA00006860286819
:102C7000A4194460EBD2286A29680431FFF7BCFE2E
:102C8000E86A844238BFEC6200F032FB002818BFCB
:102C900070BD4EF60450CEF200004FF0805101603E
:102CA000BFF34F8FBFF36F8F70BD0000B0B582B020
:102CB00040F278050020C2F20005009042F2516017
:102CC00005F12804C0F6000014A18022002301941D
:102CD00000F02AF9411C15D001281DD14FF05000F9
:102CE00080F31188BFF36F8FBFF34F8F4FF0FF302A
:102CF000E862012068610020E86102B0BDE8B040F0
:102D000000F050B84FF0500080F31188BFF36F8F80
:102D1000BFF34F8FFEE700BF02B0B0BD49444C4542
:102D20000000000040F27800C2F200008169013129
:102D30008161704740F27800C2F200008169002989
:102D40001EBF012101637047002101634168B1FA90
:102D500081F1C9B2C1F11F0140F21C2201EB8101D6
:102D6000C2F2000252F8213063B102EB810252F844
:102D7000041F4968131D994211600DD0C968016094
:102D8000704700BF4FF0500080F31188BFF36F8F82
:102D9000BFF34F8FFEE700BF49681160C96801604B
:102DA00070470000B0B584B04EF2004CCEF2000C7B
:102DB0004CF27021C4F20F11DCF800294B1C9A422E
:102DC0000AD14FF0500080F31188BFF36F8FBFF32B
:102DD0004F8F00BFFEE700BFDCF800298A4209D10F
:102DE0004FF0500080F31188BFF36F8FBFF34F8F08
:102DF000FEE700BF9CF800100291FF218CF8001044
:102E00009CF800108DF807109DF8071001F0500293
:102E100040F21011C2F200010A7007224A609DF9C7
:102E20000720B2F1FF3F69DC032200BFD31C4B60D7
:102E30009DF8070040008DF807009DF90700B0F1EC
:102E4000FF3F23DC931C4B609DF8070040008DF88A
:102E500007009DF90700B0F1FF3F17DC531C4B60E2
:102E60009DF8070040008DF807009DF90700B0F1BC
:102E7000FF3F0BDC4A609DF80700043A40008DF8E4
:102E800007009DF907000028D0D4131D032B35D16E
:102E90004FF44070486002988CF80000DCF820097C
:102EA00040F47000CCF82009DCF8200940F07040B4
:102EB000CCF82009FFF790FE40F20C04C2F20004A7
:102EC00000252560FFF7D8FD4EF63470CEF20000E5
:102ED000016841F040410160FFF7ECFBFFF72AFF7A
:102EE000039520684FF0500181F31188BFF36F8F75
:102EF000BFF34F8F013011D0FEE700BF4FF05000FD
:102F000080F31188BFF36F8FBFF34F8FFEE700BFD1
:102F1000039830B9039820B9039810B90398002892
:102F2000F6D0002004B0B0BD2DE9F04F81B096007E
:102F300082463046994615468B46FFF7EFFB002840
:102F400000F0948007465C20FFF7E8FB002800F0C3
:102F500093800446DDF82880076338463146A52271
:102F6000FDF722FA206BBBF1000F00EB8500A0F10A
:102F7000040020F0070500F089809BF8000084F829
:102F800034009BF8000000286BD09BF8010084F807
:102F900035009BF80100002863D09BF8020084F8FC
:102FA00036009BF8020000285BD09BF8030084F8F1
:102FB00037009BF80300002853D09BF8040084F8E6
:102FC00038009BF8040000284BD09BF8050084F8DB
:102FD00039009BF80500002843D09BF8060084F8D0
:102FE0003A009BF80600E0B39BF8070084F83B002A
:102FF0009BF80700A8B39BF8080084F83C009BF8F6
:10300000080070B39BF8090084F83D009BF80900A4
:1030100038B39BF80A0084F83E009BF80A0000B31E
:103020009BF80B0084F83F009BF80B00C8B19BF89D
:103030000C0084F840009BF80C0090B19BF80D0048
:1030400084F841009BF80D0058B19BF80E0084F8FD
:1030500042009BF80E0000281CBF9BF80F0084F86C
:103060004300002084F8430013E000BF4FF0FF3618
:10307000304601B0BDE8F08F3846FFF743FD4FF012
:10308000FF36304601B0BDE8F08F00BF002084F865
:103090003400271D00263846B8F1060F28BF4FF030
:1030A0000608C4F82C80C4E91386FFF7A1FC04F1DC
:1030B0001800FFF79DFC88F00700A06128465146E4
:1030C0004A4624616462666584F85860FFF72CFC08
:1030D0000B992060002918BF0C60FFF7D7FC40F265
:1030E0007805C2F20005286940F21C2901302861E8
:1030F0002868C2F2000948B16869002840D12868F0
:10310000E16AC06A884298BF2C6039E02C60286967
:10311000012835D14846FFF75FFC09F11400FFF79D
:103120005BFC09F12800FFF757FC09F13C00FFF7B1
:1031300053FC09F15000FFF74FFC09F16400FFF761
:103140004BFC09F17800FFF747FC40F21818C2F277
:1031500000084046FFF740FC08F114063046FFF730
:103160003BFC05F16400FFF737FC05F13C00FFF77D
:1031700033FC05F15000FFF72FFCC5F820806E628C
:103180006868A96801260131A9606164E16A06FAEC
:1031900001F21043686001EB810009EB80003946C1
:1031A000FFF75CFCFFF796FC686900283FF460AF0E
:1031B0002868E16AC06A884210D24EF60450CEF206
:1031C00000004FF080510160BFF34F8F0126BFF325
:1031D0006F8F304601B0BDE8F08F00BF012630464A
:1031E00001B0BDE8F08F00002DE9F04740F278060D
:1031F000C2F20006B06928B1706B01307063002024
:10320000BDE8F087F06910F1010AC6F81CA020D3D0
:10321000306A006850B14FF0500080F31188BFF35E
:103220006F8FBFF34F8F00BFFEE700BF306A716A38
:1032300031627062B06B0130B063306A006828B1EF
:10324000306AC068C068406802E000BF4FF0FF30DD
:10325000F062F06A40F21C288245C2F2000801D2F6
:10326000002434E0306A0024006868B34FF001099C
:1032700016E000BFF86A716809FA00F2114300EB2A
:103280008000716008EB80002946FFF7E7FBF86AD1
:103290003168C96A326A8842106828BF4C4698B1C2
:1032A000306AC068C7683D4655F8040F82450DD3A3
:1032B0002846FFF77FFBB86A0028DBD007F118002B
:1032C000FFF778FBD6E700BF4FF0FF30F0623068C1
:1032D000C06A00EB800058F82000012888BF012454
:1032E000306B002818BF01242046BDE8F08700009D
:1032F0002DE9F04140F27805C2F20005A86968B1F5
:10330000FFF7C4FBA8690138A861A86980B100244F
:10331000FFF7E0FB2046BDE8F08100BF4FF0500012
:1033200080F31188BFF36F8FBFF34F8FFEE700BFAD
:1033300028690028EBD0686E78B340F21C2801267B
:10334000C2F20008286FC76807F11800FFF732FBC8
:103350003C1D2046FFF72EFBF86A696806FA00F26A
:10336000114300EB8000696008EB80002146FFF705
:1033700075FBF86A2968C96A884228BF2E63686E9F
:103380000028DFD1286A006820B1286AC068C068B8
:10339000406801E04FF0FF30E8626C6B4CB10126F1
:1033A000FFF722FF002818BF2E63013CF8D1002050
:1033B0006863286B0028AAD04EF60450CEF20000B5
:1033C0004FF080510160BFF34F8F0124BFF36F8F27
:1033D000FFF780FB2046BDE8F081F1EE100A4FF6C2
:1033E000FF71C0F2C03120EA010040F04070E1EE10
:1033F000100A70476C3400086125000800000000C6
:10340000000000008000000074340008512900080A
:10341000000000000000000080000000000000002C
:103420000000000001020304060708090000000074
:1034300001020304010002000400060008000A0063
:103440000C0010002000400080000001000000007F
:103450000400000002000000080000000101010358
:103460000701000008040204080101017468726584
:10347000616431007468726561643200A0340008D0
:10348000000000201000000014020008B034000802
:1034900010000020A014000030020008000000000E
:1034A00010000000010000000024F400AAAAAAAA4B
:04000005080001D915
:00000001FF
