:020000040800F2
:10000000C0060020790200086D1700088D16000850
:100010006917000835030008E51800080000000013
:10002000000000000000000000000000751700083C
:100030003903000800000000711700087917000854
:10004000930200089302000893020008930200083C
:10005000930200089302000893020008930200082C
:10006000930200089302000893020008930200081C
:10007000930200089302000893020008930200080C
:1000800093020008930200089302000893020008FC
:1000900093020008930200089302000893020008EC
:1000A000911700089D1700089302000893020008AA
:1000B00093020008930200089302000893020008CC
:1000C00093020008930200089302000893020008BC
:1000D00093020008930200089302000893020008AC
:1000E000930200089302000893020008930200089C
:1000F000930200089302000893020008930200088C
:10010000930200089302000893020008930200087B
:10011000930200089302000893020008930200086B
:10012000930200089302000893020008930200085B
:10013000930200089302000893020008930200084B
:10014000930200089302000893020008930200083B
:10015000930200089302000893020008930200082B
:10016000930200089302000893020008930200081B
:10017000930200089302000893020008930200080B
:1001800093020008930200089302000893020008FB
:100190009302000800000000930200089302000888
:1001A00093020008930200089302000893020008DB
:1001B00093020008930200089302000893020008CB
:1001C00093020008930200089302000893020008BB
:1001D000930200089302000800F002F800F03CF8D7
:1001E0000AA090E8000C82448344AAF10107DA4592
:1001F00001D100F031F8AFF2090EBAE80F0013F0A8
:10020000010F18BFFB1A43F0010318478C170000B9
:10021000AC170000103A24BF78C878C1FAD852074A
:1002200024BF30C830C144BF04680C607047000070
:100230000023002400250026103A28BF78C1FBD8EF
:10024000520728BF30C148BF0B6070471FB501F08F
:100250008EFB1FBD10B510BD00F031F81146FFF741
:10026000F5FF01F041FB00F04FF803B4FFF7F2FF98
:1002700003BC00F057F800000948804709480047D0
:10028000FEE7FEE7FEE7FEE7FEE7FEE7FEE7FEE746
:10029000FEE7FEE704480549054A064B70470000A3
:1002A0007D170008D9010008C0000020C00600200A
:1002B000C0020020C002002070477047704775469A
:1002C00000F02CF8AE4605006946534620F00700C2
:1002D000854618B020B5FFF7DDFFBDE820404FF0A0
:1002E00000064FF000074FF000084FF0000BAC463F
:1002F000ACE8C009ACE8C009ACE8C009ACE8C0098A
:1003000021F007018D46704710B50446AFF3008019
:100310002046BDE81040FFF7A8BF00000048704726
:100320001000002001491820ABBEFEE726000200A5
:1003300070470000FEE7000070470000EFF31080F8
:1003400072B600BFFEE700002DE9F04F84B08E4684
:1003500041F20042C4F60002DEF80040062190425D
:10036000019008BF0521002C009100F0D780019872
:10037000002500F138424FEAB223009801270026F9
:100380004FF00008052B38BF18460090CDF808E064
:100390000EE000BFDEF8004008F1010834FA07F172
:1003A00006F1020607F1010705F1040500F0B68029
:1003B000A7F1010A012000FA0AF314EA0309E9D0BF
:1003C000DEF804C00CF0030BABF10104012C17D8CC
:1003D0000198744681680322E468B2409143B440B6
:1003E0002143816041684FEA480E9943CCF30013E2
:1003F00003FA0AF30446D043194361600CE000BFDE
:100400000321B140019CC843BBF1030FB64603D1A1
:10041000B6464FF0030B23E0E168029A014093686F
:10042000BBF1020F03FA0EF341EA0301E16017D1B9
:100430006FF0030101EA5A01214405F01C040F2367
:10044000D1F820C003FA04FB13692CEA0B0CA3407B
:1004500043EA0C03019C0B62D2F804C00CF0030BBE
:1004600021680BFA0EF2014011432160DDF808E02B
:100470001CF4403F8ED041F26000C4F202000168DB
:1004800040F2004C41F0010101600168C4F2010C2E
:1004900001F00101039103992AF003014FF6084A84
:1004A0006144CFF6FF7A05F00C030F2051F80A20C3
:1004B00000FA03F40098A24300FA03F31A4341F848
:1004C0000A20DCF80810DEF8042041EA090340F2B3
:1004D0000C40D40258BF21EA0903CCF80830C4F21A
:1004E00001000168940241EA090358BF21EA0903A7
:1004F0000360DCF80410940341EA090358BF21EAC1
:100500000903CCF80430DCF80010D20341EA0903F7
:1005100058BF21EA0903CCF800303BE704B0BDE83E
:10052000F08F0000426902EA0103914341EA03416E
:10053000816170471823002A08BF2823C1507047E3
:1005400040F2BC00C2F200000068704740F20000B8
:1005500040F2BC01C2F20000C2F2000140680A6829
:10056000104408607047000080B5032000F088F850
:10057000032000F009F800281CBF012080BD00F016
:1005800029F8002080BD000070B540F20006C2F2DC
:1005900000067168E1B1044640F20800C2F20000B2
:1005A0004FF47A720068B2FBF1F1B0FBF1F000F0A9
:1005B000EDFC0F2C4FF0010508D838B94FF0FF3093
:1005C00021460022002500F02FF83460284670BD37
:1005D000012070BD82B041F25800C4F2020081686F
:1005E00041F001018160816801F0010101910199EF
:1005F000016841F080510160006800F08050009077
:10060000009802B070470000002848BF704700F013
:100610001F01012202FA01F14EF200124009CEF24E
:10062000000242F82010704710B54EF60C5CCEF276
:10063000000CDCF80030C3F3022E8EF00704042C0B
:1006400028BF0424BEF103034FF0FF3E0EFA04F46A
:1006500038BF0023A14399400EFA03F39A43114394
:1006600000F00F02043A624409010C3200F16043C9
:10067000B0F1FF3FC8BF03F56442117010BD000028
:100680004EF60C51CEF200010A684FF6FF031A40F5
:1006900060F30A2242F0806040F0FD70086070470D
:1006A000B0F5007F42D0002840F0808047F214006F
:1006B000C4F2000050F8141CC26E01F4C06122F4B0
:1006C0008072B1F5806FC2662ED150F8141C0122E1
:1006D00062F34A2140F8141C40F20801C2F2000102
:1006E0000968322251434DF68362C4F21B32A1FBEA
:1006F0000212910C0268520511D54A1C0FD00268F3
:1007000052050CD559B10268520508D5012906D009
:100710000268520503D50229A1F10401EAD100685B
:10072000400544BF032070470020704747F2140083
:10073000C4F2000050F8141CC26E01F4C06142F40F
:100740008072B1F5806FC266EED150F8141C0122A0
:1007500062F34A2140F8141C40F20801C2F2000181
:100760000968322251434DF68362C4F21B32A1FB69
:100770000212910C0268520511D54A1C0FD0026872
:1007800052050CD559B10268520508D5012906D089
:100790000268520503D50229A1F10401EAD10068DB
:1007A000400544BF03207047BEE700BF47F2140076
:1007B000C4F2000050F8141C022262F34A2140F8EF
:1007C000141C0020704700002DE9F04700286DD070
:1007D00042F2000AC4F2020A0446DAF800000D46AA
:1007E00000F00F0088420CD2DAF8000020F00F0071
:1007F0002843CAF80000DAF8000000F00F00A84211
:1008000054D1216841F20808C807C4F2020803D194
:10081000880740F1D880BDE0606802283AD00328FC
:1008200040D158F8082C920140D5D8F80420D8F8C7
:10083000043042F2004702F00302C3F30313C0F294
:10084000F4070133032A04BF41F20027C0F27A07FC
:10085000D8F80420B7FBF3F3D8F80470C2F30622EB
:100860005A43C7F34163022707EB4303B2FBF3F29A
:100870004BF20043C0F2C4439A4261D9D8F8002039
:1008800012F0F00F51D089075AD5A168002957D12D
:100890004BE000BF58F8081C89035CBF0120BDE88D
:1008A000F08707E058F8081C490503D40120BDE88B
:1008B000F08700BFD8F8001001F00C0104293FD0E8
:1008C000D8F8001001F00C01082939D0D8F8001030
:1008D00001F00C010C2933D1D8F80410D8F8042009
:1008E00042F2004301F00301C2F30312C0F2F40329
:1008F0000132032904BF41F20023C0F27A03D8F881
:100900000410B3FBF2F2D8F80430C1F306215143CE
:10091000C3F34162022303EB4202B1FBF2F14BF25B
:100920000042C0F2C44291420AD9D8F8001008220D
:1009300062F307114FF00109C8F8001002E000BF90
:100940004FF00009D8F8001021F003010843C8F85F
:100950000000FFF7F5FD064641F28837D8F80000A1
:10096000616800F00C00B0EB810F07D0FFF7E8FDE5
:10097000801BB842F2D90320BDE8F08721688807C0
:1009800008D4B9F1000F1ED0D8F8000020F0F00014
:1009900017E000BF480705D5D8F8000040F4E06034
:1009A000C8F80000080706D5D8F80000072262F34F
:1009B0000D20C8F80000D8F80000A26820F0F00070
:1009C0001043C8F80000DAF8000000F00F00A84259
:1009D0001BD9DAF8000020F00F002843CAF8000005
:1009E000FFF7AEFD064641F2883700BFDAF8000097
:1009F00000F00F00A84207D0FFF7A2FD801BB8420D
:100A0000F4D90320BDE8F0872168480707D5D8F856
:100A10000000E26820F4E0601043C8F80000080716
:100A200008D5D8F80000216920F4605040EAC100E0
:100A3000C8F80000D8F8000042F20041C0F2F4010A
:100A400000F00C00042808462DD0D8F8000000F073
:100A50000C00082841F20020C0F27A0023D0D8F818
:100A6000002002F00C020C2A1CD1D8F80420D8F87F
:100A7000043002F00302C3F303130133032A08BF57
:100A80000146D8F80400B1FBF3F1D8F80420C0F314
:100A900006204843C2F34161022202EB4101B0FB50
:100AA000F1F000E00020D8F8001041F68812C1F300
:100AB0000311C0F60002515C40F2080201F01F0170
:100AC00020FA01F140F20000C2F200000068C2F218
:100AD00000021160BDE8F047FFF756BD2DE9F04177
:100AE00082B0002800F006810446007841F200063A
:100AF000C007C4F2020655D12078800774D420784C
:100B0000000700F197802078400700F1B780207837
:100B1000800600F10781E069002840D0B16801F04B
:100B20000C010C2940F05681012800F0E380F068A8
:100B3000216A00F003028A4240F0DC80626A6FF0B2
:100B40000F0300F0F00103EB0212914240F0D2805B
:100B5000A16A00F4FE42B2EB012F40F0CB80E16AC3
:100B600000F07842B2EBC16F40F0C480226B0023EA
:100B7000CFF6E07303EB025200F4C0016FF31402EE
:100B8000914240F0B780616B4FF07E4202EB016111
:100B900000F0C06001F07E41884240F0AB80002050
:100BA000F1E100BFB06800F00C01F06808295BD0EB
:100BB000032281F00C0122EA00000844B0FA80F020
:100BC000400951D16068B0F5803F07D0B0F5A02F43
:100BD00040F0D680306840F480203060306840F4C7
:100BE00080303060D7E000BFB068F16800F00C00E2
:100BF000042869D001F0030180F00C0081F00201AB
:100C00000844B0FA80F040095ED1E16830680029FC
:100C100000F0CE8040F480703060FFF791FC054614
:100C20003068400500F1EC80FFF78AFC401B022889
:100C3000F6D920E16169D6F89400002900F08C8093
:100C400040F00100C6F89400FFF77AFC054600BFAB
:100C5000D6F8940080073FF556AFFFF771FC401BB4
:100C60000228F5D907E100BF306880037FF544AF63
:100C7000606800287FF440AF3CE000BFB06D10F02A
:100C8000805808D1B06D40F08050B065B06D00F074
:100C900080500190019847F20007C4F200073868BD
:100CA000C0052BD4386840F480703860FFF748FCEA
:100CB000054600BF3868C00520D4FFF741FC401B43
:100CC0000228F7D9D7E000BF3068400501D5E068B9
:100CD00080B17068216920F0FE4040EA01607060D8
:100CE00040F20000C2F200000068FFF74DFC00284F
:100CF0003FF405AF012002B0BDE8F081A0680128F3
:100D000008D0052840F09A80D6F8900040F0040002
:100D1000C6F89000D6F8900040F00100C6F89000A8
:100D20009AE000BFA169D6F89800002970D040F081
:100D30000100C6F89800FFF703FC0546D6F89800B6
:100D400080073FF5E8AEFFF7FBFB401B02284FF0A2
:100D50000300F3D917E100BF20F00100C6F89400AA
:100D6000FFF7EEFB054600BFD6F8940080077FF53D
:100D7000CAAEFFF7E5FB401B0228F5D97BE000BFB8
:100D80003168002821F480313160316821F48021FC
:100D9000316000F08F80FFF7D3FB05463068800399
:100DA0003FF5AAAEFFF7CCFB401B6428F6D962E002
:100DB00020F480703060FFF7C3FB054630684005C3
:100DC0007FF59DAEFFF7BCFB401B02284FF00300F0
:100DD000F4D9D8E03168022821F0807131604FD118
:100DE000FFF7AEFB054600BF3068800140F18E8002
:100DF000FFF7A6FB401B02284FF00300F4D9C2E026
:100E00007068216920F0FE4040EA0160706076E67B
:100E100020F00100C6F89800FFF792FB054600BFDE
:100E2000D6F8980080077FF576AEFFF789FB401B68
:100E300002284FF00300F3D9A5E000BFD6F89010C8
:100E4000002821F00101C6F89010D6F8901021F08A
:100E50000401C6F890103DD0FFF772FB054641F241
:100E6000883700BFD6F89000800745D4FFF768FBAD
:100E7000401BB842F6D9032002B0BDE8F08100BFA4
:100E8000F0684FF6FF7120F00300F060F068CFF6D5
:100E9000EE610840F060FFF753FB044630688001C4
:100EA0007FF57DAEFFF74CFB001B02284FF00300DF
:100EB000F4D968E0FFF744FB054600BF30688003C3
:100EC0007FF51AAEFFF73CFB401B64284FF0030090
:100ED000F4D958E0FFF734FB054641F2883700BFEC
:100EE000D6F89000800707D5FFF72AFB401BB842D1
:100EF0004FF00300F4D946E0B8F1000F7FF407AEDD
:100F0000B06D20F08050B06501E600BFF06848F297
:100F10000C01C0F29F1104F1200700EA010C8ECFF2
:100F20006FF00F00D4E90C5400EB02100022CFF652
:100F3000E07241EA0C0102EB055208436FF3140220
:100F40004FF07E4540EA032005EB0465104305F0B1
:100F50007E4540EAC7602843F060306840F080700A
:100F60003060F06840F08070F060FFF7E9FA044606
:100F7000306880013FF513AEFFF7E2FA001B02284C
:100F80004FF00300F4D902B0BDE8F081411E00200B
:100F9000B0EB116F1CBF012070474EF21002CEF271
:100FA000000251604EF62351CEF20001F0230B7087
:100FB0000721906011607047704700007047000083
:100FC0007047000070470000704700007047000045
:100FD00070B590F83C20012A4FF0020265D080F8ED
:100FE0003D20026842F600435468D2F808C0C4F2BB
:100FF000010345F2000E9A42C4F2010E18BF724579
:101000002CD14D6824F470042C434FF68F75CFF625
:10101000FF550E682C4042F6FF35C4F201053443FB
:10102000AA4254600EDC40F2FF73C4F200039A42FD
:101030001CDCB2F1804F2DD040F20043C4F200031B
:1010400026E000BF43F6FF74C4F20104A24219DC9B
:101050009A421FD043F2004318E000BF43F200451C
:10106000C4F20105AA42CCD0CFE700BF40F600038E
:10107000C4F200039A420DD040F60043C4F20003CC
:1010800006E000BF724505D044F20003C4F201033C
:101090009A4204D189682CF08003194391600121A0
:1010A000002280F83D1080F83C20104670BD000002
:1010B00070470000002804BF0120704710B50446A7
:1010C00090F83D0028B9002084F83C00204600F04C
:1010D00023F8022084F83D002068211D00F064FB05
:1010E000012084F8480084F83E0084F83F0084F82A
:1010F000400084F8410084F8420084F8430084F8FA
:10110000440084F8450084F8460084F8470084F8D9
:101110003D00002010BD000080B582B0006842F69E
:101120000041C4F2010188421CBF02B080BD41F2FF
:101130006000C4F202000168002241F40061016015
:101140000068002100F40060019001981820FFF76A
:101150006BFA1820FFF758FA192000210022FFF738
:1011600063FA192002B0BDE88040FFF74DBA0000D5
:1011700090F83D1001291CBF01207047022180F822
:101180003D10016842F6FF32C868C4F20102914284
:1011900040F00100C8600DDC40F2FF70C4F20000B6
:1011A000814217DCB1F1804F2CD040F20040C4F2F4
:1011B000000025E043F6FF70C4F20100814215DC17
:1011C00042F60040C4F2010081421BD043F20040CD
:1011D00014E000BF40F60000C4F20000814211D0CC
:1011E00040F60040C4F200000AE000BF45F20000F3
:1011F000C4F20100814205D044F20000C4F20100B3
:1012000081420CD188680722C0F201020240062AFE
:101210004FF0000008D0B2F5803F08BF7047086863
:1012200040F00100086000207047000080B590F891
:101230003C20012A4FF0020200F0988080F83D2007
:10124000D0F800C08822DCF80830CFF6CE721A4001
:10125000CCF808200B68B3F5005F0DDA3F2B21DDD9
:101260005F2B33DD602B00F08380702B00F0A280B9
:10127000B3F5805F73D0E7E02F22C0F210029342F3
:1012800018DD4F21C0F210018B4247DD5021C0F222
:1012900010018B4257D06021C0F210018B4252D016
:1012A00070214BE01F2B41DC002B4CD0102B4AD07F
:1012B000CAE000BFB3F1101F3EDAB3F5005F00F0E3
:1012C0008D80B3F5801F3ED0BEE000BF402B00F004
:1012D0009980502B40F0B880D1F804E0C968DCF860
:1012E0002030DCF8202022F00102CCF82020DCF8AD
:1012F000182022F0F00242EA011123F00A0242EA29
:101300000E02CCF81810CCF82020DCF808104FF6AC
:101310008872CFF6CF72114057311EE03021C0F2F3
:1013200010018B420FD0402108E000BF202B0AD0D3
:10133000302B08D088E000BF05D02021C0F210017A
:101340008B4240F08180DCF808104FF68872CFF6AF
:10135000CF721140194341F00701CCF80810002268
:10136000012180F83D10002180F83C10104680BD1E
:10137000D1F804E0C968DCF8203023F01003CCF881
:101380002030DCF81830DCF8202023F4704322F001
:10139000A00243EA013142EA0E12CCF81810CCF850
:1013A0002020DCF808104FF68872CFF6CF7211407B
:1013B0006731D2E7D1E901E3C968DCF8082043EAE4
:1013C0000E0322F47F4243EA01211143CCF80810B6
:1013D000DCF8081041F07701BFE700BFD1E901E375
:1013E000C968DCF8082043EA0E0322F47F4243EA8E
:1013F00001211143CCF80810DCF8081041F48041B9
:10140000ABE700BFD1F804E0C968DCF82030DCF8B5
:10141000202022F00102CCF82020DCF8182022F055
:10142000F00242EA011123F00A0242EA0E02CCF86D
:101430001810CCF82020DCF808104FF68872CFF690
:10144000CF721140473188E7012289E770470000D9
:1014500010B5016804460869800744BFC8685FEAA0
:10146000807061D40869400744BFC8685FEA407073
:1014700066D40869000744BFC8685FEA00706DD48D
:101480000869C00644BFC8685FEAC06072D40869D2
:10149000C0071CBFC8685FEAC07079D10869000640
:1014A00044BFC8685FEA00607AD40869C00544BFD9
:1014B000C8685FEA006000F17B800869400644BFAD
:1014C000C8685FEA406000F17B800869800644BF1D
:1014D000C8685FEA806000F17B800869C00244BF91
:1014E000C8685FEAC02000F17B800869800244BFC1
:1014F000C8685FEA802000F17B800869400244BF31
:10150000C8685FEA402000F17B800869000246BF9E
:10151000C8685FEA002010BD6FF4000220460A612F
:10152000BDE81040FFF7C4BD6FF002000861012064
:101530002077886980076BD02046FFF787FF6DE032
:101540006FF00400086102202077886910F4407F62
:1015500068D02046FFF77AFF6AE000BF6FF008000E
:10156000086104202077C869800765D02046FFF70E
:101570006DFF67E06FF01000086108202077C869F0
:1015800010F4407F62D02046FFF760FF64E000BFA8
:101590006FF001000861204600F066F821687DE7E1
:1015A0006FF0800008612046FFF708FD21687CE7A6
:1015B0006FF4807008612046FFF7FEFC21687CE72D
:1015C0006FF040000861204600F05EF821687CE77B
:1015D0006FF0200008612046FFF7F2FC21687CE7ED
:1015E0006FF4801008612046FFF7EEFC21687CE76D
:1015F0006FF4001008612046FFF7E4FC21687CE7E7
:101600006FF4800008612046FFF7E0FC21687CE76A
:10161000204600F025F8204600F024F8216800203C
:1016200020771FE7204600F01BF8204600F01AF84C
:101630002168002020771CE7204600F011F82046A2
:1016400000F010F821680020207719E7204600F00C
:1016500007F8204600F006F821680020207716E7FA
:101660007047000070470000006842F60041C4F275
:101670000101884218BF704740F60000C4F6000020
:101680000121FEF74FBF000070470000FEE7000099
:1016900070B586B0002541F24C000595C4F20200F9
:1016A000016840F6000441F0200101600168C4F6C1
:1016B000000401F02001009100990168002241F02E
:1016C000040101600068012100F00400009000980E
:1016D00020460126FEF72EFF01A92046CDE901662E
:1016E000CDE90355FEF730FE06B070BD80B588B079
:1016F00040F2700042F600420021C2F20000C4F243
:10170000010244F2672341F2883C0791CDE90511BB
:10171000C0E90023C0E9021CC0E904118161FFF7A0
:10172000C9FC002818BFFEF709FE4FF48050049052
:1017300040F27000C2F2000004A9FFF777FD002814
:1017400018BFFEF7FBFD0020CDE90100039040F239
:101750007000C2F2000001A9FFF73AFC002818BF90
:10176000FEF7ECFD08B080BDFEE70000FEE70000DC
:101770007047000070470000FEF7E8BE4EF6885044
:10178000CEF20000016841F4700101607047000072
:1017900040F27000C2F20000FFF75ABE40F2700043
:1017A000C2F20000FFF754BE80B540F6FF33026876
:1017B000C4F2000343F2FF3C9842C4F2010C0BDD7B
:1017C00060452FDC40F60043C4F20003984235D058
:1017D00042F600432EE000BFB0F1804F2ED040F221
:1017E0000043C4F20003984228D040F60003C4F23C
:1017F0000003984222D0604526DC40F2FF73C4F219
:101800000003984236DD40F60003C4F2000398421C
:1018100044D040F60043C4F2000398423ED042F662
:10182000004337E045F20003C4F20103984205D0BB
:1018300043F20043C4F201039842DCD14B6822F02A
:1018400070021A436045D8DD44F2FF33C4F201034D
:10185000984217DD44F20043C4F2010398421DD0C0
:1018600045F20003C4F20103984217D044F6000386
:1018700010E000BFB0F1804F10D040F20043C4F23E
:10188000000309E043F20043C4F20103984205D08B
:1018900044F20003C4F20103984203D1CB6822F45E
:1018A00040721A434B6922F0800E8A6843EA0E03A5
:1018B000D1F800C00360C262A0F18042A2F5963266
:1018C0004FEAB222092AC0F828C008D8012303FA37
:1018D00002F240F2E5231A421CBF096901630121AB
:1018E000416180BDFEE7000094B0FEF73DFE00249C
:1018F0000020CDE90B44CDE90944CDE90744FEF7CA
:10190000CFFE4FF48071099140210A9104210220F9
:101910000F9155210690CDE90D00CDE91010CDE9CC
:10192000120006A8FFF7DAF820B1EFF3108072B6C4
:10193000FEE700BF0F2001900320CDE9020401A8BB
:101940000421CDE90444FEF73FFF28B1EFF31080F6
:1019500072B600BFFEE700BFFFF79AFEFFF7C6FEB4
:1019600040F27000C2F20000FFF702FCFEE7F1EE69
:10197000100A4FF6FF71C0F2C03120EA010040F0BA
:101980004070E1EE100A7047000000000000000007
:101990000102030406070809B81900080000002026
:1019A0001000000014020008C819000810000020F0
:1019B000B006000030020008100000000100000026
:0819C0000024F4000000000007
:04000005080001D915
:00000001FF
