:020000040800F2
:100000008006002079020008E91000084510000869
:10001000E5100008350300080D110008000000007D
:10002000000000000000000000000000F1100008C7
:100030003903000800000000ED100008F51000086A
:10004000930200089302000893020008930200083C
:10005000930200089302000893020008930200082C
:10006000930200089302000893020008930200081C
:10007000930200089302000893020008930200080C
:1000800093020008930200089302000893020008FC
:100090009302000893020008930200083D03000841
:1000A00093020008930200089302000893020008DC
:1000B00093020008930200089302000893020008CC
:1000C00093020008930200089302000893020008BC
:1000D00093020008930200089302000893020008AC
:1000E000930200089302000893020008930200089C
:1000F000930200089302000893020008930200088C
:10010000930200089302000893020008930200087B
:10011000930200089302000893020008930200086B
:10012000930200089302000893020008930200085B
:10013000930200089302000893020008930200084B
:10014000930200089302000893020008930200083B
:10015000930200089302000893020008930200082B
:10016000930200089302000893020008930200081B
:10017000930200089302000893020008930200080B
:1001800093020008930200089302000893020008FB
:100190009302000800000000930200089302000888
:1001A00093020008930200089302000893020008DB
:1001B00093020008930200089302000893020008CB
:1001C00093020008930200089302000893020008BB
:1001D000930200089302000800F002F800F03CF8D7
:1001E0000AA090E8000C82448344AAF10107DA4592
:1001F00001D100F031F8AFF2090EBAE80F0013F0A8
:10020000010F18BFFB1A43F001031847AC0F0000A1
:10021000CC0F0000103A24BF78C878C1FAD8520732
:1002200024BF30C830C144BF04680C607047000070
:100230000023002400250026103A28BF78C1FBD8EF
:10024000520728BF30C148BF0B6070471FB500F090
:100250009AFF1FBD10B510BD00F031F81146FFF731
:10026000F5FF00F055FF00F04FF803B4FFF7F2FF81
:1002700003BC00F057F800000948804709480047D0
:10028000FEE7FEE7FEE7FEE7FEE7FEE7FEE7FEE746
:10029000FEE7FEE704480549054A064B70470000A3
:1002A000F9100008D9010008800000208006002015
:1002B000800200208002002070477047704775461A
:1002C00000F02CF8AE4605006946534620F00700C2
:1002D000854618B020B5FFF7DDFFBDE820404FF0A0
:1002E00000064FF000074FF000084FF0000BAC463F
:1002F000ACE8C009ACE8C009ACE8C009ACE8C0098A
:1003000021F007018D46704710B50446AFF3008019
:100310002046BDE81040FFF7A8BF00000048704726
:100320001000002001491820ABBEFEE726000200A5
:1003300070470000FEE70000704700004FF4807037
:1003400000F03CB870B5054600F040F940F2700688
:10035000C2F200063168401AB0F5967F20D340F60D
:100360000004C4F6000400F031F930602046042196
:10037000012200F025F920460221012200F020F997
:1003800020460121012200F01BF9B5F5807F18BF3E
:1003900070BD7068411C00F003000328716001D13A
:1003A00070BD00BF41F2A011C0F6000131F810107D
:1003B0002046BDE8704000F0FBB8000040F2144158
:1003C000C4F201010A68024214BF08607047FFF7D7
:1003D000B9BF00002DE9F04F84B08E4641F20042D3
:1003E000C4F60002DEF8004006219042019008BFEA
:1003F0000521002C009100F0D7800198002500F124
:1004000038424FEAB2230098012700264FF0000837
:10041000052B38BF18460090CDF808E00EE000BF6D
:10042000DEF8004008F1010834FA07F106F102068F
:1004300007F1010705F1040500F0B680A7F1010AF4
:10044000012000FA0AF314EA0309E9D0DEF804C037
:100450000CF0030BABF10104012C17D80198744682
:1004600081680322E468B2409143B4402143816033
:1004700041684FEA480E9943CCF3001303FA0AF39C
:100480000446D043194361600CE000BF0321B14032
:10049000019CC843BBF1030FB64603D1B6464FF0EB
:1004A000030B23E0E168029A01409368BBF1020F5D
:1004B00003FA0EF341EA0301E16017D16FF0030183
:1004C00001EA5A01214405F01C040F23D1F820C091
:1004D00003FA04FB13692CEA0B0CA34043EA0C0358
:1004E000019C0B62D2F804C00CF0030B21680BFADC
:1004F0000EF2014011432160DDF808E01CF4403F9A
:100500008ED041F26000C4F20200016840F2004C5B
:1005100041F0010101600168C4F2010C01F0010128
:10052000039103992AF003014FF6084A6144CFF67C
:10053000FF7A05F00C030F2051F80A2000FA03F4AB
:100540000098A24300FA03F31A4341F80A20DCF8AA
:100550000810DEF8042041EA090340F20C40D402FE
:1005600058BF21EA0903CCF80830C4F20100016841
:10057000940241EA090358BF21EA09030360DCF849
:100580000410940341EA090358BF21EA0903CCF897
:100590000430DCF80010D20341EA090358BF21EA15
:1005A0000903CCF800303BE704B0BDE8F08F000051
:1005B000426902EA0103914341EA034181617047C4
:1005C0001823002A08BF2823C150704740F2780042
:1005D000C2F200000068704740F2000040F278016B
:1005E000C2F20000C2F2000140680A6810440860CC
:1005F0007047000080B5032000F088F80F2000F05D
:1006000009F800281CBF012080BD00F029F8002057
:1006100080BD000070B540F20006C2F200067168AD
:10062000E1B1044640F20800C2F200004FF47A72D1
:100630000068B2FBF1F1B0FBF1F000F0EDFC0F2C23
:100640004FF0010508D838B94FF0FF30214600229D
:10065000002500F02FF83460284670BD012070BDE1
:1006600082B041F25800C4F20200816841F00101F9
:100670008160816801F0010101910199016841F0F7
:1006800080510160006800F080500090009802B036
:1006900070470000002848BF704700F01F0101228A
:1006A00002FA01F14EF200124009CEF2000242F8C5
:1006B0002010704710B54EF60C5CCEF2000CDCF842
:1006C0000030C3F3022E8EF00704042C28BF04244C
:1006D000BEF103034FF0FF3E0EFA04F438BF0023CF
:1006E000A14399400EFA03F39A43114300F00F021D
:1006F000043A624409010C3200F16043B0F1FF3F5B
:10070000C8BF03F56442117010BD00004EF60C51D5
:10071000CEF200010A684FF6FF031A4060F30A2286
:1007200042F0806040F0FD7008607047B0F5007FD7
:1007300042D0002840F0808047F21400C4F200004C
:1007400050F8141CC26E01F4C06122F48072B1F53D
:10075000806FC2662ED150F8141C012262F34A2128
:1007600040F8141C40F20801C2F20001096832226C
:1007700051434DF68362C4F21B32A1FB0212910C6D
:100780000268520511D54A1C0FD0026852050CD5DB
:1007900059B10268520508D5012906D002685205F0
:1007A00003D50229A1F10401EAD10068400544BF44
:1007B000032070470020704747F21400C4F2000085
:1007C00050F8141CC26E01F4C06142F48072B1F59D
:1007D000806FC266EED150F8141C012262F34A21E8
:1007E00040F8141C40F20801C2F2000109683222EC
:1007F00051434DF68362C4F21B32A1FB0212910CED
:100800000268520511D54A1C0FD0026852050CD55A
:1008100059B10268520508D5012906D0026852056F
:1008200003D50229A1F10401EAD10068400544BFC3
:1008300003207047BEE700BF47F21400C4F2000077
:1008400050F8141C022262F34A2140F8141C0020C4
:10085000704700002DE9F04700286DD042F2000AF1
:10086000C4F2020A0446DAF800000D4600F00F0058
:1008700088420CD2DAF8000020F00F002843CAF8B2
:100880000000DAF8000000F00F00A84254D12168FF
:1008900041F20808C807C4F2020803D1880740F1F2
:1008A000D880BDE0606802283AD0032840D158F8CB
:1008B000082C920140D5D8F80420D8F8043042F230
:1008C000004702F00302C3F30313C0F2F40701333D
:1008D000032A04BF41F20027C0F27A07D8F80420A7
:1008E000B7FBF3F3D8F80470C2F306225A43C7F3F8
:1008F0004163022707EB4303B2FBF3F24BF20043E1
:10090000C0F2C4439A4261D9D8F8002012F0F00F27
:1009100051D089075AD5A168002957D14BE000BFB3
:1009200058F8081C89035CBF0120BDE8F08707E088
:1009300058F8081C490503D40120BDE8F08700BF22
:10094000D8F8001001F00C0104293FD0D8F80010AD
:1009500001F00C01082939D0D8F8001001F00C0181
:100960000C2933D1D8F80410D8F8042042F20043FF
:1009700001F00301C2F30312C0F2F40301320329B0
:1009800004BF41F20023C0F27A03D8F80410B3FB8D
:10099000F2F2D8F80430C1F306215143C3F34162A7
:1009A000022303EB4202B1FBF2F14BF20042C0F230
:1009B000C44291420AD9D8F80010082262F3071104
:1009C0004FF00109C8F8001002E000BF4FF0000925
:1009D000D8F8001021F003010843C8F80000FFF721
:1009E000F5FD064641F28837D8F80000616800F04E
:1009F0000C00B0EB810F07D0FFF7E8FD801BB84279
:100A0000F2D90320BDE8F0872168880708D4B9F13E
:100A1000000F1ED0D8F8000020F0F00017E000BF53
:100A2000480705D5D8F8000040F4E060C8F8000099
:100A3000080706D5D8F80000072262F30D20C8F891
:100A40000000D8F80000A26820F0F0001043C8F8B9
:100A50000000DAF8000000F00F00A8421BD9DAF815
:100A6000000020F00F002843CAF80000FFF7AEFD99
:100A7000064641F2883700BFDAF8000000F00F00A8
:100A8000A84207D0FFF7A2FD801BB842F4D903208B
:100A9000BDE8F0872168480707D5D8F80000E2686C
:100AA00020F4E0601043C8F80000080708D5D8F823
:100AB0000000216920F4605040EAC100C8F800003D
:100AC000D8F8000042F20041C0F2F40100F00C003E
:100AD000042808462DD0D8F8000000F00C000828A3
:100AE00041F20020C0F27A0023D0D8F8002002F0B2
:100AF0000C020C2A1CD1D8F80420D8F8043002F0DB
:100B00000302C3F303130133032A08BF0146D8F8D5
:100B10000400B1FBF3F1D8F80420C0F306204843E9
:100B2000C2F34161022202EB4101B0FBF1F000E0AF
:100B30000020D8F8001041F2A612C1F30311C0F64C
:100B40000002515C40F2080201F01F0120FA01F19D
:100B500040F20000C2F200000068C2F20002116020
:100B6000BDE8F047FFF756BD2DE9F04182B00028FF
:100B700000F006810446007841F20006C007C4F286
:100B8000020655D12078800774D42078000700F140
:100B900097802078400700F1B7802078800600F128
:100BA0000781E069002840D0B16801F00C010C29F0
:100BB00040F05681012800F0E380F068216A00F0DF
:100BC00003028A4240F0DC80626A6FF00F0300F09B
:100BD000F00103EB0212914240F0D280A16A00F4CE
:100BE000FE42B2EB012F40F0CB80E16A00F0784288
:100BF000B2EBC16F40F0C480226B0023CFF6E073EC
:100C000003EB025200F4C0016FF31402914240F072
:100C1000B780616B4FF07E4202EB016100F0C06073
:100C200001F07E41884240F0AB800020F1E100BF3E
:100C3000B06800F00C01F06808295BD0032281F055
:100C40000C0122EA00000844B0FA80F0400951D1BA
:100C50006068B0F5803F07D0B0F5A02F40F0D68097
:100C6000306840F480203060306840F4803030607C
:100C7000D7E000BFB068F16800F00C00042869D02C
:100C800001F0030180F00C0081F002010844B0FA89
:100C900080F040095ED1E1683068002900F0CE8024
:100CA00040F480703060FFF791FC054630684005E5
:100CB00000F1EC80FFF78AFC401B0228F6D920E106
:100CC0006169D6F89400002900F08C8040F00100A2
:100CD000C6F89400FFF77AFC054600BFD6F89400EA
:100CE00080073FF556AFFFF771FC401B0228F5D98E
:100CF00007E100BF306880037FF544AF60680028DB
:100D00007FF440AF3CE000BFB06D10F0805808D1D8
:100D1000B06D40F08050B065B06D00F08050019033
:100D2000019847F20007C4F200073868C0052BD4C9
:100D3000386840F480703860FFF748FC054600BF13
:100D40003868C00520D4FFF741FC401B0228F7D9C2
:100D5000D7E000BF3068400501D5E06880B1706819
:100D6000216920F0FE4040EA0160706040F200001E
:100D7000C2F200000068FFF74DFC00283FF405AF09
:100D8000012002B0BDE8F081A068012808D0052844
:100D900040F09A80D6F8900040F00400C6F8900029
:100DA000D6F8900040F00100C6F890009AE000BF2D
:100DB000A169D6F89800002970D040F00100C6F86B
:100DC0009800FFF703FC0546D6F8980080073FF52A
:100DD000E8AEFFF7FBFB401B02284FF00300F3D9FE
:100DE00017E100BF20F00100C6F89400FFF7EEFB0A
:100DF000054600BFD6F8940080077FF5CAAEFFF71E
:100E0000E5FB401B0228F5D97BE000BF31680028D4
:100E100021F480313160316821F48021316000F0AB
:100E20008F80FFF7D3FB0546306880033FF5AAAEFD
:100E3000FFF7CCFB401B6428F6D962E020F48070F9
:100E40003060FFF7C3FB0546306840057FF59DAE77
:100E5000FFF7BCFB401B02284FF00300F4D9D8E099
:100E60003168022821F0807131604FD1FFF7AEFB6D
:100E7000054600BF3068800140F18E80FFF7A6FB79
:100E8000401B02284FF00300F4D9C2E070682169CA
:100E900020F0FE4040EA0160706076E620F001003C
:100EA000C6F89800FFF792FB054600BFD6F89800F9
:100EB00080077FF576AEFFF789FB401B02284FF0D5
:100EC0000300F3D9A5E000BFD6F89010002821F068
:100ED0000101C6F89010D6F8901021F00401C6F870
:100EE00090103DD0FFF772FB054641F2883700BFF6
:100EF000D6F89000800745D4FFF768FB401BB84246
:100F0000F6D9032002B0BDE8F08100BFF0684FF6CB
:100F1000FF7120F00300F060F068CFF6EE6108404A
:100F2000F060FFF753FB0446306880017FF57DAE2B
:100F3000FFF74CFB001B02284FF00300F4D968E0D8
:100F4000FFF744FB054600BF306880037FF51AAE0B
:100F5000FFF73CFB401B64284FF00300F4D958E036
:100F6000FFF734FB054641F2883700BFD6F8900002
:100F7000800707D5FFF72AFB401BB8424FF003005C
:100F8000F4D946E0B8F1000F7FF407AEB06D20F061
:100F90008050B06501E600BFF06848F20C01C0F275
:100FA0009F1104F1200700EA010C8ECF6FF00F00B3
:100FB000D4E90C5400EB02100022CFF6E07241EAB3
:100FC0000C0102EB055208436FF314024FF07E450B
:100FD00040EA032005EB0465104305F07E4540EA36
:100FE000C7602843F060306840F080703060F0687F
:100FF00040F08070F060FFF7E9FA04463068800145
:101000003FF513AEFFF7E2FA001B02284FF0030092
:10101000F4D902B0BDE8F081411E0020B0EB116FA1
:101020001CBF012070474EF21002CEF20002516048
:101030004EF62351CEF20001F0230B700721906091
:1010400011607047FEE70000F0B587B0002641F25E
:101050004C000696C4F20200016840F6000441F01C
:10106000200101600168C4F6000401F02001019133
:1010700001990168012241F004010160016807251E
:1010800001F00401019101990168012741F0020179
:1010900001600068072100F00200019001982046DD
:1010A000FFF78EFACDE9025702AD20462946CDE979
:1010B0000466FFF78FF94FF4807002904FF48810A8
:1010C000CDE90306A4F580602946FFF783F91720D0
:1010D00000210022FFF7EEFA1720FFF7DBFA07B036
:1010E000F0BD0000FEE70000FEE7000070470000D2
:1010F00070470000FFF770BA4EF68850CEF200003D
:10110000016841F47001016070470000FEE70000D3
:1011100094B0FFF76FFA00240020CDE90B44CDE92D
:101120000944CDE90744FFF701FB4FF480710991B1
:1011300040210A91042102200F9155210690CDE90A
:101140000D00CDE91010CDE9120006A8FFF70CFD47
:1011500020B1EFF3108072B6FEE700BF0F200190C0
:101160000320CDE9020401A80421CDE90444FFF7DE
:1011700071FB28B1EFF3108072B600BFFEE700BF2D
:10118000FFF762FFFEE7F1EE100A4FF6FF71C0F2C3
:10119000C03120EA010040F04070E1EE100A7047D3
:1011A0000400020001000000000000000000010235
:1011B0000304060708090000D811000800000020F9
:1011C0001000000014020008E811000810000020C0
:1011D000700600003002000810000000010000004E
:0811E0000024F40000000000EF
:04000005080001D915
:00000001FF
