:020000040800F2
:1000000078170020ED010008D11F0008211F00080B
:10001000CD1F0008DD020008C53E000800000000FA
:10002000000000000000000000000000D91F0008D0
:100030006D03000800000000D51F0008DD1F000848
:10004000070200080702000807020008070200086C
:10005000070200080702000807020008070200085C
:10006000070200080702000807020008070200084C
:10007000070200080702000807020008070200083C
:10008000070200080702000807020008070200082C
:10009000813D000807020008070200080702000867
:1000A000070200080702000807020008070200080C
:1000B00007020008070200080702000807020008FC
:1000C00007020008070200080702000807020008EC
:1000D00007020008070200080702000807020008DC
:1000E00007020008070200080702000807020008CC
:1000F00007020008070200080702000807020008BC
:1001000007020008070200080702000807020008AB
:10011000070200080702000807020008070200089B
:10012000070200080702000807020008070200088B
:10013000070200080702000807020008070200087B
:10014000070200080702000807020008070200086B
:10015000070200080702000807020008070200085B
:10016000070200080702000807020008070200084B
:10017000070200080702000807020008070200083B
:10018000070200080702000807020008070200082B
:10019000070200080000000007020008070200082C
:1001A000070200080702000807020008070200080B
:1001B00007020008070200080702000807020008FB
:1001C00007020008070200080702000807020008EB
:1001D0000702000807020008DFF80CD000F040F822
:1001E00000480047ED3E0008781700200648804789
:1001F00006480047FEE7FEE7FEE7FEE7FEE7FEE70C
:10020000FEE7FEE7FEE7FEE759200008D9010008F7
:10021000D2B201E000F8012B491EFBD27047002248
:10022000F6E710B513460A4604461946FFF7F0FFF5
:10023000204610BD30B50B46014600202022012487
:1002400009E021FA02F59D4205D303FA02F5491BA4
:1002500004FA02F52844151EA2F10102F1DC30BDBA
:10026000064C074D06E0E06840F0010394E8070003
:1002700098471034AC42F6D3FFF7B2FF5441000860
:100280007441000870B58C1810F8015B15F0070375
:1002900001D110F8013B2A1106D110F8012B03E01F
:1002A00010F8016B01F8016B5B1EF9D12B0705D427
:1002B0000023521E0DD401F8013BFAE710F8013B70
:1002C000CB1A921C03E013F8015B01F8015B521E8C
:1002D000F9D5A142D8D3002070BD0000FEE7000090
:1002E000002070470020704710B540F6AC54C2F2B1
:1002F000000440F6AC11C2F200012046002202F0D8
:10030000EDF840F2AC51C2F20001204602F0DCF8F8
:10031000002010BD10B540F6AC54C2F200040146F6
:10032000204602F0D1F8204601F0FAFF002010BD6F
:100330000020704710B540F6AC52C2F20002D2F86D
:10034000BC22D2F81432002B1CBF012010BD40F695
:10035000AC54C2F200040A460146204602F0BEF840
:100360002046BDE8104002F03BB900007047000095
:10037000EFF3108072B600BFFEE70000B0B5044690
:1003800000F010F8054640F20400C2F20000406898
:10039000611C18BF044400BF00F004F8401BA042D9
:1003A000FAD3B0BD41F27030C2F20000006870476D
:1003B00040F2040041F27031C2F20000C2F20001CA
:1003C00040680A68104408607047000080B5032048
:1003D00000F088F8032000F009F800281CBF012075
:1003E00080BD00F029F8002080BD000070B540F20B
:1003F0000406C2F200067168E1B1044640F22C0026
:10040000C2F200004FF47A720068B2FBF1F1B0FB67
:10041000F1F001F06FFD0F2C4FF0010508D838B94D
:100420004FF0FF3021460022002500F02FF8346005
:10043000284670BD012070BD82B041F25800C4F260
:100440000200816841F001018160816801F00101D1
:1004500001910199016841F080510160006800F04C
:1004600080500090009802B070470000002848BFFC
:10047000704700F01F01012202FA01F14EF2001252
:100480004009CEF2000242F82010704710B54EF637
:100490000C5CCEF2000CDCF80030C3F3022E8EF0C0
:1004A0000704042C28BF0424BEF103034FF0FF3ED1
:1004B0000EFA04F438BF0023A14399400EFA03F367
:1004C0009A43114300F00F02043A624409010C32CE
:1004D00000F16043B0F1FF3FC8BF03F56442117003
:1004E00010BD00004EF60C51CEF200010A684FF626
:1004F000FF031A4060F30A2242F0806040F0FD7072
:100500000860704701220168C0F8E822002280F8E4
:10051000E022B1F8540040F00100A1F85400B1F815
:10052000540040F002020020A1F85420704700005F
:1005300010B50129044613D011BBA06948B101F0E0
:100540004FFD4EF61050CEF20000016821F006017A
:100550000160D4F8F002BDE8104002F09DBA00BF7F
:10056000D4F8F00202F01EFBA069002808BF10BDFD
:100570004EF61050CEF20000016841F00601016015
:1005800010BD000080B501F0070C0CEB8C0C00EBEB
:10059000CC0C01EB810E0CF1280C00EBCE0009060F
:1005A00058BF00F5B47C0020002A19BFCCF80830F1
:1005B0000121ACF8063000218CF80C1080BD000041
:1005C00001EB8102D0F8F03200EBC200C26B18469A
:1005D00002F022B901EB8102D0F8F03200EBC20048
:1005E000D0F87C21184602F06BB9000010B5044623
:1005F000080601F0070000EB800104EBC10205D4FE
:1006000002F5B471002382F8693104E0012302F19C
:10061000280182F8293094F8A8220870012A04BF22
:10062000022010BD2068012284F8A82202F0C0FE3A
:10063000002084F8A80210BDB0B50446406801F05F
:100640000F02824284BF0120B0BD080601F00700FE
:1006500000EB800104EBC10206D402F5B471002363
:1006600082F8693105E000BF012302F1280182F818
:10067000293094F8A8220025012A8D70087004BF43
:100680000220B0BD2068012284F8A82202F024FFD5
:10069000284684F8A852B0BD01F0070101EB8101A2
:1006A00000EBC100D0F8840170470000B0B50546EA
:1006B000080601F0070000EB800105EBC10C05D432
:1006C0000CF5B47100248CF8694104E001240CF1AC
:1006D00028018CF829404C780870002C0A61CB70F6
:1006E00018BFC881022B04BF0020087195F8A8022A
:1006F000012804BF0220B0BD2868012285F8A82285
:1007000002F040FD002085F8A802B0BD10B501F050
:10071000070C0CEB8C0100EBC10E00680EF5B471F8
:100720000024CEF87C21CEF88031CEF884418EF8BA
:1007300069418EF868C102F027FF002010BD00005B
:1007400010B54268044601F00700904284BF0120C2
:1007500010BD0A060AD401EB810104EBC10202F5C7
:10076000B471002382F8693109E000BF00EB800119
:1007700004EBC102012302F1280182F8293094F828
:10078000A8320122012B8A70087004BF022010BD1C
:10079000206884F8A82202F0DDFE002084F8A80278
:1007A00010BD000080B501F0070C0CEB8C0100EBD4
:1007B000C10101F828CF00684FF0010C01F11407C6
:1007C00081F824C04FF0000E87E80C400B6281F8DE
:1007D00001C002F0D9FE002080BD00002DE9F04FDD
:1007E00081B00446006803F0D1FA010420D4410529
:1007F00000F1E683410400F1F583810400F10C84EB
:10080000C10400F11384010500F13684010600F1F2
:100810004984810500F15684C00540F1DF832068DA
:10082000B0F8441021F48071A0F84410D6E300BF62
:100830002068B0F94410B1F1FF3F00F3CF8304F515
:100840002C7140F60F7B009123E000BFB0F85010F0
:1008500094F86821014401EBC201B1F80634B4F800
:100860006E2100996FF39F23C4F8843103F092FA4C
:100870002068018801EA0B0180310180204600F0E8
:1008800025FD00BF2068B0F94410B1F1FF3F00F32F
:10089000A583B0F8442012F00F0949D030F8298020
:1008A0004FEA490A5FEA084140F14E8130F81A10D8
:1008B00040F60F7501EA0B01803120F81A1009EBA0
:1008C000890104EBC10B9BF874110BF5B476002978
:1008D00000F0A4809BF86B11022940F0B180B0F8C1
:1008E0005020317802445FEA484302EBC10200F134
:1008F000BF80B2F80674DBF880216FF39F27D21B0C
:100900004FF0000338BF1A46CBF8802140F2CA806E
:100910005FEA486200F1D68030F8212048F2C00337
:100920002A401A4320F82120002F40F0CC80EFE02D
:100930000188D2062AD401EA0B0101F500410180A9
:10094000B0F8501094F82820084400EBC200B0F82A
:100950000204E16B6FF39F2060640844E06320466B
:100960000021FFF72DFE94F8240000288AD0206C87
:10097000002887D194F82400216840F08000C0B29C
:10098000A1F84C00002084F824007BE70A053FF51D
:100990005DAF09047FF576AF018801EA0B01803174
:1009A0000180B0F8501094F86821014401EBC201B5
:1009B000B1F806346FF39F23C4F8843193B1D4F8AF
:1009C0007C1179B1B4F86E2103F0E4F9D4F87C011C
:1009D000D4F884110844C4F87C0120460021FFF7B4
:1009E000F9FD2068018809053FF54CAFB0F85010BB
:1009F000D4F8783100F206423F2BC0F007825F093D
:100A0000DE064FF0FF3608BF06EB531748F200032F
:100A1000CFF6FF7343EA872376E200BFB0F85010A9
:100A20003278014401EBC201B1F806746FF39F27DD
:100A3000002F6DD0DBF87C11BBF86E2164E000BFA5
:100A4000327848F2C00330F822102940194320F8C8
:100A5000221030F82230B0F8501000EBC2025B04D4
:100A6000114419D4B1F806746FF39F275FBB4FE0B0
:100A7000B2F80274DBF880216FF39F27D21B4FF08E
:100A8000000338BF1A46CBF8802121D95FEA4862BB
:100A90002DD4AFBB3CE000BFB1F802746FF39F27C9
:100AA00077BB35E030F8212043F60F731A404CF243
:100AB0008003A3F500535A4020F821205FEA4862E2
:100AC0007FF52AAF27B3DBF87C11BBF872211BE05E
:100AD00030F8212043F60F731A404CF28003A3F53F
:100AE00000535A4020F821205FEA4862D1D530F8FF
:100AF000212048F2C0032A401A4320F821203FB1A8
:100B0000DBF87C11BBF870213B4603F043F900E0B1
:100B10000027DBF88411DBE95F0239443844CBF865
:100B20008411CBF87C011AB1DBF87801B84205D901
:100B300031782046FFF74EFD04E000BF20683146C3
:100B400002F022FD40F60F7B5FEA08607FF59AAE67
:100B5000206809EB890130F81A3004EBC10203EA7E
:100B60000B0101F5004120F81A1092F82B1002F148
:100B7000280A022920D15FEAC85143D4B0F8503086
:100B80009AF80010034403EBC103B3F80234176C66
:100B90006FF39F23FF1A4FF0000538BF2F461764ED
:100BA00040F23081D16B576C1944D163F91851640C
:100BB000514602F0E9FC65E692F8341000294FF046
:100BC0000001116400F01C815FEA486166D492F86C
:100BD0002910012900F0FE80002940F01181B0F8B1
:100BE00050109AF80020084400EBC200B0F8061438
:100BF00021F4F841A0F80614B0F8061441F40041BD
:100C0000F0E000BFB0F850309AF800105FEA486793
:100C100000EBC1055CD405F2064E3EF80370136C80
:100C20006FF39F27DB1B4FF0000638BF334613647A
:100C300040F288805FEA484308D430F821304CF213
:100C4000800503EA0B032B4320F82130154615F8E5
:100C50004C1F012940F0A581134653F8488F53E9F2
:100C600004C153F8049C3944B944E04543F80C1CD2
:100C700043F8049C80F00281B8F1000F00F0568127
:100C80000027C4461F602F7092F82930012B40F0D6
:100C9000FD80B0F850302EF803C06FE192F82910B3
:100CA000012900F0A380002940F0AA80B0F850107C
:100CB0009AF80020084400EBC200B0F8021421F4B6
:100CC000F841A0F80214B0F8021441F4004195E094
:100CD00005F2024E3EF80370136C6FF39F27DB1B87
:100CE0004FF0000638BF334613644FD95FEA4843DC
:100CF00008D530F821304CF2800503EA0B032B4372
:100D000020F82130134613F84C1F012940F0498187
:100D1000154655F848CF55E9049155F8048C3944E7
:100D2000B844CC4545F80C1C45F8048C80F0C480D0
:100D30004FF00008BCF1000F83F8008040F0BF8046
:100D4000BC46BEE092F82920012A67D0002A6FD164
:100D5000B0F850202A44B2F8023423F4F843A2F841
:100D60000234B2F8023443F40043A2F80234B0F87B
:100D700050003EF8002022F4F8422EF800203EF801
:100D8000002042F400422EF8002051E092F8292081
:100D9000012A55D0002A5DD1B0F850203EF802302B
:100DA00023F4F8432EF802303EF8023043F40043B7
:100DB0002EF80230B0F850002844B0F8062422F48F
:100DC000F842A0F80624B0F8062442F40042A0F845
:100DD00006243FE0B0F850109AF80020084400EBD9
:100DE000C2000021A0F806140AE000BFB0F85010BD
:100DF0009AF80020084400EBC2000021A0F8021479
:100E00009AF800102046FFF7DBFB3BE5002B71D082
:100E100003F0010707EB53039B0275E0B0F8502085
:100E200000232A44A2F80234B0F850002EF8003013
:100E30002046FFF7C5FB5FEA484012D5B1E000BF8E
:100E4000B0F8502000232EF80230B0F850002844AB
:100E5000A0F806342046FFF7B3FB5FEA484040F1B4
:100E6000A08020689AF800104CF2800330F821200E
:100E700002EA0B021A4320F8212092E0A8EB0C05AD
:100E80001D6092F82930012B3FF403AF002B75D180
:100E9000B0F85070BCF13F0F50D35FEACC654FEA19
:100EA0005C134FF0FF3508BF05EB5C134FF40045B2
:100EB00045EA832360E000BFACEB0908CC46C5F8E7
:100EC000008092F82930012B2AD0002B64D1B0F891
:100ED0005070BCF13F0F3BD35FEACC654FEA5C1327
:100EE0004FF0FF3508BF05EB5C134FF4004545EAB2
:100EF00083234FE08B5A48F2000723F4F8438B52C8
:100F00008B5ACFF6FF773B438B52018843F60F7223
:100F100011404CF28002A2F5805251400180B1E4B0
:100F2000B0F850302EF803C036E000BF00232B701D
:100F3000BC4692F82930012BA8D1AAE6BCF1000FDB
:100F400010D00CF0010303EB5C039B0214E000BF24
:100F5000BCF1000F14D00CF0010303EB5C039B0207
:100F600018E000BF37F80E3023F4F84327F80E30AE
:100F700037F80E3043F4004327F80E30528E0CE061
:100F800037F80E3023F4F84327F80E3037F80E30D8
:100F900043F4004327F80E30128E1FFA8CF302F050
:100FA0004FFF20689AF8001040F63F7330F8212078
:100FB0001A4048F2C003103B5A4020F8212061E457
:100FC0002068B0F8441021F48061A0F84410204655
:100FD00000F03EF994F8A80201280DD101B0BDE857
:100FE000F08F00BF2068B0F8441021F48041A0F8D1
:100FF000441001B0BDE8F08F0120002584F8A8025C
:1010000084F824502068002102F012FF84F8A852CE
:1010100001B0BDE8F08F00BF2068B0F8441021F4A3
:101020000051A0F8441001B0BDE8F08F2068B0F87E
:10103000401021F00401A0F84010B0F8401021F059
:101040000801A0F8401094F8E002012806D1002021
:1010500084F8E00220460021FFF76AFA204600F0FB
:1010600009F92068B0F8441021F48051A0F8441028
:1010700001B0BDE8F08F00BF2168B1F8400040F03A
:101080000800A1F84000B1F8440020F40060A1F885
:101090004400B1F8400040F004022046A1F840208E
:1010A0000BE000BF2068B0F8441021F08001A0F8E8
:1010B000441094F8E01299B1204601B0BDE8F04F19
:1010C00000F022B92168B1F8440020F400722046F3
:1010D000A1F8442001B0BDE8F04F00F0DFB800BF38
:1010E000B0F8401041F00401A0F84010B0F84010F2
:1010F00041F00801A0F84010012184F8E012B0F896
:1011000054003C2101EA900220460121C4F8E42267
:1011100001B0BDE8F04FFFF70BBA0000F0B585B0A5
:1011200000285BD0054690F8A90228B9002085F870
:10113000A802284600F056F8032085F8A90228687E
:1011400002F0C0F9696869B300204FF0010C002279
:10115000002300BF02EB820205EBC20484F82830B2
:10116000DAB20133E286DAB2914284F829C084F817
:101170002B00C4E90E002064ECD8002000230022DC
:1011800003EB830305EBC30484F868210132D3B277
:10119000994284F8690184F86B01C4E95E00C4F8DF
:1011A0008001EDD805F1080E28689EE81C50D5E9AD
:1011B00007678DE81050CDE9036702F075F900204C
:1011C000012185F8240085F8A912E969012903D1D4
:1011D0002846FFF797F9002005B0F0BD012005B0C3
:1011E000F0BD000010B596B0044601A804305021AF
:1011F000FFF715F8206845F60041C4F20001884267
:1012000002D016B010BD00BF4FF4005001904FF057
:101210000060109001A800F01FF9002818BFFFF728
:10122000A7F841F25800C4F202000168002241F41C
:10123000000101600068002100F4000000900098A7
:101240001420FFF723F91420FFF710F916B010BD92
:1012500010B504468068022818BFFFF789F8D4F853
:10126000F002012101F032FCD4F8F002BDE8104098
:1012700001F0DEBB10B50446806948B14EF610504F
:10128000CEF20000016821F00601016000F0A8FE26
:10129000D4F8F002BDE8104001F0FEBBD0F8F00237
:1012A00001F004BC10B5044690F8A802012804BF60
:1012B000022010BD012084F8A80284F824102068C0
:1012C00002F0B6FD002084F8A80210BDD0F8F0228C
:1012D00000F52C71104601F00FBC000010B504465B
:1012E00090F8A802012804BF022010BD2068012147
:1012F00084F8A81202F03AFD206802F0CBF8002032
:1013000084F8A80210BD000010B50446D0F8F00221
:1013100001F048FCA069002808BF10BD4EF610502F
:10132000CEF20000016841F00601016010BD00002E
:10133000B0F5007F42D0002840F0808047F21400D2
:10134000C4F2000050F8141CC26E01F4C06122F413
:101350008072B1F5806FC2662ED150F8141C012244
:1013600062F34A2140F8141C40F22C01C2F2000141
:101370000968322251434DF68362C4F21B32A1FB4D
:101380000212910C0268520511D54A1C0FD0026856
:1013900052050CD559B10268520508D5012906D06D
:1013A0000268520503D50229A1F10401EAD10068BF
:1013B000400544BF032070470020704747F21400E7
:1013C000C4F2000050F8141CC26E01F4C06142F473
:1013D0008072B1F5806FC266EED150F8141C012204
:1013E00062F34A2140F8141C40F22C01C2F20001C1
:1013F0000968322251434DF68362C4F21B32A1FBCD
:101400000212910C0268520511D54A1C0FD00268D5
:1014100052050CD559B10268520508D5012906D0EC
:101420000268520503D50229A1F10401EAD100683E
:10143000400544BF03207047BEE700BF47F21400D9
:10144000C4F2000050F8141C022262F34A2140F852
:10145000141C0020704700002DE9F04182B00446C2
:10146000807841F288060007C4F2020602D4002008
:101470002FE000BF56F8300C10F080580BD156F812
:10148000300C40F0805046F8300C56F8300C00F02C
:1014900080500190019847F20007C4F200073868B5
:1014A00040F480703860FEF77DFF05463868C0055F
:1014B00000F10C81FEF776FF401B0228F6D90320CD
:1014C000B8F1000F05D156F8301C21F0805146F8D4
:1014D000301C2168CA0717D18A071DD44A0723D4B4
:1014E0000A0729D4CA062FD48A0635D44A063BD423
:1014F0000A0641D4CA0547D48A034DD48A0553D479
:101500004A0559D467E000BF3268636822F00302DD
:101510001A4332608A07E1D53268A36822F00C02D0
:101520001A4332604A07DBD53268E36822F03002A2
:101530001A4332600A07D5D53268236922F0C00207
:101540001A433260CA06CFD53268636922F440720A
:101550001A4332608A06C9D53268A36922F4406210
:101560001A4332604A06C3D53268E36922F4405216
:101570001A4332600A06BDD53268236A22F440421B
:101580001A433260CA05B7D53268636A22F4403222
:101590001A4332608A03B1D57269A36A22F003024A
:1015A0001A4372618A05ABD53268E36A22F440229D
:1015B0001A4332604A050ED53268236B22F440127A
:1015C0001A43B3F5801F326005D156F87C2C42F4E3
:1015D000801246F87C2C0A050ED53268636B22F423
:1015E00040021A43B3F5800F326005D156F87C2CC7
:1015F00042F4801246F87C2CCA040ED53268A36BE4
:1016000022F040721A43B3F1807F326005D156F860
:101610007C2C42F4801246F87C2C8A040ED5326869
:10162000E36B22F040621A43B3F1006F326005D1E0
:1016300056F87C2C42F4801246F87C2C4A040ED5D5
:101640003268236C22F040621A43B3F1006F3260BB
:1016500005D156F87C2C42F4801246F87C2C0A0402
:101660000ED53268636C22F040521A43B3F1805FAA
:10167000326005D156F87C2C42F4803246F87C2C3E
:10168000CA030ED53268A36C22F040421A43B3F16C
:10169000804F326005D156F87C2C42F4803246F8F7
:1016A0007C2C49030ED57169E26C21F44011114381
:1016B000B2F5001F716105D156F87C1C41F4801110
:1016C00046F87C1C02B0BDE8F08100BFB06810F4A1
:1016D000407010D0216D88420BD0B068B16820F402
:1016E000407041F48031B160B16821F48031B16063
:1016F000B060C0070CD1B068216D20F44070084381
:10170000B0600020B8F1000F7FF4E3AEDBE600BF6D
:10171000FEF748FE054641F2883700BFB0688007F3
:10172000E9D4FEF73FFE401BB842F7D9C7E60000F8
:101730002DE9F04700286DD042F2000AC4F2020AF7
:101740000446DAF800000D4600F00F0088420CD283
:10175000DAF8000020F00F002843CAF80000DAF899
:10176000000000F00F00A84254D1216841F208089F
:10177000C807C4F2020803D1880740F1D880BDE051
:10178000606802283AD0032840D158F8082C92010A
:1017900040D5D8F80420D8F8043042F2004702F0CF
:1017A0000302C3F30313C0F2F4070133032A04BF97
:1017B00041F20027C0F27A07D8F80420B7FBF3F310
:1017C000D8F80470C2F306225A43C7F341630227D4
:1017D00007EB4303B2FBF3F24BF20043C0F2C44306
:1017E0009A4261D9D8F8002012F0F00F51D0890741
:1017F0005AD5A168002957D14BE000BF58F8081C02
:1018000089035CBF0120BDE8F08707E058F8081C99
:10181000490503D40120BDE8F08700BFD8F80010C7
:1018200001F00C0104293FD0D8F8001001F00C01A0
:10183000082939D0D8F8001001F00C010C2933D157
:10184000D8F80410D8F8042042F2004301F0030154
:10185000C2F30312C0F2F4030132032904BF41F2C0
:101860000023C0F27A03D8F80410B3FBF2F2D8F8E0
:101870000430C1F306215143C3F34162022303EB59
:101880004202B1FBF2F14BF20042C0F2C44291427B
:101890000AD9D8F80010082262F307114FF00109A5
:1018A000C8F8001002E000BF4FF00009D8F800109F
:1018B00021F003010843C8F80000FEF773FD064657
:1018C00041F28837D8F80000616800F00C00B0EBF6
:1018D000810F07D0FEF766FD801BB842F2D90320C6
:1018E000BDE8F0872168880708D4B9F1000F1ED041
:1018F000D8F8000020F0F00017E000BF480705D539
:10190000D8F8000040F4E060C8F80000080706D5E9
:10191000D8F80000072262F30D20C8F80000D8F8BC
:101920000000A26820F0F0001043C8F80000DAF8C8
:10193000000000F00F00A8421BD9DAF8000020F0E8
:101940000F002843CAF80000FEF72CFD064641F2BE
:10195000883700BFDAF8000000F00F00A84207D077
:10196000FEF720FD801BB842F4D90320BDE8F087C4
:101970002168480707D5D8F80000E26820F4E06045
:101980001043C8F80000080708D5D8F800002169FE
:1019900020F4605040EAC100C8F80000D8F8000008
:1019A00042F20041C0F2F40100F00C0004280846A5
:1019B0002DD0D8F8000000F00C00082841F20020DB
:1019C000C0F27A0023D0D8F8002002F00C020C2AD2
:1019D0001CD1D8F80420D8F8043002F00302C3F375
:1019E00003130133032A08BF0146D8F80400B1FBF2
:1019F000F3F1D8F80420C0F306204843C2F3416154
:101A0000022202EB4101B0FBF1F000E00020D8F827
:101A1000001044F24412C1F30311C0F60002515CFD
:101A200040F22C0201F01F0120FA01F140F2040003
:101A3000C2F200000068C2F200021160BDE8F04787
:101A4000FEF7D4BC2DE9F04182B0002800F00681F9
:101A50000446007841F20006C007C4F2020655D1E0
:101A60002078800774D42078000700F197802078D0
:101A7000400700F1B7802078800600F10781E06917
:101A8000002840D0B16801F00C010C2940F05681CB
:101A9000012800F0E380F068216A00F003028A4226
:101AA00040F0DC80626A6FF00F0300F0F00103EB9E
:101AB0000212914240F0D280A16A00F4FE42B2EBE1
:101AC000012F40F0CB80E16A00F07842B2EBC16FA9
:101AD00040F0C480226B0023CFF6E07303EB025288
:101AE00000F4C0016FF31402914240F0B780616BC3
:101AF0004FF07E4202EB016100F0C06001F07E41D8
:101B0000884240F0AB800020F1E100BFB06800F0F7
:101B10000C01F06808295BD0032281F00C0122EA55
:101B200000000844B0FA80F0400951D16068B0F577
:101B3000803F07D0B0F5A02F40F0D680306840F449
:101B400080203060306840F480303060D7E000BFE3
:101B5000B068F16800F00C00042869D001F00301BE
:101B600080F00C0081F002010844B0FA80F04009D6
:101B70005ED1E1683068002900F0CE8040F48070CA
:101B80003060FEF70FFC05463068400500F1EC8040
:101B9000FEF708FC401B0228F6D920E16169D6F85F
:101BA0009400002900F08C8040F00100C6F89400F9
:101BB000FEF7F8FB054600BFD6F8940080073FF516
:101BC00056AFFEF7EFFB401B0228F5D907E100BF37
:101BD000306880037FF544AF606800287FF440AF31
:101BE0003CE000BFB06D10F0805808D1B06D40F0FF
:101BF0008050B065B06D00F080500190019847F2C0
:101C00000007C4F200073868C0052BD4386840F4D8
:101C100080703860FEF7C6FB054600BF3868C00517
:101C200020D4FEF7BFFB401B0228F7D9D7E000BF46
:101C30003068400501D5E06880B17068216920F006
:101C4000FE4040EA0160706040F20400C2F2000011
:101C50000068FEF7CBFB00283FF405AF012002B07F
:101C6000BDE8F081A068012808D0052840F09A80DE
:101C7000D6F8900040F00400C6F89000D6F8900026
:101C800040F00100C6F890009AE000BFA169D6F8C4
:101C90009800002970D040F00100C6F89800FEF7C7
:101CA00081FB0546D6F8980080073FF5E8AEFEF7C1
:101CB00079FB401B02284FF00300F3D917E100BF66
:101CC00020F00100C6F89400FEF76CFB054600BF4B
:101CD000D6F8940080077FF5CAAEFEF763FB401B81
:101CE0000228F5D97BE000BF3168002821F480315B
:101CF0003160316821F48021316000F08F80FEF77F
:101D000051FB0546306880033FF5AAAEFEF74AFB5B
:101D1000401B6428F6D962E020F480703060FEF742
:101D200041FB0546306840057FF59DAEFEF73AFB66
:101D3000401B02284FF00300F4D9D8E03168022894
:101D400021F0807131604FD1FEF72CFB054600BFBA
:101D50003068800140F18E80FEF724FB401B022892
:101D60004FF00300F4D9C2E07068216920F0FE4012
:101D700040EA0160706076E620F00100C6F8980045
:101D8000FEF710FB054600BFD6F8980080077FF5E8
:101D900076AEFEF707FB401B02284FF00300F3D995
:101DA000A5E000BFD6F89010002821F00101C6F888
:101DB0009010D6F8901021F00401C6F890103DD094
:101DC000FEF7F0FA054641F2883700BFD6F89000DA
:101DD000800745D4FEF7E6FA401BB842F6D9032047
:101DE00002B0BDE8F08100BFF0684FF6FF7120F04F
:101DF0000300F060F068CFF6EE610840F060FEF797
:101E0000D1FA0446306880017FF57DAEFEF7CAFA4C
:101E1000001B02284FF00300F4D968E0FEF7C2FA75
:101E2000054600BF306880037FF51AAEFEF7BAFAA8
:101E3000401B64284FF00300F4D958E0FEF7B2FAD3
:101E4000054641F2883700BFD6F89000800707D5D5
:101E5000FEF7A8FA401BB8424FF00300F4D946E061
:101E6000B8F1000F7FF407AEB06D20F08050B06580
:101E700001E600BFF06848F20C01C0F29F1104F1C6
:101E8000200700EA010C8ECF6FF00F00D4E90C544C
:101E900000EB02100022CFF6E07241EA0C0102EBE7
:101EA000055208436FF314024FF07E4540EA0320C9
:101EB00005EB0465104305F07E4540EAC760284302
:101EC000F060306840F080703060F06840F0807002
:101ED000F060FEF767FA0446306880013FF513AE04
:101EE000FEF760FA001B02284FF00300F4D902B09D
:101EF000BDE8F081411E0020B0EB116F1CBF012036
:101F000070474EF21002CEF2000251604EF623519D
:101F1000CEF20001F0230B70072190601160704732
:101F2000FEE7000082B041F24C00C4F202000168FA
:101F300041F020010160016801F020010191019947
:101F4000016841F001010160006800F001000090AB
:101F5000009802B07047000080B540F6AC5040F2E7
:101F60000C01C2F20000C2F20001002200F01AFCD3
:101F7000002818BFFEF7FCF940F6AC5040F23001E3
:101F8000C2F20000C2F2000100F034FE002818BFC7
:101F9000FEF7EEF940F6AC5040F25411C2F20000E8
:101FA000C2F2000100F0D2F9002818BFFEF7E0F9F4
:101FB00040F6AC50C2F2000000F03CFE002808BF22
:101FC00080BDBDE88040FEF7D3B90000FEE7000009
:101FD000FEE700007047000070470000FEF7E8B918
:101FE00010B594B000244FF40070CDE90B44CDE956
:101FF0000944CDE90744FFF79BF94FF4807109913B
:1020000040210A91012102200F911221CDE91010E7
:1020100006210690CDE90D00CDE9121006A8FFF7C4
:1020200011FD28B1EFF3108072B600BFFEE700BFCC
:102030000F2001900320CDE9020401A80421CDE97D
:102040000444FFF775FB28B1EFF3108072B600BFB0
:10205000FEE700BF14B010BD4EF68850CEF200006F
:10206000016841F4700101607047000010B540F252
:102070008C14C2F200040A4602A0214600F024FBA0
:10208000204610BD43444320436F6E6669670000DD
:1020900010B5D0F8BC323BB38E4601EB810100EBAA
:1020A000810151F8184F64B1D0F8C4C20EEB8E0212
:1020B0000CEBC202D2F838C0B4FBFCF202FB1C42AB
:1020C000A2B10024C3F81442D0F8C002D0F810C066
:1020D000BCF1000F06D0D3F8080203F50471724674
:1020E000E0470024204610BD032010BD00240C60F2
:1020F00071460022002300F05FFD204610BD000065
:10210000B0B5D0F8BC527DB1044600F011FCD4F853
:10211000C02205F50371D368D5F80422C5F80C0276
:10212000104698470020B0BD0320B0BDB0B5812156
:10213000044600F05FFB002520460121258700F0C2
:1021400059FB20468221A4F8785100F053FBD4F8C3
:10215000BC02E56448B1D4F8C00240688047D4F8B6
:10216000BC0201F007F8C4F8BC520020B0BD00006A
:1021700040F2F0001222C2F200000A807047000014
:1021800010B5D0F8BC428CB1D0F8C01281B194F82F
:102190000002FF280CD08B6894F801222146984752
:1021A000FF2084F80002002010BD00BF032010BDF6
:1021B000002010BD014640F204100A22C2F20000C5
:1021C0000A807047014640F268004322C2F20000D4
:1021D0000A807047014640F2AC004322C2F2000080
:1021E0000A807047014640F210104322C2F20000FC
:1021F0000A807047F0B581B004464FF4077000F0D4
:10220000BBFFE8B30546C4F8BC02207C402600288A
:1022100008BF4FF40076204681210222334600F0A9
:10222000E1FB01272046012102223346278700F0E7
:10223000D9FB1020A4F84E00204682210322082357
:10224000A4F8787100F0CEFBD4F8C002A4F84C706A
:10225000006880470020C5F81402C5F81802207CE9
:10226000D5F80422002820464FF001010CBF4FF49E
:102270000073402300F0CAFB002001B0F0BD00BF96
:102280000020C4F8BC02022001B0F0BD10B540F23D
:102290008C14C2F200040A4602A0214600F014FA8F
:1022A000204610BD43444320496E746572666163E5
:1022B0006500000040F268100422C2F200000A80AB
:1022C0007047000010B540F28C14C2F200040A46B8
:1022D00002A0214600F0F8F9204610BD53544D6984
:1022E00063726F656C656374726F6E69637300000F
:1022F00010B540F28C14C2F200040A4602A0214636
:1023000000F0E2F9204610BD53544D333220566997
:10231000727475616C20436F6D506F7274000000B1
:1023200080B5D0F8BC1279B190F810C0D1F8042271
:1023300040230121BCF1000F08BF4FF4007300F0EF
:1023400065FB002080BD00BF032080BD00290EBFBB
:102350000320C0F8C012002070470000B0B547F25B
:102360009050C1F6FF70026883684FF01A0C9B18FA
:10237000A1F800C000F0A3804FF0370C1A0F0CEB4F
:1023800013714068B3F1204F38BF02F1300140F2C1
:102390006C12C2F20002917019014FF0000E0CEBAA
:1023A000117582F803E0C3F30364B1F1204F38BF25
:1023B00004F13005190215710CEB117582F805E076
:1023C000C3F30354B1F1204F38BF04F130051903B2
:1023D00095710CEB117582F807E0C3F30344B1F17A
:1023E000204F38BF04F13005190415720CEB11753C
:1023F00082F809E0C3F30334B1F1204F38BF04F190
:102400003005190595720CEB117582F80BE0C3F3DA
:102410000324B1F1204F38BF04F1300519061573BC
:10242000C3F303140CEB1175B1F1204F4FEA0371A4
:1024300003F00F0382F80DE038BF04F1300503F11B
:102440003704957382F80FE0B1F1204F38BF03F1E4
:102450003004010F0CEB1073147482F811E0B0F12A
:10246000204F38BF01F1300301010CEB117493745C
:1024700082F813E0C0F30363B1F1204F38BF03F1DA
:10248000300401021475C0F303530CEB1174B1F165
:10249000204F4FEA003182F815E038BF03F13004D5
:1024A0000CEB1173947582F817E0C0F30340B1F19F
:1024B000204F38BF00F13003137682F819E040F264
:1024C0006C10C2F20000B0BDD0F8BC0200280EBFF4
:1024D0000320C0F80412002070470000D0F8BC02AE
:1024E00000280FBF0320C0F80812C0F810220020F7
:1024F0007047000070B582B0D0F8BC62044600207E
:102500008DF80700ADF80400B6B108780D4610F05C
:10251000600115D020295BD1EA88002A28D0000666
:1025200032D46878314686F80002204686F80122C7
:1025300000F096F8002617E00326304602B070BD82
:1025400068780B2844D80026DFE800F0060E4242E7
:102550004242424242422C3A94F89C02032837D12C
:1025600001A92046022225E0304602B070BD00BF1E
:10257000D4F8C0022946836868780022002698476C
:10258000304602B070BD00BFD4F8C0023146836847
:1025900068789847EA8820463146072A28BF0722EC
:1025A00008E000BF94F89C02032811D10DF1070147
:1025B0002046012200F06EF80026304602B070BDC1
:1025C00094F89C02032803D10026304602B070BD67
:1025D0002046294600F038F80326304602B070BD88
:1025E00080B5D0F8BC223AB1D2F8141200294FF0CD
:1025F000010103D0084680BD032080BDC2F814123B
:10260000D2F81032D2F808228121C36200F0D4FA45
:102610000021084680BD000080B5D0F8B8220AB17C
:1026200052689047002080BD80B513460A460021BD
:1026300000F0ECF9002080BD80B513460A46002169
:1026400000F0BAFA002080BD10B58021044600F0E9
:1026500085FA20460021BDE8104000F07FBA000056
:1026600080B513460A460321C0F894120021C0E940
:10267000563300F0CBF9002080BD000080B5052165
:10268000C0F8941200210022002300F0BFF90020BE
:1026900080BD000080B513460A460221C0F894129E
:1026A0000021C0E9063300F087FA002080BD000059
:1026B00080B50421C0F8941200210022002300F00C
:1026C0007BFA002080BD000010B5002868D0037898
:1026D000B3B100F1020E4FF0000C00BF1EF8013C38
:1026E00093B19EF800309BB19EF80130A3B19EF8E3
:1026F00002300CF1040C002B0EF1040EEED10DE0B3
:102700004FF0000C0AE000BF4CF0010C06E000BFE7
:102710004CF0020C02E000BF4CF0030C5FFA8CFCA2
:10272000022303EB4C03138003220B704A7090F8D2
:1027300000E0BEF1000F33D0841C02224FF0000CE9
:102740001AE000BF101DC0B20B5440F0010001F8A8
:1027500000C06378002B08BF10BD901DC0B20B54A1
:1027600040F0010001F800C094F802E00832BEF128
:10277000000F04F1040413D0D3B201F803E043F0D6
:10278000010301F803C014F8013C4BB1901CC0B226
:102790000B5440F0010001F800C02378002BD1D188
:1027A00010BD0000002804BF032070470023C0F8BC
:1027B000B832C0F8C0320029C0F8CC3218BFC0F817
:1027C000B412012180F89C12027000F0B5B800002C
:1027D00080B5D0F8C402FDF72FFF40F20032C100EF
:1027E000C0F2013222FA01F1032888BF0321C8B2E6
:1027F00080BD000080B5D0F8C402FDF7F7FE40F2BE
:102800000032C100C0F2013222FA01F1032888BF70
:102810000321C8B280BD0000B0B5044671B194F880
:102820009C0203284AD1D4F8B8024269002A45D054
:1028300020469047002808BF0020B0BDD4F894027D
:10284000022834D1D4E9070188420DD9431A204621
:1028500011461A46E361FFF7EFFE204600210022F1
:10286000002300F0D3F822E010D1A16981420DD3FA
:10287000D4F89802814209D2204600210022002586
:10288000FFF7DAFEC4F89852E7E700BF94F89C021D
:10289000032805D1D4F8B802C16809B12046884799
:1028A0002046802100F05AF92046FFF7E7FE94F811
:1028B000A002012804BF002084F8A0020020B0BDBF
:1028C00010B5044671B194F89C0203281DD1D4F8C8
:1028D000B8028269CAB120469047002808BF00208C
:1028E00010BD00BFD4F8940203280ED1D4E95703D9
:1028F00098420DD9C01AC4F85C01984238BF03460B
:10290000204611461A46FFF78FFE002010BD00BF7B
:1029100094F89C02032805D1D4F8B802016909B1E2
:10292000204688472046FFF7C3FE002010BD000068
:10293000D0F8C402FDF7B0BE10B5044641F27C00E9
:1029400045F60041C2F20000C4F200010822022351
:1029500080E80E000021C0F8F042C4F8C402C0E9CB
:102960000431C0E906110162FEF7D8FB002818BF48
:10297000FDF7FEFCD4F8C402002100221823FDF765
:1029800001FED4F8C402802100225823FDF7FAFD8D
:10299000D4F8C40281210022C023FDF7F3FDD4F84E
:1029A000C402012100224FF48873FDF7EBFDD4F837
:1029B000C402822100224FF48073FDF7E3FD002062
:1029C00010BD0000D0F8C40201F07F0202EB8202C9
:1029D00000EBC20000F12A02090658BF00F5B572EB
:1029E0001078704780B59446D0F8C4021A46634602
:1029F000FDF75CFE40F20032C100C0F2013222FA63
:102A000001F1032888BF0321C8B280BD80B5D0F88A
:102A1000C402FDF77BFE40F20032C100C0F2013279
:102A200022FA01F1032888BF0321C8B280BD00004B
:102A3000F0B581B004460120002184F89C02C4F85E
:102A40009412D4F8B8026160C4F8A41200B3D4F8A8
:102A5000BC1221B1426812B12046002190472046A5
:102A600000210022402300254026FFF7BBFF01275D
:102A70002046802100224023A4F86471C4F86061DC
:102A8000FFF7B0FFA7842662284601B0F0BD00BF63
:102A90000325284601B0F0BD90F89C12042904BF1C
:102AA00090F89D1280F89C120020704780B5D0F8F5
:102AB000B81249B190F89C22032A02D1C96901B128
:102AC0008847002080BD00BF032080BD0246002053
:102AD0001174704780B5D0F8C402FEF7E3FB40F2F2
:102AE0000032C100C0F2013222FA01F1032888BF8E
:102AF0000321C8B280BD0000B0B500F2AA2504468B
:102B0000284600F06BF80120C4F8940294F8AA0259
:102B1000B4F8B02200F01F010229C4F8982209D0AD
:102B200001290DD091B920462946BDE8B04000F0FA
:102B300083B800BF20462946BDE8B04000F036BA51
:102B400020462946BDE8B04000F0D6BA00F080012A
:102B50002046BDE8B04000F001B8000080B5D0F8D4
:102B6000C402FDF7EDFD40F20032C100C0F20132B7
:102B700022FA01F1032888BF0321C8B280BD0000FA
:102B800080B5D0F8C402FEF7A9FB40F20032C100C4
:102B9000C0F2013222FA01F1032888BF0321C8B232
:102BA00080BD0000014690F89C02042281F89D023D
:102BB000002081F89C22704780B5D0F8C402FDF750
:102BC000F1FD40F20032C100C0F2013222FA01F1FF
:102BD000032888BF0321C8B280BD00000A780270B4
:102BE0004A7842704A8842808A888280C988C18037
:102BF0007047000010B582B004460020ADF8060012
:102C000061B1CA6AC4F8B81222B10DF1060090474A
:102C1000C4F8CC02002002B010BD00BF032002B0F7
:102C200010BD0000D0F8B822002A04BF032070476E
:102C300012681047FFF7A4BFB0B582B00D460978FF
:102C4000044611F060010DD0402901D020292FD178
:102C5000D4F8B80229468268204602B0BDE8B040E8
:102C6000104700BF6878092800F2D680DFE810F02E
:102C70000A002C00D4003E00D40046006600D400B8
:102C80008000940094F89C020138022800F2C4806D
:102C9000E888022840F0C080D4F8A402032200286B
:102CA00008BF0122214641F80C2F2046022203E1F1
:102CB00020468021FFF752FF204600210025FFF724
:102CC0004DFF284602B0B0BD94F89C02013802289E
:102CD00000F2A280688800250128F2D12046C4F8BD
:102CE000A452FFF7E5FC284602B0B0BD6888012871
:102CF00040F068800120C4F8A40211E1A8880028EF
:102D000040F08A80E888002840F0868068887F2824
:102D100000F2828094F89C12032900F07D80C5B2F5
:102D200084F89E0220462946FFF7D4FE2046FFF78E
:102D3000BFFC002D0CBF012002201DE168884FF070
:102D4000FF3101EB102100220E29ADF8062000F220
:102D5000B980DFE801F0096D7BB7B78791B7B7B7E6
:102D6000B7B7B7B79D0000BFD4F8B402026893E0CC
:102D7000E888012850D194F89C02411E022945D2CE
:102D80000025214641F8085F20460122FFF782FC1A
:102D9000284602B0B0BD00BF688840F28815C2F274
:102DA000000510F0FE0F287010D020468021FFF79C
:102DB000D5FE20460021FFF7D1FE0325284602B0AC
:102DC000B0BD00BF0025284602B0B0BD94F89C22DB
:102DD000C1B2032A00F08280022A40F0A9800029B3
:102DE00000F09E8020466160FFF71CFF002800F085
:102DF000BF80054620468021FFF7B0FE2046002117
:102E0000FFF7ACFE284602B0B0BD00BF032803D1D7
:102E1000211D204601224FE020468021FFF79EFE23
:102E2000204600210025FFF799FE284602B0B0BDDC
:102E3000217CD4F8B80200290CBF816AC16A0DF167
:102E4000060088470146022020E000BFC0B20528E6
:102E500038D8DFE800F003979B9FA3A7D4F8B4020B
:102E6000426818E0207C68BBD4F8B802416B0DF1D1
:102E70000600884714E000BF207C18BBD4F8B802D5
:102E8000016B0DF10600884701460720487008E0F5
:102E9000D4F8B402C269AAB1207C0DF106019047B2
:102EA0000146EA88E2B3BDF8060058B1904238BF47
:102EB00002462046ADF80620FFF7ECFB0025284629
:102EC00002B0B0BD20468021FFF748FE2046002119
:102ED000FFF744FE0025284602B0B0BDC1B36068CC
:102EE00088421DD0C1B22046FFF796FB29782046C4
:102EF0006160FFF797FE98B1054620468021FFF7F5
:102F00002DFE20460021FFF729FE21792046FFF7FC
:102F100083FB022084F89C02284602B0B0BD00BFAB
:102F20002046FFF7C5FB0025284602B0B0BD00BF14
:102F300020468021FFF712FE20460021FFF70EFEFB
:102F400029782046FFF768FB0325284602B0B0BD6C
:102F5000022084F89C026160204600210025FFF7D2
:102F60005BFB2046FFF7A4FB284602B0B0BD00BFC4
:102F70002046FFF79DFB032084F89C02002528468D
:102F800002B0B0BDD4F8B402826884E7D4F8B402C9
:102F9000C26880E7D4F8B40202697CE7D4F8B402CE
:102FA000426978E7D4F8B402826974E7B0B50D4697
:102FB0000978044611F060010CD0402901D0202985
:102FC00022D1D4F8B802294682682046BDE8B04034
:102FD000104700BF6878297900B3012838D003284A
:102FE0006AD194F89C02032836D1688838B911F068
:102FF0007F0004D0E88810B92046FFF7AFFD2046D7
:10300000FFF756FB0020B0BD20468021FFF7A6FD4C
:1030100020460021FFF7A2FD0020B0BD94F89C02DD
:10302000032827D0022808BF5FEA416044D101F09D
:103030007F0000EB800004EB800000F11402090621
:1030400058BF00F5AA7200201060204611464DE0DE
:1030500094F89C02032839D002282DD148062BD0A1
:103060002046FFF77BFD20468021FFF777FD0020FB
:10307000B0BD00BF01F00F0202EB820211F0800030
:1030800004EB820214BF928CB2F86421A2B101F069
:103090007F0202EB820204EB820202F11405002897
:1030A00008BF02F5AA7548061CD02046FFF78AFC27
:1030B000C0B1012017E000BF20468021FFF74EFD80
:1030C00020460021FFF74AFD0020B0BD6888002897
:1030D000A2D1480602D02046FFF77AFB2046FFF730
:1030E000E7FA6EE700202860204629460222FFF713
:1030F000D1FA0020B0BD0000B0B50D4609780446F5
:1031000011F0600118BF402914D194F89C020138D5
:10311000022803D8A88810F0FE0F17D0204680217F
:10312000FFF71CFD204600210025FFF717FD28466C
:10313000B0BD00BF2029E8D020468021FFF70EFD5A
:10314000204600210025FFF709FD0BE0D4F8B80266
:103150002946826820469047E9880546002908BF2D
:10316000002D01D02846B0BD2046FFF7A1FA00206F
:10317000B0BD00007047000040F28C30C2F2000089
:1031800070470000F0B50C78024691F803E000EBC0
:10319000840730F8240047F27063BEF1030F20EA81
:1031A000030309D80020DFE80EF00309100D00BF6B
:1031B00043F4007308E000BF012006E043F480639D
:1031C00002E000BF43F4C063002048F28005CFF660
:1031D000FF752B433B803B8840F60F7633402343FB
:1031E0002B433B800B7B48F2800C002B4AD03B8862
:1031F00040F60F652B4048F28005BEF1020F08BF74
:1032000005F580752B433B80B2F850300D8902EBF9
:10321000C404234425F00105A3F80054B2F850205B
:103220004B89224423F00103A2F8043449783A88F8
:10323000002902F480414BD039B1398840F60F7231
:1032400011400CF58042114339803988490607D571
:10325000398840F60F7211400CF140021143398059
:10326000398840F63F7211400CF120024A40BEF10D
:10327000010F08BF41EA0C023A80398843F60F7209
:1032800045E000BF4D78B2F85030002D4FEAC4043D
:1032900042D0C98822441A4421F00101A2F8001446
:1032A0003988490607D5398840F60F7211400CF16C
:1032B000400211433980398840F63F72BEF1010F58
:1032C00001EA020124D00CF1200251403980F0BD06
:1032D00039B1398840F60F7211400CF58042114324
:1032E00039803988490607D5398840F60F72114070
:1032F0000CF1400211433980398843F60F721140B6
:103300000CF5405251403980398840F63F721140E7
:1033100041EA0C013980F0BDCD881619334425F0FF
:103320000105A3F80454B2F850200B6906F20641D7
:103330003F2B21D35E094FF0FF35DC0608BF05EBBC
:10334000531648F20003CFF6FF7343EA8623535225
:103350003988490407D5398840F60F7211400CF5B9
:10336000804211433980398843F60F7211400CF5C1
:10337000405251403980F0BD53B103F0010606EBD5
:1033800053039B02535239884904ECD5E3E700BF4D
:10339000535A48F2000623F4F8435352535ACFF6D7
:1033A000FF763343535239884904DCD5D3E7000014
:1033B000B0B50C784B78097B024630F824004CF20B
:1033C000800C4CF2800500294FEA44013AD0002BD2
:1033D00000F4804040D040B132F8110040F60F7345
:1033E000184040EA0C0022F8110032F8110043F6B0
:1033F0000F7E400640F63F7009D532F8113040F696
:103400000F742340ACF57F54234322F8113032F877
:10341000113040F60F7423402B43ACF5804522F861
:10342000113032F811301840284322F8110032F8D8
:103430001100ACF5804300EA0E000343002022F89F
:103440001130B0BDF3B1400640F63F7EEFD5ACF58C
:103450007F5540F60F70E4E740B132F8110040F6B6
:103460000F73184040EA0C0022F8110032F81100E6
:10347000ACF57F55400640F63F7E43F60F70BCD456
:10348000C5E700BF400443F60F7ED0D540F60F706D
:10349000C7E700000146B0F8580040F400420020A1
:1034A000A1F858207047000001460120A1F8400013
:1034B00000220020A1F84020A1F84420A1F85020CB
:1034C000704700000146B0F8400044F27F0202401D
:1034D0000020A1F84020704780B50A7B12B100207F
:1034E00080BD00BF0A784B7830F822C04FEA420214
:1034F000B3B15FEA4C6348F2A00E0BD530F812C0AE
:1035000040F60F730CEA030C0EF1200343EA0C03A0
:1035100020F81230C9780129E1D040F63F7110E05F
:103520005FEA4C414BF2800E09D530F8121040F69C
:103530000F7319400EF58053194320F8121043F60B
:103540000F7130F81230194081EA0E0120F8121084
:10355000002080BD02460B78487832F823C040F640
:103560003F71002848F2900008BF43F60F71CFF674
:10357000FF7008BF00F57F6001EA0C0141400020A8
:1035800022F82310704700002DE9F04F81B04A78EF
:10359000012A57D18A690C690B7BA24288BF224657
:1035A000002B48F2800B73D0CB780D6A022B40F0D1
:1035B000B1800E7840F60F6730F826304FEA460E9D
:1035C000A54203EA070340F20B810BF580773B43EA
:1035D000A5EB020820F81E30C1F8208030F81E70DC
:1035E000B0F85050F6007F0600EB060C00F14C815D
:1035F0000CEB0507A7F80224D1F814A0170400F07B
:10360000F7820F894FF0FF36074407F580690127DD
:1036100017FA82F7C7F3410506EB5703002D4FEA6F
:10362000570700F013825646009336F8023BCB460C
:10363000012D2BF8023B40F00D82013FD94648F2A4
:10364000800BC2E20B7B002B46D0CB78012B00F025
:103650009580022B40F0B480002A40F06C81B0F8D5
:1036600050300F690A7803443E2F03F2024340F2C0
:1036700051817E094FF0FF35FC0608BF05EB571658
:1036800048F20007CFF6FF7747EA86274AE100BFF6
:10369000130400F0A581CB88D1F81480034403F50E
:1036A0008069012313FA82F34FF0FF37C3F341041B
:1036B00007EB530E002C4FEA530300F07E81474680
:1036C00037F8025B4E46012C26F8025B40F0088179
:1036D000013BB846B14670E18B690A699F1A38BF51
:1036E000002788BF13468F61B0F850700A780744EE
:1036F0003F2B07F2064767D35E094FF0FF35DC0624
:1037000008BF05EB53164FF4004343EA862327F81E
:1037100032303CE1AB1A0F780B6230F82760B0F81A
:103720005030FC004FEA470E071976063B4400F183
:1037300085801704A3F8022400F05C810F894B698F
:10374000C11901F58064012111FA82F14FF0FF32B5
:10375000C1F3410502EB510C002D4FEA510100F07D
:10376000DE811E4636F8022B2746012D27F8022B54
:1037700040F04E81013933463C46D0E10F698B69F8
:10378000DE1B38BF002688BF3B46002A8E6140F012
:10379000FE80B0F850700A7807443E2B07F20247CB
:1037A00040F2E4805E094FF0FF35DC0608BF05EB10
:1037B000531648F20003CFF6FF7343EA8623DDE099
:1037C000012001B0BDE8F08F002B00F0958003F0E0
:1037D000010606EB53039B0227F83230D7E000BF07
:1037E00043EA0B0220F81E20B0F8502000EBC6037D
:1037F0001A442B04A2F8025400F0FC800B894A6999
:10380000C11801F58063012111FA85F14FF0FF37EE
:10381000C1F3410507EB510C002D4FEA510100F0B7
:103820009A81164636F8024B1F46012D27F8024BA7
:1038300040F0F880013932463B468CE11704A3F88A
:10384000062400F0D7804F894B69C11901F58064C7
:10385000012111FA82F14FF0FF32C1F3410502EB71
:10386000510C002D4FEA510100F08F811E4636F8B1
:10387000022B2746012D27F8022B40F0DD8001396D
:1038800033463C4681E100BF6544A5F80624D1F8E3
:1038900014A0150400F0FE814D89054405F58069EA
:1038A000012515FA82F64FF0FF3505EB5603C6F3F6
:1038B0004105002D4FEA560700F0CA805646009396
:1038C000634636F802CBCB46012D2BF802CB40F0F5
:1038D000D1809C46009B013FD94648F2800BC8E14D
:1038E000B8F80250022CA9F802505DD109F1040980
:1038F00008F10408023B60E037F8323023F4F84363
:1039000027F8323037F8323043F4004327F83230AA
:103910003DE000BF002F00F0BF8007F0010606EB7E
:103920005707BF0223F83270B0F85030034403EB5E
:10393000C202A2F80674CA694AB30A7844F2400780
:1039400030F822303B40BB4200D003BB520030F87D
:10395000123040F60F773B4048F28007CFF6FF77F2
:103960003B43403320F8123011E000BF002B00F041
:10397000B58003F0010606EB53039B0227F83230B3
:10398000B0F85070074407EBC202A2F80634097879
:1039900043F60F7200EB810048F28001CFF6FF7111
:1039A00001F540512CE000BFB8F8044008F10608CA
:1039B000A9F8044009F10609033BBEF1030F0FD338
:1039C000A8F10807A9F1080637F8085F043B26F8B4
:1039D000085F7D887580BD88B580FD88F580F3D14E
:1039E000B0F850300978034403EBC103A3F8022474
:1039F0004FEA410E00EB4E000BF1300140F63F72F2
:103A000003881A4051400180002001B0BDE8F08FCA
:103A10005A88022D628040F07D80043404330239DC
:103A20007DE000BF5488022D5C8040F08F8004331D
:103A3000043202398FE000BF5A88022D628040F0C4
:103A40009F800434043302399FE000BF5646BDE036
:103A500056460EE1BAF80230022D48F2800BA9F862
:103A6000023040F0A98009F104090AF10406023F7E
:103A7000ABE000BFBAF802609C46A9F80260009B68
:103A8000022D48F2800B40F0EB8009F104090AF1A5
:103A90000406023FEDE000BF33F8327027F4F84728
:103AA00023F8327033F8327047F4004723F832704D
:103AB000B0F85030034403EBC202B2F8063423F4EA
:103AC000F843A2F80634B2F8063443F40043A2F8EF
:103AD0000634CA69002A7FF430AF58E737F832302D
:103AE00023F4F84327F8323037F8323043F40043F8
:103AF00027F83230B0F85030034403EBC202B2F87A
:103B0000063423F4F843A2F80634B2F8063443F43A
:103B100000433AE79A880633A28006340339BCF1A1
:103B2000030FFFF467AFA3F10802A4F1080300BF7D
:103B300032F8087F043923F8087F57885F80978818
:103B40009F80D788DF80F3D154E700BF9488063286
:103B50009C8006330339BCF1030FFFF44BAF083AE6
:103B6000083B00BF32F8087F043923F8087F5788E4
:103B70005F8097889F80D788DF80F3D13AE700BFC6
:103B80009A880633A28006340339BCF1030FFFF490
:103B900031AFA3F10802A4F1080300BF32F8087F97
:103BA000043923F8087F57885F8097889F80D788DB
:103BB000DF80F3D11EE700BFBAF804300AF1060631
:103BC000A9F8043009F10609033F009B032B0FD32A
:103BD000083EA9F1080500BF36F8083F043F25F864
:103BE000083F73886B80B388AB80F388EB80F3D198
:103BF0000AEB020600234E61A04588BFA8EB020332
:103C00000B62B0F8503088BF90460CEB03025FEABD
:103C10000843A2F806843FF4EDAE49894FF0FF3324
:103C2000014401F58062012111FA88F1C1F34104D8
:103C300003EB5103002C4FEA510168D036F8027BA8
:103C40001546012C25F8027B02D101392A465EE097
:103C500036F8027B022C578054D10432023956E0E8
:103C6000BAF80460033FA9F8046009F106090AF1F3
:103C70000606032B0ED3083EA9F1080536F8083FC7
:103C8000043F25F8083F73886B80B388AB80F388C6
:103C9000EB80F3D10AEB020600234E61A04588BFFA
:103CA000A8EB02030B62B0F8503088BF90460CEBD3
:103CB00003025FEA0843A2F802843FF49BAE09893D
:103CC0004FF0FF33014401F58062012111FA88F1C0
:103CD000C1F3410403EB51034FEA51018CB336F8B1
:103CE000027B1546012C25F8027B03D101392A46B7
:103CF00027E000BF36F8027B022C57801CD104322B
:103D000002391EE036F8027B033997800632032B16
:103D1000FFF470AEA6F10803083A00BF33F8087F3D
:103D2000043922F8087F5F8857809F889780DF8852
:103D3000D780F3D15EE600BF36F8027B0339978067
:103D40000632032BFFF456AEA6F10803083A00BF73
:103D500033F8087F043922F8087F5F8857809F88EE
:103D60009780DF88D780F3D144E600000146002029
:103D7000A1F844004BF680720020A1F84020704763
:103D800041F27C00C2F20000FCF728BDB0F844000C
:103D90007047000070B51044022B00F5806440D3DA
:103DA0004FF0FF32C3F34105580802EB530C4DB1FD
:103DB000224632F8026B8E46012D2EF8026B07D197
:103DC000013815E02246BCF1030F14462AD315E052
:103DD0006288022D4A8005D1221D01F1040E0238AD
:103DE00006E000BFA688A21D01F1060E03388E80F2
:103DF0007146BCF1030F144614D300BF32F8086BB0
:103E0000043821F8086B32F8066C21F8066C32F899
:103E1000046C21F8046C32F8026C21F8026CEDD1CC
:103E200014468E46D8071CBF20888EF8000070BD4F
:103E3000002904BF8021A0F84C100020704700002A
:103E4000B0B5002B3CD0104400F5806E581C4FF0EC
:103E5000FF32C0F3410302EB500C4FEA5000E3B1D4
:103E60000A4632F8025B7446012B24F8025B03D148
:103E700001381146A64610E04A88022BAEF802200F
:103E800004D10EF1040E0431023806E08A880631AE
:103E9000AEF804200EF1060E0338BCF1030F38BF54
:103EA000B0BD0839AEF1080231F8083F043822F8F5
:103EB000083F4B8853808B889380CB88D380F3D185
:103EC000B0BD0000FEE70000B0B582B004460DF1C1
:103ED00007058DF8070000BF28460121FCF72AFAE4
:103EE0000028F9D1204602B0B0BD000094B0FCF724
:103EF0006DFA00244FF40070CDE90B44CDE909447C
:103F0000CDE90744FDF714FA4FF48071099140217F
:103F10000A91012102200F911221CDE910100621F2
:103F20000690CDE90D00CDE9121006A8FDF78AFD37
:103F300020B1EFF3108072B6FEE700BF0F200190B2
:103F40000320CDE9020401A80421CDE90444FDF7D2
:103F5000EFFB28B1EFF3108072B600BFFEE700BFA1
:103F6000FDF7E0FFFDF7F8FF002506A44FF47A7097
:103F7000FCF704FA204629466E1C00F019F8354675
:103F8000F4E700BF582050756C73652053544D33CF
:103F90003247343734564554362055534220434433
:103FA00043205472616E736D69742025640D0A009C
:103FB0000FB4054B10B503A9044A029800F018F895
:103FC00010BC5DF814FB0000C93E00080000002092
:103FD00002E008C8121F08C1002AFAD170477047D2
:103FE000002001E001C1121F002AFBD17047000030
:103FF0002DE9FF4F89B09B460446002506E02528A1
:104000000BD05A460B999047641C6D1C20780028F1
:10401000F5D10DB02846BDE8F08F0027B846012243
:10402000474900E0074314F8013F203B02FA03F040
:104030000842F7D120782E2819D114F8010F47F043
:1040400004072A280ED06FF02F022078A0F130014B
:1040500009290CD808EB880102EB410100EB0108AB
:10406000641CF2E70A98641C50F8048B0A902078CC
:104070000028CED0642808D0692806D075281ED024
:104080005A460B9990476D1C58E00A994FF00A095F
:1040900001C90A91002802DA40422D2102E03905C7
:1040A00004D52B218DF82010012103E0F90704D05D
:1040B0002021F7E78A4608AE0DE00021FAE70A99C9
:1040C0004FF00A0901C90A91F7E74946FCF7B2F82F
:1040D000303106F8011D0028F7D1ADEB060000F1E4
:1040E0002009780701D44FF00108C84502DDA8EB8C
:1040F000090000E000208046002706E008A85A4694
:10410000C05D0B9990476D1C7F1C5745F6DB04E0A2
:1041100030205A460B9990476D1CB8F10001A8F168
:104120000108F5DC05E016F8010B5A460B9990479B
:104130006D1CB9F10001A9F10109F4DC641C65E70B
:104140000928010000000000000000000102030433
:1041500006070809784100080000002088010000D7
:10416000840200084042000888010020F015000089
:10417000E03F0008000000004132103201137121BD
:104180001408B5221B08C5041AF104135D23140892
:104190006D201B088D0C511324F41AF5241A2D04DC
:1041A0004BF524141A810C1A91241A0108C11AD54E
:1041B000101AC5042AE55419041409024313020114
:1041C0001DC03209046D1A020B13052416100105D7
:1041D0002401100901042402020524061701070521
:1041E000820308151009040133020A2E0705010293
:1041F00040072A810711093744113A02441907116F
:104200001A12171302021E40830440574D1B02036B
:10421000F92B0A061A111A400B112B0907640A3BE5
:1042200004A81BE902F819041AE1041315031B087A
:104230003104071A040309041A03000000000000F7
:04000005080001D915
:00000001FF
