:020000040800F2
:10000000D80F0020ED010008A92500089D23000855
:10001000A525000899070008952D0008000000009C
:100020000000000000000000000000007D27000824
:100030009D07000800000000AD250008812700088A
:10004000070200080702000807020008070200086C
:10005000070200080702000807020008070200085C
:10006000070200080702000807020008070200084C
:10007000070200080702000807020008070200083C
:10008000070200080702000807020008070200082C
:10009000070200080702000807020008A10700087D
:1000A000070200080702000807020008070200080C
:1000B00007020008070200080702000807020008FC
:1000C00007020008070200080702000807020008EC
:1000D00007020008070200080702000807020008DC
:1000E00007020008070200080702000807020008CC
:1000F00007020008070200080702000807020008BC
:1001000007020008070200080702000807020008AB
:10011000070200080702000807020008070200089B
:10012000070200080702000807020008070200088B
:10013000070200080702000807020008070200087B
:10014000070200080702000807020008070200086B
:10015000070200080702000807020008070200085B
:10016000070200080702000807020008070200084B
:10017000070200080702000807020008070200083B
:10018000070200080702000807020008070200082B
:10019000070200080000000007020008070200082C
:1001A000070200080702000807020008070200080B
:1001B00007020008070200080702000807020008FB
:1001C00007020008070200080702000807020008EB
:1001D0000702000807020008DFF80CD000F05AFA06
:1001E00000480047B92D0008D80F00200648804776
:1001F00006480047FEE7FEE7FEE7FEE7FEE7FEE70C
:10020000FEE7FEE7FEE7FEE789270008D9010008C0
:100210002DE9F05F0546002092469B46884606463B
:10022000814640241BE0284641464746224600F0CE
:1002300069F853465A46C01A914110D311461846E0
:10024000224600F050F82D1A67EB01084F4622466F
:100250000120002100F047F817EB00094E41201E55
:10026000A4F10104DFDC484631462A464346BDE896
:10027000F09F40EA01039B0703D009E008C9121F61
:1002800008C0042AFAD203E011F8013B00F8013B50
:10029000521EF9D27047D2B201E000F8012B491E7C
:1002A000FBD270470022F6E710B513460A46044613
:1002B0001946FFF7F0FF204610BD30B50B4601464A
:1002C00000202022012409E021FA02F59D4205D3F5
:1002D00003FA02F5491B04FA02F52844151EA2F19F
:1002E0000102F1DC30BD202A04DB203A00FA02F1E1
:1002F000002070479140C2F1200320FA03F3194314
:1003000090407047202A04DB203A21FA02F00021B5
:10031000704721FA02F3D040C2F120029140084315
:10032000194670472DE9FE4F804681EA0300C00F51
:100330000C46009021F0004123F00045B8EB02008C
:10034000A94105D24046214690461C460B4602462E
:1003500023F00040104347D0270DC7F30A00C3F332
:100360000A510290401A019040286BDAC3F313003F
:1003700040F4801B0098924620B10023D2EB030A80
:1003800063EB0B0B01985946C0F140025046FFF752
:10039000AAFF06460D4650465946019A00F08CF9D0
:1003A00010EB08006141002487EA115284EAE773E8
:1003B0001A4340D0009A62B3019A012A4FEA0752C9
:1003C00015DC001B61EB02014FF0004202EA07520C
:1003D000CDE90042001C41F5801132462B4600F069
:1003E0008CF903B0BDE8F08F40462146F9E7001BC9
:1003F00061EB0201001C41F5801300185B412018DD
:10040000A2F5001747EB030140EAD570B6196D411C
:1004100011E06D084FEA360645EAC0754FEA07520B
:10042000001B61EB0201001C41F5801149084FEAF5
:1004300030000019514132462B4603B0BDE8F04F61
:1004400000F04CB90098012240000023D0EB0202DA
:1004500063EBE073009821464FEAE074B8EB0000CC
:1004600061EB0401E9E783F000435BE781F00041C1
:1004700058E72DE9FE4F81EA030404F0004421F01F
:10048000004100944FF0000B23F0004350EA0104B8
:100490005ED052EA03045BD0C3F30A54C1F30A5599
:1004A0002C44A4F2F3340194A0FB0254C1F31301D1
:1004B00041F48011C3F3130343F4801301FB02449E
:1004C00000FB034E840A970A44EA815447EA8357A3
:1004D000A4FB076802958D0A05FB07854FEA932C5C
:1004E00004FB0C542705029D4FEA065847EA1637CD
:1004F000B5EB08056EEB070C870E920E47EA8117E5
:1005000042EA8312A7FB0201B6EB0B0164EB000485
:100510002B0D43EA0C335E1844EB1C50DA4651466F
:10052000E7FB0201C5F313044FEA0B3343EA14530C
:100530004FEA0432019C43EA0603A4F10C0402943E
:10054000009CCDE900B400F0D8F803B0BDE8F08F0E
:1005500000200146F9E72DE9F04D81EA030404F09B
:10056000004B21F0004514464FF0000A23F00041F3
:1005700050EA050220D054EA01021DD0C5F30A5703
:100580000246C5F31303C1F31300C1F30A5640F446
:10059000801543F48013A7EB0608101BD64608F21B
:1005A000FD3873EB050002D308F1010801E0921851
:1005B0005B41B8F1000F03DA00200146BDE8F08D81
:1005C00000204FF48011064684460EE0171B73EBA3
:1005D000050705D3121B63EB050306434CEA010C28
:1005E00049084FEA300092185B4150EA0107EDD10B
:1005F00052EA030012D082EA040083EA05010843AC
:1006000005D0101BAB4106D20122002306E00022D8
:100610004FF0004302E06FF0010253101AEB0600A6
:100620004CEB085110EB0A0041EB0B01BDE8F04D1B
:1006300000F054B8C1F30A52C1F3130140F2FF3382
:1006400041F480119A4202DA00200146704740F2DC
:1006500033439A42A2F2334202DC5242FFF752BEC7
:10066000FFF741BE30B5041E71F1000404DB4FF00A
:100670000044404264EB0101141E73F1000405DBE9
:100680001C464FF00043524263EB0403994208BFFB
:10069000904230BD064C074D06E0E06840F0010393
:1006A00094E8070098471034AC42F6D3FFF798FD62
:1006B000D45B0008F45B0008202A06DBCB17203A45
:1006C00041FA02F043EAE07306E041FA02F3D04057
:1006D000C2F12002914008431946704710B5141E1C
:1006E00073F1000408DA401C41F1000192185B41EB
:1006F0001A4301D120F0010010BD2DE9F04D9246C2
:100700009B4611B1B1FA81F202E0B0FA80F22032D8
:100710009046FFF7E8FD04460F4640EA0A0041EA2A
:100720000B0153465A46084313D0114653EA0100C1
:1007300019D0C8F140025046FFF7E4FD05460E46C9
:10074000504659464246FFF7CEFD084305D00120EA
:1007500004E020463946BDE8F08D0020054346EA16
:10076000E0762C4337430A986305E40AA0EB0800BF
:100770000022FD0A44EA47540A3002D5002001460F
:10078000E9E7010510196941DDE9084500196941EA
:10079000BDE8F04DA2E70000FEE700007047000052
:1007A00080B54FF4807000F009F880BDEFF3108041
:1007B00072B600BFFEE700007047000080B540F24F
:1007C0001441C4F201010A68024208BF80BD0860FA
:1007D000FFF7F2FF80BD00002DE9F04F82B041F23B
:1007E0000042C4F600020B680627904208BF0527A6
:1007F000002B009700F0C08000F138424FEAB2248D
:1008000040F2004C009AC4F2010C052C38BF22467D
:1008100000250027012400920AE000BF0B6804377E
:1008200033FA04F204F1010405F1020500F0A4809A
:10083000A4F10108012202FA08FA13EA0A09EDD02C
:10084000D1F804B00BF00303A3F1010EBEF1010FC8
:1008500012D8D0F808E00322CE68AA402EEA02029D
:10086000AE40324382604268CBF3001622EA0A02AD
:1008700006FA08F632434260032B1FD00322D0F859
:100880000CE002FA05F68A682EEA0606AA40324310
:10089000022BC26012D16FF0030202EA5802024436
:1008A00007F01C060F23D2F820E003FA06FA0B69C2
:1008B0002EEA0A0EB34043EA0E03136202680323D2
:1008C0004E68AB409A4306F00303AB401A4316F45C
:1008D000403F0260A2D041F26003C4F202031A68F2
:1008E00007F00C0642F001021A601A680F2302F0AA
:1008F00001020192019A28F003024FF6084862446F
:10090000CFF6FF7852F808E0B3402EEA030E009BC2
:1009100003FA06F646EA0E0342F80830DCF808E06F
:100920004B684EEA090640F20C48DA0258BF2EEA3C
:100930000906CCF80860C4F20108D8F800E09A0271
:100940004EEA090658BF2EEA0906C8F80060DCF82E
:1009500004E09A034EEA090658BF2EEA0906CCF8CD
:100960000460DCF80020DB0342EA090658BF22EAF3
:100970000906CCF8006051E702B0BDE8F08F000036
:100980001823002A08BF2823C150704740F2D070B6
:10099000C2F200000068704740F2940040F2D0714B
:1009A000C2F20000C2F2000100680A681044086048
:1009B0007047000080B542F20000C4F202000168F6
:1009C00041F480710160032000F08EF80F2000F0E8
:1009D00009F800281CBF012080BD00F02DF8002080
:1009E00080BD0000B0B540F29401C2F20001096878
:1009F00001B3044640F20400C2F200004FF47A72E0
:100A00000068B2FBF1F1B0FBF1F001F025F90F2C19
:100A10004FF001050CD858B94FF0FF3021460022A5
:100A2000002500F035F840F29800C2F200000460A2
:100A30002846B0BD0120B0BD80B582B041F258005B
:100A4000C4F20200816841F001018160816801F017
:100A5000010101910199016841F080510160006834
:100A600000F080500090009800F0D2F802B080BDF5
:100A7000002848BF704700F01F01012202FA01F16F
:100A80004EF200124009CEF2000242F820107047E8
:100A900010B54EF60C5CCEF2000CDCF80030C3F35F
:100AA000022E8EF00704042C28BF0424BEF1030399
:100AB0004FF0FF3E0EFA04F438BF0023A1439940E3
:100AC0000EFA03F39A4300F00F03043B114363440F
:100AD00009010C3300F16042B0F1FF3FC8BF02F5DD
:100AE0006443197010BD00004EF60C51CEF20001A7
:100AF0000A684FF6FF031A4060F30A2242F0806052
:100B000040F0FD7008607047B0F5007F3BD00028D2
:100B100072D147F2000CC4F2000CDCF80010DCF8D3
:100B2000802001F4C06122F48072B1F5806FCCF8AE
:100B3000802026D1DCF80010012262F34A21CCF893
:100B4000001040F20401C2F2000109683223594347
:100B50004DF68363C4F21B33A1FB031302EB9341F5
:100B6000002200BFDCF81400013942F10003400507
:100B700001D5002BF6D1DCF81400400544BF03205A
:100B800070470020704747F2000CC4F2000CDCF8FC
:100B90000010DCF8802001F4C06142F48072B1F5ED
:100BA000806FCCF88020ECD1DCF80010012262F3D9
:100BB0004A21CCF8001040F20401C2F20001096899
:100BC000322359434DF68363C4F21B33A1FB031355
:100BD00002EB9341002200BFDCF81400013942F11E
:100BE0000003400501D5002BF6D1DCF814004005C8
:100BF00044BF03207047C4E747F20000C4F200007E
:100C00000168022262F34A2101600020704700005F
:100C100047F20800C4F20000016841F4804101601D
:100C2000704700002DE9F041154688460446FFF75D
:100C3000ADFE94F84010012904BF0220BDE8F08108
:100C40000646012084F8400094F84100022701285C
:100C500055D10020606484F8417020688068800667
:100C600004D401200027002849D01BE06F1C03E0BA
:100C700020688068800612D5002FF9D0FFF786FE25
:100C800015B1801BA842F3D9042084F84100606CA0
:100C9000012740F001006064002080B302E00027DB
:100CA000012060B320464146002201F081FCD8F8C3
:100CB000240008BB20688068800717D46F1C03E0FD
:100CC00020688068800711D4002FF9D0FFF75EFEFE
:100CD00015B1801BA842F3D9042084F84100606C50
:100CE000012740F001006064002001E0002701209E
:100CF00028B120680221C160012084F84100002051
:100D000084F840003846BDE8F0810000F0B581B0BD
:100D10000446FFF73BFE002C4BD0054694F84100FB
:100D200040B9002084F84000204600F05FF841F20E
:100D30008830A0642068A168A66C02686FF0FF0389
:100D400022F4706203EB0121114301608068800688
:100D500032D40020012139B3D4E90012D4E9033C94
:100D60000E684FF62F75C0F2FF052E40D4E90757E5
:100D7000334343EA02622A433A430A604A684FF621
:100D8000FE03CFF6E0731A40D4E905371A4342EA6E
:100D90000C423A434A600A6842F001020A600021AC
:100DA0006164012184F84110002184F8401001B0F1
:100DB000F0BD012001B0F0BD771C03E02068806821
:100DC0008006C6D5002FF9D0FFF7E0FD16B1401B15
:100DD000B042F3D9042084F84100606C002140F057
:100DE0000100606401200029DED0B5E770B59CB039
:100DF000054641F20004002602A85421C4F600046E
:100E00001B96CDE91966CDE91766FFF74BFA2868FE
:100E100004F1B041884201D01CB070BD4FF4802075
:100E2000029002A8159600F059F9002818BFFFF7A4
:100E3000BDFC41F24C00C4F20200416841F48071F3
:100E40004160416801F4807101910199016841F0AC
:100E500010010160006817A900F0100001900198CE
:100E60004FF47C4017900220189000201990032026
:100E70001A900A201B902046FFF7AEFC1CB070BDF4
:100E80002DE9F04381B0154688460446FFF77EFD04
:100E9000D4F80090D9F8181094F84020012A03D112
:100EA000022001B0BDE8F0830646012084F840002E
:100EB00094F84100012847D10020B8F1000F606488
:100EC00044D0222084F84100D9F8100001220130DA
:100ED000A063D9F8100001306063C4F83080D9F8FD
:100EE000140062F39B60C9F81400C9F81810A06BD5
:100EF00090B36F1C4FF004082068806810F0060F54
:100F000010D1002FF8D0FFF741FD15B1801BA8428A
:100F1000F2D984F84180606C002140F001006064E7
:100F2000012001E00020012161B199F82010226B1D
:100F30001170216BA26B01312163511EA163A16B62
:100F40000029D9D160BB09E002202CE0606C40F0A0
:100F500008006064012026E0002008BB206880684B
:100F6000800717D46F1C03E020688068800711D4C5
:100F7000002FF9D0FFF70AFD15B1801BA842F3D965
:100F8000042084F84100606C002140F0010060649E
:100F9000012001E00020012111B121680222CA6074
:100FA000012184F84110002184F8401001B0BDE80F
:100FB000F08300002DE9F04381B015460F4604464A
:100FC000FFF7E4FCD4F8008094F84010012903D125
:100FD000022001B0BDE8F0830646012084F84000FD
:100FE00094F84100012842D10020002F606440D0D5
:100FF000122084F84100D8F810000130E062D8F8DF
:1010000010000130A0626762D8F8140020F0406040
:10101000C8F81400E06A90B36F1C4FF0040900BFD9
:1010200020688068400710D4002FF9D0FFF7AEFC8D
:1010300015B1801BA842F3D984F84190606C00215F
:1010400040F001006064012001E00020012161B155
:10105000616A097888F82010616AE26A0131616288
:10106000511EE162E16A0029DAD168BB09E0022081
:101070002DE0606C40F008006064012027E0002053
:1010800010BB20688068800718D46F1C04E000BF84
:1010900020688068800711D4002FF9D0FFF776FC14
:1010A00015B1801BA842F3D9042084F84100606C7C
:1010B000002140F001006064012001E000200121D6
:1010C00011B121680222CA60012184F84110002177
:1010D00084F8401001B0BDE8F08300002DE9F04332
:1010E00081B08146807841F288070007C4F2020788
:1010F00001D4002565E057F8300C10F080580BD172
:1011000057F8300C40F0805047F8300C57F8300C4E
:1011100000F080500090009847F20004C4F20004F0
:10112000206840F480702060FFF730FC054600BF67
:10113000206810F4807607D1FFF728FC401B0328B5
:10114000F6D3032516B933E000258EB3B86810F442
:10115000407012D0D9F8501088420BD0B868B968E6
:1011600020F4407041F48031B960B96821F48031D5
:10117000B960B860C00703D111E00020C0070ED0ED
:10118000FFF704FC064641F2893400BFB8688007C7
:1011900005D4FFF7FBFB801BA042F7D303253DB925
:1011A000B868D9F8501020F4407008430025B860A2
:1011B000B8F1000F05D157F8300C20F0805047F8F7
:1011C000300CD9F80000C10716D181071DD44107A2
:1011D00024D401072BD4C10632D4810639D4410668
:1011E00040D4010647D4C1054ED4810355D48105AE
:1011F0005CD4410563D472E03968D9F8042021F049
:101200000301114339608107E1D53968D9F8082015
:1012100021F00C01114339604107DAD53968D9F85A
:101220000C2021F03001114339600107D3D5396812
:10123000D9F8102021F0C00111433960C106CCD586
:101240003968D9F8142021F44071114339608106BE
:10125000C5D53968D9F8182021F4406111433960A7
:101260004106BED53968D9F81C2021F440511143FC
:1012700039600106B7D53968D9F8202021F44041FA
:1012800011433960C105B0D53968D9F8242021F45B
:101290004031114339608103A9D57969D9F82820F3
:1012A00021F00301114379618105A2D53968D9F88C
:1012B0002C2021F440211143396041050FD53968B4
:1012C000D9F8302021F440111143B2F5801F396064
:1012D00005D157F87C1C41F4801147F87C1C0105AE
:1012E0000FD53968D9F8342021F440011143B2F503
:1012F000800F396005D157F87C1C41F4801147F804
:101300007C1CC1040FD53968D9F8382021F0407110
:101310001143B2F1807F396005D157F87C1C41F44C
:10132000801147F87C1C81040FD53968D9F83C201E
:1013300021F040611143B2F1006F396005D157F8D7
:101340007C1C41F4801147F87C1C41040FD539689E
:10135000D9F8402021F040611143B2F1006F3960AB
:1013600005D157F87C1C41F4801147F87C1C01041E
:101370000FD53968D9F8442021F040511143B2F11A
:10138000805F396005D157F87C1C41F4803147F803
:101390007C1CC1030FD53968D9F8482021F04041A1
:1013A0001143B2F1804F396005D157F87C1C41F4EC
:1013B000803147F87C1C40030FD57869D9F84C1070
:1013C00020F440100843B1F5001F786105D157F8AB
:1013D0007C0C40F4801047F87C0C284601B0BDE836
:1013E000F08300002DE9F047002800F0088142F268
:1013F000000AC4F2020A0446DAF800000D4600F0C2
:101400000F0088420DD2DAF8000020F00F002843C8
:10141000CAF80000DAF8000000F00F00A84240F01F
:10142000EE80216841F20808C807C4F202080CD116
:101430004FF00009206881074BD4B9F1800F61D1CA
:10144000D8F8000020F0F0005AE06068022800F0B0
:10145000CA80032840F0CF8058F8082C920140F150
:10146000CE80D8F80420D8F8043042F2004702F0C9
:101470000302C3F30313C0F2F4070133032A04BFCA
:1014800041F20027C0F27A07D8F80420B7FBF3F343
:10149000D8F80470C2F306225A43C7F34163022707
:1014A00007EB4303B2FBF3F24BF20043C0F2C44339
:1014B0009A4240F2EC80D8F8002012F0F00F00F0D1
:1014C000DC80890740F1E380A168002940F0DF80DB
:1014D000D3E0410705D5D8F8001041F4E061C8F821
:1014E0000010000706D5D8F80000072161F30D2091
:1014F000C8F80000D8F80000A16820F0F000084308
:10150000C8F80000DAF8000000F00F00A84219D96E
:10151000DAF8000020F00F002843CAF80000FFF7B7
:1015200035FA064641F28837DAF8000000F00F007D
:10153000A84207D0FFF72AFA801BB842F4D903204B
:10154000BDE8F0872068410707D5D8F80010E268A9
:1015500021F4E0611143C8F80010000708D5D8F85D
:101560000000216920F4605040EAC100C8F8000082
:10157000D8F8000042F20041C0F2F40100F00C0083
:101580000428084600F0A480D8F8000000F00C0001
:10159000082841F20020C0F27A0000F09980D8F8C3
:1015A000002002F00C020C2A40F09180D8F80420B0
:1015B000D8F8043002F00302C3F303130133032A03
:1015C00008BF0146D8F80400B1FBF3F1D8F80420B5
:1015D000C0F306204843C2F34161022202EB4101FD
:1015E000B0FBF1F074E058F8081C89035CBF0120DF
:1015F000BDE8F08706E058F8081C490502D4012030
:10160000BDE8F087D8F8001001F00C0104293ED0A5
:10161000D8F8001001F00C01082938D0D8F80010D3
:1016200001F00C010C2932D1D8F80410D8F80420AC
:1016300042F2004301F00301C2F30312C0F2F403CB
:101640000132032904BF41F20023C0F27A03D8F823
:101650000410B3FBF2F2D8F80430C1F30621514371
:10166000C3F34162022303EB4202B1FBF2F14BF2FE
:101670000042C0F2C442914209D9D8F800100822B1
:1016800062F307114FF08009C8F8001001E04FF035
:101690000009D8F8001021F003010843C8F8000041
:1016A000FFF774F9064641F2883700BFD8F800000A
:1016B000616800F00C00B0EB810F3FF4BBAEFFF7A8
:1016C00065F9801BB842F1D90320BDE8F0870020FE
:1016D000D8F8001045F2E402C1F30311C0F600028D
:1016E000515C40F2040201F01F0120FA01F140F2C6
:1016F0009800C2F200000068C2F200021160FFF719
:1017000071F9BDE8F087000040F2040041F20801E1
:10171000C2F20000C4F202010068096845F2F40256
:10172000C1F30221C0F60002515C01F01F01C84064
:101730007047000040F2040041F20801C2F20000CC
:10174000C4F202010068096845F2F402C1F3C22143
:10175000C0F60002515C01F01F01C8407047000054
:1017600041F20C01C4F2020151F8040C42F20042B1
:10177000C0F2F40200F00C000428104608BF7047C5
:1017800051F8040C00F00C00082841F20020C0F2CF
:101790007A0021D051F8043C03F00C030C2B1CBF41
:1017A00000207047D1F800C00B680CF0030CC3F3A5
:1017B00003130133BCF1030F08BF02460868B2FBF4
:1017C000F3F20968C0F306205043C1F341610222DD
:1017D00002EB4101B0FBF1F0704700002DE9F04150
:1017E00082B0002800F001810446007841F2000632
:1017F000C007C4F2020654D12078800772D4207842
:10180000000700F195802078400700F1B380207830
:10181000800600F10081E069002840D0B16801F045
:101820000C010C2940F05881012800F0DE80F0689E
:10183000216A00F003028A4240F0D780626A6FF0AA
:101840000F0300F0F00103EB0212914240F0CD8053
:10185000A16A00F4FE42B2EB012F40F0C680E16ABB
:1018600000F07842B2EBC16F40F0BF80226B0023E2
:10187000CFF6E07303EB025200F4C0016FF31402E1
:10188000914240F0B280616B4FF07E4202EB016109
:1018900000F0C06001F07E41884240F0A680002048
:1018A000D7E1B06800F00C01F068082959D0032294
:1018B00081F00C0122EA00000844B0FA80F04009EF
:1018C0004FD16568B5F5A02F00F0D180B5F5803F08
:1018D00000F0D180306820F480303060306820F42F
:1018E0008020CBE0B068F16800F00C00042866D0DE
:1018F00001F0030180F00C0081F002010844B0FA0D
:1019000080F040095BD1E1683068002900F0D280A6
:1019100040F480703060FFF739F8054630684005C4
:1019200000F1EF80FFF732F8401B0228F6D920E1E2
:101930006169D6F89400002900F0878040F001002A
:10194000C6F89400FFF722F8054600BFD6F89400C9
:1019500080073FF558AFFFF719F8401B0228F5D96B
:1019600007E1306880037FF547AF606800287FF4A7
:1019700043AF3AE0B06D10F0805808D1B06D40F040
:101980008050B065B06D00F080500190019847F232
:101990000007C4F200073868C0052AD4386840F44C
:1019A00080703860FEF7F2FF054600BF3868C0055A
:1019B0001FD4FEF7EBFF401B0228F7D9D9E03068AF
:1019C000400501D5E06880B17068216920F0FE40D3
:1019D00040EA0160706040F29800C2F200000068C6
:1019E000FFF700F800283FF40AAF012002B0BDE87D
:1019F000F081A568052D00F0A080012D00F0A380E6
:101A0000D6F8900020F00100C6F89000D6F89000BB
:101A100020F004009BE0A169D6F89800002978D056
:101A200040F00100C6F89800FEF7B0FF054600BF81
:101A3000D6F8980080073FF5EEAEFEF7A7FF401BF3
:101A400002284FF00300F3D903E120F00100C6F8AB
:101A50009400FEF79BFF0546D6F8940080077FF5BB
:101A6000D2AEFEF793FF401B0228F5D981E0306823
:101A700040F480203060306840F480303060FEF701
:101A800085FF002D054611D0306880033FF5B4AEC8
:101A9000FEF77CFF401B6428F6D96AE0FEF776FF6C
:101AA000401B64284FF0030000F2D38030688003AD
:101AB000F4D4A1E620F480703060FEF767FF05469D
:101AC000306840057FF59BAEFEF760FF401B0228A3
:101AD0004FF00300F4D9BCE03168022821F0807196
:101AE00031605FD1FEF752FF054600BF30688001CC
:101AF00072D5FEF74BFF401B02284FF00300F5D9CB
:101B0000A7E07068216920F0FE4040EA0160706043
:101B100075E620F00100C6F89800FEF737FF05468D
:101B2000D6F8980080077FF576AEFEF72FFF401BB2
:101B300002284FF00300F3D98BE0D6F8900040F074
:101B40000400C6F89000D6F8900040F00100C6F8F6
:101B50009000FEF71BFF002D054641F2883714D098
:101B6000D6F89000800714D4FEF710FF401BB8424F
:101B7000F6D9032002B0BDE8F08100BFFEF706FFF2
:101B8000401BB8424FF0030063D8D6F8900080079E
:101B9000F4D4B8F1000F7FF43AAEB06D20F080506D
:101BA000B06534E6F0684FF6FF7120F00300F06096
:101BB000F068CFF6EE610840F060FEF7E7FE0446FD
:101BC000306880017FF56BAEFEF7E0FE001B022857
:101BD0004FF00300F4D93CE0F06848F20C01C0F289
:101BE0009F1104F1200700EA010C8ECF6FF00F0067
:101BF000D4E90C5400EB02100022CFF6E07241EA67
:101C00000C0102EB055208436FF314024FF07E45BE
:101C100040EA032005EB0465104305F07E4540EAE9
:101C2000C7602843F060306840F080703060F06832
:101C300040F08070F060FEF7A9FE04463068800135
:101C40003FF52DAEFEF7A2FE001B02284FF0030069
:101C5000F4D902B0BDE8F081411E0020B0EB116F55
:101C60001CBF012070474EF21002CEF200025160FC
:101C70004EF62351CEF20001F0230B700721906045
:101C80001160704770B590F83C20012A4FF00202B5
:101C900064D0012380F83C3080F83D20026842F691
:101CA00000435468D2F808C0C4F2010345F2000EA4
:101CB0009A42C4F2010E18BF72452AD14D6824F42D
:101CC00070042C434FF68F75CFF6FF550E682C40ED
:101CD00042F6FF35C4F201053443AA4254600DDCDC
:101CE00040F2FF73C4F200039A4219DCB2F1804F54
:101CF00029D040F20043C4F2000322E043F6FF740F
:101D0000C4F20104A24216DC9A421CD043F2004302
:101D100015E043F20045C4F20105AA42CED0D1E756
:101D200040F60003C4F200039A420CD040F6004390
:101D3000C4F2000305E0724505D044F20003C4F28A
:101D400001039A4204D189682CF080031943916001
:101D50000121002280F83D1080F83C20104670BD23
:101D6000002804BF0120704710B5044690F83D00DC
:101D700028B9002084F83C00204600F023F8022017
:101D800084F83D002068211D00F008FD012084F842
:101D9000480084F83E0084F83F0084F8400084F84E
:101DA000410084F8420084F8430084F8440084F839
:101DB000450084F8460084F8470084F83D00002080
:101DC00010BD000081B00068B0F1804F01D001B0BB
:101DD000704741F25800C4F20200016841F001016D
:101DE0000160006800F001000090009801B07047A9
:101DF00080B590F83C20012A4FF0020200F0958057
:101E0000012380F83C3080F83D20D0F800C08822C3
:101E1000DCF80830CFF6CE721A40CCF808200B68F8
:101E2000B3F5005F0CDA3F2B20DD5F2B30DD602B3C
:101E30007DD0702B00F09D80B3F5805F6ED0E0E028
:101E40002F22C0F21002934217DD4F21C0F2100181
:101E50008B4245DD5021C0F210018B4252D06021EF
:101E6000C0F210018B424DD0702147E01F2B3EDCA9
:101E7000002B47D0102B45D0C3E0B3F1101F3BDA45
:101E8000B3F5005F00F08880B3F5801F3AD0B8E06A
:101E9000402B00F09480502B40F0B380D1F804E048
:101EA000C968DCF82030DCF8202022F00102CCF8F0
:101EB0002020DCF8182022F0F00242EA011123F081
:101EC0000A0242EA0E02CCF81810CCF82020DCF806
:101ED00008104FF68872CFF6CF72114057311BE0D1
:101EE0003021C0F210018B420CD0402106E0202BA3
:101EF00008D0302B06D084E004D02021C0F210019D
:101F00008B427ED1DCF808104FF68872CFF6CF7284
:101F10001140194341F00701CCF8081000220121BB
:101F200080F83D10002180F83C10104680BDD1F8AB
:101F300004E0C968DCF8203023F01003CCF820302E
:101F4000DCF81830DCF8202023F4704322F0A002E3
:101F500043EA013142EA0E12CCF81810CCF82020E6
:101F6000DCF808104FF68872CFF6CF721140673157
:101F7000D2E7D1E901E3C968DCF8082043EA0E039F
:101F800022F47F4243EA01211143CCF80810DCF827
:101F9000081041F07701BFE7D1E901E3C968DCF837
:101FA000082043EA0E0322F47F4243EA0121114351
:101FB000CCF80810DCF8081041F48041ACE7D1F807
:101FC00004E0C968DCF82030DCF8202022F00102AF
:101FD000CCF82020DCF8182022F0F00242EA0111AF
:101FE00023F00A0242EA0E02CCF81810CCF82020A6
:101FF000DCF808104FF68872CFF6CF7211404731E7
:102000008AE701228BE7000090F88010012904BFC5
:10201000022070472421C0F88410026811681368F8
:1020200023F00103136021F0005300214166136087
:102030002022C0F8842080F88010084670470000F5
:10204000B0B590F88020012A04BF0220B0BD012362
:10205000242280F88030C0F884200268D0F864E040
:10206000D2F800C01468BEF1000F24F0010414601F
:10207000946824F0606441EA040191601BD0916887
:10208000936845F2241E5B0FC0F6000E45F22C1536
:102090001EF80340C0F60005EB5CC1F34261E400AA
:1020A000B4FBF3F41EF80130695CDB00B3FBF1F321
:1020B000A0F86A4001E0A0F86A302021A0F868305A
:1020C000C2F800C0C0F88410002180F880100846D3
:1020D000B0BD0000B0B590F88020012A04BF0220F6
:1020E000B0BD0123242280F88030C0F8842002682B
:1020F000D0F864E0D2F800C01468BEF1000F24F0FC
:1021000001041460946824F0604441EA0401916081
:102110001BD09168936845F2241E5B0FC0F6000E39
:1021200045F22C151EF80340C0F60005EB5CC1F328
:102130004261E400B4FBF3F41EF80130695CDB009B
:10214000B3FBF1F3A0F86A4001E0A0F86A30202167
:10215000A0F86830C2F800C0C0F88410002180F8F0
:1021600080100846B0BD0000B0B582B0B0B10446E2
:10217000D0F8840028B9002084F88000204600F0C0
:1021800057F82420C4F884002068016821F0010178
:102190000160204600F012FC012802D1012002B0AB
:1021A000B0BDA06A10B1204600F094FB20684168E1
:1021B00021F490414160816821F02A018160016829
:1021C00041F0010101600020C4F88C00FEF7DEFB45
:1021D00021680546096809070BD56FF07E4C20463B
:1021E0004FF4001100222B46CDF800C000F05AFD3C
:1021F00078B92068006840070ED56FF07E4C204605
:102200004FF4800100222B46CDF800C000F04AFDBB
:1022100010B1032002B0B0BD2020C4F88400C4F87F
:1022200088000020E06684F8800002B0B0BD0000A5
:10223000B0B59CB00446002502A854211B95CDE9F9
:102240001955CDE91755FEF72DF8206843F6000122
:10225000C4F20101884201D01CB0B0BD0120CDE91B
:10226000020502A8FEF73AFF002818BFFEF79EFA03
:1022700041F24C00C4F20200416941F480414161E5
:10228000416901F4804101910199016841F0010126
:102290000160006817A900F00100019001984FF457
:1022A000C0601790022018900020CDE91900072087
:1022B0001B904FF09040FEF78FFA1CB0B0BD0000AD
:1022C0002DE9F04381B00446D0F8840020280BD1DA
:1022D0000E4600294FF001005CD01746002A59D065
:1022E00094F88000012803D1022001B0BDE8F083FA
:1022F000012084F880004FF0000921201D46C4F819
:102300008C90C4F88400FEF741FBA4F85470A4F844
:102310005670A1680746B1F5805F07D12069002893
:102320001CBF30464E46B046064601E04FF000085E
:1023300084F8809009E000BF16F8010B21688862DC
:10234000B4F856000138A4F85600B4F8560088B125
:102350002046802100223B46009500F0A3FC88B96E
:10236000002EE9D138F8020B21686FF35F208862F4
:102370000026E5E72046402100223B46009500F07C
:1023800091FC18B1032001B0BDE8F0832020C4F80F
:102390008400002001B0BDE8F0830000FEE70000EB
:1023A000F0B587B0002641F24C000696CDE90466F0
:1023B000CDE90266C4F20200016840F6000441F073
:1023C000200101600168C4F6000401F020010191C0
:1023D00001990168012241F00401016001680725AB
:1023E00001F00401019101990168012741F01001F8
:1023F0000160016801F0100101910199016841F04B
:1024000001010160016801F0010101910199016878
:1024100041F0020101600068072100F00200019014
:1024200001982046FEF7ACFACDE9025702AD2046EE
:102430002946CDE90466FEF7CFF94FF4807002908B
:102440004FF48810CDE90306A4F580602946FEF715
:10245000C3F9172000210022FEF71AFB1720FEF710
:1024600007FB07B0F0BD000010B540F2A00041F23C
:10247000000CC2F20000CAF2000C01220423002169
:102480004FF0160E4FF40074C0E900C2C0E90231EB
:10249000C0E904E4C0E906110162FEF737FC002838
:1024A00018BFFEF783F910BD80B588B040F2EC008C
:1024B0000021C2F200004FF0804244F267234FF047
:1024C000FF3C0791CDE90511CDE90311CDE90111DB
:1024D000C0E90023C0E9021C01618161FFF740FCF3
:1024E000002818BFFEF762F94FF48050049040F2C4
:1024F000EC00C2F2000004A9FFF77AFC002818BF24
:10250000FEF754F900200190039040F2EC00C2F273
:10251000000001A9FFF7B6FB002818BFFEF746F937
:1025200008B080BD80B540F2381043F60001C2F219
:102530000000C4F2010100234FF00C0C4FF4E13213
:1025400080E80E00C0E90333C0E905C3C0E90733E2
:10255000C0E90933FFF708FE002818BFFEF726F987
:1025600040F23810C2F200000021FFF7B3FD00284E
:1025700018BFFEF71BF940F23810C2F2000000212C
:10258000FFF75EFD002818BFFEF710F940F2381083
:10259000C2F20000FFF738FD002818BFFEF706F969
:1025A00080BD0000FEE70000FEE70000704700006D
:1025B0002DE9F04F81B0D1F824C0B2F1406F18BFBF
:1025C000BCF1000F03D08B6A0768013B3B61D1F877
:1025D00018E00B6ABEF1000F2AD0002B4FD0006824
:1025E0008C68D1E90486CD69C46101F12C0999E8B0
:1025F0009002002D4FEA864A63D00E68D1F80CB0E5
:1026000000964CEA020646EA0E0633432B43234368
:102610003B4343EA090343EA0A0343EA0803009FF2
:1026200043EA0B033B43B2F1406F436170D1A2E038
:10263000002B55D000688C68D1E90486CD69C4614F
:1026400001F12C0999E89002002D4FEA864B64D0E5
:102650004CEA020646EA0E0633432B4323433B4330
:1026600043EA0903D1F80CA043EA0B0343EA080349
:1026700043EA0A03B2F1406F43617CD048E04C6901
:10268000CF69D1E90B65D1F834A0002F4FEA84441B
:1026900051D04CEA020343EA0E033B4333432B433E
:1026A000D1F80C9043EA0A03D1F80080234343EAAF
:1026B0000903006843EA0803B2F1406F43615AD04E
:1026C00026E042EA0C0242EA0E021A4322433A434F
:1026D00042EA0902096842EA0A0242EA080235E0CF
:1026E000CB69C3B3D1E90B544CEA020633434F6BB9
:1026F0002B43D1F814802343D1F80CE03B4343EA49
:102700008843006843EA0E03B2F1406F436132D060
:102710004968816101B0BDE8F08F4CEA020141EAED
:102720000E0119432143394341EA090141EA0B01F2
:1027300041EA08010BE042EA0C0242EA0E0232438F
:102740002A43096842EA0A020068224311434161B0
:1027500001B0BDE8F08FBCF1000F0CD0D1E90B76D1
:1027600042EA0C024B69496B3A4332431143006819
:1027700041EA8341EBE701B0BDE8F08F704700000C
:1027800080B5FEF709F980BD4EF68850CEF2000004
:10279000016841F4700101607047000080B540F6A7
:1027A000FF330268C4F2000343F2FF3C9842C4F2D4
:1027B000010C0ADD60452EDC40F60043C4F2000344
:1027C000984234D042F600432DE0B0F1804F2ED035
:1027D00040F20043C4F20003984228D040F60003C0
:1027E000C4F20003984222D0604526DC40F2FF7319
:1027F000C4F20003984235DD40F60003C4F2000342
:10280000984243D040F60043C4F2000398423DD0C2
:1028100042F6004336E045F20003C4F20103984259
:1028200005D043F20043C4F201039842DCD14B6867
:1028300022F070021A436045D8DD44F2FF33C4F23F
:102840000103984216DD44F20043C4F201039842AA
:102850001CD045F20003C4F20103984216D044F69E
:1028600000030FE0B0F1804F10D040F20043C4F2FB
:10287000000309E043F20043C4F20103984205D08B
:1028800044F20003C4F20103984203D1CB6822F45E
:1028900040721A434B6922F0800E8A6843EA0E03A5
:1028A000D1F800C00360C262A0F18042A2F5963266
:1028B0004FEAB222092AC0F828C008D8012303FA37
:1028C00002F240F2E5231A421CBF096901630121AB
:1028D000416180BD80B5816ACA070CD18A0715D4D1
:1028E0004A071ED40A0727D4CA0630D48A0639D428
:1028F0004A0657D541E00268D0F82CC0536823F44B
:10290000003343EA0C0353608A07E9D50268D0F824
:1029100030C0536823F4803343EA0C0353604A0702
:10292000E0D50268D0F834C0536823F4802343EA2A
:102930000C0353600A07D7D50268D0F838C0536833
:1029400023F4004343EA0C035360CA06CED5026861
:10295000D0F83CC0936823F4805343EA0C0393609F
:102960008A06C5D50268D0F840C0936823F40053A6
:1029700043EA0C0393604A0614D50268D0F844C0B9
:102980005368BCF5801F23F4801343EA0C035360A3
:1029900008D1D2F804C0D0F848E02CF4C00343EAD0
:1029A0000E035360090658BF80BD0168C06C4A68B9
:1029B00022F400221043486080BD0000F0B581B0D1
:1029C00004462269D4E90213006866690A43E16992
:1029D0003243066846F6F315CCF6FF750A432E40DF
:1029E0003243026042684FF2FF4522F440521A43DC
:1029F000426048F20002A369C4F2000290421CBF88
:102A0000266A33438668C1F2FF152E403343836044
:102A1000C36A666A23F00F033343C36244F6FF734D
:102A2000C4F2000398424FF0100318DC44F2004651
:102A3000C4F20006B04227D044F60006C4F20006F5
:102A4000B04228D044F60046C4F20006B0423ED15F
:102A500041F28803C4F202031B689B092FE045F290
:102A60000006C4F20006B0421CD0904221D043F6CA
:102A70000006C4F20106B04229D141F28803C4F233
:102A800002031B6883A61EE041F28803C4F202031E
:102A90001B689B0813E041F28803C4F202031B6821
:102AA0001B090CE041F28803C4F202031B681B0AF5
:102AB00005E041F28803C4F202031B689B0A45F259
:102AC0001416C0F6000603F0030356F823309042B4
:102AD00042F20040C0F2F40014D0B1F5004F20D112
:102AE000082B00F272800027DFE803F0056A766F9A
:102AF000736F6F6F95000027FEF706FE002840F009
:102B00006C808DE0082B1DD80027DFE803F0051B43
:102B1000221B1F1B1B1B52000027FEF7F5FDC8B927
:102B20004CE0082B00F283800027DFE803F0057BF0
:102B3000878084808080A3000027FEF7E5FD0028C1
:102B40007DD19CE00020012720B937E00027FEF767
:102B500007FE98B3616A45F2FC02C0F6000232F843
:102B600011206568B0FBF2F305EB45018B424FF095
:102B70000101C0F085802E03B34200F28180002164
:102B80000023FDF745FB090241EA1061000210EB4A
:102B9000550041F100012A460023FDF739FB4FF6AD
:102BA0000052A0F54071C0F20F0291425CD30121A6
:102BB00066E04FF4004000270028CBD139465FE0A3
:102BC0000027FEF7B7FD40B92AE00020012720B911
:102BD00026E00027FEF7C4FD10B3616A45F2FC024F
:102BE000C0F6000232F811106268B0FBF1F0510833
:102BF00001EB4000B0FBF2F04FF6EF72A0F11001D4
:102C0000914206D84FF6F0710140C0F342000844EB
:102C10002AE0012134E04FF4004000270028DCD1F5
:102C200039462DE00027FEF785FD40B927E000205A
:102C3000012720B923E00027FEF792FDF8B1616A71
:102C400045F2FC02C0F6000232F811106268B0FBD7
:102C5000F1F000EB5200B0FBF2F04FF6EF72A0F192
:102C60001001914204D880B22168C860394607E05B
:102C7000012105E04FF4004000270028DFD139464C
:102C80004FF001100022A06622670846626701B07B
:102C9000F0BD00BF010000000400000002000000C1
:102CA000080000002DE9F04381B004460068C069C7
:102CB0000840401AB0FA80F04009904266D1DDF831
:102CC000208015460E46994608F1010709E000BF2D
:102CD0002068C0693040801BB0FA80F04009A842EB
:102CE00054D1002FF4D0FDF751FEB8F1000F2BD0D6
:102CF000A0EB0900404527D820680168490744BF78
:102D0000C1695FEA0151E3D54FF40061016200BF80
:102D1000206850E8000F216820F4D07041E80002DC
:102D2000002AF5D1206850E8020F216820F0010048
:102D300041E80202002AF5D12020C4F88400C4F83A
:102D4000880004F18C0018E0206850E8000F21682A
:102D500020F4D07041E80002002AF5D1206850E844
:102D6000020F216820F0010041E80202002AF5D19B
:102D70002020C4F8840004F1880020210160002094
:102D800084F88000032001B0BDE8F083002001B08A
:102D9000BDE8F083FEE7000080B582B0019040F20C
:102DA0003810C2F2000001A901224FF6FF73FFF7AD
:102DB00087FA019802B080BD94B0FDF7FBFD06AC28
:102DC00020463821FDF76EFA002500200595CDE953
:102DD0000355CDE90155FDF797FE012006904FF40C
:102DE000803007900220032655210D90CDE90E601A
:102DF000CDE91010CDE912002046FEF7EFFC20B11E
:102E0000EFF3108072B600BFFEE70F20CDE9010698
:102E100001A80421CDE903550595FEF7E3FA20B199
:102E2000EFF3108072B600BFFEE7FFF7B9FAFFF7C5
:102E30001BFBFFF777FBFFF737FB00F063FF40B1A9
:102E400040F60000C4F6000004210022FDF798FDC2
:102E50000EE0002000F04CFF042100F083FF40F260
:102E6000CD32C2F2000200204FF4806100F000FB7E
:102E7000FEE700002DE9F04F87B0834600690F465A
:102E800011448142029308D945F22170C0F6000036
:102E900000F042FF4FF0050802E1DBF82C10154668
:102EA0000BF1200A09B150468847002D00F0C08080
:102EB000109840F2C824C2F200040495039000BFA9
:102EC000DBF8246006208DF8150050460DF1150141
:102ED0000122002300250095B047804620B1B8F1BB
:102EE000000F1FD111E000BFDBF8246005208DF832
:102EF000160050460DF11601012205AB0125009583
:102F0000B0478046B8F1000F0CD19DF8140080073F
:102F100008D445F2BD70C0F6000000F0FDFE4FF091
:102F2000020800BFB8F1000F40F08C809BF8391008
:102F30002046022200F8012900294FF004016FF019
:102F4000070208BF032102EBC10200BF27FA02F308
:102F50008370013900F10100A2F10802F6D19BF85B
:102F6000390002990028B7FBF1F04FF0050601FB8C
:102F700000F008BF0426C01B049D01EB00094D456D
:102F800098BFA9460399A0194A46FDF772F9DBF8E4
:102F900024C009EB06025046214600230026009675
:102FA000E047002847D1DBF84060A5EB09054F4416
:102FB000049508E0DBF83C00002818BF8047701E2D
:102FC000002E064618D0DBF8245005208DF8180096
:102FD000504606A901220DF1170301240094A847C9
:102FE000804618B99DF81700C00705D0002EE1D122
:102FF0004FF004080020E3E7B8F1000F03D19DF87B
:103000001700C00705D045F27170C0F6000000F04F
:1030100083FE40F2C824B8F1000FC2F2000411D1BF
:10302000049800280398484403907FF449AF09E0CE
:103030004FF0000806E0804645F24770C0F60000F9
:1030400000F06AFE0420DBF824708DF81A000020DE
:1030500000900DF11A015046012200230126B847C5
:1030600008B1C0B90DE00520DBF824708DF81B0015
:103070000DF11B010DF11903504601220096B847CE
:1030800048B99DF81900800705D545F2DF70C0F6F4
:10309000000000F041FEDBF8301009B150468847CF
:1030A000404607B0BDE8F08F70B58EB092F90100D0
:1030B0001C461678C3B2042B009608D8172626FAA9
:1030C00003F3DB0703D027A353F8200006900191F8
:1030D00092F903101298CBB24FF40056042B0396CA
:1030E00008D8172626FA03F3DB0703D022A353F8E8
:1030F0002110079192F906105379CAB20025042ACB
:1031000002950895049505930A9007D81720D0409A
:10311000C00703D01DA050F82100099040F2A0067E
:10312000C2F200066946304641F288320D95089594
:10313000CDE90B55FDF776FD3046214641F2883248
:10314000FDF79EFE50B1716C45F6B630C0F600003A
:1031500000F0E2FD0120032586F8410028460EB06C
:1031600070BD00BF00000000000100000002000070
:103170000000000000030000000000000004000048
:103180000008000000000000000C0000000000002B
:103190000000000100000002000000000000000329
:1031A0002DE9F0418EB0074600781E46904600900B
:1031B0004FF480700229069011D304296AD3BA789B
:1031C0007878FB78120242EA0040184401904FF4EC
:1031D000005003904FF480600790042504E0002025
:1031E00001250190079003900024B8F1000F02948C
:1031F000089404940D940B940C9422D0481B491B02
:1032000018BFC1004FF08070CDE9090640F2A00060
:103210000591C2F20000694641F28832FDF702FDD5
:10322000D6B340F2A000C2F20000414641F288321B
:10323000FDF726FE90B345F6B6300324C0F6000035
:103240001DE04E1B3046059418BF01200006CDE955
:10325000090640F2A000C2F20000694641F288323D
:10326000FDF7E0FCEEB140F2A0007919C2F20000D7
:1032700041F28832FDF79EFE90B102240BA040F28D
:10328000A005C2F20005696C00F046FD012085F83A
:10329000410006E0032404E0002402E0002400E0F2
:1032A000002420460EB0BDE8F08100BF7173706944
:1032B0002073656E642064617461206661696C6569
:1032C00064282564292100004DF6F000CFF6FF7038
:1032D000013000BFFCD370472DE9F04F85B0C16AC3
:1032E000054600F1200409B12046884706206E6A91
:1032F0008DF80D00002000900DF10D0120460122F7
:1033000000230127B047064608B1C6B90CE00520E6
:103310006E6A8DF80E000DF10E0103AB20460122FE
:103320000097B047064656B99DF80C00800706D4B2
:1033300045F2BD70C0F6000000F0EEFC0226002E43
:103340004CD1A88AC72100078DF8081001D40122AA
:1033500007E048F29400ADF809009A2004228DF8A5
:103360000B006F6A002602A9204600230096B8478A
:1033700010B1064632A02FE02F6C4FF005094FF038
:10338000010B0DF110080DF10F0A07E0E86B0028A2
:1033900018BF8047781E002F074614D06E6A20465B
:1033A0004146012253468DF81090CDF800B0B04749
:1033B000064618B99DF80F00C00704D0002FE5D1CC
:1033C00004260020E7E71EB99DF80F00C00705D0CE
:1033D00045F27170C0F6000000F09EFC04206F6A98
:1033E0008DF81200002000900DF1120120460122FC
:1033F00000234FF00108B84708B1C0B90DE005201F
:103400006F6A8DF813000DF113010DF111032046C1
:103410000122CDF80080B84748B99DF81100800717
:1034200005D545F2DF70C0F6000000F075FC296B91
:1034300009B120468847304605B0BDE8F08F00BF8F
:103440004572726F723A20466C61736820636869D6
:10345000702065726173652053504920636F6D6DF4
:10346000756E6963617465206572726F722E0000FB
:103470002DE9F04F81B00746002016460C4600F0BB
:1034800037FC054644B160424FF0FF3172180131FC
:10349000517042180132F9D128463946224600F0CF
:1034A000F3FA296808B147A010E045F23A50C0F697
:1034B00000003A46234601F065F92846394622467F
:1034C000334600F075FF296828B147A001F05AF98A
:1034D00001B0BDE8F08F45F27C50C0F600003A46DE
:1034E000234601F04FF9284639462246334600F07C
:1034F000E5FC296818B145A001F044F93AE045F22D
:10350000BE50C0F600003A46234601F03BF945F2B2
:103510000D60C0F6000001F0D3FD2CB345F2476A00
:10352000A4F1010B4FF000080FF20C19C0F6000ACD
:1035300002E000BF444517D05FEA087004D107EBF2
:1035400008013BA001F01EF916F80810484601F0EA
:1035500019F9C34508F1010818BF18F00F00E9D1A7
:10356000504601F0ADFDE5E745F24760C0F60000CA
:1035700001F0A6FD00273CB1F05DF9B2884217D1F9
:103580000137BC42F8D12746A7420ED1296845F23F
:103590001A50C0F6000001F0F5F840F60000C4F63D
:1035A000000002210022FDF7EBF901B0BDE8F08F29
:1035B000296845F2D040C0F6000001F0E3F8A742C8
:1035C000F3D1E3E745726173652074686520257364
:1035D00020666C6173682064617461206661696C47
:1035E00065642E0D0A0000005772697465207468C6
:1035F0006520257320666C617368206461746120A6
:103600006661696C65642E0D0A0000005265616494
:103610002074686520257320666C6173682064617E
:103620007461206661696C65642E0D0A00000000FB
:103630005B253038585D20002530325820000000CE
:103640002DE9F04F83B0044600F088FE06460028BE
:1036500047D12069032784F84870F0B1A08AE0B10F
:10366000A069D0B1207FC0B1236953B3A08A40B311
:10367000A06930B3207F20B3217B45F204420020B3
:10368000C0F6000202EBC0073F798F4200F08A804B
:1036900001301228F6D1002186E09F21666A04F1EC
:1036A00020008DF80B100DF10B010DF10703012225
:1036B0000097B047064660B1D1A000F02DFB86B957
:1036C00026E045F2E760C0F6000000F025FB012689
:1036D00007E09DF80700BDF808102073A4F80D104E
:1036E000B6B1B6FA86F0420945F6020145F27260BB
:1036F000C0F60001C0F60000002E08BF0846216891
:1037000084F8382000F008FB304603B0BDE8F08FA5
:10371000204600F05BFC10B3D4E9171200202161B1
:10372000B4F854100123A060012908BF022394F8C3
:103730006410A382A261217704E000BF0130032856
:103740003FF492AF04EBC0018A6E002AF6D0A36961
:103750009342F3D991F86C10A2612177EEE7217BB7
:1037600045F234120020C0F6000204E01830B0F533
:10377000347F3FF479AF13181F798F42F6D15F7908
:10378000667BB742F2D19F79A67BB742EED1105843
:103790009968A060988921611969A082187DA1614A
:1037A000207761E752F8301029B1A2685AB19FA082
:1037B00000F0B2FA0BE045F29670C0F60000194630
:1037C00000F0AAFA03E0A5A01A4600F0A5FA6620C8
:1037D00004F12009676A8DF80700002000900DF1C0
:1037E00007014846012200234FF0010AB847064668
:1037F000002875D1D4F840804FF0050B0DF10B0671
:103800000DF10A0709E0E06B002818BF8047A8F116
:103810000100B8F1000F804615D0656A4846314670
:1038200001223B468DF80BB0CDF800A0A847054615
:1038300018B99DF80A00C00705D0B8F1000FE2D111
:1038400004250020E5E71DB99DF80A00C00705D052
:1038500045F27170C0F6000000F05EFA0DF107004D
:10386000411C9920676A8DF80800002000904846A6
:10387000012200234FF0010AB847064678BB256CA9
:103880004FF0050B0DF10B080DF10A0707E0E06B97
:10389000002818BF8047681E002D054614D0666AB0
:1038A0004846414601223B468DF80BB0CDF800A0BA
:1038B000B047064618B99DF80A00C00704D0002D8D
:1038C000E5D104260020E7E71EB99DF80A00C007ED
:1038D00005D045F27170C0F6000000F01DFA2EB15F
:1038E00045F2C560C0F6000000F016FA002E7FF425
:1038F000F8AEA08A40070FD4207BC2282DD1607B70
:1039000020282AD1A07B162827D12046002100227A
:1039100000F0AEFE064620E05020666A8DF80700F3
:1039200000250DF1070148460122002300950127DB
:10393000B047064650B9666A0DF1070148460222B3
:103940000023ADF807700095B04706462EB145F24A
:10395000A060C0F6000000F0DFF9002E7FF4C1AED9
:103960002069B0F1807F44D90620676A8DF80B008A
:10397000002000900DF10B01484601220023012593
:10398000B847064660B90520676A8DF807000DF153
:1039900007010DF10A03484601220095B847064683
:1039A00056B99DF80A00800706D445F2BD70C0F6EE
:1039B000000000F0B1F90226002E7FF492AEB7208D
:1039C000676A8DF80700002000900DF10701484656
:1039D000012200230125B847064670B145F249602F
:1039E00045F6AE11C0F60000C0F6000100F094F9F3
:1039F00077E6002084F8390073E684F8395070E6E1
:103A00004572726F723A205265616420666C617310
:103A10006820646576696365204A454445432049CA
:103A200044206572726F722E00000000466F756E42
:103A300064206120257320257320666C61736820E3
:103A4000636869702E2053697A6520697320256C3C
:103A5000642062797465732E00000000466F756EF5
:103A600064206120257320666C6173682063686937
:103A7000702E2053697A6520697320256C6420625A
:103A8000797465732E0000002DE9F04F89B004466B
:103A900000690F461144814208D945F22170C0F6F1
:103AA000000000F039F94FF0050806E19246002FBA
:103AB00008BF504500F0CF80E16A04F1200B09B146
:103AC00058468847BAF1000F00F0CA8004F11C0084
:103AD000039004F1180002900DF1170001380190D5
:103AE00094F850000028DDE9021009D0204639463C
:103AF000524600F011FC04EBC00101F1640060319A
:103B0000096890F80090666A062004918DF81D00FF
:103B100058460DF11D010122002300250095B047F4
:103B2000804618B1B8F1000F1CD10FE0666A05207D
:103B30008DF81E0058460DF11E01012207AB01252C
:103B40000095B0478046B8F1000F0BD19DF81C00DE
:103B5000800707D445F2BD70C0F6000000F0DCF825
:103B60004FF00208B8F1000F6ED194F8390004212B
:103B70008DF81790002808BF03216FF00702019B02
:103B800002EBC10227FA02F69E70013903F101032C
:103B9000A2F10802F6D1666A00284FF005025846E5
:103BA0000DF117014FF000034FF0000508BF04228C
:103BB0000095B0474FF0010920B1804641A000F0C8
:103BC000ABF841E0266C07E0E06B002818BF8047A7
:103BD000701E002E064617D0656A05208DF820005D
:103BE000584608A901220DF11F03CDF80090A847FF
:103BF000804618B99DF81F00C00705D0002EE3D1FC
:103C00004FF004080020E4E7B8F1000F03D19DF85D
:103C10001F00C00705D045F27170C0F6000000F02B
:103C20007BF8B8F1000F0FD10499B7FBF1F000FB5E
:103C3000117000B1091A8A4506D90F44AAEB010A8E
:103C4000002018B10EE000BF012058B9BAF1000FF2
:103C50007FF446AF06E02046FFF73EFB80462CE0AF
:103C60004FF000080420676A8DF8220000200090C1
:103C70000DF122015846012200230126B84708B160
:103C8000B8B90CE00520676A8DF823000DF1230117
:103C90000DF12103584601220096B84748B99DF816
:103CA0002100800705D545F2DF70C0F6000000F066
:103CB00033F8216B09B158468847404609B0BDE842
:103CC000F08F00BF4572726F723A20466C61736864
:103CD0002065726173652053504920636F6D6D7567
:103CE0006E6963617465206572726F722E000000E8
:103CF00040F20801C2F20001002818BF0021084666
:103D00007047000080B540F20800C2F200000021B8
:103D10004160FFF795FC80BD83B0B0B581B004462B
:103D200005A80EC005A800900CA000F02BFD40F2E5
:103D3000C815009BC2F2000528464FF48071224648
:103D400000F030FD45F6B130C0F60000294600F025
:103D500019FD01B0BDE8B04003B070475B53465554
:103D6000445D000070B5037B45F2944E4FF0010CAA
:103D70000022C0F6000E02E001320F2A10D01EF819
:103D800022409C42F8D10EEB82046578467BB54216
:103D9000F2D1A578867BB54208BF94F803C0EBE763
:103DA000042920D002290FD0012940F08580016923
:103DB0001322B1F1807F98BF03224FF0200198BFFA
:103DC000182180F8482024E05FEA4C7140F201019C
:103DD000C0F2001122D45FFA8CF302699B0742D42F
:103DE00013238A420DE05FEACC6129D45FFA8CF29A
:103DF0001207016940F20102C0F2001240D41323FD
:103E0000914238BF03234FF0200138BF182180F8BA
:103E100048304FF0000C012301223FE002696FF0AF
:103E200043038A4238BF6FF044034FF0200138BF8C
:103E3000182180F848304FF0040C022302222DE0B4
:103E400001696FF01302B1F1807F98BF6FF0140227
:103E50004FF0200198BF182180F848204FF0060C41
:103E6000042304221AE03C238A424FF020014FF041
:103E7000020238BF3B2338BF182180F848300AE0DF
:103E80006C2391424FF0200138BF6B2338BF1821BB
:103E900080F8483004224FF0080C012380F84A10C3
:103EA000012180F84910002180F84B3080F84C1037
:103EB00080F84DC080F84E20002070BD2DE9F04FF5
:103EC00087B0044600695718874207D945F2217028
:103ED000C0F60000FFF720FF052673E0CDE90213CE
:103EE000E16A04F1200B049209B158468847D4F8DE
:103EF00040904FF005084FF0010A0DF11B070DF13E
:103F00001A0505E004260020B9F1000F814619D0FA
:103F1000666A5846394601222B468DF81B80CDF83B
:103F200000A0B047064618B99DF81A00C00709D08E
:103F3000B9F1000FE6D0E06B002818BF8047A9F167
:103F40000100E1E71EB99DF81A00C00705D045F24F
:103F50007170C0F60000FFF7DFFE7EBB224612F84C
:103F6000480F032822D103208DF8150094F839005A
:103F70000421002808BF03210DF115026FF007038B
:103F8000029E013A03EBC10326FA03F79770013949
:103F900002F10102A3F10803F6D1676A05220028A5
:103FA0000DF11501584608BF042202E0A76A0299E4
:103FB0005846DDE903360096B8470646216B09B13D
:103FC00058468847304607B0BDE8F08F2DE9F041EC
:103FD0008EB004460020CDE9020084F850005A203B
:103FE000CDF83300FF20676A04F120068DF8370012
:103FF00008250DF1330102AB304605220095B84784
:1040000070B1A6A0FFF788FE216845F6CD10C0F676
:104010000000FFF781FE002528460EB0BDE8F081C4
:104020009DF808005328EFD19DF809004628EBD1F0
:104030009DF80A004428E7D19DF80B005028E3D1F1
:104040009DF80D109DF80C20022984F8522084F868
:10405000511006D345F66E20C0F60000FFF75CFE57
:10406000D2E70020CDE902005A20C0F60000CDF8CA
:104070003300FF20676A8DF8370008250DF1330102
:1040800002AB304605220095B84730B18BA0FFF750
:1040900043FE00200028B7D023E09DF80A109DF8C9
:1040A0000E00BDF80C20022942EA004708D39DF813
:1040B000092045F6A620C0F60000FFF72DFE09E016
:1040C0009DF80B10082909D845F63330C0F60000DA
:1040D000FFF722FE0020002896D002E001200028F1
:1040E00092D00DF10808404624212425FCF7DAF887
:1040F0005A208DF83300380C8DF83400380A8DF8CA
:1041000035008DF83670FF20676A8DF837000DF1A5
:1041100033013046052243460095B84738B145F68D
:10412000FC20C0F60000FFF7F7FD002574E79DF8BE
:1041300008009DF8092000F00301012984F85720A8
:1041400003D0032911D1002100E0012184F8561089
:1041500041074FF4807158BF01210207A4F85410A1
:104160000BD4012084F8580010E045F67A30C0F6F0
:104170000000FFF7D1FD00254EE70021C00684F8BE
:1041800058104CBF0620502084F859009DF80A00B2
:10419000C0F34100032806D1002556A0A4F85A50C8
:1041A000FFF7BAFD38E740F20012C00040F20111FB
:1041B000C0F20102C14022FA00F09DF80E209DF8E5
:1041C0000F3084F85A109DF80D10120484F85B002B
:1041D0009DF80C0042EA036242EA01211A060844F3
:1041E00003D4012101EBD00010E020F0004024288E
:1041F00008D345F629200025C0F60000E565FFF745
:104200008BFD09E70338012101FA00F0E065002089
:104210000121002202E0013004280FD008EB400306
:104220001F7F002FF7D0D6B25B7F01FA07F704EBB0
:10423000C6060132376686F86430ECE74FF0000CB2
:1042400004E00CF1010CBCF1040F23D004EBCC0210
:10425000114651F8603F002BF3D0BCF1020FF0D8AB
:1042600002F1640E634602E00133032BE9D004EB54
:10427000C307BE6E002EF7D00D68B542F4D99EF884
:10428000000097F86C200E608EF80020BD6687F85D
:104290006C00E9E7012584F85050BDE64572726F65
:1042A000723A2043616E2774207265616420534620
:1042B0004450206865616465722E00004572726F1B
:1042C000723A2043616E27742072656164204A450A
:1042D00044454320626173696320666C61736820A2
:1042E000706172616D657465722068656164657284
:1042F0002E0000004572726F723A20526561642090
:104300006164647265737320627974657320657289
:10431000726F72210000000080B5D0F860C0B1FB60
:10432000FCF303FB1C130BB1002080BD00F1780CE3
:104330004FF0000E5CF83E30581E904204D2B1FBA4
:10434000F3F000FB131028B11EF10300ECD0AEF126
:10435000010EEFE70EF1030080BD000080B541685B
:1043600009B1002080BD44F23D7143F2A902C0F6BC
:104370000001C0F6000244F2317344F2397C40F28D
:10438000880E00F12407C0F60003C0F6000CC2F24C
:10439000000E87E80E5043F2C92142F2C072C0F607
:1043A0000001C0F20902C0E90F12002080BD000028
:1043B0002DE9F04F89B00446808A9846C3070F461E
:1043C00003D140070ED4002608E0204639464FF4BA
:1043D0008073CDF80080FEF74DFD0646304609B0EB
:1043E000BDE8F08F2069D119814207D945F22170CB
:1043F000C0F60000FFF790FC0526EFE7E16A1546DE
:1044000004F1200B09B158468847F8070FD0204621
:10441000394601220123CDF80080FEF72BFD064628
:10442000002840F0F78008F101080137013D06201F
:10443000666A8DF82300002000900DF12301584694
:10444000012200234FF00109B047064668B9052054
:10445000666A8DF819000DF119010DF12203584615
:104460000122CDF80090B047064656B99DF82200CB
:10447000800706D445F2BD70C0F60000FFF74CFC83
:104480000226002E40F0C680AD202A46022D8DF86F
:104490001900C0F07F800DF11901481E0DF12309AC
:1044A0000DF1220A01230290D807059220D094F83A
:1044B00039C00420BCF1000F08BF03206FF00702D1
:1044C000029B02EBC00200BF27FA02F69E70013881
:1044D00003F10103A2F10802F6D1B8F8002005208B
:1044E000BCF1000F08BF04200A520022049205E02C
:1044F000B8F800000493ADF81A000120666A40F095
:1045000002025846002300250095B04700287AD1C2
:10451000CDF80C80D846D4F840B009E0E06B002814
:1045200018BF8047ABF10100BBF1000F834616D0E6
:10453000666A05208DF8230040464946012253460D
:1045400001250095B047064618B99DF82200C0071E
:1045500005D0BBF1000FE1D104260020E4E71EB92D
:104560009DF82200C00705D045F27170C0F600002A
:10457000FFF7D2FBC346DDF80C80002E4AD1059A26
:10458000049B023A0237012A08F102080DF11901D1
:104590003FF68AAF0420666A8DF822000020154697
:1045A00000900DF122015846012200234FF001092D
:1045B000B047064668B90520666A8DF823000DF1FC
:1045C00023010DF1210358460122CDF80090B04798
:1045D000064656B99DF82100800706D545F2DF70E2
:1045E000C0F60000FFF798FB0226002E08BF012D41
:1045F00010D12046394601220123CDF80080FEF774
:1046000039FC064606E0064645F24770C0F6000053
:10461000FFF782FB26B30420676A8DF82200002092
:1046200000900DF122015846012200230125B847D0
:1046300058B90520676A8DF823000DF123010DF1AB
:104640002103584601220095B84748B99DF821003A
:10465000800705D545F2DF70C0F60000FFF75CFB70
:10466000216B00293FF4BAAE58468847B6E60000F1
:104670002DE9F04383B09146064600F1200469B16C
:104680005020776A8DF8070000250DF107012046BC
:10469000012200230095B84707462BE00620776AE1
:1046A0008DF80A00002000900DF10A012046012239
:1046B00000234FF00108B847074608B1D7B90EE00C
:1046C0000520776A8DF80B000DF10B010DF1090340
:1046D00020460122CDF80080B847074657B99DF81B
:1046E0000900800706D445F2BD70C0F60000FFF750
:1046F00013FB022757B12FB145F2A060C0F60000AE
:10470000FFF70AFB384603B0BDE8F0830120776A63
:104710008DF8070000260DF1070120460222002334
:104720008DF808900096B8470746002FE4D1E9E7D6
:10473000EFF3108072B6704762B67047F0B581B083
:1047400047691E46786814460D4618B1398900221B
:10475000FCF716F92CB1069B1BB1284621463246C0
:1047600004E02CB12846214600220023FEF718FD64
:10477000786818B139890122FCF702F9002001B0EC
:10478000F0BD00000FB4054B10B503A9044A029810
:1047900000F0F4F810BC5DF814FB0000992D00083F
:1047A000000000207CB50C001D461646014601D0D5
:1047B000601E00E00020CDE90010064B6A46294645
:1047C000304600F0DBF8002C02D0009A0021117076
:1047D0007CBD0000AB50000802E008C8121F08C1F1
:1047E000002AFAD170477047002001E001C1121F72
:1047F000002AFBD1704700002DE9FF5F82B0002145
:10480000DDE90430020DDDF840B0034318D044F672
:104810001050A2F2FF3242431514119801281FD004
:10482000A5EB0B00401C5FEA000A4FF000064E4F5C
:10483000DFF83891B046504615D5CAF1000413E0B0
:10484000119801244AA3012801D16FEA0B010298B3
:10485000119AC0E90031C0E9024206B0BDE8F09FFC
:10486000CBF10000DFE704460021404A491842EB43
:104870000450CDE9001012E0E00707D032463B4675
:1048800040464946FBF7F5FD8046894632463B46A1
:1048900010461946FBF7EDFD06460F466410002C46
:1048A000EAD1DDE90401DDE90023BAF1000F06DAFF
:1048B000FBF7DFFD42464B46FBF7DBFD05E0FBF770
:1048C0004AFE42464B46FBF746FE04460E46002291
:1048D000284BFBF7C7FE03D84FF0FF30014607E037
:1048E0000022254B20463146FBF71CFDFBF7A2FEBC
:1048F000102409E0002C0ADB0A220023FBF788FCC5
:10490000039B30321A55641E50EA0102F2D1641C36
:10491000039AC4F111031444119A012A03D001220D
:1049200008430DD10AE0084304D000204FF0110BDA
:10493000119072E7A3EB0B056D1E0DE05B4504DDE6
:104940004FF0000205F1010504E003DA4FF0000228
:10495000A5F10105002AECD002981199C0E90231B5
:10496000C0E9004579E70000000014400000F03F76
:10497000300000000000F0430000E03F2DE9FF4F51
:1049800095B09B468946064600250FE2252877D13B
:1049900000242746F84A0121059400E0044316F854
:1049A000013F203B01FA03F01042F7D130782A286A
:1049B00011D06FF02F033078A0F13002092A16D8F9
:1049C000059A44F0020402EB820203EB4202104417
:1049D000761C0590EFE759F8042B0592002A03DABC
:1049E000504244F40054059044F00204761C3078A0
:1049F0002E2816D116F8010F44F004042A280DD0F1
:104A00006FF02F023078A0F13003092B09D807EBA3
:104A1000870302EB4303C718761CF3E759F8047BBE
:104A2000761C30786C280FD006DC4C2817D068280C
:104A30000DD06A2814D104E0742810D07A280FD140
:104A40000DE044F400140AE044F4801401E044F45E
:104A500040147278824202D104F58014761C761CD0
:104A6000307866280BD013DC582877D009DC002872
:104A700075D04528F6D04628F4D047281AD19DE1B4
:104A800018E0632835D0642879D0652812D195E1E3
:104A9000702873D008DC6728F1D069286FD06E28A1
:104AA0000DD06F2806D1B5E073282CD0752875D0AD
:104AB000782874D05A46179990476D1C75E1C4F355
:104AC0000250022809D003280DD0D9F8001004287C
:104AD0000DD00D6009F1040967E1D9F80010EA175B
:104AE000C1E90052F6E7D9F800100D80F2E70D7029
:104AF000F0E719F8041B8DF8001000208DF8010074
:104B0000EA46012003E059F804AB4FF0FF3061079B
:104B10004FF0000102D40DE008F101018846B942CE
:104B20000FDA8045F8DB1AF808100029F4D108E004
:104B300008F1010188468142FADB1AF808100029C1
:104B4000F6D105985B46A0EB080721463846179A30
:104B500000F094FA284400EB080507E04DE029E155
:104B60000DE01AF8010B5A4617999047B8F1010861
:104B7000F7D25B4621463846179A13E142E00A22F3
:104B80000092C4F302524FF0000A022A08D059F8EA
:104B900004CB032A4FEAEC710AD00DE029E02AE0A9
:104BA00009F1070121F00702F2E802C1914609E08C
:104BB0000FFA8CFC4FEAEC71042A03D14FFA8CFCFB
:104BC0004FEAEC71002907DA0A460021DCF1000CFB
:104BD00061EB02012D2202E0220504D52B228DF883
:104BE0000420012203E0E20701D02022F7E79046EB
:104BF00059E00A2102E010220DE010214FF0000AD6
:104C000000910BE010224FF0000A44F00404082742
:104C1000009203E008224FF0000A0092C4F302520F
:104C2000022A05D059F804CB0021032A08D009E054
:104C300009F1070121F00702F2E802C1914605E0FF
:104C40001FFA8CFC042A01D10CF0FF0C4FF0000875
:104C5000220728D5702806D0009B83F0100353EA62
:104C60000A0305D00EE040228DF80420012208E05E
:104C70005CEA010206D030228DF804208DF8050090
:104C800002229046009B83F0080353EA0A030AD1EC
:104C90005CEA010201D1620705D530228DF80420BB
:104CA0004FF001087F1E582804D034A003900EA8AE
:104CB00002900DE036A0F9E753466046009AFBF7F4
:104CC000A7FA84460398825C0298401E0290027004
:104CD0005CEA0100F0D1029806A9081A00F1200A46
:104CE000600702D524F4803400E00127574502DD37
:104CF000A7EB0A0000E0002000EB0A0100900598F5
:104D00004144401A0590E00306D45B462146179AB9
:104D1000059800F0B3F90544002706E001A85A46BB
:104D2000C05D179990476D1C7F1C4745F6DBE0037B
:104D30000CD55B462146179A059800F09FF905446B
:104D400004E030205A46179990476D1C0099481E80
:104D500000900029F5DC08E0029802995A46007894
:104D6000491C0291179990476D1CBAF10001AAF1F4
:104D7000010AF1DC65E1000009280100303132331D
:104D80003435363738396162636465660000000087
:104D90003031323334353637383941424344454671
:104DA0000000000000F058F90544761C3078002817
:104DB0007FF4ECAD19B02846BDE8F08F620700D44F
:104DC000062709F1070222F0070CFCE80223E1465E
:104DD00003F000485FEA080C02D00FF2702C0DE0DF
:104DE0005FEA045C02D50FF2682C07E05FEAC47C3E
:104DF00002D00FF2602C01E0AFF2700C4FF0FF38E0
:104E000023F00043CDF850C065280CD006DC4528BF
:104E100009D046281DD047283DD13DE0662818D04E
:104E200067287ED138E00021112F01DB112000E03E
:104E3000781CCDE9000106A90EA8FFF7DDFCDDE92D
:104E40000F010E9A03910021009207F1010A0491CB
:104E50004DE04FF000400097CDE9011006A90EA8E3
:104E6000FFF7CAFCDDE90F0203920E9B11990022A5
:104E7000DDF80CA00093049211B9791C00EB010A33
:104E8000B7EB0A0004D4C0F1FF3007F1010A049027
:104E9000AAEB0700019044E0012F00DA012700216E
:104EA000112F01DD112000E03846CDE9000106A9EF
:104EB0000EA8FFF7A1FCDDE90F010E9A0391002176
:104EC00004910092BA4621070CD40399514500DAA7
:104ED0008A46BAF1010F05DD009AAAF10101515C81
:104EE000302908D0B84202DA10F1040F06DA0121A5
:104EF000CDE9011015E0AAF10101E9E7002805DC80
:104F0000049901440491AAEB000102E0411C5145BF
:104F100000DD8A460499401A401C01904FF0004081
:104F20000290200704D40198504501DBCDF804809D
:104F300000208DF84F0002980DF14F07B0F1004F9F
:104F400025D02B200E9002984FF0020800280CDA92
:104F5000404202902D200E9007E00A210298FBF7B4
:104F6000ACF93031029007F8011DB8F10001A8F149
:104F70000108F2DC02980028EFD1791E0E98087023
:104F8000307800F0200040F0450007F8020D12A82C
:104F9000C01B00F107081498007800B1012000EB55
:104FA0000A01019801EBE07105984144401A401E46
:104FB0000590E00306D45B462146179A059800F059
:104FC0005DF805441498007818B15A46179990472F
:104FD0006D1CE00324D55B462146179A059800F026
:104FE0004DF805441CE00498002807DBDDE90301C7
:104FF000884203DD0098405C179901E01799302042
:105000005A469047049805F10105401C0490019808
:10501000401E019004D12E205A46179990476D1CCE
:10502000BAF10001AAF1010ADDDC05E017F8010B75
:105030005A46179990476D1CB8F10001A8F1010874
:10504000F4DC5B462146179A0598ABE62D0000007C
:105050002B000000200000002DE9F041044600254F
:105060001E461746880404D405E039462020B04780
:105070006D1C641EF9D52846BDE8F0812DE9F0418C
:10508000044600251E469046C80301D5302700E09F
:105090002027880404D505E041463846B0476D1CFA
:1050A000641EF9D52846BDE8F0814A68002A06D07A
:1050B0000A68531C0B6010704868401E48607047B7
:1050C00010B5044601E0FDF767FE14F8010B044932
:1050D0000028F8D1BDE810400A20FDF75DBE0000B1
:1050E0000000002000000000000000000102030496
:1050F0000607080900000000010203040100020085
:105100000400060008000A000C0010002000400007
:105110008000000100000000040000000200000008
:105120000800000001010103070100000804020457
:1051300008010101B55800081F26000000002000EA
:105140000A00000000020000810000002859000849
:10515000EF401300000008000100000000100000F4
:1051600020000000F7580008EF301300000008008E
:105170000100000000100000200000001F5900087E
:10518000EF301500000020000100000000100000BA
:10519000200000003A590008EF40150000002000F0
:1051A000010000000010000020000000315900083C
:1051B000EF40160000004000010000000010000059
:1051C000200000004D590008EF401700000080004B
:1051D00001000000001000002000000060590008DD
:1051E000EF601700000080000100000000100000C8
:1051F0002000000043590008EF40180000000001A3
:1052000001000000001000002000000056590008B6
:10521000EF40190000000002010000000010000033
:10522000200000005C580008BF258E000000100020
:105230000600000000100000200000008658000852
:10524000BF25410000002000060000000010000003
:1052500020000000485800082020160000004000F0
:105260000100000000000100D80000003B580008C9
:1052700020201400000010000100000000000100C8
:10528000D80000002C58000820201300000008005F
:105290000100000000000100D8000000685800086C
:1052A0001C3016000000400001000000001000004B
:1052B0002000000071580008C8401700000080005E
:1052C00001000000001000002000000092580008BB
:1052D000C840150000002000010000000010000080
:1052E00020000000A7580008C84016000000400039
:1052F000010000000010000020000000ED58000830
:105300000140150000002000010000000010000016
:10531000200000000C5900080102150000004000A8
:1053200001000000001000002000000033580008B9
:1053300037301400000010000100000000100000D1
:10534000200000004F5800088C20130000000800C7
:105350000600000000100000200000007A5800083D
:10536000BF254100000020000600000000100000E2
:10537000200000009B580008522118000000000186
:10538000010000000010000020000000E0580008AC
:1053900085601300001400000100000000100000F0
:1053A00020000000C05800088560120000001000B6
:1053B000010000000010000020000000C858000894
:1053C00085601100000020000100000000100000B6
:1053D00020000000D0580008856010000000400048
:1053E000010000000010000020000000D858000854
:1053F0008530140000008000010000000010000053
:1054000020000000B459000801000000BC59000849
:1054100004000000085900081C0000008F59000813
:105420001F000000A159000820000000B05800082B
:1054300037000000A85900086200000095590008D4
:1054400089000000165900088C0000009B590008D4
:10545000A100000087590008AD0000001B5900089A
:10546000BF00000071590008C8000000E85800089B
:10547000D500000069590008EF000000C459000879
:10548000C2000000005900085200000057580008F0
:1054900085000000EF401303EF401403EF401503B5
:1054A000EF40161BEF40171FEF40181FEF40191F6A
:1054B0001C301613014015033730140737401717F7
:1054C000C2201603C2201A1FC84017035221181FFA
:1054D0005265616420616E6420636865636B207748
:1054E0007269746520646174612068617320616E03
:1054F000206572726F722E2057726974652074680D
:105500006520257320666C61736820646174612076
:105510006661696C65642E0D0A0054686520257308
:1055200020666C61736820746573742069732073DE
:105530007563636573732E0D0A0045726173652090
:1055400074686520257320666C61736820646174DB
:10555000612066696E6973682E20537461727420CD
:1055600066726F6D203078253038582C2073697A38
:105570006520697320257A752E0D0A0057726974AB
:10558000652074686520257320666C6173682064EB
:105590006174612066696E6973682E20537461724C
:1055A000742066726F6D203078253038582C207347
:1055B000697A6520697320257A752E0D0A00526577
:1055C00061642074686520257320666C61736820AF
:1055D0006461746120737563636573732E20537403
:1055E0006172742066726F6D203078253038582CC7
:1055F0002073697A6520697320257A752E20546896
:105600006520646174612069733A0D0A004F666613
:1056100073657420286829203030203031203032E2
:1056200020303320303420303520303620303720C1
:105630003038203039203041203042203043203073
:10564000442030452030460D004572726F723A207A
:10565000257320342D42797465206164647265730A
:1056600073696E67206D6F6465206661696C65643F
:105670002E004572726F723A20257320666C61733A
:10568000682064657669636520696E697469616C18
:10569000697A6174696F6E206661696C65642E0059
:1056A0004572726F723A2057726974655F737461E4
:1056B00074757320726567697374657220666169B9
:1056C0006C65642E004572726F723A20466C61738D
:1056D0006820646576696365207265736574206609
:1056E00061696C65642E005761726E696E673A205D
:1056F0005468697320666C617368206465766963B9
:1057000065206973206E6F7420666F756E64206FFC
:1057100072206E6F7420737570706F727465642E72
:10572000004572726F723A20466C61736820616442
:105730006472657373206973206F7574206F6620BF
:10574000626F756E642E004572726F723A20466CFD
:105750006173682077726974652053504920636FC4
:105760006D6D756E6963617465206572726F722EFE
:10577000004572726F723A20466C617368207761DF
:10578000697420627573792068617320616E206589
:1057900072726F722E00466F756E64206120666CA7
:1057A00061736820636869702E2053697A65206987
:1057B0007320256C642062797465732E00457272C3
:1057C0006F723A2043616E277420656E61626C656A
:1057D000207772697465207374617475732E004547
:1057E00072726F723A2043616E277420646973612C
:1057F000626C652077726974652073746174757367
:105800002E00257320666C61736820646576696379
:105810006520696E697469616C697A656420737565
:10582000636365737366756C6C792E004D32355009
:105830003430004132354C303830004D323550383C
:1058400030005153504931004D323550333200460B
:1058500032354C3030340050555941005353543296
:105860003556463038304200454E3235513332429B
:105870000047443235513634420050435432355695
:105880004630313642005353543235564630313665
:1058900042004744323551313642004E4D32355187
:1058A0003132384556420047443235513332430095
:1058B000414D49430041543435444231363145006D
:1058C000503235443130480050323544323048008F
:1058D0005032354434304800503235513830480069
:1058E000503235443035480049535349005332351E
:1058F000464C3231364B00573235583430434C0029
:105900004E4F522D4D454D00454F4E0053323546BA
:105910004C303332500045534D54005353540057CC
:1059200032355831364156005732355134304256AF
:1059300000573235513332425600573235513136E5
:1059400042560057323551313238425600573235BF
:1059500051363443560057323551323536465600AB
:1059600057323551363444570057696E626F6E6452
:105970000047696761446576696365005732355150
:105980005F466C617368004879756E6461690041B7
:10599000746D656C00496E74656C00467564616E6B
:1059A000004D6963726F6E0053616E796F00456ED2
:1059B00074657200437970726573730046756A6925
:1059C000747375004D6163726F6E69780057617210
:1059D0006E696E673A2052656164205346445020D8
:1059E000706172616D65746572206865616465726D
:1059F00020696E666F726D6174696F6E2066616991
:105A00006C65642E2054686520257320646F65736F
:105A1000206E6F7420737570706F7274204A4544E5
:105A2000454320534644502E004572726F723A200F
:105A300054686520666C6173682063617061636996
:105A4000747920697320677261746572207468616B
:105A50006E2033322047622F203420474221204ECF
:105A60006F7420537570706F727465642E00457288
:105A7000726F723A2054686973207265766572732A
:105A8000696F6E285625642E256429206F66205381
:105A9000464450206973206E6F7420737570706F68
:105AA000727465642E004572726F723A2054686990
:105AB0007320726576657273696F6E285625642E41
:105AC000256429206F66204A45444543206261735E
:105AD000696320666C61736820706172616D6574C2
