:020000040800F2
:10000000B80F0020250300083B510008554A00089E
:10001000395100081B1E00081D5C0008000000008C
:100020000000000000000000000000002553000850
:10003000DB1F0008000000003D51000827530008A6
:100040003F0300083F0300083F0300083F03000888
:100050003F0300083F0300083F0300083F03000878
:100060003F0300083F0300083F030008FD1E00088F
:10007000091F0008151F0008211F00083F03000882
:100080003F0300083F030008991D00083F030008D4
:100090003F0300083F0300083F0300083F03000838
:1000A0003F0300083F030008A15300083F03000876
:1000B0003F0300083F0300083F0300083F03000818
:1000C0003F0300083F0300083F0300083F03000808
:1000D0003F030008115C00083F0300083F030008CD
:1000E0003F0300083F0300083F0300083F030008E8
:1000F0003F0300083F0300083F0300083F030008D8
:100100003F0300083F0300083F0300083F030008C7
:100110003F0300083F0300083F0300083F030008B7
:100120003F0300083F0300083F0300083F030008A7
:100130003F0300083F0300083F0300083F03000897
:100140003F0300083F0300083F0300083F03000887
:100150003F0300083F0300083F0300083F03000877
:100160003F0300083F0300083F0300083F03000867
:100170003F0300083F0300083F0300083F03000857
:100180003F0300083F0300083F0300083F03000847
:100190003F030008000000003F0300083F03000881
:1001A0003F0300083F0300083F0300083F03000827
:1001B0003F0300083F0300083F0300083F03000817
:1001C0003F0300083F0300083F0300083F03000807
:1001D0003F0300083F03000800F002F800F092F827
:1001E0000AA090E8000C82448344AAF10107DA4592
:1001F00001D100F087F8AFF2090EBAE80F0013F052
:10020000010F18BFFB1A43F00103184730640000C8
:1002100050640000103A24BF78C878C1FAD8520759
:1002200024BF30C830C144BF04680C607047000070
:100230000023002400250026103A28BF78C1FBD8EF
:10024000520728BF30C148BF0B6070476E2900F0CD
:100250002582702900F06F83662905F0588565298D
:1002600005F05585672905F05285612905F051850E
:1002700003681B0A28BF41F08001692900F0D28180
:10028000642900F0CF81752900F0CC816F2900F03E
:10029000FD82782900F03B83E92900F09782E42968
:1002A00000F09482F52900F09182EF2900F0FA82A3
:1002B000F82900F03A830368DB0928BF41F0800188
:1002C000632901F03B80732901F04080E32901F0AC
:1002D0004B80F32901F05080002070471FB505F0D6
:1002E00011FD01F09FF804000020002105F0F4FC4E
:1002F000401C60600020002105F0D8FCE0601FBDBC
:1003000010B510BD01F060F81146FFF7E7FF05F0EA
:10031000B5FC01F039F903B4FFF7F2FF03BC01F0BB
:1003200079F900000948804709480047FEE7FEE7E1
:10033000FEE7FEE7FEE7FEE7FEE7FEE7FEE7FEE795
:1003400004480549054A064B7047000091530008D0
:10035000D9010008B8090020B80F0020B80B002010
:10036000B80B002053EA020C00F069802DE9F04B35
:100370004FF00006002B1FBFB3FA83F503FA05F414
:1003800024FA05F65E4012BF1643B2FA82F502FA6D
:1003900005F4C5F120051EBF22FA05FC44EA0C0451
:1003A000203556EA044C4FEA144418BF641C4FF041
:1003B00000084FF00009904271EB030C39D300297B
:1003C00019BFB1FA81F701FA07F6B0FA80F700FA1F
:1003D00007F6C7F120071EBF20FA07FC46EA0C0605
:1003E0002037B6FBF4FCA7EB0507103F07F01F0B07
:1003F000CBF120060CFA0BFB2CFA06F644BFB346F1
:100400000026202FA4BF5E464FF0000B5BEA060CCF
:1004100008BF4FF0010B19EB0B09ABFB027C48EB5B
:100420000608C01B06FB02CC0BFB03CC71EB0C01D6
:10043000C1E70B46024641464846BDE8F08B13B57E
:100440004FF000004FF00001AFF30080BDE81C400A
:10045000704700007CB51D4616460C00009001D088
:100460002044401E074B7B442A4669460190304693
:1004700000F02DF905461CB10020694600F03AF95C
:1004800028467CBD9502000010B5431C02E010F820
:10049000011B71B18107FAD14FF0013202C88C1AE9
:1004A0008C4314EAC211F9D0C01A0A0603D0C01E48
:1004B00010BDC01A10BD0A0401D0801E10BD090273
:1004C000FCD0401E10BD4FF000020429C0F0128085
:1004D00010F0030C00F01B80CCF1040CBCF1020FF7
:1004E00018BF00F8012BA8BF20F8022BA1EB0C01CC
:1004F00000F00DB85FEAC17C24BF00F8012B00F8C2
:10050000012B48BF00F8012B70474FF0000200B5E7
:10051000134694469646203922BFA0E80C50A0E826
:100520000C50B1F12001BFF4F7AF090728BFA0E8D4
:100530000C5048BF0CC05DF804EB890028BF40F8A0
:10054000042B08BF704748BF20F8022B11F0804FE2
:1005500018BF00F8012B704770477047704770B59F
:10056000044685690068C10601D5302600E02026D2
:10057000C00707D070BDD4E9012130469047206AFA
:10058000401C20626D1EF6D570BD70B504468569AD
:100590000078C00707D170BDD4E901212020904721
:1005A000206A401C20626D1EF6D570BD09684A05A0
:1005B00001D540B27047C905FCD500B27047096843
:1005C0004A0501D5C0B27047C905FCD580B2704755
:1005D00070B50C460546012A05D02878800600D55E
:1005E000EA69002302E0012305E05B1C934202D28A
:1005F000E05C0028F9D1A869E618C01AA861286A49
:10060000184428622846FFF7AAFF04E0D5E9012133
:1006100014F8010B9047B442F8D32846FFF7B5FF12
:1006200070BD00002DE9F0410646002410687529D0
:10063000314616A510D0FFF7B9FF002802DA404274
:1006400013A507E031688A0701D512A502E0490722
:1006500004D511A5012401E0FFF7B1FF00210A2212
:1006600006F1240709E0B0FBF2FCB0FBF2F302FB59
:100670001C00303078541846491C0028F3D123461A
:100680002A463046BDE8F04100F069BA000000009B
:100690002D0000002B0000002000000011680268FF
:1006A000006A530501D508700AE0D30501D508801A
:1006B00006E0130603D5C217C1E9000200E0086096
:1006C0000120704701694A1C02610878704700B533
:1006D0008FB0CDE901310021059105497944CDE97B
:1006E00003101146684600F031F90FB000BD00005C
:1006F000E5FFFFFF0A6802F8010B0A607047D1E9C5
:1007000000239A4202D2531C0B6010707047000005
:100710002DE9FF5F15468A460446DFF8AC80F844B1
:100720000027D8E900103E46CDE9001010E03AF865
:1007300016106A4602A800F023FE411C07D021785B
:10074000890603D5E269391891420DD80744761C11
:100750002078800602D5E069B84205DDAE42E6DBCE
:100760003AF816000028E2D1A069C01BA06120461B
:10077000FFF7F5FED8E90010CDE90010002017E0E2
:100780003AF818106A4602A800F0FAFDB0F1FF3FEF
:1007900081460BD000250DF1080B05E0D4E90121BD
:1007A0001BF8050090476D1C4D45F7D308F101007B
:1007B000B0428046E4DB206A384420622046FFF7DE
:1007C000E4FEBDE8FF9F0000025E00002DE9F0415D
:1007D0008046D21D22F007020025D2E90002F52949
:1007E00015A614D0011E72F1000106DA0023D0EB29
:1007F000030063EB020211A608E0D8F800108B0793
:1008000001D50FA602E0490701D50EA60125114624
:10081000002408F1240704E000F05CF930323A5576
:10082000641C50EA0102F7D12B463246214640466D
:10083000BDE8F04100F093B9000000002D00000079
:100840002B0000002000000030B4002100F124043F
:1008500008E002F00705D208303542EA4372DB08AF
:100860006554491C52EA0305F3D10468002310A221
:10087000250708D504F020040C4304D0C4690123E3
:100880000CA2641EC46130BC00F069B910B5044606
:1008900021461068FFF793FE02462046BDE810404F
:1008A0000023D1E7D21D22F00701D1E90023CBE7D5
:1008B0000000000030000000F0B40D46018809057A
:1008C00002D5214C7C4402E01F4C7C440E340021B4
:1008D00000F1240608E002F00F071209E75D42EA82
:1008E00003721B097754491C52EA0307F3D10278BB
:1008F0000023120704D5702D06D009B1022311344C
:100900002246F0BC00F02BB901231034F8E770B593
:1009100004460D4621461068FFF751FE024629465F
:100920002046BDE870400023C6E7D21D22F0070331
:10093000D3E90023C0E70368126843F02003036093
:100940000823C3610023B7E7645C00002DE9F05F72
:10095000894604464FF0000ADFF874B1FB44C0F842
:1009600020A02046E1688847002874D0252806D0BA
:10097000D4E901219047206A401C2062F1E700265B
:100980005F462046E16888472028054607DB312D71
:1009900005D2781910F8200C08B10643F1E7B0072A
:1009A00001D526F00406C4F81CA00027C4F818A03E
:1009B0002A2D09D0284605F05AF938B304EB8708E8
:1009C000303DC8F8185019E059F8041B204604EBD4
:1009D00087029161E1688847012F054618D1E069D7
:1009E000002820DA26F020061DE0D8F8180000EBD9
:1009F000800005EB40003038C8F818002046E16858
:100A00008847054605F033F90028EED1012F0AD0BA
:100A10002E2D08D12046E16888477F1C0546022F0D
:100A200046F02006C4DBA069002803DA404246F005
:100A30000106A061F00701D026F010066C2D0BD046
:100A4000682D09D04C2D39D06A2D35D0742D35D074
:100A50007A2D33D016E038E0E1682F4620468847EB
:100A6000B842054609D16C2F26D04FF48060E1686A
:100A7000064320468847054604E06C2F1AD04FF401
:100A8000807006430DB3A5F14100192802D8203526
:100A900046F400664A462946204626604E46FFF741
:100AA000D5FB80B101280BD0F61D26F0070000F120
:100AB000080956E74020E4E78020D8E70020D6E781
:100AC00006F104094DE7284652E7206ABDE8F09F89
:100AD000F45B000030B5B0F10A024FEA900E71F1FC
:100AE00000034EEA817EB0EB0E0061EB91014FEA0C
:100AF000101E4EEA017E10EB0E0041EB11114FEA81
:100B0000102E4EEA016E10EB0E0041EB11214FEA60
:100B1000104E4EEA014E10EB0E0041EB1141401811
:100B200041F100014FEAD00040EA41704FEAD101A3
:100B300010EB80054FEA810444EA907444EB010411
:100B40006D1944EB0404521BA3414FF0000348BF4E
:100B50000A3200D530BD401C41F1000130BD2DE905
:100B6000F0470D4699469246044600F12408016874
:100B7000880604D5E06921F01001216000E0012021
:100B8000A84201DD471B00E00027A1697A1902EBAA
:100B90000900081AA0612078C00602D42046FFF799
:100BA000DEFC002608E0D4E901211AF8060090478F
:100BB000206A401C761C20624E45F4DB2078C0067B
:100BC0000AD52046FFF7CBFC06E0D4E9012130200E
:100BD0009047206A401C2062381EA7F10107F4DC10
:100BE00007E0D4E9012118F805009047206A401C6D
:100BF0002062281EA5F10105F3DC2046FFF7C5FCA5
:100C00002078000602D50220BDE8F0870120FBE72E
:100C100070472DE9FF4F0C461E464FF0FF378BB053
:100C2000D2E90001DDF860800A908A46C1F30A55D6
:100C300005B93D46002108464FF00000BAF1000F0B
:100C400000F4400005DA00EB80004FF4400101EAB7
:100C500050004FEA9059B9F1010F00DDB9460A98EA
:100C600050EA4A000ED044F61050A5F2FF35454335
:100C70002F14B8F1000F1ED07542291E1EDDC9F1D8
:100C800000021CE0B8F1010F4FF0000001D030214C
:100C900003E0F24305E02154401CB042FBDB304648
:100CA0000022002121540B99C1F80880C1E90020DD
:100CB0000FB0BDE8F08FBD1B6D1CDEE74A4600DAC1
:100CC000694206A800F0F2FB06AB93E8070003AB0D
:100CD00083E8070050460A9900F0A3FC8DE807005E
:100CE000A0F500501F3800900398002D09DD42F256
:100CF0001F014A46084403A90390684600F002FF1A
:100D000008E0A0F500504A461F3803A90390684642
:100D100000F00CFF8DE807000004000C03D04FF03A
:100D2000FF30410800E01046B8F1000F03D0002268
:100D3000009215461EE0751E05D4FFF7CBFE30323B
:100D400062556D1EF9D5B3460122084302D0002238
:100D50007F1C04E02078302801D100227F1E002A69
:100D6000099786D01DE0112D07DAFFF7B3FE303268
:100D700062556D1C50EA0102F5D1084302D000987B
:100D8000C8B10EE00021681E05E0235C625C63547C
:100D90002254401E491C8142F7DBAB46A81B401E73
:100DA0000990002004F80B000B98099AC0F80880FD
:100DB000C0E9002B7CE711264FF0000859E72DE928
:100DC000F04F88460446D21D22F0070191B0D1E9C8
:100DD0000001CDE90A0104F022FF02460B98C00F82
:100DE00001D02D2007E02068810701D52B2002E0EB
:100DF000202101EAC000032A099001D0072A05DB5F
:100E000003464146204600F011FB0BE120788006A6
:100E100001D5E06900E00620B8F1650F814606D0F3
:100E2000B8F1660F18D0B8F1670F70D131E000202B
:100E3000B9F1110F009001DB112301E009F1010369
:100E40000AAA01A90CA8FFF7E4FEDDE90C70002650
:100E500009F10105834647E001204B4600904FF021
:100E600000470AAA01A90CA8FFF7D3FEDDE90DB0DF
:100E70000C995D46002610B909F101000D18B9EB77
:100E8000050003D4C0F1FF3609F10105A5EB090007
:100E90002BE0B9F1010F01DA4FF001090020B9F19F
:100EA000110F0090484601DD112300E003460AAA15
:100EB00001A90CA8FFF7ADFEDDE90C704D46002638
:100EC0008346207800070AD4AB4500DA5D4601A8C6
:100ED000012D04DD411911F8011C302907D04F45BF
:100EE00002DA17F1040F04DA012082460FE06D1ECA
:100EF000EEE7002F02DCED1B3E4403E0781CA84225
:100F000000DD7D1CB81B00F1010A4FF0004720787E
:100F1000000703D4AA4501DB4FF0FF3A0021B7F1E7
:100F2000004F0DF143088DF8431024D002202B23ED
:100F3000002F01DA7F422D230A21021EA0F10100B9
:100F400000DC5FB197FBF1FC97FBF1F201FB1C7C2D
:100F500017460CF1300C08F801CDEEE7A8F10100BE
:100F600003702188090501D5452100E06521A0F124
:100F7000010800F8011C09980FA9A1EB0807FF1D43
:100F800000B10120411901EBEA70A1693844081A47
:100F9000401EA0612078C00602D42046FFF7DFFA89
:100FA000099828B1D4E901219047206A401C2062A9
:100FB0002078C00622D52046FFF7D1FA1EE0002E89
:100FC00004DBB34502DD01A8805D00E03020D4E9F8
:100FD00001219047206A401C2062761CAAF1010082
:100FE0005FEA000A0AD100F01DFAC0680168405C9F
:100FF000D4E901219047206A401C2062281EA5F1F7
:101000000105DCDC07E0D4E9012118F8010B904769
:10101000206A401C2062381EA7F10107F3DC20463D
:10102000FFF7B3FA032011B043E600002DE9F04FBB
:1010300004460D46D21D22F0070089B0D0E9009287
:1010400048461746394604F0EAFD0246F80F01D03B
:101050002D2307E02068810701D52B2302E0202102
:1010600001EAC0038DF820300BB1012000E0002020
:10107000032A824601D0072A04DB2946204600F0D5
:10108000D5F93DE12078800601D40D2500E0E56921
:10109000C7F30A560D2D49DA00214FEA175B0846BF
:1010A0004FF00000002F00F4400007DA00EB800052
:1010B0004FF4400100EBD07001EA60008115012976
:1010C00001DD4FF0FF3100224FEA850CBCF1180F13
:1010D00006D31346ACF118004FF08052C24003E033
:1010E0004FF4801323FA0CF30CF10C0CBCF1200F1D
:1010F00004D3ACF1200C09FA0CF001E007FA0CF073
:1011000000294FF0004801DD18B90FE00ED140452D
:101110000CD319EB02095F4121B9404502D19F432D
:1011200029EA0209BBEB175F00D0761C2088000576
:1011300002D57B48784402E079487844193808AAF7
:10114000302302F80A30037C0AF10101002E0AF173
:10115000020A53546A4602DC4FF0300101E04FF0BE
:1011600031014FF001088DF8001002D0A6F2FF36D1
:1011700003E059EA470100D06A4E002D02DC2178D5
:10118000090704D54FF002082E218DF80110C4463E
:1011900000210BE0C7F303433F01C35C491C6D1EF4
:1011A00002F80830052908F1010801DA002DF1DC08
:1011B00000210CE000EB1973491C1B786D1E0829F7
:1011C00002F808304FEA091908F1010801DA002D88
:1011D000F0DC2178890602D514E0A8F10108E04589
:1011E00005DD02EB080111F8011C3029F5D0B8F13A
:1011F000000F07DD02EB080111F8011C2E2901D1B7
:10120000A8F10108002D05DD3E2102F808106D1E31
:1012100008F10108407C002E02F8080008F10108DE
:1012200004DA2D20764202F8080002E02B2002F8B2
:1012300008000A214FF47A70864208F101080BDB9E
:1012400096FBF0F3303302F8083096FBF0F308F128
:10125000010800FB136601E0642E0CDB642096FBA2
:10126000F0F3303302F8083096FBF0F308F1010890
:1012700000FB136601E00A2E06DB96FBF1F030302E
:1012800002F8080008F1010896FBF1F001FB10607C
:10129000303002F80800A16908F1010808EB0502E6
:1012A00002EB0A00081AA0612078C00602D420468A
:1012B000FFF755F9216A08AE01EB0A00206204E04D
:1012C000D4E9012116F8010B9047BAF1010AF7D2CF
:1012D0002078C00602D52046FFF741F96E4609E0A6
:1012E00016F8010B3E280FD0D4E901219047206A5F
:1012F000401C2062B8F10108F2D22046FFF745F900
:1013000009B00320BDE8F08F206A2844206203E082
:10131000D4E90121302090476D1EEBD3F8E700009F
:101320004054000002FCFFFF10B5436913B1AFF356
:10133000008001E0FFF74CF9012010BD127800F1A8
:1013400024010A7000224A700122EDE711684FF073
:10135000FF32E9E710B5436913B1AFF3008001E054
:10136000FFF7D6F9012010BD128800F12401828414
:101370000022C2840122EDE711684FF0FF32E9E755
:1013800070B516460C46054600F044F8036893F81D
:101390000101012806D0FF2C0FD8185D68B101208B
:1013A0002C7070BDD3F807013246214603F20713B3
:1013B00003442846BDE8704018474FF0FF3070BD29
:1013C00000487047580900207546FFF7F9FFAE4600
:1013D00005006946534620F00700854618B020B541
:1013E000FEF7AEFFBDE820404FF000064FF00007CB
:1013F0004FF000084FF0000B21F00701AC46ACE8BD
:10140000C009ACE8C009ACE8C009ACE8C0098D4629
:101410007047000010B500F005F8001D10BD00BFBA
:10142000B948000000487047780900202DE9F041D4
:101430001F46044603260168072A01F4006004DB06
:1014400008B116A505E016A503E008B115A500E052
:1014500015A521F010002060A069C01EA0610FB189
:10146000401EA0612046FFF77AF84FB1D4E9012170
:1014700038469047206A401C2062C01C206206E06B
:10148000206AFAE7D4E9012115F8010B9047761E8E
:10149000F8D22046FFF779F8BDE8F0814E414E00C2
:1014A0006E616E00494E4600696E66002DE9F04798
:1014B000814616468AB0334878440DC88DE80D0041
:1014C00030487844801C03AC0DC884E80D0041F618
:1014D0009B300844372190FBF1F290FBF1F5A5F128
:1014E000800501FB12041B3C02D56442012000E090
:1014F0000020DFF890A080460027FA44AAF1BE0A37
:101500000DE0E00709D03246684607EB47010AEBD9
:10151000810100F00BFB8DE8070064107F1C002C9C
:10152000EFD1184F7F44AC3F18E0E80714D007EB29
:1015300004100DF1180A90E80E008AE80E00C06849
:10154000F04201D198190890324606A903A800F08C
:10155000EDFA03AB83E807006D10641C002DE4D1A5
:1015600032466946B8F1000F03A802D000F0CAFA6B
:1015700001E000F0DBFAC9E90001C9F808200AB06F
:10158000BDE8F0874C5100000446AFF300802046D0
:10159000FEF7C1FE4FF0013C50F8042B51F8043B1C
:1015A0009A4221D1A2EB0C03934313EACC1317D137
:1015B00050F8042B51F8043B9A4215D1A2EB0C03CE
:1015C000934313EACC130BD150F8042B51F8043B8E
:1015D0009A4209D1A2EB0C03934313EACC13DBD05C
:1015E0004FF00000704700BFD01A01BAB1FA81F184
:1015F00001F0180122FA01F0CB40C1F12001DBB269
:10160000C0B2C01A2CFA01F3D11A914311EAC311E6
:10161000E6D1704701491820ABBEFEE72600020064
:1016200070475FEA400C08BF91F0000F4FEA8C232F
:101630004FEAC12243EA51514FEA1C5018BF00F54E
:10164000F0404FEA300018BF41F000415FEA6C5CA7
:1016500000F02980BCF1FF3F08BF40F08040704798
:10166000130C06BF12044FF0100C4FF0000C130EB9
:1016700004BF12020CF1080C130F04BF12010CF18D
:10168000040C930F04BF92000CF1020CD30F04BFA3
:1016900052000CF1010C11464FF00002A0F11F00A6
:1016A000A0EB0C00704711F0004F08BF704731F0FD
:1016B00000413FF4D5AF0B0C06BF09044FF0100CEE
:1016C0004FF0000C0B0E04BF09020CF1080C0B0FBD
:1016D00004BF09010CF1040C8B0F04BF89000CF14D
:1016E000020CCB0F04BF49000CF1010CCCF120031C
:1016F000A0EB0C0022FA03F302FA0CF241EA030118
:1017000000F10100704720F07F4C80EA030023F0D5
:101710007F47ACEB070303F57C5300F0004003F177
:10172000FF032DE980494FEA154B09B44FEA1443F2
:1017300025EA0B4E24EA03480FF2042606EB132792
:1017400049083E785FEA320203FB0667C7F50007E7
:1017500007FB06F64FEA54374FEAD64606F1020673
:1017600007FB066CCCF1005C4FEA1C472CEA074CE7
:1017700007FB06F40CFB06F504EB15464FEA96163C
:1017800034BF00204FF000404FEAD13706FB07FC82
:101790004FEA1C4C0CFB0BF7D21B03FB0CF761EB65
:1017A00007010CFB0EF7B0EB074072EB17420CFB86
:1017B00008F734BFA2EB0742B2EB074261EB1741D7
:1017C0004FEA0C444FEA910706FB07FC4FEA1C4C1A
:1017D0000CFB0BF7B0EBC74072EB573203FB0CF777
:1017E00034BFA2EBC742B2EBC74261EB57310CFBEF
:1017F0000EF7B0EBC70072EB57720CFB08F734BF63
:10180000A2EBC702B2EBC70261EB5771039F4FEA2D
:10181000816141EA921104EBCC044FEAD1374FEADF
:10182000826206FB07FC42EA90124FEA80604FEAB0
:101830001C4C0CFB0BF7D21B03FB0CF761EB0701F5
:101840000CFB0EF7B0EB074072EB17420CFB08F7EE
:1018500034BFA2EB0742B2EB074261EB17414FEAFC
:101860008C554FEA910704EB9C2406FB07FC4FEADA
:101870001C4C0CFB0BF7B0EBC74072EB573203FB71
:101880000CF734BFA2EBC742B2EBC74261EB573152
:101890000CFB0EF7B0EBC70072EB57720CFB08F7AE
:1018A00034BFA2EBC702B2EBC70261EB577115EB75
:1018B0004C254FEA816141EA92114FEA82624FEA78
:1018C000D13742EA901206FB07FC44F100044FEACC
:1018D00080604FEA1C4C0CFB0BF7D21B03FB0CF790
:1018E00061EB07010CFB0EF7B0EB074072EB174200
:1018F0000CFB08F734BFA2EB0742B2EB074261EBE7
:10190000174115EB1C154FEA813141EA92414FEA2C
:10191000823242EA90424FEA80304FEA0C7644F13C
:10192000000448EA03434EEA0B484FF0000EB2EBC6
:10193000080C71EB030724BF624639464EEB0E0ECE
:101940004FF0000B0018524149414BEB0B0BB2EB2F
:10195000080C71EB03077BF1000B24BF624639468C
:101960004EEB0E0E4FF0000B0018524149414BEB6D
:101970000B0BB2EB080C71EB03077BF1000B24BFE0
:10198000624639464EEB0E0E51EA020718BF46F08A
:10199000010616EB0E7655F1000254F1000103D555
:1019A000BDE88901BDE80088BDE88901BDE80048BF
:1019B000B619524141EB0101A3F101037047808048
:1019C0007F7E7D7C7B7A7978777676757473727199
:1019D00071706F6E6E6D6C6C6B6A6A696868676651
:1019E00066656464636362616160605F5F5E5E5DE3
:1019F0005D5C5C5B5B5A5A59595858575756565557
:101A000055555454535352525251515050504F4FB8
:101A10004F4E4E4D4D4D4C4C4C4B4B4B4A4A4A4908
:101A2000494948484847474747464646454545444B
:101A30004444444343434342424242414141002BD8
:101A400026D4770021D01CB54FEA370703B44FF0F6
:101A500010004FF010014FF000000FBCBDE8104027
:101A60000BF1010BBBF1010F08BF5FEA170722BFA3
:101A700012F1010211F101014FF0004143F10003A5
:101A800000F0004043EA00007047F9D35708DAE756
:101A900046EA064613F1400F4FEA16461FDD13F1E2
:101AA000200FDFBF16430A46002120335B42C8D017
:101AB000C3F1200746EA064602FA07F74FEA164640
:101AC00046EA0706C3F1200722FA03F201FA07F7F4
:101AD00021FA03F14FF0000342EA0702B1E746EAB8
:101AE000020646EA06464FEA164646EA0106BCBF2B
:101AF00046EA0646360C4FF000034FF000024FF066
:101B000000019EE72DE9C048934630B491E83800C3
:101B100007C831EA400C48BF34EA430C03D5FFF74D
:101B2000F2FDFFF78CFFF0BCBDE800882DE9C0484E
:101B3000934630B491E8380007C810F0804F08BFD2
:101B400013F0804F03D100F005F8FFF778FFF0BCE9
:101B5000BDE8008820F07F4780EA030023F07F4C37
:101B600007EB0C03A3F57C5300F00040A3F1FE0348
:101B700092F0000F00F0B38095F0000F00F0778036
:101B80002DE901494FEA11404FEA144621EA004885
:101B900000FB06FC24EA064708FB06F607FB08F8EC
:101BA00000FB07F718EB06484CEB164C4FEA124BBC
:101BB00018EB07484FEA15464CEB174022EA0B4E4C
:101BC0000BFB06FC25EA06470EFB06F607FB0EFE9E
:101BD0000BFB07F71EEB064E4CEB164C4FF00006C6
:101BE0001EEB074E4CEB174B18EB0B0840F10000B7
:101BF00018EB0E0B58EB000840F100008F1A4FF065
:101C000000013CBFC943661B14BFB5EB040C0021A7
:101C10003CBFC943F61B4FEA17444EEA8E0E27EA33
:101C200004454FEA1C4704FB07622CEA074C05FBFE
:101C300007F70CFB05F604FB0CFC16EB074642EB22
:101C4000174216EB0C4642EB1C421BEB060658EB08
:101C50000202414146EA9E0601D5BDE80189B61956
:101C6000524141EB0101A3F10103BDE801894FEAB3
:101C700014454FEA114724EA054621EA074C05FBC3
:101C800007F406FB07F70CFB06F105FB0CFC11EB58
:101C9000074144EB17444FEA124711EB0C4144EB68
:101CA0001C4422EA074C05FB07F206FB07F70CFB76
:101CB00006F605FB0CFC16EB074642EB174216EB4B
:101CC0000C4642EB1C456A1854F1000148BF7047AE
:101CD000B619524141EB0101A3F10103704795F0A0
:101CE000000F37D04FEA11424FEA144721EA02466B
:101CF00024EA074C02FB07F106FB07F70CFB06F48E
:101D000002FB0CFC14EB074441EB17414FEA15476B
:101D100014EB0C4441EB1C4125EA074C02FB07F590
:101D200006FB07F70CFB06F602FB0CFC16EB07465E
:101D300045EB174516EB0C4645EB1C42121951F1C9
:101D4000000148BF7047B619524141EB0101A3F1B0
:101D5000010370474FEA14454FEA114724EA05464C
:101D600021EA074C05FB07F106FB07F70CFB06F21F
:101D70004FF0000605FB0CFC12EB074241EB17414C
:101D800012EB0C4251EB1C4148BF7047921841EBDB
:101D90000101A3F10103704710B5044800F01CFCD9
:101DA000BDE81040024800F017BC000070000020A1
:101DB000DC00002010B5044680688021FEF783FB1C
:101DC0007F22A168206802F02BFB2068D0F88000F9
:101DD0000068016821F00401016010BD0FB410B566
:101DE0000446D0F8000004ABD0F888102029FBD1BD
:101DF000C16F91F825100129F6D160688021039AFE
:101E0000FEF728FB6068FEF73FFB82B2D4E90001D1
:101E100002F0D6FD10BC5DF814FBFEE770B50122A0
:101E20001D4C95022946204601F0A1F900222946C1
:101E3000204601F09CF9052001F068F8AD10002261
:101E40002946204601F093F9012000F027F8D02020
:101E500000F024F8002000F021F8002000F01EF827
:101E6000022000F01BF8202000F018F8002000F0FD
:101E700015F8062000F012F8002000F00FF81320EB
:101E800000F00CF8FF2000F009F829462046BDE8D4
:101E90007040012201F06BB9001000482DE9F047B5
:101EA000154D074600244FF080084FF400694FF4A9
:101EB000007600BF28FA04F23A404946284601F06D
:101EC00056F901223146284601F051F900223146E7
:101ED000284601F04CF9641CE4B2082CEAD3012234
:101EE0008021284601F043F92846BDE8F04700224A
:101EF000802101F03CB9000000100048014800F0CA
:101F0000FFBE000098030020014800F0F9BE000069
:101F1000F8030020014800F0F3BE0000A8010020F3
:101F2000014800F0EDBE00004801002010B5016836
:101F30000E4CCAB21423083AA14203D2B2FBF3F208
:101F40000B4904E0B2FBF3F2094920310832436C3B
:101F500002F01F0223F00303194481640449803115
:101F6000C16401219140016510BD000008040240D8
:101F7000000802400179084A01F07F0102EB81026A
:101F80004265054A4432491E826501F01F02012163
:101F90009140C16570470000FC08024030B5D0E9AF
:101FA00013456560446D14B1D0E91645656090F83D
:101FB000444004F01F050124AC40056C6C600468CB
:101FC00063608368102B036803D099600068C26067
:101FD00030BD9A600068C16030BD704772B6FEE7E0
:101FE0007047704770477047704700002DE9F04F09
:101FF000044690F858009BB00F464FF0000B0128A4
:1020000012D0012084F858000026179618962068F0
:102010004FF0A048DFF81891DFF818A1464D404571
:1020200006D12846009508E002201BB0BDE8F08FDD
:10203000484515D15046CDF800A002F06FFE009043
:10204000206802F06BFE0099084311D0E06D40F06B
:102050002000E0654FF0010B84F858605846E4E733
:10206000E06D40F02000E06584F858600120DCE776
:1020700020684146884201D0A84201D12F4800E0A3
:102080002F48D7F800C02F4B40F61F72BCF1000F4D
:102090002DD0D0F808C094F838802CF4604C4CEA6D
:1020A000483CD7F804804CEA080CC0F808C0D4F8C3
:1020B00000C08C4501D0AC4504D18968AB6801F003
:1020C000010109E0D9F80810DAF8085001F001011F
:1020D00005F001059B68294303F001031943BBD1B7
:1020E000BB68396819438368934319431DE08768C7
:1020F00027F46047876027688F4201D0AF4204D140
:102100008968AB6801F0010109E0D9F80810DAF834
:10211000085001F0010105F001059B68294303F017
:102120000103194398D181689143816094E70000CD
:102130000004005000050050000100500003005052
:1021400000070050000600502DE9F84F0027044614
:10215000009790F85800DFF814840D46B94601281E
:1021600011D0012684F85860206802F0D3FD60B1D8
:10217000E06D40F02000E0655FF0010784F85890C2
:102180003846BDE8F88F0220FBE7D5E900210C2393
:10219000206803EA91131844036B01F01F014FF00C
:1021A0001F0C0CFA01FCC2F3846223EA0C038A4080
:1021B00013430363206802F0ADFD8246206802F0FD
:1021C000A5FD5AEA00003CD1AA6829682068B2F14E
:1021D000004F37D002F0AEFD2068416921F0004188
:1021E000416120686969C268C2F3C102520091402E
:1021F0002A69042A31D000EB82002B68026EDFF8D6
:1022000070C303F0F84302EA0C020B431A4342F096
:102210000041016620682A69A96900EB8200026E0C
:1022200022F080720A430266297F20682A69012908
:1022300010D0002100EB8200026E22F000720A43EF
:1022400002667DE0002202F075FD2068416941F0E0
:102250000041C5E74FF00071ECE7002102F050FDAE
:10226000400320684FF0000172D002F049FD90FA5F
:10227000A0F0B0FA80F1286842036ED090FAA0F086
:10228000B0FA80F0814204D100221146206802F0A9
:1022900060FD0121206802F033FD400320684FF00B
:1022A00001015DD002F02CFD90FAA0F0B0FA80F1AF
:1022B0002868420359D090FAA0F0B0FA80F0814229
:1022C00004D100220121206802F043FD0221206890
:1022D00002F016FD400320684FF0020148D002F0E2
:1022E0000FFD90FAA0F0B0FA80F12868420344D0C4
:1022F00090FAA0F0B0FA80F0814204D100220221CD
:10230000206802F026FD0321206802F0F9FC40035A
:1023100020684FF0030133D002F0F2FC90FAA0F0F5
:10232000B0FA80F1286842032FD090FAA0F0B0FAFA
:1023300080F0814204D100220321206802F009FDCF
:102340002068816811F0010F22D0ABE000E004E0CA
:1023500002F0D6FCC0F384618DE7C0F3846091E79E
:1023600002F0CEFCC0F38461A2E7C0F38460A6E76C
:1023700002F0C6FCC0F38461B7E7C0F38460BBE73A
:1023800002F0BEFCC0F38461CCE7C0F38460D0E708
:102390002A7B296850F8B03FC1F3120C23EA0C03E2
:1023A00002F0180C734A22FA0CF20A40134303603D
:1023B000E968414576D1286841031BD090FAA0F125
:1023C000B1FA81F1491C01F01F0109294FEA40319E
:1023D00031D8002911D090FAA0F1B1FA81F100BFF3
:1023E00001F1010101F01F0106FA01F608D1C0F365
:1023F000846109E0C0F38461E4E7C0F38461EFE73E
:1024000090FAA0F1B1FA81F101F1010101F01F018F
:1024100046EA816102D1C0F3846003E090FAA0F043
:10242000B0FA80F000F1010000F01F0000EB400066
:1024300041EA005132E000290ED090FAA0F1B1FA41
:1024400081F100BF01F1010101F01F0106FA01F65F
:1024500005D1C0F3846106E0C0F38461F2E790FA2D
:10246000A0F1B1FA81F101F1010101F01F0146EA89
:10247000816102D1C0F3846003E090FAA0F0B0FA69
:1024800080F000F1010000F01F003B4A00EB40002B
:1024900002EB005041EA000141F00071AA68206897
:1024A00002F048FC35482B6803423FF467AE2168D0
:1024B0004FF0A04C324D3348334E614501D0A94214
:1024C00001D1024600E032469268DFF8C08002F097
:1024D000E072434503D0DFF8B880434521D15FEA7D
:1024E00002281ED4614506D02A4B99427FF446AE9D
:1024F000A94200D0304642F40001826822F0E07226
:102500000A438260244825490068B0FBF1F0401C72
:1025100000EB4000800000E0401E00900028FBD14E
:102520002CE6DFF87C8043450DD15FEAC2180AD45F
:10253000A942F5D01B4B9942F2D0614500D03046FC
:1025400042F080710CE0DFF860804345E8D153022F
:10255000E6D4A942E4D0614500D0304642F480017F
:10256000826822F0E0720A43826007E600007F4042
:1025700000F0FF03FFFF0700000020FE00000880BE
:10258000000100500003005000070050000021C36C
:102590001000C0900006005010000020400D030005
:1025A000000052C700050050000084CB064A0121FC
:1025B000904201D1054A1172054A904202D1034866
:1025C0000C300172704700007000002054000020A1
:1025D000DC000020704700002DE9F84F0446006839
:1025E000066845684FF0A048DFF89092404501D05A
:1025F000484501D1A24800E0A248806800F01F07CA
:10260000B0070ED5A8070CD5E06DC00603D4E06D69
:1026100040F40060E0652046FFF7E2FC21680220FC
:102620000860DFF864B2DFF864A2700701D56807BC
:1026300003D430073FD528073DD5E06DC00603D44D
:10264000E06D40F40070E065206802F06BFB60B361
:102650002068484501D1424604E0584501D1524620
:1026600000E00246824208D03FB1052F05D0092F75
:1026700003D0484503D1414606E0C16805E058450E
:1026800001D1514600E00146C96889040DD40168B2
:1026900009070AD502F03EFB58B3E06D40F0100088
:1026A000E065206E40F0010020662046FFF77EFFC7
:1026B00021680C200860B00601D5A80603D4700676
:1026C0005FD568065DD5E06DC00603D4E06D40F4CB
:1026D0000050E0652068C16C11F4C07F1AD0002161
:1026E000009102F01FFB02462068484514D1434682
:1026F00017E02068416821F00C014160E06D20F492
:102700008070E065E06DC004CFD4E06D40F0010062
:10271000E065CAE70121E3E7584501D1534600E0EF
:102720000346834208D03FB1062F05D0072F03D0C0
:10273000484503D1414606E0C16805E0584501D14E
:10274000514600E00146C968009BA3B18B0102D548
:102750008AB18A040FD4026852060CD589020AD4C1
:1027600002F0D4FAF0B3E06D40F01000E065206EA6
:1027700040F0010020662046FFF733FC216860200E
:10278000086030060BD5280609D5E06D40F480308E
:10279000E065204600F096F9216880200860F00589
:1027A0000CD5E8050AD5E06D40F40030E065204620
:1027B000FFF719FC21684FF480700860B0050CD554
:1027C000A8050AD5E06D40F48020E0652046FFF7BB
:1027D0000BFC21684FF400700860F00631D5E80664
:1027E0002FD500E009E0E06BE8B12068EFB3404589
:1027F00001D0484512D1224811E02068416821F0FB
:1028000060014160E06D20F48050E065E06DC0053E
:10281000B1D4E06D40F00100E065ACE71948806894
:1028200000F4604050B1E06D40F48060E065206EDF
:1028300040F0020020662046FFF7CCFE2168102001
:102840000860700517D5680515D5E06D40F4804027
:10285000E065206E40F00800206621684FF480603B
:1028600008602046BDE8F84F00E001E0FFF7BABB82
:10287000C068C007D6E7BDE8F88F0000000100502F
:1028800000030050000700500005005000040050F5
:10289000F8B54FF0000604003546009602D0E06D12
:1028A00010B107E00120F8BD204600F00DF92566C3
:1028B00084F8585020688168C1F3407119B181686B
:1028C000744A1140816020688168C1F3007189B940
:1028D0008168714A114041F0805181606F487049B0
:1028E0000068B0FBF1F04000801C00E0401E00904A
:1028F0000028FBD120688168C1F3007141B9E16D06
:1029000041F01001E165216E41F0010121660126CF
:1029100002F000FA0546E06D00F01001E06D294379
:1029200005D040F01000E06501263046F8BD20F4E7
:10293000807040F00200E0652068816811F0010FAE
:1029400027D14FF0A043574A984201D0904204D17A
:102950009968976801F001010AE053498968534F6B
:1029600001F00101BF6807F001073943504FBF680C
:1029700007F0010739430CD1984201D0904201D1B0
:102980004C4800E04C486168826822F47C120A439B
:102990008260E168E06B627F0843A16841EA4231EE
:1029A000084394F8241040EA0140012904D1218D04
:1029B000424A02EB41410843E16A29B101F47871CE
:1029C000226B014342EA01002168CA683C4B1A406D
:1029D0000243CA6020680169626B21F040611143C3
:1029E0000161206802F092F905432ED1207F94F80E
:1029F0003810800340EA41012068C26844F20203B3
:102A00009A430A43C26020690028206801690AD0FD
:102A100041F480310161206850F8C01F22696FF3D2
:102A20000D01114307E021F480310161206850F865
:102A3000C01F6FF30D01016094F8400001280CD015
:102A40002068016921F001010161606901282068A5
:102A5000016B21F00F0111D013E0D4E911010843FB
:102A6000D4E913121143084321680A6940F2FC7348
:102A70009A43104340F001000861E6E7226A521EC3
:102A800011430163E06D20F0020040F00100E065B9
:102A90004BE70000C0FFFF5FC0FFFF7F100000207A
:102AA000400D0300000100500004005000050050DC
:102AB0000006005000030050000700500000FEFF19
:102AC0000740F0FF704700002DE9F04F9BB006462D
:102AD000142115A8FDF719FD54216846FDF715FDD1
:102AE0004FF40040316800258203464F464C4FF0BA
:102AF00003084FF080094FF4007A4FF4006BB1F1F6
:102B0000A04F10D0414B99424AD100901192684693
:102B100000F030FC08B1FFF761FA3868401C3860FB
:102B2000012840D047E000901192684600F022FC56
:102B300008B1FFF753FA3868401C3860012807D104
:102B4000E06C40F40050E064E06C00F400501A9037
:102B5000E06C40F00100E064E06C179500F00100CB
:102B60001A900420CDE9150815A94FF0904000F007
:102B7000DFF9284C264801C40520E4E8020520209E
:102B8000A4E8200E64E80705224834E074650022BA
:102B900011461220A66200F055FB122000F044FB03
:102BA0001BB0BDE8F08FE06C40F40050E064E06CD6
:102BB00000F400501A90E06C40F00100E064E06C1A
:102BC000179500F001001A900220CDE9150815A90B
:102BD0004FF0904000F0ACF90E4C0D4860341438C2
:102BE00001C42420E4E802052020A4E8200E64E8C3
:102BF00007050848603000F0E1F80028C6D0FFF76C
:102C0000EDF9C3E700000020001002400001005071
:102C1000440002404801002010B5002140B190F866
:102C200025300122022B05D00421C163012124E0BB
:102C3000012010BD03681C6824F001041C600368B7
:102C40001C6824F00E041C60836C1C6824F48074DF
:102C50001C6090F84430046C03F01F0302FA03F385
:102C60006360D0E913345C60436D33B11C6824F4B5
:102C700080741C60D0E916345C6080F82520002246
:102C800080F82420084610BD70B590F82520002457
:102C900001212346022A07D00422C26380F82510AE
:102CA00080F82430012429E00268156825F0010528
:102CB00015600268156825F00E051560826C1568B0
:102CC00025F48075156090F84420056C02F01F0211
:102CD00001FA02F26A60D0E913255560426D32B103
:102CE000156825F480751560D0E91625556080F8C3
:102CF000251080F82430816B01B18847204670BDD3
:102D0000F0B4016C0C6801680D6890F8442002F082
:102D10001F06042202FA06F3234211D06B070FD5D7
:102D20000B689B0603D40B6823F004030B6090F838
:102D3000441001F01F018A40016C4A60016B1DE0E4
:102D4000022303FA06F727424FF0000C4FF001026E
:102D500018D0AF0716D50C68A40605D40C6824F06B
:102D60000A040C6080F8252090F8441001F01F013F
:102D70008B40016C4B6080F824C0C16A00291AD0D6
:102D8000F0BC08470823B340234214D02B0712D5C8
:102D90000B6823F00E030B6090F84410036C01F0F5
:102DA0001F0102FA01F15960C26380F8252080F802
:102DB00024C0416BE2E7F0BC7047000070B504002E
:102DC0000CD02C4A21681420914209D22A4A0A4484
:102DD000B2FBF0F08000606428480AE0012070BD7A
:102DE000244A52420A44B2FBF0F080006064214859
:102DF00008382064022084F825000A6847F6F0703D
:102E00008243D4E902031843D4E904352B43184321
:102E1000A3691843E3691843236A18431043086001
:102E20002046FFF783F8A0680025B0F5804F00D159
:102E300065602079A16C00F07F000860D4E913017F
:102E400041606068401E032808D82046FFF792F8CA
:102E5000606D0560D4E91601416002E06565A56515
:102E6000E565E563012084F8250084F824500020FE
:102E700070BD000008040240F8FFFDBF00000240E2
:102E800070B5044690F82400002501280CD00120DC
:102E900084F8240094F825600020012E06D084F8E0
:102EA00024000225284670BD022070BD022684F849
:102EB0002560E0632068066826F00106066020466B
:102EC000FFF76CF8206B00282068016802D041F001
:102ED0000E0106E021F0040101602068016841F064
:102EE0000A010160A06C0168C90303D5016841F4BF
:102EF00080710160606D18B1016841F480710160FA
:102F00002068016841F001010160CBE770B504461B
:102F100000F032F90546601C02D0044840680444C1
:102F200000F02AF9401BA042FAD370BD0400002033
:102F30002DE9F04FDFF80C92002301260325A9F1BB
:102F4000040B85B00F2709F1040AABF1040EF1E080
:102F500006FA03FC12EA0C027ED00C7904F003049A
:102F6000012C01D0022C20D1846800945C0005FA69
:102F700004F80494009C24EA08040094D1F80C801E
:102F8000049C08FA04F8009C48EA0408C0F8088089
:102F9000446824EA0C0491F804C0CCF3001C0CFA39
:102FA00003FC4CEA040CC0F804C00C79E443A40709
:102FB00002D18C68012C0ED0C4684FEA430805FA90
:102FC00008FC24EA0C04D1F808C00CFA08FC4CEA0E
:102FD000040CC0F80CC00C7904F00304022C16D1C8
:102FE000DC0800EB840CCDF808C0DCF820C05C07DE
:102FF0004FEAD46807FA08F42CEA040C0C6904FAC6
:1030000008F444EA0C04DDF808C0CCF82040046859
:103010004FEA430805FA08FC24EA0C0491F804C0BE
:103020000CF0030C0CFA08FC4CEA040CC0F800C0CD
:103030004C6814F4403F7CD0434CD4F860C04CF052
:10304000010CC4F860C0246E23F0030C04F00104EA
:1030500000943E4C644400E06BE00294A4684FEAA4
:10306000837C4FEA1C7807FA08FC24EA0C04B0F1D0
:10307000904F06D0DFF8D8C0604505D14FF0010C65
:1030800020E04FF0000C1DE0DFF8C8C0604502D121
:103090004FF0020C16E0DFF8C0C0604502D14FF0DF
:1030A000030C0FE0DFF8B4C0604502D14FF0040C10
:1030B00008E0DFF8ACC0604502D14FF0050C01E03C
:1030C0004FF0060C0CFA08FC4CEA040C029CC4F805
:1030D00008C0D9F80040CC46D1F8048094435FEA98
:1030E000C82800D51443CCF80040DAF80040D44694
:1030F000D1F8048094435FEA882800D51443CCF8C3
:103100000040DBF80040DC46D1F8048094435FEADD
:10311000883800D51443CCF80040DEF80040F4466F
:10312000D1F8048094435FEAC83800D51443CCF842
:1031300000405B1C0C682246DC407FF409AF05B000
:10314000BDE8F08F0804014000100240000001407B
:103150000004004800080048000C00480010004827
:10316000001400480069084000D0012070470AB1EF
:103170008161704781627047014880687047000034
:103180000400002002488168426811448160704751
:103190000400002010B50024032000F073F80F2075
:1031A00000F008F808B1012401E000F025F82046FD
:1031B00010BD000070B50E4E05460024706898B131
:1031C0004FF47A71B1FBF0F00A490968B1FBF0F0F5
:1031D00000F00BFF40B9102D06D200222946501EE8
:1031E00000F030F8356000E00124204670BD00009A
:1031F00004000020100000200A4882B0016E41F057
:1032000001010166016E01F001010091816D41F043
:1032100080518165806D00F08050009002B000F018
:10322000A1B8000000100240002809DB00F01F02D6
:10323000012191404009800000F1E020C0F8001118
:1032400070470000F0B40E4B1B680C46C3F302231A
:10325000C3F10705042D00D90425191D072901D242
:10326000002300E0DB1E012606FA05F1491E21407D
:1032700099409E40761E16403143F0BC02F0E7BCF8
:103280000CED00E0064900F0070208684FF6FF0366
:10329000184040EA0220034A1043086070470000CB
:1032A0000CED00E00000FA052B492C4B0A68322196
:1032B0004A432B4940B1B0F5007F086829D020F47B
:1032C000C06040F480602CE00868C0F34120022810
:1032D00004D051F8800F20F4807022E0D1F88000F3
:1032E00020F48070C1F88000086820F4C06040F4C9
:1032F00000700860B2FBF3F0401C00E0401E4A6919
:10330000520501D50028F9D1486940050AD50320A6
:103310007047C0F34120022806D051F8800F40F4D6
:103320008070086000207047D1F8800040F4807001
:10333000C1F88000086820F4C06040F400700860A4
:10334000B2FBF3F0401C00E0401E4A695205DBD599
:103350000028F9D1D8E700001000002040420F00FB
:10336000007000400248816841F4804181607047EC
:10337000007000402DE9F843044600680026BB4D6C
:1033800000035ED5A86D0027C00008D4A86D40F0EA
:103390008050A865A86D012700F080500090DFF8EC
:1033A000D092D9F8001041F48071C9F80010FFF7ED
:1033B000E3FE804606E000BFFFF7DEFEA0EB08005C
:1033C00002282BD8D9F80000C005F5D5D5F8900013
:1033D00010F4407014D0216D814211D0D5F89000C6
:1033E000D5F8901020F4407041F48031C5F8901069
:1033F000D5F8901021F48031C5F89010C5F89000F0
:10340000C00711D0FFF7B8FE804641F2883907E0C7
:10341000FFF7B2FEA0EB0801494501D903260BE0F6
:10342000D5F890008007F3D5D5F89000216D20F4F1
:1034300040700843C5F890001FB1A86D20F080507F
:10344000A8652078C00707D0D5F88800616820F00B
:1034500003000843C5F888002078800707D5D5F811
:103460008800A16820F00C000843C5F88800207887
:10347000400707D5D5F88800E16820F03000084300
:10348000C5F888002078000707D5D5F8880021699D
:1034900020F0C0000843C5F888002078C00607D592
:1034A000D5F88800616920F440700843C5F88800A9
:1034B0002078800607D5D5F88800A16920F44060FF
:1034C0000843C5F888002078400607D5D5F888005D
:1034D000E16920F440500843C5F8880020780006D0
:1034E00007D5D5F88800216A20F440400843C5F884
:1034F00088002088C00507D5D5F88800616A20F4C7
:1035000040300843C5F888002068800307D5D5F807
:103510009C00A16A20F003000843C5F89C002088A5
:10352000800507D5D5F88800E16A20F440200843DB
:10353000C5F88800208840050FD5D5F88800216B94
:1035400020F440100843C5F88800206BB0F5801FB8
:1035500003D1E86840F48010E860208800050FD5AA
:10356000D5F88800616B20F440000843C5F8880056
:10357000606BB0F5800F03D1E86840F48010E8601C
:103580002088C0040FD5D5F88800A16B20F04070CA
:103590000843C5F88800A06BB0F1807F03D1E868CC
:1035A00040F48010E86020884FF0006180040ED560
:1035B000D5F88800E26B20F040601043C5F8880021
:1035C000E06B884203D1E86840F48010E86020880E
:1035D00040040ED5D5F88800226C20F040601043DE
:1035E000C5F88800206C884203D1E86840F4801058
:1035F000E860208800040FD5D5F88800616C20F0C1
:1036000040500843C5F88800606CB0F1805F03D17A
:10361000E86840F48030E8602068C0030FD5D5F832
:103620008800A16C20F040400843C5F88800A06CD9
:10363000B0F1804F03D1E86840F48030E860206842
:1036400040030FD5D5F89C00E16C20F440100843EE
:10365000C5F89C00E06CB0F5001F03D1E86840F4A9
:103660008010E8603046BDE8F8830000001002409A
:10367000007000402DE9F0470E4605004FF00007AE
:1036800025D0DFF8AC81D8F8000000F00F00B04280
:103690000CD2D8F8001021F00F013143C8F8001007
:1036A000D8F8000000F00F00B04210D12968614C3A
:1036B000C80741F2883A5AD06868DFF87C9103283D
:1036C00008D0022820682DD0400500282CDB0120DE
:1036D000BDE8F08720688001F9D5E06800F00302BA
:1036E000E068C0F30310401C032A19D0534A00BFFE
:1036F000B2FBF0F0E268C2F306225043E268C2F384
:103700004162521C5200B0FBF2F0484517D9A06844
:1037100010F0F00F0CD0880711D5A86840B10EE06A
:10372000474AE5E78003D0E700F0B6F8484506D9F8
:10373000A06820F0F00040F08000A0608027A06822
:10374000696820F003000843A060FFF715FD81467B
:1037500006E000BFFFF710FDA0EB090151453AD884
:10376000A068696800F00C00B0EB810FF2D1286806
:10377000810714D5400703D5A06840F4E060A0603D
:103780002878000705D5A06820F4605040F4E06078
:10379000A060A068A96820F0F000084304E0802F32
:1037A00003D1A06820F0F000A060D8F800104046D7
:1037B00001F00F01B14216D9016821F00F01314328
:1037C0000160FFF7D9FC074607E000BFFFF7D4FC14
:1037D000C11B514501D903207AE7D8F8000000F059
:1037E0000F00B042F2D12878400705D5A068E968FB
:1037F00020F4E0600843A0602878000706D5A068A0
:10380000296920F4605040EAC100A06000F044F84B
:10381000A1680C4AC1F30311515C01F01F01C840BB
:103820000949086009480068BDE8F047FFF7C2BCD5
:10383000002002400010024000B4C4040024F40040
:1038400000366E013E5D00081000002004000020DC
:103850000548064900688968054AC1F30221515CA0
:1038600001F01F01C8407047100000200010024006
:103870004E5D00080548064900688968054AC1F39D
:10388000C221515C01F01F01C840704710000020A8
:10389000001002404E5D0008184910B58868C0F35A
:1038A00081021748012A0BD08A68164BC2F38102A5
:1038B000022A06D08A68C2F38102032A03D00020BC
:1038C00010BD184610BDCA6802F00304CA68C2F3EE
:1038D0000312521C032C02D0B0FBF2F001E0B3FB48
:1038E000F2F0CA68C968C2F306225043C1F34161CD
:1038F000491C4900B0FBF1F010BD0000001002406F
:103900000024F40000366E012DE9F84304007AD05B
:103910002078F84DC00747D0A868E96800F00C008F
:1039200001F003010C2802D0082817D001E0032978
:1039300014D06068B0F5803F17D0B0F5A02F28688C
:1039400017D020F480302860286820F48020286078
:103950006068E0B1FFF710FC064614E028688003B9
:1039600022D560680028D2D01EE0286840F480305C
:10397000EDE740F480202860F7E700BFFFF7FCFB8D
:10398000801B642870D828688003F7D50CE0FFF707
:10399000F3FB064605E000BFFFF7EEFB801B642843
:1039A000F0D828688003F7D4207880074CD5A86821
:1039B000E96800F00C0001F003010C2802D0042893
:1039C0000DD001E002290AD0E068002828682BD039
:1039D00040F480702860FFF7CFFB064619E02868A6
:1039E000400502D5E068002891D06868217C20F06D
:1039F000FE4040EA01606860BF480068FFF7DAFBFC
:103A0000002800D120E072E1FFF7B6FB801B0228FE
:103A1000B8D828684005F7D56868217C20F0FE40BA
:103A200040EA016068600FE020F480702860FFF7D2
:103A3000A3FB064605E000BFFFF79EFB801B0228A4
:103A4000A0D828684005F7D42078000729D56069F8
:103A50000028D5F8940013D040F00100C5F8940078
:103A6000FFF78AFB064606E090E000BFFFF784FB05
:103A7000801B022886D8D5F894008007F6D510E080
:103A800020F00100C5F89400FFF776FB064604E03D
:103A9000FFF772FB801B022878D8D5F894008007C6
:103AA000F6D42078400761D5A86D0026C00008D460
:103AB000A86D40F08050A865A86D012600F08050E8
:103AC00000908E480168C90511D40168804641F410
:103AD00080710160FFF750FB074604E0FFF74CFBE5
:103AE000C01B022852D8D8F80000C005F6D5A0683F
:103AF000012815D00528D5F8900016D020F0010037
:103B0000C5F89000D5F8900020F00400C5F89000AA
:103B1000A06841F28838B8B1FFF72EFB07460EE0E7
:103B2000D5F8900040F00100F0E740F00400C5F83F
:103B30009000F5E7FFF720FBC11B414526D8D5F8DB
:103B400090008007F6D50CE0FFF716FB074604E06F
:103B5000FFF712FBC11B414518D8D5F8900080072C
:103B6000F6D41EB1A86D20F08050A865207880069C
:103B700029D5A0690028D5F8980013D040F001009D
:103B8000C5F89800FFF7F8FA064606E075E000BFB2
:103B9000FFF7F2FA801B02286FD8D5F8980080074B
:103BA000F6D510E020F00100C5F89800FFF7E4FA20
:103BB000064604E0FFF7E0FA801B02285DD8D5F83E
:103BC00098008007F6D4E069F0B3A968C1F38101D9
:103BD00003295DD00228286820F08070286003D077
:103BE000FFF7CAFA04464BE0FFF7C6FA064604E0C0
:103BF000FFF7C2FA801B02283FD828688001F7D45B
:103C0000F4E908016FF00F0202EB01110843218A69
:103C10005204490802EB4151A26841EA02210843DB
:103C2000217D4FF07E42490802EB41610843217B30
:103C300040EAC160E968324A11400843E8602868F8
:103C400040F08070286000E05EE0E86840F080703E
:103C5000E860FFF791FA044605E000BFFFF78CFA31
:103C6000001B022809D828688001F7D54CE000BF66
:103C7000FFF782FA001B022802D90320BDE8F8836F
:103C800028688001F4D4E8681E490840E8603BE0F9
:103C90000128F3D0E868226A00F00301914226D19E
:103CA000616A00F0F0020901103991421FD1A26A45
:103CB00000F4FE41B1EB022F19D194F82C2000F052
:103CC0007841B1EBC26F12D1218E00F4C0024908D5
:103CD0004905A1F50011914209D194F8341000F082
:103CE000C06049084906A1F1007181420CD0012051
:103CF000C4E70000001002400400002000700040F3
:103D00000C809F01FCFFEEFE0020B7E770B50400B9
:103D100009D0606A002540B125616561A56294F80B
:103D20005D0040B10CE0012070BD6068B0F5827F9D
:103D3000F4D0E561F2E784F85C50204600F05CF8CE
:103D4000022084F85D002068016821F040010160D4
:103D5000E1684FF4E062914201D9002001E04FF4A4
:103D60008050B1F5706F02D0914200D0A562A18859
:103D7000228901F4827102F404421143227C02F090
:103D800002021143227D02F001021143228B02F450
:103D900000721143227F02F03802114394F8202070
:103DA00002F080021143228D02F400521143226876
:103DB0001160A169042202EA114194F8242000F460
:103DC000805002F01002114394F8342002F00802EF
:103DD0001143A28902F470621143014320684160DB
:103DE0002068C16921F40061C1612566012084F861
:103DF0005D00002070BD000010B586B0044614219F
:103E00006846FCF782FB1249206888421ED111489F
:103E1000016E41F400410166016E01F4004105911B
:103E2000C16C41F01001C164C06C694600F0100023
:103E30000590442000900220019000200290032071
:103E40000390052004900448FFF772F806B010BDF7
:103E5000003C014000100240001000482DE9F84FDE
:103E6000984616468A460446FFF786F9814694F836
:103E70005D00012820D1BAF1000F6FD0002E6DD067
:103E800094F85C00012817D0012784F85C700320A7
:103E900084F85D0000252566C4F838A0A687E6876B
:103EA0002564A4F84450A4F846502565E564A0684C
:103EB000B0F5004F03D00CE00220BDE8F88F206879
:103EC000016821F0400101602068016841F48041EF
:103ED000016020680168490603D4016841F040018F
:103EE0000160E068B0F5E06F606826D908B1012E86
:103EF0001FD1A06B21680088C86006E02068816837
:103F0000890709D5A16B0988C160A06B801CA063DB
:103F1000E08F401EE0870CE0FFF72EF9A0EB0901CF
:103F2000414503D3B8F1FF3F03D04BE0B8F1000F98
:103F300048D0E08F0028E1D139E008B1012E33D11B
:103F4000E08F0128A06B03D921680088C86010E0C9
:103F500021680078087314E0E08725E043E02068DA
:103F60008168890713D5E18F0129A16B07D90988D9
:103F7000C160A06B801CA063E08F801EECE7097815
:103F80000173A06B401CA063E08F401EE4E7FFF7C5
:103F9000F3F8A0EB0901414503D3B8F1FF3F03D08B
:103FA00010E0B8F1000F0DD0E08F0028D7D14A46BD
:103FB0004146204601F0C3F808B120202066A068E1
:103FC00030B109E084F85D7084F85C50032074E738
:103FD0002068C1688068009084F85D7004F85C5FB8
:103FE00060680028F3D0012067E710B5401EB0F1EB
:103FF000807F01D3012010BD4FF0E02460610F21CC
:10400000601701F024FE0020A0610720206100203D
:1040100010BD704770477047704770477047000089
:10402000F0B590F83C20012A43D0012580F83C509F
:10403000022280F83D2003685A689C681E4E1F4F7C
:10404000DFF87CC0B34203D0BB4201D0634504D14A
:1040500022F4700E4A6842EA0E02DFF868E002EAD3
:104060000E02D1F800E04EEA020EC3F804E0026846
:10407000B24212D0B2F1804F0FD0134B9A420CD003
:10408000124B9A4209D0124B9A4206D0BA4204D03F
:10409000104B9A4201D0624504D1896824F0800314
:1040A0001943916080F83D50002180F83C1008468B
:1040B000F0BD0220F0BD0000002C014000340140A2
:1040C000005001408FFFFFFD000400400008004049
:1040D000000C004000400140704710B5040003D0C0
:1040E00094F83D0010B107E0012010BD002084F8D5
:1040F0003C00204600F022F8022084F83D00211DFB
:10410000206801F053F9012084F8480084F83E004B
:1041100084F83F0084F8400084F8410084F84200AD
:1041200084F8430084F8440084F8450084F846008D
:1041300084F8470084F83D00002010BD08B5114AFE
:1041400001681148914208D1816D41F010018165EB
:10415000806D00F01000009008BD0C4A9142FBD128
:10416000016E41F480210166006E002200F480207F
:10417000009011461A20FFF765F8BDE808401A20A4
:10418000FFF752B800100040001002400048014004
:1041900090F83D10012901D001207047022180F8DC
:1041A0003D100168CA6842F00102CA600068134904
:1041B000884214D0B0F1804F11D0114988420ED0FE
:1041C000104988420BD01049884208D00F498842D4
:1041D00005D00F49884202D00E49884207D1816834
:1041E0000D4A1140062906D0B1F5803F03D0016881
:1041F00041F001010160002070470000002C0140E7
:104200000004004000080040000C00400034014061
:1042100000400140005001400700010070472DE9B7
:10422000F04104460068C66805694FF00007A90719
:1042300013D5B10711D5F91E01610120207720683F
:1042400080698007204602D0FFF7E8FF04E000F015
:10425000B7F8204600F0B5F82777680716D570073D
:1042600014D521686FF004000861022020772068CF
:10427000806910F4407F204602D0FFF7CFFF04E0B2
:1042800000F09EF8204600F09CF82777280715D507
:10429000300713D521686FF00800086104202077EB
:1042A0002068C0698007204602D0FFF7B7FF04E00E
:1042B00000F086F8204600F084F82777E80616D547
:1042C000F00614D521686FF01000086108202077EF
:1042D0002068C06910F4407F204602D0FFF79EFF9F
:1042E00004E000F06DF8204600F06BF82777E8074F
:1042F00008D0F00706D021686FF001000861204661
:1043000000F060F8280601D4A80408D5300606D5C8
:1043100021686FF4025008612046FFF77BFEE80534
:1043200008D5300606D521686FF4807008612046F4
:10433000FFF76FFE680608D5700606D521686FF096
:1043400040000861204600F04BF8A80608D5B006EA
:1043500006D521686FF0200008612046FFF75BFE5C
:10436000E80208D5F00206D521686FF480100861D4
:104370002046FFF752FEA80208D5B00206D52168F4
:104380006FF4001008612046FFF746FE680208D56A
:10439000700206D521686FF4800008612046FFF79F
:1043A0003DFE28020AD5300208D521686FF40000CE
:1043B00008612046BDE8F041FFF78EBEBDE8F08100
:1043C00070477047054910B5884205D100F044FB9D
:1043D000BDE8104000F07EBB10BD0000B802002018
:1043E000704790F88410012918D0012180F88410BA
:1043F0002421C0F8881001680A680B6823F00103C3
:104400000B6022F0005100224266036819602021EF
:10441000C0F8881080F8842010467047022070474A
:1044200010B50446D0F88C00202801D0022010BD21
:1044300061B15AB10120E06600202067204601F0FA
:1044400049FB0028F3D1E16E012901D0012010BD04
:10445000226810211162226852E8001F41F0100109
:1044600042E80013002BF6D110BD0000084910B53A
:104470000A6882420AD1886806A102780448FDF7DA
:10448000ADFCBDE810400248FDF794BC10BD000033
:104490002800002052784D73673A202575200A00C5
:1044A000704770B5044690F8840001281DD00120A3
:1044B00084F884002420C4F8880020680568026815
:1044C00022F0010202602068826822F060620A43E2
:1044D0008260204600F0D8FF206805602020C4F8E4
:1044E0008800002084F8840070BD022070BD70B583
:1044F000044690F8840001281DD0012084F884002F
:104500002420C4F8880020680568026822F00102AF
:1045100002602068826822F060420A43826020467E
:1045200000F0B2FF206805602020C4F88800002059
:1045300084F8840070BD022070BD704770477047DA
:104540002DE9F04103680446D86919689A6840F675
:104550000F0528424FF000054FF002060AD18706EA
:104560007ED501F0200702F0805C57EA0C0777D077
:10457000616F42E1B64FDFF8DCC2174001EA0C0C74
:1045800057EA0C0C6CD05FEAC07C0CD05FEAC15CCF
:1045900009D54FF0010CC3F820C0D4F8903043F097
:1045A0000103C4F89030830709D5D30707D02368E7
:1045B0001E62D4F8903043F00403C4F890304307EF
:1045C0000AD5D30708D0266804233362D4F8903084
:1045D00043F00203C4F8903003070CD501F0200328
:1045E0003B4308D0266808233362D4F8903043F068
:1045F0000803C4F8903003050BD54B0109D5266894
:104600004FF400633362D4F8903043F02003C4F8D1
:104610009030D4F89030002B3DD0800609D501F0C1
:10462000200002F08051084303D0616F09B1204699
:104630008847D4F8900021688968490602D410F0B0
:10464000280F2AD0204601F0B7F82068806840067D
:104650001ED52068083050E8001F21F0400100E01E
:1046600021E040E80012002AF3D1D4F8800078B1AC
:1046700079498163D4F88000FEF706FB00280AD050
:10468000D4F88000816B00E02046BDE8F041084787
:104690002046FFF754FFBDE8F0812046FFF74FFFAB
:1046A000C4F89050F7E7D4F86CC02027BCF1010F94
:1046B0007ED15FEAC06C7BD55FEAC16C78D51020F3
:1046C000186220688068400651D5D4F880100A68C6
:1046D00050680004000C3ED0B4F85C3083423AD9F4
:1046E000A4F85E000868006880062CD4216851E8B0
:1046F000000F20F4807041E80002002AF6D1206803
:10470000083050E8001F21F0010140E80012002AA3
:10471000F5D12068083050E8001F21F0400140E842
:104720000012002AF5D1C4F88C70E566216851E8C2
:10473000000F20F0100041E80002002AF6D1D4F862
:104740008000FEF769FA2667B4F85C00B4F85E10E2
:10475000401A81B207E0B4F85C1081429BD1106826
:10476000800698D526672046FFF780FE93E7B4F8C9
:104770005C00B4F85E10401A81B2B4F85E00002804
:1047800089D0002987D0226852E8000F20F4907069
:1047900042E80003002BF6D12D4BDB4320680830A4
:1047A00050E8002F1A4040E8002CBCF1000F00E058
:1047B0000EE0F3D1C4F88C70E5666567206850E8B8
:1047C000002F22F0100240E80023002BF6D1C9E7A9
:1047D000C60209D5560207D54FF48010186220464C
:1047E000BDE8F041FFF7AABE03060AD501F0800339
:1047F00002F40002134304D0A16F00297FF444AFF8
:1048000049E7420611D54A060FD52046016851E80E
:10481000002F22F0400241E80023002BF6D1C0F81F
:104820008870856700F014F935E7020206D54A0062
:1048300004D52046BDE8F041FFF77FBEC00195D505
:10484000002993DA2046BDE8F041FFF729BE0000B9
:1048500001000010200100044156000810B50400BA
:1048600003D0D4F8880010B107E0012010BD00206B
:1048700084F88400204600F027F82420C4F888003B
:104880002068016821F001010160A06A10B1204692
:1048900000F01CFE204600F0D1FF0128E6D0206881
:1048A000416821F4904141602068816821F02A012B
:1048B00081602068016841F0010101602046BDE887
:1048C000104000F067BE0000F0B59BB00646142112
:1048D00015A8FBF71AFE54216846FBF716FE33496C
:1048E000306888425FD101200024CDE90004684689
:1048F000FEF740FD08B1FDF771FB2D48016E41F454
:1049000080410166016E01F480411A91C16C41F051
:104910000101C164C06C15A900F001001A904FF4A8
:10492000C06015900220CDE916040720CDE918409B
:104930004FF09040FEF7FCFA1F4D1E48802728607C
:104940001820C5E90104C5E9034720206C61C5E9C9
:10495000064028462C62FEF731FA08B1FDF73EFB0F
:10496000C6F88050AE62144D12486035143028608D
:104970001920686005F10801102081E891006C6140
:10498000AC61EC6128462C62FEF718FA08B1FDF71D
:1049900025FBF567002211462520AE62FEF752FC8A
:1049A0002520FEF741FC1BB0F0BD0000003801409F
:1049B0000010024008000240980300207047704732
:1049C00070B50446D0F88800202801D0022070BDC0
:1049D00039B332B32165A4F85420A4F8562000213D
:1049E000C4F890102120C4F88800E06FD8B1154BAE
:1049F000C362E36F14481863E36F14485863E06FB1
:104A0000134681632068E56F00F128022846216D76
:104A1000FEF736FA38B11020C4F890002020C4F810
:104A20008800012070BD216840200862206808309D
:104A300050E8001F41F0800140E80012002AF5D143
:104A4000002070BD6B570008AD5700084B5600089A
:104A500070477047FEE7000070B51C4D01212846E5
:104A6000FEF780FB1A4CB0B102212846FEF77AFB14
:104A7000B0B104212846FEF775FBB0B108212846E5
:104A8000FEF770FBB0B1618800200A2917D2608060
:104A90002070002070BD6088401C60800120F7E716
:104AA0006088401C60800220F2E76088401C6080C3
:104AB0000320EDE76088401C60800420E8E7608008
:104AC00020782829E6D340F0800070BD0008004817
:104AD0006C000020012805D0022805D103A1074859
:104AE000FDF77CB906A1FAE7704700004B45593243
:104AF00020505245535345442E0A00002800002000
:104B00004B45593120505245535345442E0A00001D
:104B10001CB5028BCDE900210022C38A114600F0AA
:104B200008F81CBD10B5029CC0E901120382448242
:104B300010BDF8B51C46DDE906670546009600F095
:104B400079F8002004E0E96921F81070401C80B277
:104B5000A042F8D34FF6FF70002700EA440406E0B5
:104B600022462846E96900F098F87F1CBFB2B74298
:104B7000F6D3F8BD2DE9F8430446007D089D1E4696
:104B80009046894630B1012804D0022807D0032876
:104B90000AD104E020680188E182408803E02068AF
:104BA0004188E18200882083204F0022202138465E
:104BB000FEF7DDFA012220213846FEF7D8FA05205B
:104BC000FEF7A4F9002208213846FEF7D0FA112298
:104BD0000121204600F066F80520FEF797F9207DB8
:104BE000134936220B5C0221204600F05BF8552366
:104BF0003A220221204600F055F8206801218288DF
:104C0000204600F04FF829220121204600F04AF802
:104C100033464246494620460095FFF783FF294622
:104C20002046BDE8F843FFF773BF000000100048BE
:104C300008650008FEB50646047D0768062000EBFF
:104C40004400385A089D084481B2C8180E2303EB6B
:104C50004403FB5A401E1A4494B2621980B2521E99
:104C600095B2020ACDE9001202900B0A2A22052110
:104C7000304600F017F8280ACDE900400295230AD3
:104C80002B220521304600F00DF803B03046BDE878
:104C9000F0402C22012100F005B8C0684FF6FF73E8
:104CA000FFF7DCB80FB4002170B5054606AAC46949
:104CB00005E000BF12F8040B6054491CC9B2059806
:104CC0008142F7D30D4E002210213046FEF74FFAF5
:104CD000012221462846FFF7E0FF0122102130463D
:104CE000FEF745FA0598401E059004D082B2611C7B
:104CF0002846FFF7D2FF70BC5DF814FB0010004897
:104D000000EB8100006E00F0F84070478068C0F34F
:104D1000C00070478068C0F3800070478068C0F3AF
:104D200080007047C06810F4406F01D000207047C9
:104D300001207047042303EAD15310B51844436996
:104D4000C1F3045107248C40A3438A4013434361B9
:104D500010BD00EB8100016E21F00041114301669E
:104D60007047000030B58BB00024089409942021CE
:104D700068460A94FBF7C9FB1E484FF0A041042582
:104D800001604FF44031C0E90114C4600461C0E91E
:104D90000545047744770121016280F824404FF4EF
:104DA000B461C1622902016380F83840C46380F8AD
:104DB0004040FDF76DFD08B1FDF710F908A90D4859
:104DC0000894FDF713F908B1FDF708F90A480090B7
:104DD0000620CDE901047F200594CDE9030569464D
:104DE0000448FDF7B1F9002801D0FDF7F7F80BB042
:104DF00030BD0000700000200800900C30B589B074
:104E000020216846FBF781FB1B481A4900240160FA
:104E10004FF44031C0E90114C46004250461C0E9C5
:104E20000545047744770121016280F824404FF45E
:104E3000B461C1622902016380F83840C46380F81C
:104E40004040FDF725FD08B1FDF7C8F80B4800907C
:104E50000620CDE901047F200594CDE903056946CC
:104E60000548FDF771F9002801D0FDF7B7F809B042
:104E700030BD000000010050DC000020040060088C
:104E8000194808B5816C41F004018164816C01F01E
:104E900004010091816C41F001018164806C002269
:104EA00000F00100009011460B20FEF7CBF90B201B
:104EB000FEF7BAF9002211460C20FEF7C3F90C20C8
:104EC000FEF7B2F9002211460D20FEF7BBF90D20C6
:104ED000FEF7AAF9002211460E20FEF7B3F9BDE84D
:104EE00008400E20FEF7A0B9001002402DE9F04165
:104EF00086B014216846FBF708FB2748C16C41F0D7
:104F00001001C164C16C01F010010591C16C41F048
:104F10000401C164C16C01F004010591C16C41F050
:104F20002001C164C16C01F020010591C16C41F008
:104F30000101C164C06C194F00F0010040F6B87463
:104F40000590002221463846FEF711F9DFF850801F
:104F50004FF46046012231464046FEF708F901252C
:104F6000CDE9004500240294694638460394FDF7D4
:104F7000DFFF0096CDE90154694640460394FDF7F2
:104F8000D7FF0F20CDE90004694640460294FDF7A3
:104F9000CFFF06B0BDE8F0810010024000100048CD
:104FA00000080048124810B5104901604FF48271A2
:104FB000416000214FF4E062C0E902124FF4007238
:104FC0000161C0E905120822C0E9072107234162F7
:104FD000C0E90A13C0E90C12FEF798FE002803D0BE
:104FE000BDE81040FCF7FABF10BD0000003C0140D6
:104FF000080200200C4810B50A490160A92141604F
:10500000002142F20F72C0E9021201614161816127
:10501000FFF763F8002803D0BDE81040FCF7DEBFBF
:1050200010BD000000480140B80200203EB5002439
:105030000E48009401940C490294C0E90014A9217F
:10504000C0E902418461FFF748F808B1FCF7C6FFE8
:1050500020200090694602940448FEF7E1FF0028F2
:1050600001D0FCF7BBFF3EBD001000406C020020E9
:10507000184810B5164901604FF4E1314160002134
:1050800081600C22C160C0E904128161C1610162CA
:1050900041628162FFF7E2FB08B1FCF79FFF00214C
:1050A0000C48FFF724FA08B1FCF798FF00210948E3
:1050B000FFF7F7F908B1FCF791FF0648FFF791F900
:1050C000002803D0BDE81040FCF788BF10BD0000E9
:1050D000003801400403002008B5002000904FF67E
:1050E000FF730A4A0A490B48FFF744FD09480C3888
:1050F000FCF760FE0848FFF74BF8064807A10C389C
:10510000FCF76CFEFCF78AFEFEE70000685D000815
:10511000585D000834000020B802002047343734BE
:105120005645543620554152543120436F6E6E65BA
:10513000637465642E0A0000FEE7FEE77047F8B569
:1051400015460E460B460092044600224FF4C0510D
:1051500000F01AF888B933460022802120460095D5
:1051600000F082F848B9334600224FF4C06120466F
:10517000009500F009F8002804D0206E40F02000CF
:1051800020660320F8BD00002DE9FE4F4FF0000A15
:10519000984617460E4604460C9D8DF804A0FDF770
:1051A000EBFF411BA8EB0105FDF7E6FF81462068F8
:1051B0004FF4C06B0C3002902A480068C0EBC0006E
:1051C00000EB8000000D6843009016E05E4506D1BC
:1051D0002FB9029800788DF804009DF80400B8F10A
:1051E000FF3F0AD0FDF7C8FFA0EB0900A8420CD290
:1051F0005DB1009898B3401E0090206880683040F0
:10520000B842E3D10020BDE8FE8F2068416821F05C
:10521000E00141606068B0F5827F0BD1A068B0F515
:10522000004F02D0B0F5806F04D12068016821F0F2
:1052300040010160A06AB0F5005F09D120680168F3
:1052400021F4005101602068016841F400510160BF
:10525000012084F85D0084F85CA00320D3E7FFE719
:105260000025CAE7100000202DE9F8431E469146AC
:1052700088460446089DFDF77FFF401B351AFDF761
:105280007BFF074626480068C0F3CB3068430AE03E
:10529000701C09D0FDF770FFC01BA8420FD275B17A
:1052A0000098B8B3401E00902068816838EA010079
:1052B00033D000214945EBD10020BDE8F8832068B8
:1052C000416821F0E00141606068B0F5827F0BD158
:1052D000A068B0F5004F02D0B0F5806F04D120680F
:1052E000016821F040010160A06AB0F5005F09D1BA
:1052F0002068016821F4005101602068016841F4D0
:1053000000510160012084F85D00002084F85C00F9
:105310000320D2E7FFE70025C6E70121CAE7000026
:10532000100000207047FDF72DBF10B594B0382154
:105330006846FBF7EAF814210EA8FBF7E6F8002010
:10534000FDF7B2FF01200090000403240621019024
:10535000CDE9084102206421CDE90A1007900C90A4
:105360000D906846FEF7D0FA08B172B6FEE70F203E
:10537000CDE90E04002010901190129004210EA887
:10538000FEF778F9002801D072B6FEE714B010BD20
:105390000248016841F470010160704788ED00E047
:1053A0000148FEF73CBF0000B80200202DE9F04F95
:1053B00002682C4B2C4E2D4FDFF8B4C02D4C2E4DD7
:1053C0004FF0804B98420BD0584509D0B04207D0DF
:1053D000B84205D0604503D0A04201D0A84204D114
:1053E00022F070084A6842EA0802DFF89080DFF88D
:1053F0009090DFF890A0984211D058450FD0B0425D
:105400000DD0B8420BD0604509D0A04207D040452E
:1054100005D0484503D0504501D0A84203D122F41D
:105420004076CA6832434E6922F0800232438E6869
:10543000C6620E688662984209D0A04207D04045F5
:1054400005D0484503D0504501D0A84201D1096993
:105450000163016841F004010160012141610260C2
:10546000BDE8F08F002C014000040040000800401F
:10547000000C004000340140005001400040014059
:10548000004401400048014030B5416EB9B10268A6
:1054900091689268C1F342610B4B520F9C5CE5002E
:1054A00003F10804A25CB5FBF2F2A0F86A205A5C92
:1054B000615CD200B2FBF1F1A0F8681030BD0121AF
:1054C000A0F86A10F8E700002E5D000890F8281098
:1054D000090706D501684A68836B22F400421A4323
:1054E0004A6090F82810C90706D001684A68C36A64
:1054F00022F400321A434A6090F82810890706D532
:1055000001684A68036B22F480321A434A6090F8BB
:105510002810490706D501684A68436B22F48022A7
:105520001A434A6090F82810C90606D501688A68AF
:10553000C36B22F480521A438A6090F828108906BF
:1055400006D501688A68036C22F400521A438A6007
:1055500090F82810490611D501684A68436C22F476
:1055600080121A434A60416CB1F5801F06D1016870
:105570004A68836C22F4C0021A434A6090F82810EB
:10558000090606D501684A68C06C22F4002202436D
:105590004A6070472DE9F84300260446C0F8906041
:1055A000FDF7EAFD8046206800684FF020050007FF
:1055B0006FF07E4713D5434600222904204600970A
:1055C00000F0DCFA58B1216851E8000F20F08000AB
:1055D00041E80002002AF6D1C4F8885021E0206892
:1055E0000068400722D5434600224FF48001204640
:1055F000009700F0C3FAC8B1216851E8000F20F409
:10560000907041E80002002AF6D12068083050E886
:10561000001F21F0010140E80012002AF5D1C4F872
:105620008C5084F884600320BDE8F883C4F8885067
:10563000C4F88C5044F86C6F666026760020F3E75F
:1056400010B5806AFEF77BFF10BD70B5846AD4F890
:105650008800D4F88C5021688968090604D521286F
:1056600002D1204600F0D2F820688068400604D5B8
:10567000222D02D1204600F09FF8D4F8900040F08F
:105680001000C4F890002046FEF759FF70BD70B5B9
:105690000146806A0A6812684FF0000392062DD412
:1056A000A0F85E30046854E8002F22F4807244E8C9
:1056B0000025002DF6D10268083252E8004F24F090
:1056C000010442E80045002DF5D10268083252E895
:1056D000004F24F0400442E80045002DF5D120227F
:1056E000C0F88C20C26E012A08D1046854E8002F4B
:1056F00022F0100244E80025002DF6D10367C26EA7
:10570000012A02D0FFF75AF970BDA0F85E3009688F
:105710004968B0F85C2089B28A4201D9A0F85E10CD
:10572000B0F85E10511A89B2FEF7A0FE70BD10B538
:105730000246806A01210167C16E012902D0FFF78C
:105740003EF910BDB0F85C104B08A0F85E3012684E
:10575000526892B2914201D3A0F85E20B0F85E2068
:10576000891A89B2FEF782FE10BD10B50146806A23
:1057700009680968890616D40021A0F85610016846
:10578000083151E8002F22F0800241E80023002B6D
:10579000F5D1026852E8001F41F0400142E80013D1
:1057A000002BF6D110BDFFF753F910BD10B5806A7C
:1057B000FFF74FF910BD000010B5026852E8001F56
:1057C00021F4907142E80013002BF6D10E4B0268D1
:1057D000083252E8001F194042E80014002CF6D1AC
:1057E000C16E012908D1016851E8002F22F0100292
:1057F00041E80023002BF6D12021C0F88C100021B5
:10580000C166416710BD0000FEFFFFEF026852E86D
:10581000001F21F0C00142E80013002BF6D10168FF
:10582000083151E8002F22F4000241E80023002B48
:10583000F5D12021C0F88810704700002DE9F04113
:105840000446016880682269E369104362690025A3
:105850001A431043DFF84CC20A68934B1A400243C4
:105860000A6020684168E26821F4405111434160B8
:105870002168A069614501D0226A10438A688B4B78
:105880001A4002438A602068C16A626A21F00F01EF
:105890001143C1628649236886488B420DD1D0F8F6
:1058A000880010F0030006D0012867D0022854D0E9
:1058B000032851D164E001204FE07F498B420BD196
:1058C000D0F8880010F00C0047D0042845D00828F4
:1058D00052D00C2840D153E078498B420BD1D0F8FC
:1058E000880010F0300038D0102847D0202843D04E
:1058F000302831D144E072498B420BD1D0F8880076
:1059000010F0C00029D0402838D0802834D0C028DA
:1059100022D135E06B498B420ED1D0F8880010F4CB
:1059200040701AD0B0F5807F28D0B0F5007F23D02A
:10593000B0F5407F10D123E063450DD1D0F8880049
:1059400010F4406009D0B0F5806F17D0B0F5006F4B
:1059500012D0B0F5406F13D010205B4A5B4F002689
:105960004FF40041634539D160B102280DD00428BD
:105970000DD0082831D10EE00220EEE70420ECE73C
:105980000820EAE7FDF764FF03E0114603E0FDF7B6
:1059900083FF01007BD0606A37F810206768B1FB95
:1059A000F2F007EB4703834269D8B0EB073F66D8B4
:1059B000002308461946FAF7D5FC090241EA1061AE
:1059C00002027808101871413A460023FAF7CAFC1F
:1059D0003F4AA0F54071914257D950E0E3694FF634
:1059E000EF788B422BD1092849D2DFE800F0050877
:1059F0000D48254848480E00FDF72AFF01E0FDF755
:105A000039FF010001D142E01146606A37F8100009
:105A1000B1FBF0F04100606801EB5001B1FBF0F127
:105A2000A1F1100040452AD84FF6F07201EA0200B9
:105A3000C1F34201084328E0FDF72EFFE1E7092802
:105A40001DD2DFE800F005080D1C1E1C1C1C0E00FA
:105A5000FDF7FEFE01E0FDF70DFF010001D116E0AC
:105A60001146606A37F81000B1FBF0F1606801EB95
:105A70005001B1FBF0F0A0F11001414504D901251E
:105A800005E0FDF709FFE8E780B22168C860012062
:105A9000A4F86A0024F8680F2846E6602661BDE88D
:105AA000F081000000800040F369FFCFFFF4FF1198
:105AB000003801400010024000440040004800400F
:105AC000004C0040005000400024F400165D000827
:105AD000FFFC0F0070B58165A0F85C200021044632
